:100000000C942A000C9476130C94A9130C94B91335
:100010000C9447000C9447000C9447000C94470044
:100020000C9447000C9447000C94020F0C94990E0A
:100030000C9447000C9447000C9447000C94470024
:100040000C942C190C9447000C9447000C94470016
:100050000C94470011241FBECFE5D8E0DEBFCDBF12
:1000600012E0A0E6B0E0ECE5F2E502C005900D92EA
:10007000AE38B107D9F712E0AEE8B2E001C01D9288
:10008000AE3AB107E1F70E94F8270C942C290C94A2
:100090000000EF92FF920F931F937B018C0120E0F1
:1000A00030E040E05FE40E94F50388238CF0C80153
:1000B000B70120E030E040E05FE40E94C1010E940F
:1000C000B3049B01AC01205030404040504806C072
:1000D000C801B7010E94B3049B01AC01B901CA0178
:1000E0001F910F91FF90EF900895A0E0B0E0EBE733
:1000F000F0E00C94F528DC012B01FA019C91923080
:1001000008F439C1EB018881823008F433C194309E
:1001100069F4843009F02FC111969C91119789815F
:10012000981709F428C1A5E9B0E025C1843009F485
:1001300021C18230A9F4923009F01DC19A01AD01AC
:1001400088E0EA010990AE01E90109929E0181501F
:10015000C1F7E201898111969C918923818308C1AD
:10016000923009F407C112962D903C901397EB0141
:100170008A819B811496AD90BD90CD90DC901797AD
:10018000EC80FD800E811F819101281B390BB90184
:1001900037FF04C066277727621B730B6032710537
:1001A0000CF061C0121613066CF537014801062EDB
:1001B00004C096948794779467940A94D2F721E0C8
:1001C00030E040E050E004C0220F331F441F551FB1
:1001D0006A95D2F721503040404050402E213F21B7
:1001E00040235123211531054105510521F021E01E
:1001F00030E040E050E079018A01E628F72808293C
:1002000019293CC0232BD1F1260E371E350146019A
:10021000062E04C096948794779467940A94D2F734
:1002200021E030E040E050E004C0220F331F441FC3
:10023000551F6A95D2F721503040404050402A2146
:100240003B214C215D21211531054105510521F04E
:1002500021E030E040E050E059016A01A628B728CB
:10026000C828D9280BC0821593052CF01C01AA249C
:10027000BB24650103C0EE24FF24870111969C91E5
:10028000D20111968C91981709F445C0992339F041
:10029000A80197012A193B094C095D0906C0A6016E
:1002A00095012E193F09400B510B57FD08C01182D3
:1002B0003382228224833583468357831DC081E0A5
:1002C00081833382228288279927DC01821B930B4A
:1002D000A40BB50B84839583A683B7830DC0220F2F
:1002E000331F441F551F24833583468357838281E0
:1002F000938101979383828324813581468157813D
:10030000DA01C9010197A109B1098F5F9F4FAF4F72
:10031000BF4328F30BC0918333822282EA0CFB1C7B
:100320000C1D1D1DE482F5820683178383E0808304
:10033000248135814681578157FF1AC0C901AA27F8
:1003400097FDA095BA2F81709070A070B0705695EF
:10035000479537952795822B932BA42BB52B848318
:100360009583A683B7838281938101969383828349
:10037000DF0101C0D201CD01CDB7DEB7E2E10C94BF
:100380001129A0E2B0E0E7ECF1E00C9401296983C7
:100390007A838B839C832D833E834F835887E9E048
:1003A000EE2EF12CEC0EFD1ECE010196B7010E943F
:1003B000A4068E010F5E1F4FCE010596B8010E9464
:1003C000A4068A8991E089278A8BC701B801AE010A
:1003D000475E5F4F0E9475000E94CF05A096E6E041
:1003E0000C941D29A0E2B0E0E8EFF1E00C940129A3
:1003F00069837A838B839C832D833E834F835887C5
:10040000F9E0EF2EF12CEC0EFD1ECE010196B701A6
:100410000E94A4068E010F5E1F4FCE010596B80103
:100420000E94A406C701B801AE01475E5F4F0E945B
:1004300075000E94CF05A096E6E00C941D29A0E26D
:10044000B0E0E5E2F2E00C94F52869837A838B83CF
:100450009C832D833E834F835887CE010196BE0136
:10046000675F7F4F0E94A406CE010596BE016F5EB6
:100470007F4F0E94A4069985923088F08989823046
:10048000C8F0943019F4823051F404C0843029F457
:10049000923081F485E990E0C6C0923049F420E0C2
:1004A0009A858A89981321E02A87CE010996BBC0D4
:1004B000823049F420E09A858A89981321E02A8BBA
:1004C000CE014196B0C02D843E844F8458886D88FB
:1004D0007E888F88988CEE24FF248701AA24BB2471
:1004E000650140E050E060E070E0E0E0F0E0C10174
:1004F00081709070892BE9F0E60CF71C081D191D1E
:100500009A01AB012A0D3B1D4C1D5D1D80E090E062
:10051000A0E0B0E0E614F7040805190520F481E036
:1005200090E0A0E0B0E0BA01A901480F591F6A1F8E
:100530007B1FAA0CBB1CCC1CDD1C97FE08C081E0F5
:1005400090E0A0E0B0E0A82AB92ACA2ADB2A3196B6
:10055000E032F10549F0660C771C881C991C569412
:10056000479437942794C3CFFA85EA892B893C892D
:100570008B859C85280F391F2E5F3F4F17C0CA01FE
:1005800081709070892B61F016950795F794E79428
:1005900080E090E0A0E0B0E8E82AF92A0A2B1B2BC3
:1005A00076956795579547952F5F3F4F77FDE7CF36
:1005B0000CC0440F551F661F771F17FD4160EE0CDE
:1005C000FF1C001F111F21503040403090E05907A0
:1005D00090E0690790E4790760F32B8F3C8FDB0193
:1005E000CA018F779070A070B07080349105A1051A
:1005F000B10561F447FD0AC0E114F10401051105DC
:1006000029F0405C5F4F6F4F7F4F40781A8EFE1786
:1006100011F081E08A8F4D8F5E8F6F8F78A383E01A
:10062000898FCE0149960E94CF05A096E2E10C94F5
:100630001129A8E1B0E0EFE1F3E00C94FD28698313
:100640007A838B839C832D833E834F835887B9E0C5
:10065000EB2EF12CEC0EFD1ECE010196B7010E948F
:10066000A4068E010F5E1F4FCE010596B8010E94B1
:10067000A4062985223008F47EC03989323010F46E
:10068000B8017CC08A859A8989278A87243011F02D
:10069000223031F4231709F06EC065E970E06EC0B6
:1006A000343039F41D861E861F86188A1C861B86E8
:1006B00004C0323021F484E08987B7015FC02B8504
:1006C0003C858B899C89281B390B3C872B87ED84C3
:1006D000FE840F851889AD88BE88CF88D88CEA142F
:1006E000FB040C051D0540F4EE0CFF1C001F111F40
:1006F000215030403C872B8720E030E040E050E044
:1007000080E090E0A0E0B0E460E070E0EA14FB0478
:100710000C051D0540F0282B392B4A2B5B2BEA18C2
:10072000FB080C091D09B695A79597958795EE0CC2
:10073000FF1C001F111F6F5F7F4F6F31710531F775
:10074000DA01C9018F779070A070B0708034910584
:10075000A105B10561F427FD0AC0E114F10401050A
:10076000110529F0205C3F4F4F4F5F4F20782D87B8
:100770003E874F87588BBE01675F7F4FCB010E943A
:10078000CF056896EAE00C941929A8E1B0E0EBECFB
:10079000F3E00C94012969837A838B839C832D83F6
:1007A0003E834F83588789E0E82EF12CEC0EFD1E26
:1007B000CE010196B7010E94A4068E010F5E1F4F65
:1007C000CE010596B8010E94A4068985823040F0CA
:1007D0008989823028F0C701B8010E941C0701C036
:1007E0008FEF6896E6E00C941D29A8E1B0E0EBEFEE
:1007F000F3E00C94012969837A838B839C832D8396
:100800003E834F83588789E0E82EF12CEC0EFD1EC5
:10081000CE010196B7010E94A4068E010F5E1F4F04
:10082000CE010596B8010E94A4068985823040F069
:100830008989823028F0C701B8010E941C0701C0D5
:100840008FEF6896E6E00C941D29A8E1B0E0EBE29A
:10085000F4E00C94012969837A838B839C832D8334
:100860003E834F83588789E0E82EF12CEC0EFD1E65
:10087000CE010196B7010E94A4068E010F5E1F4FA4
:10088000CE010596B8010E94A4068985823040F009
:100890008989823028F0C701B8010E941C0701C075
:1008A00081E06896E6E00C941D29A8E0B0E0EBE555
:1008B000F4E00C94FE289B01AC0183E08983DA010B
:1008C000C9018827B7FD83959927AA27BB27B82E8A
:1008D000211531054105510519F482E089833AC09B
:1008E0008823A9F0203080E0380780E0480780E8BE
:1008F000580729F460E070E080E09FEC30C0EE24FF
:10090000FF248701E21AF30A040B150B02C07901D8
:100910008A018EE1C82ED12CDC82CB82ED82FE8250
:100920000F831887C801B7010E9480050197181628
:10093000190684F4082E04C0EE0CFF1C001F111FC2
:100940000A94D2F7ED82FE820F831887C81AD90A5B
:10095000DC82CB82BA82CE0101960E94CF05289616
:10096000E9E00C941A29ACE0B0E0E9EBF4E00C9477
:10097000052969837A838B839C83CE010196BE010E
:100980006B5F7F4F0E94A4068D81823061F18230BF
:1009900050F1843021F48E81882351F12EC02F81B3
:1009A000388537FD20C06E812F3131051CF066235C
:1009B000F9F023C08EE190E0821B930B29853A85E4
:1009C0004B855C8504C056954795379527958A9544
:1009D000D2F76623B1F050954095309521953F4F61
:1009E0004F4F5F4F0EC020E030E040E050E009C0C4
:1009F0002FEF3FEF4FEF5FE704C020E030E040E033
:100A000050E8B901CA012C96E2E00C942129A8E033
:100A1000B0E0EDE0F5E00C94FD287B018C01611560
:100A200071058105910519F482E0898360C083E036
:100A300089838EE1C82ED12CDC82CB82ED82FE82AE
:100A40000F831887C801B7010E948005FC01319708
:100A5000F7FF3BC0222733272E1B3F0B57016801AE
:100A6000022E04C0D694C794B794A7940A94D2F7E0
:100A700040E050E060E070E081E090E0A0E0B0E0B5
:100A800004C0880F991FAA1FBB1F2A95D2F7019790
:100A9000A109B1098E219F21A023B1230097A105AF
:100AA000B10521F041E050E060E070E04A295B29A7
:100AB0006C297D294D835E836F8378878EE190E07A
:100AC0008E1B9F0B9C838B8312C0309781F00E2E60
:100AD00004C0EE0CFF1C001F111F0A94D2F7ED8218
:100AE000FE820F831887CE1ADF0ADC82CB821A823D
:100AF000CE0101960E94CF052896EAE00C941929B0
:100B0000EF92FF920F931F937B018C0180E0E81618
:100B100080E0F80681E0080780E0180788F48FEF8E
:100B2000E816F1040105110531F028F088E090E0A5
:100B3000A0E0B0E017C080E090E0A0E0B0E012C01C
:100B400080E0E81680E0F80680E0080781E01807FA
:100B500028F088E190E0A0E0B0E004C080E190E0FF
:100B6000A0E0B0E020E230E040E050E0281B390B8C
:100B70004A0B5B0B04C016950795F794E7948A958A
:100B8000D2F7F701E356FF4F8081281B3109410955
:100B90005109C9011F910F91FF90EF900895DF92C5
:100BA000EF92FF920F931F93FC01E480F580068182
:100BB0001781D1808081823048F480E090E0A0E10C
:100BC000B0E0E82AF92A0A2B1B2BA5C0843009F4CF
:100BD0009FC0823021F4EE24FF24870105C0E11478
:100BE000F1040105110519F4E0E0F0E096C062811E
:100BF00073819FEF623879070CF05BC022E83FEF0A
:100C0000261B370B2A3131052CF020E030E040E084
:100C100050E02AC0B801A701022E04C0769567955E
:100C2000579547950A94D2F781E090E0A0E0B0E0B4
:100C300004C0880F991FAA1FBB1F2A95D2F70197DE
:100C4000A109B1098E219F21A023B1230097A105FD
:100C5000B10521F081E090E0A0E0B0E09A01AB01A5
:100C6000282B392B4A2B5B2BDA01C9018F77907027
:100C7000A070B07080349105A105B10539F427FF4B
:100C800009C0205C3F4F4F4F5F4F04C0215C3F4F76
:100C90004F4F5F4FE0E0F0E02030A0E03A07A0E0E7
:100CA0004A07A0E45A0710F0E1E0F0E079018A0178
:100CB00027C06038710564F5FB01E158FF4FD8018A
:100CC000C7018F779070A070B07080349105A10536
:100CD000B10539F4E7FE0DC080E490E0A0E0B0E09B
:100CE00004C08FE390E0A0E0B0E0E80EF91E0A1F18
:100CF0001B1F17FF05C016950795F794E7943196CB
:100D000087E016950795F794E7948A95D1F705C083
:100D1000EE24FF248701EFEFF0E06E2F6795662742
:100D20006795902F9F77D794DD24D7948E2F869543
:100D3000492F462B582F5D29B701CA011F910F91EA
:100D4000FF90EF90DF900895FC01DB01408151811D
:100D50002281622F6F7770E0221F2227221F93814A
:100D6000892F880F822B282F30E0991F9927991FF0
:100D700011969C93119721153105A9F5411551053F
:100D80006105710511F482E037C082E89FEF139688
:100D90009C938E9312979A01AB0167E0220F331F49
:100DA000441F551F6A95D1F783E08C930DC0220F25
:100DB000331F441F551F12968D919C9113970197D5
:100DC00013969C938E931297203080E0380780E032
:100DD000480780E4580758F314962D933D934D939C
:100DE0005C93179708952F3F310579F4411551050C
:100DF0006105710519F484E08C93089564FF03C0C4
:100E000081E08C9312C01C9210C02F573040139673
:100E10003C932E93129783E08C9387E0440F551FE9
:100E2000661F771F8A95D1F7706414964D935D9372
:100E30006D937C93179708951F93DC01FB019C91A0
:100E4000923008F447C08081823008F443C0943067
:100E500051F411961C91843099F58181682F70E0CE
:100E6000611B71093FC0843021F0923031F482302F
:100E7000B9F18181882389F12DC011961C911197B8
:100E80008230F1F081811817D9F412962D913C919E
:100E90001397828193818217930794F0281739075B
:100EA000BCF014968D919D910D90BC91A02D248144
:100EB000358146815781281739074A075B0718F49F
:100EC000112341F00AC082179307A407B50740F425
:100ED000112319F061E070E005C06FEF7FEF02C0F1
:100EE00060E070E0CB011F910895DF93CF9300D0B5
:100EF000CDB7DEB79A838983E0E4F0E086E88083AB
:100F0000E9E2F0E083E38083AAE2B0E0EAE2F0E025
:100F1000808188608C930F900F90CF91DF9108951E
:100F2000DF93CF930F92CDB7DEB78983EBE2F0E08A
:100F30008081829586958770882F90E0817090706F
:100F40000097A1F3ECE2F0E0898180830F90CF91CC
:100F5000DF910895DF93CF93CDB7DEB727970FB614
:100F6000F894DEBF0FBECDBF49835A836B837C8369
:100F70008D833F832E8327960FB6F894DEBF0FBE76
:100F8000CDBFCF91DF910895DF93CF93CDB7DEB77B
:100F9000EBE2F0E080818823DCF7ECE2F0E0808196
:100FA000CF91DF910895DF93CF93CDB7DEB7CF9187
:100FB000DF910895DF93CF9300D0CDB7DEB789835B
:100FC0006A838981882399F5AFE4B0E0EFE4F0E02B
:100FD00080818E7F8C93AFE4B0E0EFE4F0E080811D
:100FE0008D7F8C93AEE4B0E0EEE4F0E080819181FF
:100FF000877F11969C938E93AEE4B0E0EEE4F0E030
:10100000808191818F7E11969C938E938A81882313
:1010100071F4AFE4B0E0EFE4F0E080818F7B8C937B
:10102000AFE4B0E0EFE4F0E080818F778C930F9035
:101030000F90CF91DF910895DF93CF930F92CDB7AB
:10104000DEB7898389818230F1F4AEE4B0E0EEE46A
:10105000F0E0808191818E7F11969C938E93AEE417
:10106000B0E0EEE4F0E080819181826011969C9383
:101070008E93AEE4B0E0EEE4F0E0808191818B7F6E
:1010800011969C938E930F90CF91DF910895DF93EB
:10109000CF93CDB7DEB7AEE4B0E0EEE4F0E0808110
:1010A00091818E7F11969C938E93AEE4B0E0EEE436
:1010B000F0E0808191818D7F11969C938E93AEE4B8
:1010C000B0E0EEE4F0E0808191818B7F11969C93FB
:1010D0008E93CF91DF910895DF93CF93CDB7DEB795
:1010E000A9E5B0E0E9E5F0E0808180628C93AEE4B0
:1010F000B0E0EEE4F0E080819181806411969C93F1
:101100008E93CF91DF910895DF93CF930F92CDB758
:10111000DEB789838981882359F4AEE4B0E0EEE438
:10112000F0E0808191818F7B11969C938E930DC00E
:101130008981813051F4AEE4B0E0EEE4F0E08081EA
:101140009181806411969C938E930F90CF91DF9143
:101150000895DF93CF93CDB7DEB7A9E5B0E0E9E519
:10116000F0E080818F7D8C93CF91DF910895DF93A4
:10117000CF93CDB7DEB7E6E4F0E080819181CF91E7
:10118000DF910895DF93CF93CDB7DEB7CF91DF9195
:101190000895DF93CF930F92CDB7DEB7898389810E
:1011A000882341F4A8E5B0E0E8E5F0E080818062C2
:1011B0008C930AC08981833039F4A8E5B0E0E8E572
:1011C000F0E0808184608C9380E00F90CF91DF917C
:1011D0000895DF93CF93CDB7DEB72C970FB6F89471
:1011E000DEBF0FBECDBF89836A838981282F30E09F
:1011F0003C872B878B859C858130910509F47EC0C7
:101200002B853C85223031052CF48B859C850097FD
:1012100071F076C12B853C852230310509F4D6C0AA
:101220008B859C858330910509F41EC169C1A3E5B6
:10123000B0E0E3E5F0E08081877D8C93A3E5B0E04A
:10124000E3E5F0E080818C938A81282F30E03A87B3
:10125000298789859A858130910519F129853A85F3
:10126000223031052CF489859A85009761F048C1B8
:1012700029853A852230310519F189859A8583308F
:10128000910569F13DC1A3E5B0E0E3E5F0E08081BF
:10129000877D8C93A3E5B0E0E3E5F0E080818C935B
:1012A0002FC1A3E5B0E0E3E5F0E080818F7C8C9373
:1012B000A3E5B0E0E3E5F0E0808180618C9320C19C
:1012C000A3E5B0E0E3E5F0E080818F7C8C93A3E5BB
:1012D000B0E0E3E5F0E0808180628C9311C1A3E58A
:1012E000B0E0E3E5F0E080818F7C8C93A3E5B0E093
:1012F000E3E5F0E0808180638C9302C1A3E5B0E078
:10130000E3E5F0E08081877D8C93A3E5B0E0E3E541
:10131000F0E0808188608C938A81282F30E03887C4
:101320002F838F8198858130910519F12F81388520
:10133000223031052CF48F819885009761F0E0C050
:101340002F8138852230310519F18F8198858330BE
:10135000910569F1D5C0A3E5B0E0E3E5F0E0808157
:10136000877D8C93A3E5B0E0E3E5F0E080818C938A
:10137000C7C0A3E5B0E0E3E5F0E080818F7C8C930B
:10138000A3E5B0E0E3E5F0E0808180618C93B8C034
:10139000A3E5B0E0E3E5F0E080818F7C8C93A3E5EA
:1013A000B0E0E3E5F0E0808180628C93A9C0A3E522
:1013B000B0E0E3E5F0E080818F7C8C93A3E5B0E0C2
:1013C000E3E5F0E0808180638C939AC0A3E5B0E010
:1013D000E3E5F0E08081877D8C93A3E5B0E0E3E571
:1013E000F0E0808188648C938A81282F30E03E83EE
:1013F0002D838D819E8184309105C1F02D813E81A8
:101400002530310511F18D819E81009709F078C05A
:10141000A3E5B0E0E3E5F0E08081877D8C93A3E570
:10142000B0E0E3E5F0E080818C936AC0A3E5B0E032
:10143000E3E5F0E080818F7C8C93A3E5B0E0E3E509
:10144000F0E0808180638C935BC0A3E5B0E0E3E5CE
:10145000F0E080818F7C8C93A3E5B0E0E3E5F0E0E1
:10146000808180628C934CC0A3E5B0E0E3E5F0E0BE
:101470008081877D8C93A3E5B0E0E3E5F0E0808197
:1014800080648C938A81282F30E03C832B838B816E
:101490009C8184309105B9F02B813C812530310548
:1014A00009F18B819C81009759F5A3E5B0E0E3E554
:1014B000F0E08081877D8C93A3E5B0E0E3E5F0E088
:1014C00080818C931DC0A3E5B0E0E3E5F0E080816E
:1014D0008F7C8C93A3E5B0E0E3E5F0E0808180634E
:1014E0008C930EC0A3E5B0E0E3E5F0E080818F7C53
:1014F0008C93A3E5B0E0E3E5F0E0808180628C931B
:101500002C960FB6F894DEBF0FBECDBFCF91DF9102
:101510000895DF93CF9300D00F92CDB7DEB78983C4
:101520008981282F30E03B832A838A819B81823006
:10153000910509F43EC02A813B812330310554F4E2
:101540008A819B810097C1F02A813B81213031053E
:1015500009F16AC08A819B818430910509F447C0F2
:101560002A813B81243031059CF18A819B81853021
:10157000910509F44BC058C0A3E5B0E0E3E5F0E005
:101580008081887F8C93A3E5B0E0E3E5F0E0808183
:101590008C934AC0A3E5B0E0E3E5F0E08081887F6A
:1015A0008C93A3E5B0E0E3E5F0E0808181608C936B
:1015B0003BC0A3E5B0E0E3E5F0E08081887F8C9359
:1015C000A3E5B0E0E3E5F0E0808182608C932CC07D
:1015D000A3E5B0E0E3E5F0E08081887F8C93A3E5AC
:1015E000B0E0E3E5F0E0808183608C931DC0A3E56B
:1015F000B0E0E3E5F0E08081887F8C93A3E5B0E084
:10160000E3E5F0E0808184608C930EC0A3E5B0E058
:10161000E3E5F0E08081887F8C93A3E5B0E0E3E52B
:10162000F0E0808185608C930F900F900F90CF91A8
:10163000DF910895DF93CF93CDB7DEB7A3E5B0E098
:10164000E3E5F0E08081887F8C93A3E5B0E0E3E5FB
:10165000F0E080818C93CF91DF910895DF93CF9359
:10166000CDB7DEB7E2E5F0E08081CF91DF9108955C
:10167000DF93CF930F92CDB7DEB78983E2E5F0E039
:10168000898180830F90CF91DF910895DF93CF936D
:10169000CDB7DEB7AC970FB6F894DEBF0FBECDBFA7
:1016A0006AA37BA38CA39DA34EA32FA3CE010E966A
:1016B00099A788A7E9EEF1E0FBA7EAA7F4E1FCA768
:1016C000EAA5FBA500808AA59BA501969BA78AA7F2
:1016D000E8A5F9A5008288A599A5019699A788A7EC
:1016E0009CA591509CA7ECA5EE2351F78A899B8974
:1016F000AC89BD89BC01CD010E940705DC01CB018D
:10170000BC01CD0120E030E040E851E40E94190323
:10171000DC01CB018A879B87AC87BD871E821F8235
:10172000188619861A821B821C821D826AA17BA1DF
:101730008CA19DA10E940705DC01CB01BC01CD015C
:1017400020E030E04AE754E40E941F02DC01CB01B4
:10175000BC01CD012A853B854C855D850E9419031E
:10176000DC01CB01BC01CD010E944900DC01CB01B1
:101770008E839F83A887B9878EA18823C9F58E8120
:101780009F81A885B985892F9A2FAB2FBB2780937E
:10179000940290939502A0939602B09397028E8143
:1017A000809398028E819F81A885B9859070A070E2
:1017B000B0700097A105B10509F457C0E2E5F0E06B
:1017C00080919802819580838091940290919502F6
:1017D000A0919602B09197020196A11DB11D809330
:1017E000940290939502A0939602B09397023DC005
:1017F0008EA18130D1F58FEF90E0A0E0B0E08A8338
:101800009B83AC83BD8319820BC08A819B81AC8191
:10181000BD810197A109B1098A839B83AC83BD83F4
:101820008E819F81A885B9852A813B814C815D810C
:10183000BC01CD010E94B828DC01CB010097A105B5
:10184000B10519F78E819F81A885B9852A813B81D1
:101850004C815D81BC01CD010E94B828DC01CB0127
:101860008983ECE5F0E0898180838FA10E94890A59
:10187000AC960FB6F894DEBF0FBECDBFCF91DF910F
:101880000895DF93CF9300D00F92CDB7DEB7898351
:101890008981282F30E03B832A838A819B810097AE
:1018A00031F02A813B812130310581F01DC0A9E54D
:1018B000B0E0E9E5F0E080818E7F8C93A9E5B0E0AF
:1018C000E9E5F0E0808181608C930EC0A9E5B0E08D
:1018D000E9E5F0E080818D7F8C93A9E5B0E0E9E552
:1018E000F0E0808182608C930F900F900F90CF91E9
:1018F000DF910895DF93CF9300D00F92CDB7DEB77D
:1019000089838981282F30E03B832A838A819B81C8
:10191000009731F02A813B812130310579F01BC0DD
:10192000A9E5B0E0E9E5F0E080818E7F8C93A9E540
:10193000B0E0E9E5F0E080818C930DC0A9E5B0E06E
:10194000E9E5F0E080818D7F8C93A9E5B0E0E9E5E1
:10195000F0E080818C930F900F900F90CF91DF91EA
:101960000895DF93CF9300D000D00F92CDB7DEB7AC
:1019700089837B836A838981282F30E03D832C8390
:101980008C819D81009731F02C813D812130310582
:1019900061F015C08A819B81009789F08A819B81C3
:1019A00090939102809390020AC08A819B81009754
:1019B00031F08A819B8190939302809392020F90E1
:1019C0000F900F900F900F90CF91DF910895DF93BC
:1019D000CF93CDB7DEB728970FB6F894DEBF0FBE12
:1019E000CDBF89834A835B836C837D832E8389810A
:1019F000282F30E038872F838F8198858430910598
:101A000031F02F8138852530310589F01BC0ECE598
:101A1000F0E08E81282F30E0C901880F991F820FD6
:101A2000931F909581959F4F815080830BC0ECE56B
:101A3000F0E08E81282F30E0C901880F991F820FB6
:101A4000931F80838A819B81AC81BD81893139E775
:101A5000930730E0A30730E0B30720F081E00E9455
:101A6000890A7BC08A819B81AC81BD81893129E74C
:101A7000920720E0A20720E0B20780F48A819B81D0
:101A8000AC81BD818D333FE0930730E0A30730E0A8
:101A9000B30720F082E00E94890A5FC08A819B819F
:101AA000AC81BD818D332FE0920720E0A20720E0BA
:101AB000B20780F48A819B81AC81BD81813931E09C
:101AC000930730E0A30730E0B30720F083E00E94E3
:101AD000890A43C08A819B81AC81BD81813921E023
:101AE000920720E0A20720E0B20768F48A819B8178
:101AF000AC81BD8185369105A105B10520F084E05A
:101B00000E94890A2AC08A819B81AC81BD81853669
:101B10009105A105B10568F48A819B81AC81BD81E5
:101B20008E319105A105B10520F085E00E94890A5A
:101B300014C08A819B81AC81BD818E319105A10544
:101B4000B10558F483E060E00E94E90880E00E945B
:101B5000890A87E160E00E944F1428960FB6F89436
:101B6000DEBF0FBECDBFCF91DF9108950F931F93BE
:101B7000DF93CF93CDB7DEB72C970FB6F894DEBFC7
:101B80000FBECDBF89834A835B836C837D832E83A5
:101B90008981282F30E038872F838F819885843082
:101BA000910531F0AF81B885A530B10569F157C015
:101BB0000CE510E08E81882F90E0AA2797FDA09574
:101BC000BA2FBC01CD010E945504DC01CB01BC0140
:101BD000CD012AE037ED43E250EC0E941F02DC0108
:101BE000CB01BC01CD0120E030E04FE753E40E947F
:101BF000F201DC01CB01BC01CD010E944900DC01F6
:101C0000CB01F80180832BC00CE510E08E81882F7A
:101C100090E0AA2797FDA095BA2FBC01CD010E94A4
:101C20005504DC01CB01BC01CD012AE037ED43E2D4
:101C300050E40E941F02DC01CB01BC01CD0120E079
:101C400030E040E85FE30E94C101DC01CB01BC0150
:101C5000CD010E944900DC01CB01D8018C938A811F
:101C60009B81AC81BD8189879A87AB87BC87898539
:101C70009A85AB85BC85813DE3E09E07E0E0AE0739
:101C8000E0E0BE0709F43FC089859A85AB85BC8535
:101C9000823DE3E09E07E0E0AE07E0E0BE0798F497
:101CA00089859A85AB85BC858D339105A105B105E4
:101CB00091F189859A85AB85BC85843F9105A10505
:101CC000B10529F12BC089859A85AB85BC858538FE
:101CD000EEE19E07E0E0AE07E0E0BE0781F0898517
:101CE0009A85AB85BC858432E4EF9E07E0E0AE07C1
:101CF000E0E0BE0799F481E00E94890A0FC082E00B
:101D00000E94890A0BC083E00E94890A07C084E010
:101D10000E94890A03C085E00E94890A2C960FB6AA
:101D2000F894DEBF0FBECDBFCF91DF911F910F9111
:101D300008951F920F920FB60F9211242F933F9385
:101D40004F935F936F937F938F939F93AF93BF93C3
:101D5000EF93FF93DF93CF93CDB7DEB780919902D6
:101D600090919A02A0919B02B0919C020196A11DB4
:101D7000B11D8093990290939A02A0939B02B09315
:101D80009C028091900290919102009741F12091E4
:101D9000990230919A0240919B0250919C0280914D
:101DA000940290919502A0919602B0919702281703
:101DB00039074A075B0799F4E0919002F09191028C
:101DC00009951092990210929A0210929B02109219
:101DD0009C02E2E5F0E08091980281958083CF91AA
:101DE000DF91FF91EF91BF91AF919F918F917F9183
:101DF0006F915F914F913F912F910F900FBE0F9078
:101E00001F9018951F920F920FB60F921124DF9317
:101E1000CF93CDB7DEB7CF91DF910F900FBE0F906C
:101E20001F901895DF93CF93CDB7DEB72B970FB6E2
:101E3000F894DEBF0FBECDBF9D838C838C819D81C6
:101E4000009709F451C21B824BC28B81882F90E00E
:101E50009C01220F331F220F331F8C819D81FC01B7
:101E6000E20FF31F80819AE0692F0E949828892F42
:101E70008A838B81882F90E09C01220F331F220FD1
:101E8000331F8C819D81FC01E20FF31F80819AE05A
:101E9000692F0E94982889838B81882F90E09C016C
:101EA000220F331F220F331F8C819D81FC01E20F13
:101EB000F31F8281882389F08B81882F90E09C0119
:101EC000220F331F220F331F8C819D81FC01E20FF3
:101ED000F31F8281813009F000C28981282F30E010
:101EE0003B872A876A857B8562307105D1F18A85B7
:101EF0009B858330910534F42A853B85213031055B
:101F000071F094C06A857B856330710509F44BC01C
:101F10008A859B858430910509F467C087C0AAE350
:101F2000B0E0EAE3F0E040818B81882F90E09C01F3
:101F3000220F331F220F331F8C819D81FC01E20F82
:101F4000F31F8281282F30E08A81882F90E0B90129
:101F500002C0660F771F8A95E2F7CB01842B8C9322
:101F600065C0A7E3B0E0E7E3F0E040818B81882F14
:101F700090E09C01220F331F220F331F8C819D8123
:101F8000FC01E20FF31F8281282F30E08A81882F25
:101F900090E0B90102C0660F771F8A95E2F7CB0186
:101FA000842B8C9343C0A4E3B0E0E4E3F0E04081F1
:101FB0008B81882F90E09C01220F331F220F331F4B
:101FC0008C819D81FC01E20FF31F8281282F30E07C
:101FD0008A81882F90E0B90102C0660F771F8A9529
:101FE000E2F7CB01842B8C9321C0A1E3B0E0E1E3C5
:101FF000F0E040818B81882F90E09C01220F331FFD
:10200000220F331F8C819D81FC01E20FF31F82811F
:10201000282F30E08A81882F90E0B90102C0660F36
:10202000771F8A95E2F7CB01842B8C938B81882FC5
:1020300090E09C01220F331F220F331F8C819D8162
:10204000FC01E20FF31F8181882389F08B81882FA7
:1020500090E09C01220F331F220F331F8C819D8142
:10206000FC01E20FF31F8181813009F036C18981C3
:10207000282F30E039872887688579856230710597
:10208000D1F1888599858330910534F42885398587
:102090002130310571F094C0688579856330710510
:1020A00009F44BC0888599858430910509F467C08F
:1020B00087C0ABE3B0E0EBE3F0E040818B81882F99
:1020C00090E09C01220F331F220F331F8C819D81D2
:1020D000FC01E20FF31F8181282F30E08A81882FD5
:1020E00090E0B90102C0660F771F8A95E2F7CB0135
:1020F000842B8C9365C0A8E3B0E0E8E3F0E0408176
:102100008B81882F90E09C01220F331F220F331FF9
:102110008C819D81FC01E20FF31F8181282F30E02B
:102120008A81882F90E0B90102C0660F771F8A95D7
:10213000E2F7CB01842B8C9343C0A5E3B0E0E5E349
:10214000F0E040818B81882F90E09C01220F331FAB
:10215000220F331F8C819D81FC01E20FF31F8181CF
:10216000282F30E08A81882F90E0B90102C0660FE5
:10217000771F8A95E2F7CB01842B8C9321C0A2E3D1
:10218000B0E0E2E3F0E040818B81882F90E09C0199
:10219000220F331F220F331F8C819D81FC01E20F20
:1021A000F31F8181282F30E08A81882F90E0B901C8
:1021B00002C0660F771F8A95E2F7CB01842B8C93C0
:1021C0008B81882F90E09C01220F331F220F331F39
:1021D0008C819D81FC01E20FF31F8281813009F027
:1021E0007CC08B81882F90E09C01220F331F220F2F
:1021F000331F8C819D81FC01E20FF31F83818823B3
:1022000009F06BC08981282F30E03F832E836E81D7
:102210007F816230710549F18E819F818330910504
:1022200034F42E813F812130310561F056C06E813A
:102230007F816330710561F18E819F8184309105CA
:10224000D1F14BC0ABE3B0E0EBE3F0E040818A8139
:10225000282F30E081E090E0022E02C0880F991F05
:102260000A94E2F7842B8C9338C0A8E3B0E0E8E34B
:10227000F0E040818A81282F30E081E090E0022E5A
:1022800002C0880F991F0A94E2F7842B8C9325C013
:10229000A5E3B0E0E5E3F0E040818A81282F30E05B
:1022A00081E090E0022E02C0880F991F0A94E2F7A5
:1022B000842B8C9312C0A2E3B0E0E2E3F0E0408113
:1022C0008A81282F30E081E090E0022E02C0880F42
:1022D000991F0A94E2F7842B8C938B818F5F8B83F9
:1022E0008B81803208F4B1CD2B960FB6F894DEBF07
:1022F0000FBECDBFCF91DF910895DF93CF93CDB7C0
:10230000DEB7AFE5B0E0EFE5F0E0808180688C9368
:10231000CF91DF910895DF93CF93CDB7DEB7AFE5CF
:10232000B0E0EFE5F0E080818F778C93CF91DF9183
:102330000895DF93CF93CDB7DEB72B970FB6F89400
:10234000DEBF0FBECDBF9B838A8319820EC18981F8
:10235000882F90E09C01220F331F8A819B81FC0112
:10236000E20FF31F8081282F30E03B872A878A8580
:102370009B858130910509F44AC02A853B8522302E
:10238000310509F4B1C08A859B85009709F0EAC040
:102390008981882F90E09C01220F331F8A819B81C5
:1023A000FC01E20FF31F8181282F30E03987288755
:1023B00088859985009731F0288539852130310548
:1023C00081F01DC0A5E5B0E0E5E5F0E080818D7FFE
:1023D0008C93A5E5B0E0E5E5F0E080818E7F8C93FD
:1023E0000EC0A5E5B0E0E5E5F0E080818D7F8C933F
:1023F000A5E5B0E0E5E5F0E0808181608C93ABE598
:10240000B0E0EBE5F0E0808180648C93ABC0898123
:10241000882F90E09C01220F331F8A819B81FC0151
:10242000E20FF31F8181282F30E03F832E838E81BE
:102430009F818130910521F12E813F81223031052C
:102440002CF48E819F81009761F046C02E813F81E0
:102450002230310521F18E819F818330910571F108
:102460003BC0A5E5B0E0E5E5F0E0808182608C93BB
:10247000A5E5B0E0E5E5F0E080818E7F8C932CC08F
:10248000A5E5B0E0E5E5F0E080818D7F8C93A5E5E2
:10249000B0E0E5E5F0E0808181608C931DC0A5E5AA
:1024A000B0E0E5E5F0E0808182608C93A5E5B0E0E6
:1024B000E5E5F0E080818E7F8C930EC0A5E5B0E06D
:1024C000E5E5F0E0808182608C93A5E5B0E0E5E58C
:1024D000F0E0808181608C93ABE5B0E0EBE5F0E06B
:1024E000808180688C933EC08981882F90E09C0118
:1024F000220F331F8A819B81FC01E20FF31F818130
:10250000282F30E03D832C838C819D81009731F012
:102510002C813D812130310581F01DC0A5E5B0E061
:10252000E5E5F0E0808182608C93A5E5B0E0E5E52B
:10253000F0E080818E7F8C930EC0A5E5B0E0E5E5EC
:10254000F0E080818D7F8C93A5E5B0E0E5E5F0E0DB
:10255000808181608C93ABE5B0E0EBE5F0E08081B9
:1025600080628C9389818F5F89838981833008F4AD
:10257000EECE2B960FB6F894DEBF0FBECDBFCF9137
:10258000DF910895DF93CF9300D000D0CDB7DEB7B1
:102590009A838983E981FA818081282F30E03C8306
:1025A0002B838B819C818130910589F02B813C812B
:1025B00022303105A1F08B819C810097B9F4ABE505
:1025C000B0E0EBE5F0E080818F7B8C930FC0ABE552
:1025D000B0E0EBE5F0E080818F778C9307C0ABE54E
:1025E000B0E0EBE5F0E080818F7D8C930F900F9051
:1025F0000F900F90CF91DF910895DF93CF93CDB7D8
:10260000DEB728970FB6F894DEBF0FBECDBF9C8310
:102610008B837E836D8382E08A83198259C089818E
:10262000882F90E09C01220F331F8B819C81FC013D
:10263000E20FF31F8081282F30E038872F838F81AE
:10264000988581309105E1F02F8138852230310560
:1026500051F18F8198850097C1F58D819E810097FA
:1026600069F08981882F90E0880F991FFC01E3565B
:10267000FD4F8D819E819183808327C01A8225C062
:102680008D819E81009769F08981882F90E0880F65
:10269000991FFC01E356FD4F8D819E8191838083BC
:1026A00014C01A8212C08D819E81009769F08981C1
:1026B000882F90E0880F991FFC01E356FD4F8D8114
:1026C0009E819183808301C01A8289818F5F898373
:1026D0008981833008F4A3CF8A8128960FB6F894B5
:1026E000DEBF0FBECDBFCF91DF9108951F920F9235
:1026F0000FB60F9211242F933F934F935F936F93D5
:102700007F938F939F93AF93BF93EF93FF93DF9349
:10271000CF93CDB7DEB780919D0290919E02009736
:1027200029F0E0919D02F0919E020995CF91DF91F1
:10273000FF91EF91BF91AF919F918F917F916F9199
:102740005F914F913F912F910F900FBE0F901F906F
:1027500018951F920F920FB60F921124DF93CF930B
:10276000CDB7DEB7CF91DF910F900FBE0F901F90C6
:1027700018951F920F920FB60F921124DF93CF93EB
:10278000CDB7DEB7CF91DF910F900FBE0F901F90A6
:102790001895DF93CF9300D000D000D0CDB7DEB72F
:1027A0008C838C819AE0692F0E949828892F8B83D3
:1027B0008C819AE0692F0E9498288A838A81282F29
:1027C00030E03E832D834D815E814230510541F1E1
:1027D0008D819E818330910534F42D813E8121309D
:1027E000310561F052C04D815E814330510551F198
:1027F0008D819E8184309105B9F147C0E9E3F0E015
:102800008081282F30E08B81882F90E0A90102C0C1
:10281000559547958A95E2F7CA018170898335C03D
:10282000E6E3F0E08081282F30E08B81882F90E074
:10283000A90102C0559547958A95E2F7CA018170B2
:10284000898323C0E3E3F0E08081282F30E08B818F
:10285000882F90E0A90102C0559547958A95E2F727
:10286000CA018170898311C0E0E3F0E08081282FE4
:1028700030E08B81882F90E0A90102C055954795E3
:102880008A95E2F7CA0181708983898126960FB6FD
:10289000F894DEBF0FBECDBFCF91DF910895DF93D7
:1028A000CF93CDB7DEB728970FB6F894DEBF0FBE33
:1028B000CDBF8B836C838B819AE0692F0E9498280F
:1028C000892F8A838B819AE0692F0E9498288983B7
:1028D0008C81813009F070C08981282F30E03887E1
:1028E0002F838F8198858230910551F12F81388512
:1028F0002330310534F48F8198858130910561F062
:10290000D3C02F8138852330310571F18F819885AF
:1029100084309105E9F1C8C0ABE3B0E0EBE3F0E04F
:102920008081482F8A81282F30E081E090E0022EBC
:1029300002C0880F991F0A94E2F7842B8C93B4C0CD
:10294000A8E3B0E0E8E3F0E08081482F8A81282FF7
:1029500030E081E090E0022E02C0880F991F0A94B7
:10296000E2F7842B8C93A0C0A5E3B0E0E5E3F0E0B0
:102970008081482F8A81282F30E081E090E0022E6C
:1029800002C0880F991F0A94E2F7842B8C938CC0A5
:10299000A2E3B0E0E2E3F0E08081482F8A81282FB3
:1029A00030E081E090E0022E02C0880F991F0A9467
:1029B000E2F7842B8C9378C08C81882309F074C053
:1029C0008981282F30E03E832D838D819E81823046
:1029D000910561F12D813E812330310534F48D81E3
:1029E0009E818130910569F05FC02D813E81233049
:1029F000310589F18D819E818430910509F440C0B3
:102A000053C0ABE3B0E0EBE3F0E08081482F8A8174
:102A1000282F30E081E090E0022E02C0880F991F3D
:102A20000A94E2F7809584238C933EC0A8E3B0E03B
:102A3000E8E3F0E08081482F8A81282F30E081E0B0
:102A400090E0022E02C0880F991F0A94E2F7809549
:102A500084238C9329C0A5E3B0E0E5E3F0E0808116
:102A6000482F8A81282F30E081E090E0022E02C0BA
:102A7000880F991F0A94E2F7809584238C9314C0E1
:102A8000A2E3B0E0E2E3F0E08081482F8A81282FC2
:102A900030E081E090E0022E02C0880F991F0A9476
:102AA000E2F7809584238C9328960FB6F894DEBFC6
:102AB0000FBECDBFCF91DF910895DF93CF9300D0AC
:102AC00000D0CDB7DEB78A838A81282F30E03C83DF
:102AD0002B838B819C8182309105D9F02B813C81A5
:102AE0002330310534F48B819C818130910561F074
:102AF0001EC02B813C812330310581F08B819C816C
:102B00008430910581F013C0EBE3F0E0808189838C
:102B10000EC0E8E3F0E08081898309C0E5E3F0E0DE
:102B20008081898304C0E2E3F0E080818983898128
:102B30000F900F900F900F90CF91DF910895DF933A
:102B4000CF9300D000D0CDB7DEB789836A83898167
:102B5000282F30E03C832B838B819C818230910530
:102B6000D9F02B813C812330310534F48B819C8159
:102B70008130910561F01EC02B813C8123303105ED
:102B800081F08B819C818430910581F013C0EBE34F
:102B9000F0E08A8180830EC0E8E3F0E08A818083E0
:102BA00009C0E5E3F0E08A81808304C0E2E3F0E05D
:102BB0008A8180830F900F900F900F90CF91DF91BB
:102BC0000895DF93CF9300D000D00F92CDB7DEB73A
:102BD0008B838B819AE0692F0E949828892F8A83A2
:102BE0008B819AE0692F0E94982889838981282FF8
:102BF00030E03D832C838C819D818230910551F1A1
:102C00002C813D812330310534F48C819D818130CC
:102C1000910561F05AC02C813D812330310571F15D
:102C20008C819D8184309105E9F14FC0ABE3B0E028
:102C3000EBE3F0E08081482F8A81282F30E081E0AB
:102C400090E0022E02C0880F991F0A94E2F78427B1
:102C50008C933BC0A8E3B0E0E8E3F0E08081482F2C
:102C60008A81282F30E081E090E0022E02C0880F98
:102C7000991F0A94E2F784278C9327C0A5E3B0E05C
:102C8000E5E3F0E08081482F8A81282F30E081E061
:102C900090E0022E02C0880F991F0A94E2F7842761
:102CA0008C9313C0A2E3B0E0E2E3F0E08081482F10
:102CB0008A81282F30E081E090E0022E02C0880F48
:102CC000991F0A94E2F784278C930F900F900F902E
:102CD0000F900F90CF91DF910895DF93CF93CDB7F1
:102CE000DEB72A970FB6F894DEBF0FBECDBF9A832A
:102CF0008983E981FA818081282F30E03A8729870A
:102D000089859A858034910531F029853A85203C62
:102D1000310581F01DC0A7E2B0E0E7E2F0E080817C
:102D20008F778C93A7E2B0E0E7E2F0E080818064E7
:102D30008C930EC0A7E2B0E0E7E2F0E0808180680B
:102D40008C93A7E2B0E0E7E2F0E0808180648C93AE
:102D5000E981FA818281282F30E038872F838F81A3
:102D60009885009731F02F8138852032310549F060
:102D70000FC0A7E2B0E0E7E2F0E080818F7D8C93A6
:102D800007C0A7E2B0E0E7E2F0E0808180628C93C8
:102D9000E981FA818181282F30E03E832D838D8166
:102DA0009E818330910509F470C02D813E812430CD
:102DB000310584F48D819E8181309105D1F12D8181
:102DC0003E81223031050CF04AC08D819E810097F2
:102DD000D1F0C8C02D813E812530310509F481C074
:102DE0008D819E81853091050CF465C02D813E81D9
:102DF0002630310509F48BC08D819E818730910585
:102E000009F49BC0AFC0A6E2B0E0E6E2F0E080814A
:102E10008E7F8C93A6E2B0E0E6E2F0E080818D7FC9
:102E20008C93A6E2B0E0E6E2F0E080818B7F8C93A9
:102E300099C0A6E2B0E0E6E2F0E0808181608C9388
:102E4000A6E2B0E0E6E2F0E080818D7F8C93A6E21E
:102E5000B0E0E6E2F0E080818B7F8C9383C0A6E255
:102E6000B0E0E6E2F0E080818E7F8C93A6E2B0E0F5
:102E7000E6E2F0E0808182608C93A6E2B0E0E6E2D8
:102E8000F0E080818B7F8C936DC0A6E2B0E0E6E23B
:102E9000F0E0808181608C93A6E2B0E0E6E2F0E0B1
:102EA000808182608C93A6E2B0E0E6E2F0E080816F
:102EB0008B7F8C9357C0A6E2B0E0E6E2F0E0808121
:102EC0008E7F8C93A6E2B0E0E6E2F0E080818D7F19
:102ED0008C93A6E2B0E0E6E2F0E0808184608C931F
:102EE00041C0A6E2B0E0E6E2F0E0808181608C9330
:102EF000A6E2B0E0E6E2F0E080818D7F8C93A6E26E
:102F0000B0E0E6E2F0E0808184608C932BC0A6E222
:102F1000B0E0E6E2F0E080818E7F8C93A6E2B0E044
:102F2000E6E2F0E0808182608C93A6E2B0E0E6E227
:102F3000F0E0808184608C9315C0A6E2B0E0E6E208
:102F4000F0E0808181608C93A6E2B0E0E6E2F0E000
:102F5000808182608C93A6E2B0E0E6E2F0E08081BE
:102F600084608C93E981FA818481282F30E03C834E
:102F70002B838B819C81009731F02B813C81213008
:102F8000310549F00FC0A6E2B0E0E6E2F0E0808152
:102F900080628C9307C0A6E2B0E0E6E2F0E08081B8
:102FA0008F7D8C93E981FA818581882F90E000974D
:102FB00069F4A0E5B0E0E0E5F0E080818F718C93EA
:102FC000A0E5B0E0E0E5F0E080818C93A6E2B0E01F
:102FD000E6E2F0E0808180688C932A960FB6F89440
:102FE000DEBF0FBECDBFCF91DF910895DF93CF93AA
:102FF000CDB7DEB72A970FB6F894DEBF0FBECDBFB0
:103000008D836E831C821B821A821982A7E2B0E034
:10301000E7E2F0E08081807E8C93A7E2B0E0E7E217
:10302000F0E090818D81892B8C938E81282F30E068
:103030003A87298789859A85009769F029853A8595
:103040002130310579F4A6E2B0E0E6E2F0E08081DB
:1030500080688C9307C0A6E2B0E0E6E2F0E08081F1
:103060008F778C93A6E2B0E0E6E2F0E080818064A6
:103070008C9305C089819A8101969A838983E6E2BF
:10308000F0E080818295869586958370882F90E008
:1030900081709070882371F789819A8133EC803533
:1030A000930740F3E6E2F0E080818295869586956D
:1030B0008370882F90E081709070009739F4E4E27B
:1030C000F0E08081918198878F8302C018861F82EB
:1030D0008F8198852A960FB6F894DEBF0FBECDBFBC
:1030E000CF91DF910895DF93CF93CDB7DEB72797C8
:1030F0000FB6F894DEBF0FBECDBF89836A834B83C2
:10310000A7E2B0E0E7E2F0E08081807E8C93A7E266
:10311000B0E0E7E2F0E090818981892B8C938A818D
:10312000282F30E03F832E838E819F810097A1F06E
:103130002E813F8121303105B1F4A6E2B0E0E6E214
:10314000F0E080818F778C93A6E2B0E0E6E2F0E0D9
:10315000808180688C9307C0A6E2B0E0E6E2F0E0F0
:1031600080818F778C938B81282F30E03D832C8357
:103170008C819D81009731F02C813D81213031057A
:1031800081F016C0A6E2B0E0E6E2F0E08081877F41
:103190008C93A6E2B0E0E6E2F0E0808188608C9358
:1031A00007C0A6E2B0E0E6E2F0E08081877F8C9382
:1031B000A6E2B0E0E6E2F0E080818F7B8C93A6E2AD
:1031C000B0E0E6E2F0E0808180648C9327960FB651
:1031D000F894DEBF0FBECDBFCF91DF910895DF938E
:1031E000CF93CDB7DEB7E4E2F0E080819181CF915B
:1031F000DF910895DF93CF93CDB7DEB7A6E2B0E0BD
:10320000E6E2F0E0808188608C93CF91DF910895B1
:10321000DF93CF93CDB7DEB7A6E2B0E0E6E2F0E011
:103220008081877F8C93CF91DF910895DF93CF9337
:1032300000D0CDB7DEB79A83898389819A810097C0
:1032400031F089819A819093A4028093A3020F9018
:103250000F90CF91DF9108951F920F920FB60F92AA
:1032600011242F933F934F935F936F937F938F938B
:103270009F93AF93BF93EF93FF93DF93CF93CDB71C
:10328000DEB78091A3029091A402009729F0E0910B
:10329000A302F091A4020995CF91DF91FF91EF91E4
:1032A000BF91AF919F918F917F916F915F914F915E
:1032B0003F912F910F900FBE0F901F901895DF93A5
:1032C000CF93CDB7DEB768970FB6F894DEBF0FBEC9
:1032D000CDBF0E948D2380E060E00E94DA0782E08B
:1032E0000E941C0888E261E00E944F1480E090E098
:1032F000A0E2B1E48D8B9E8BAF8BB88F6D897E89F8
:103300008F89988D2BEA3AEA4AEA50E40E941F021C
:10331000DC01CB01898B9A8BAB8BBC8B69897A8959
:103320008B899C8920E030E040E85FE30E9425041F
:1033300088231CF481E0888B91C069897A898B8904
:103340009C8920E030E04FE753E40E94C503181643
:103350000CF07BC06D897E898F89988D20E030E0EC
:103360004AE754E40E941903DC01CB018C879D8756
:10337000AE87BF876C857D858E859F8520E030E098
:103380004AE755E40E941F02DC01CB018887998738
:10339000AA87BB87688579858A859B8520E030E090
:1033A00040E85FE30E94250488232CF481E090E04C
:1033B0009F838E833FC0688579858A859B8520E0C1
:1033C0003FEF4FE757E40E94C50318164CF56C8594
:1033D0007D858E859F8520E030E040E251E40E94AB
:1033E0001F02DC01CB01BC01CD010E944900DC01C0
:1033F000CB019F838E830FC080E991E09D838C83F6
:103400008C819D810197F1F79D838C838E819F81B3
:1034100001979F838E838E819F81009769F724C0D7
:10342000688579858A859B850E944900DC01CB01EE
:103430009F838E838E819F819B838A838A819B81D8
:103440000197F1F79B838A830FC069897A898B89F9
:103450009C890E944900DC01CB01888B8889898383
:1034600089818A95F1F7898388E260E00E944F1490
:1034700068960FB6F894DEBF0FBECDBFCF91DF9137
:103480000895DF93CF93CDB7DEB70E946C08E8E5CF
:10349000F0E08081829586958770882F90E081701A
:1034A00090700097A1F380E00E94C9080E94B708BD
:1034B0009093A6028093A50280E00E94840808C031
:1034C0008091AD028F5F8093AD0283E00E94C908B6
:1034D000E8E5F0E0808186958695882F90E0817000
:1034E0009070882369F7E8E5F0E080818295869501
:1034F0008770882F90E0817090700097A1F380E032
:103500000E94C9080E94B7089093A8028093A7025E
:1035100081E00E948408CF91DF910895DF93CF93DB
:1035200000D000D0CDB7DEB781E060E00E94ED268C
:103530008091AD02882F90E0A0E0B0E0BC01CD0109
:103540000E94512681E066E00E94ED268091A5024E
:103550009091A602CC01A0E0B0E0BC01CD010E9498
:10356000512682E060E00E94ED268091A7029091B2
:10357000A802CC01A0E0B0E0BC01CD010E94512620
:1035800019821A821B821C828091AD02882309F461
:1035900048C08091A5029091A6029C0140E050E0B5
:1035A0008FEF9FEFA0E0B0E0821B930BA40BB50B55
:1035B00089839A83AB83BC838091AD0281508093D1
:1035C000AD028091AD02882F90E0A0E0B0E02FEF37
:1035D0003FEF40E050E0BC01CD010E9479289B0103
:1035E000AC0189819A81AB81BC81820F931FA41F9A
:1035F000B51F89839A83AB83BC838091A702909186
:10360000A8029C0140E050E089819A81AB81BC8195
:10361000820F931FA41FB51F89839A83AB83BC833A
:1036200013C02091A7023091A8028091A502909129
:10363000A602A901481B590BCA01CC01A0E0B0E0C9
:1036400089839A83AB83BC8389819A81AB81BC8156
:10365000B695A795979587959093AA028093A9020E
:103660008091A9029091AA02CC01A0E0B0E0BC0137
:10367000CD010E940705DC01CB01BC01CD0128E290
:103680003EE74CE05DE30E941F02DC01CB01BC0180
:10369000CD010E944900DC01CB019093AC028093E4
:1036A000AB0282E066E00E94ED268091AB02909131
:1036B000AC02CC01A0E0B0E0BC01CD010E945126DB
:1036C0000E9447088091AB029091AC020F900F903E
:1036D0000F900F90CF91DF9108950F931F93DF9379
:1036E000CF93CDB7DEB7C054D0400FB6F894DEBF4D
:1036F0000FBECDBFFE01FF96918380831BAE1CAE33
:103700001DAE1EAE1AAE24C08AAD082F10E0FE0119
:10371000FF96808191812AE030E0B9010E94A428BF
:10372000282FCE01CB96FC01E00FF11F2083FE0174
:10373000FF96808191812AE030E0B9010E94A4289F
:10374000CB01FE01FF96918380838AAD8F5F8AAFA4
:10375000FE01FF9680819181009719F08AAD843037
:1037600098F219AE1AAE8AAD282F30E0CE01CB9672
:10377000FC01E20FF31F8081982F917084E1692F83
:103780000E944F148AAD282F30E0CE01CB96FC0169
:10379000E20FF31F80818695982F917085E1692F44
:1037A0000E944F148AAD282F30E0CE01CB96FC0149
:1037B000E20FF31F808186958695982F917086E1A0
:1037C000692F0E944F148AAD282F30E0CE01CB968E
:1037D000FC01E20FF31F8081869586958695982FD0
:1037E000917088E1692F0E944F148DE060E00E9483
:1037F0004F1480E090E0A0E8BFE38DAB9EABAFAB91
:10380000B8AF6DA97EA98FA998AD20E030E04AE756
:1038100055E40E941F02DC01CB0189AB9AABABAB34
:10382000BCAB69A97AA98BA99CA920E030E040E84B
:103830005FE30E94250488232CF481E090E098AB9C
:103840008FA73FC069A97AA98BA99CA920E03FEF67
:103850004FE757E40E94C50318164CF56DA97EA9E1
:103860008FA998AD20E030E040E251E40E941F02B1
:10387000DC01CB01BC01CD010E944900DC01CB0180
:1038800098AB8FA70FC080E991E09EA78DA78DA56B
:103890009EA50197F1F79EA78DA78FA598A90197DF
:1038A00098AB8FA78FA598A9009769F714C069A94D
:1038B0007AA98BA99CA90E944900DC01CB0198AB95
:1038C0008FA78FA598A99CA78BA78BA59CA50197CF
:1038D000F1F79CA78BA78DE061E00E944F1481E077
:1038E0008AAF8AAD282F30E0CE01CB96FC01E20FE3
:1038F000F31F8081982F917084E1692F0E944F14EB
:103900008AAD282F30E0CE01CB96FC01E20FF31FE9
:1039100080818695982F917085E1692F0E944F14C0
:103920008AAD282F30E0CE01CB96FC01E20FF31FC9
:10393000808186958695982F917086E1692F0E94E7
:103940004F148AAD282F30E0CE01CB96FC01E20F58
:10395000F31F8081869586958695982F917088E1D2
:10396000692F0E944F148CE060E00E944F1480E0A9
:1039700090E0A0E8BFE38FA398A7A9A7BAA76FA17B
:1039800078A589A59AA520E030E04AE755E40E9491
:103990001F02DC01CB018BA39CA3ADA3BEA36BA133
:1039A0007CA18DA19EA120E030E040E85FE30E9471
:1039B000250488232CF481E090E09AA389A33FC0DA
:1039C0006BA17CA18DA19EA120E03FEF4FE757E4C2
:1039D0000E94C50318164CF56FA178A589A59AA574
:1039E00020E030E040E251E40E941F02DC01CB0104
:1039F000BC01CD010E944900DC01CB019AA389A33F
:103A00000FC080E991E098A38F8F8F8D98A10197C7
:103A1000F1F798A38F8F89A19AA101979AA389A3FF
:103A200089A19AA1009769F714C06BA17CA18DA10F
:103A30009EA10E944900DC01CB019AA389A389A120
:103A40009AA19E8F8D8F8D8D9E8D0197F1F79E8F00
:103A50008D8F8CE061E00E944F1482E08AAF8AADC6
:103A6000282F30E0CE01CB96FC01E20FF31F8081BE
:103A7000982F917084E1692F0E944F148AAD282FEE
:103A800030E0CE01CB96FC01E20FF31F80818695DA
:103A9000982F917085E1692F0E944F148AAD282FCD
:103AA00030E0CE01CB96FC01E20FF31F80818695BA
:103AB0008695982F917086E1692F0E944F148AADE8
:103AC000282F30E0CE01CB96FC01E20FF31F80815E
:103AD000869586958695982F917088E1692F0E942A
:103AE0004F1489E160E00E944F1480E090E0A0E86C
:103AF000BFE3898F9A8FAB8FBC8F698D7A8D8B8D49
:103B00009C8D20E030E04AE755E40E941F02DC0172
:103B1000CB018D8B9E8BAF8BB88F6D897E898F8902
:103B2000988D20E030E040E85FE30E942504882380
:103B30002CF481E090E09C8B8B8B3FC06D897E895B
:103B40008F89988D20E03FEF4FE757E40E94C5032F
:103B500018164CF5698D7A8D8B8D9C8D20E030E0A8
:103B600040E251E40E941F02DC01CB01BC01CD0107
:103B70000E944900DC01CB019C8B8B8B0FC080E93C
:103B800091E09A8B898B89899A890197F1F79A8BB1
:103B9000898B8B899C8901979C8B8B8B8B899C89CA
:103BA000009769F714C06D897E898F89988D0E946E
:103BB0004900DC01CB019C8B8B8B8B899C89988B7A
:103BC0008F878F8598890197F1F7988B8F8789E187
:103BD00061E00E944F1483E08AAF8AAD282F30E065
:103BE000CE01CB96FC01E20FF31F8081982F9170DC
:103BF00084E1692F0E944F148AAD282F30E0CE0156
:103C0000CB96FC01E20FF31F80818695982F91706F
:103C100085E1692F0E944F148AAD282F30E0CE0134
:103C2000CB96FC01E20FF31F808186958695982F35
:103C3000917086E1692F0E944F148AAD282F30E0E1
:103C4000CE01CB96FC01E20FF31F8081869586950D
:103C50008695982F917088E1692F0E944F148AE110
:103C600060E00E944F1480E090E0A0E8BFE38B8703
:103C70009C87AD87BE876B857C858D859E8520E082
:103C800030E04AE755E40E941F02DC01CB018F833C
:103C90009887A987BA876F81788589859A8520E07A
:103CA00030E040E85FE30E94250488232CF481E0A3
:103CB00090E09E838D833FC06F81788589859A854A
:103CC00020E03FEF4FE757E40E94C50318164CF57C
:103CD0006B857C858D859E8520E030E040E251E457
:103CE0000E941F02DC01CB01BC01CD010E944900F2
:103CF000DC01CB019E838D830FC080E991E09C8322
:103D00008B838B819C810197F1F79C838B838D81C1
:103D10009E8101979E838D838D819E81009769F797
:103D200014C06F81788589859A850E944900DC01DD
:103D3000CB019E838D838D819E819A838983898126
:103D40009A810197F1F79A8389838AE161E00E9461
:103D50004F1489AD8F5F89AF05CDDF93CF93CDB77A
:103D6000DEB764970FB6F894DEBF0FBECDBF898B68
:103D70006A8B81E0888B8989282F30E03C8B2B8BE4
:103D80008B899C898130910509F49BC02B893C89E2
:103D9000223031052CF48B899C89009771F0C3C0C7
:103DA0002B893C892230310509F49CC08B899C8980
:103DB0008330910509F4A7C0B6C08FE20E94C913F1
:103DC0008F878F85882309F0AEC080E090E0A8E45B
:103DD000B2E48B879C87AD87BE876B857C858D859C
:103DE0009E8520E030E04AE755E40E941F02DC0196
:103DF000CB018F839887A987BA876F81788589855A
:103E00009A8520E030E040E85FE30E9425048823A3
:103E10002CF481E090E09E838D833FC06F81788594
:103E200089859A8520E03FEF4FE757E40E94C5035C
:103E300018164CF56B857C858D859E8520E030E0DD
:103E400040E251E40E941F02DC01CB01BC01CD0124
:103E50000E944900DC01CB019E838D830FC080E965
:103E600091E09C838B838B819C810197F1F79C83EC
:103E70008B838D819E8101979E838D838D819E8111
:103E8000009769F719C06F81788589859A850E94A6
:103E90004900DC01CB019E838D838D819E819A83B5
:103EA000898389819A810197F1F79A83898304C074
:103EB0008FE20E94C9138F878F858823C9F3188AE0
:103EC00032C08EE20E94C9138F878F85882359F5EF
:103ED00004C08EE20E94C9138F878F858823C9F39F
:103EE000188A21C08DE20E94C9138F878F8588238D
:103EF000D1F404C08DE20E94C9138F878F85882377
:103F0000C9F3188A10C08BE20E94C9138F878F856E
:103F1000882349F404C08BE20E94C9138F878F85E0
:103F20008823C9F3188A888964960FB6F894DEBF8F
:103F30000FBECDBFCF91DF910895DF93CF93CDB763
:103F4000DEB78DE991E00E946D16CF91DF91089563
:103F5000DF93CF9300D000D0CDB7DEB71C821B8299
:103F60001A82198280E061E00E94F6179C838B839D
:103F70002B813C81C901880F991F880F991F820FDF
:103F8000931F2AE030E0B9010E94A428CB010197D9
:103F90009A83898389819A810F900F900F900F9057
:103FA000CF91DF910895DF93CF9300D00F92CDB7DB
:103FB000DEB789838981282F30E03B832A838A8179
:103FC0009B8181309105F9F02A813B8122303105B6
:103FD0002CF48A819B81009761F01EC02A813B816D
:103FE0002230310559F08A819B818330910581F01F
:103FF00013C08BE161E00E944F140EC08EE061E0BF
:104000000E944F1409C08FE061E00E944F1404C069
:1040100080E161E00E944F140F900F900F90CF91BC
:10402000DF910895DF93CF9300D00F92CDB7DEB725
:1040300089838981282F30E03B832A838A819B8171
:1040400081309105F9F02A813B81223031052CF431
:104050008A819B81009761F01EC02A813B812230BA
:10406000310559F08A819B818330910581F013C01D
:104070008BE160E00E944F140EC08EE060E00E9471
:104080004F1409C08FE060E00E944F1404C080E12B
:1040900060E00E944F140F900F900F90CF91DF912E
:1040A0000895DF93CF9300D00F92CDB7DEB7898309
:1040B0008981282F30E03B832A838A819B8181304C
:1040C0009105E9F02A813B81223031052CF48A8167
:1040D0009B81009761F01AC02A813B812230310513
:1040E00051F08A819B818330910569F00FC08BE18B
:1040F0000E94E1150BC08EE00E94E11507C08FE021
:104100000E94E11503C080E10E94E1150F900F901D
:104110000F90CF91DF910895DF93CF93CDB7DEB7A6
:1041200062970FB6F894DEBF0FBECDBF198A188A0A
:10413000C8C08091B30161E00E944F148091B40126
:1041400061E00E944F148091B50161E00E944F141C
:104150008091B60161E00E944F148889882F90E019
:10416000FC01ED54FE4F808160E00E944F141F86D9
:10417000A1C08F85882F90E0FC01E954FE4F80811B
:104180000E94C913882309F092C080E090E0A8E45F
:10419000B2E48B879C87AD87BE876B857C858D85D8
:1041A0009E8520E030E04AE755E40E941F02DC01D2
:1041B000CB018F839887A987BA876F817885898596
:1041C0009A8520E030E040E85FE30E9425048823E0
:1041D0002CF481E090E09E838D833FC06F817885D1
:1041E00089859A8520E03FEF4FE757E40E94C50399
:1041F00018164CF56B857C858D859E8520E030E01A
:1042000040E251E40E941F02DC01CB01BC01CD0160
:104210000E944900DC01CB019E838D830FC080E9A1
:1042200091E09C838B838B819C810197F1F79C8328
:104230008B838D819E8101979E838D838D819E814D
:10424000009769F714C06F81788589859A850E94E7
:104250004900DC01CB019E838D838D819E819A83F1
:10426000898389819A810197F1F79A8389838F8560
:10427000882F90E0FC01E954FE4F80810E94C91311
:104280008823A9F38889482F50E08F85282F30E0B4
:10429000CA01880F991F880F991F820F931FFC0175
:1042A000ED55FE4F8081898B89898A8B10C08F855F
:1042B0008F5F8F878F85843008F45BCF88898F5F0D
:1042C000888B8889843008F434CF89898A8B8A89DD
:1042D00062960FB6F894DEBF0FBECDBFCF91DF91CF
:1042E0000895DF93CF93CDB7DEB728970FB6F89434
:1042F000DEBF0FBECDBF69837A838B839C834D83E2
:104300002E8383E065E00E94E90829813A814B8190
:104310005C8185E0BA01A9012D810E94E70C8E81A4
:10432000282F30E038872F838F8198858130910541
:1043300031F02F8138852230310551F011C088E2EB
:1043400061E00E944F1489E260E00E944F1408C0AF
:1043500088E260E00E944F1489E261E00E944F14FD
:1043600028960FB6F894DEBF0FBECDBFCF91DF9178
:104370000895DF93CF93CDB7DEB783E060E00E946E
:10438000E9080E941A0BCF91DF910895DF93CF9334
:10439000CDB7DEB7AB970FB6F894DEBF0FBECDBF7B
:1043A0008BA78CE060E00E944F148BA582958F70E4
:1043B000982F917084E1692F0E944F148BA58295EC
:1043C00086958770982F917085E1692F0E944F1410
:1043D0008BA58295869586958370982F917086E13E
:1043E000692F0E944F148BA5982F991F9927991F09
:1043F00088E1692F0E944F148CE061E00E944F1405
:1044000080E090E0A0E8BFE38FA398A7A9A7BAA790
:104410006FA178A589A59AA520E030E04AE755E488
:104420000E941F02DC01CB018BA39CA3ADA3BEA302
:104430006BA17CA18DA19EA120E030E040E85FE36C
:104440000E94250488232CF481E090E09AA389A39C
:104450003FC06BA17CA18DA19EA120E03FEF4FE763
:1044600057E40E94C50318164CF56FA178A589A5DD
:104470009AA520E030E040E251E40E941F02DC01F6
:10448000CB01BC01CD010E944900DC01CB019AA304
:1044900089A30FC080E991E098A38F8F8F8D98A199
:1044A0000197F1F798A38F8F89A19AA101979AA3F9
:1044B00089A389A19AA1009769F714C06BA17CA177
:1044C0008DA19EA10E944900DC01CB019AA389A382
:1044D00089A19AA19E8F8D8F8D8D9E8D0197F1F769
:1044E0009E8F8D8F8CE060E00E944F148BA5982FDB
:1044F000917084E1692F0E944F148BA58695982FA7
:10450000917085E1692F0E944F148BA58695869541
:10451000982F917086E1692F0E944F148BA5869584
:1045200086958695982F917088E1692F0E944F1487
:104530008CE061E00E944F1480E090E0A0E8BFE3CF
:10454000898F9A8FAB8FBC8F698D7A8D8B8D9C8D67
:1045500020E030E04AE755E40E941F02DC01CB0175
:104560008D8B9E8BAF8BB88F6D897E898F89988D4F
:1045700020E030E040E85FE30E94250488232CF42B
:1045800081E090E09C8B8B8B3FC06D897E898F8909
:10459000988D20E03FEF4FE757E40E94C5031816BF
:1045A0004CF5698D7A8D8B8D9C8D20E030E040E25A
:1045B00051E40E941F02DC01CB01BC01CD010E942D
:1045C0004900DC01CB019C8B8B8B0FC080E991E013
:1045D0009A8B898B89899A890197F1F79A8B898BB4
:1045E0008B899C8901979C8B8B8B8B899C890097ED
:1045F00069F714C06D897E898F89988D0E94490062
:10460000DC01CB019C8B8B8B8B899C89988B8F8752
:104610008F8598890197F1F7988B8F878CE060E000
:104620000E944F1480E090E0A0EFB1E48B879C875C
:10463000AD87BE876B857C858D859E8520E030E0CB
:104640004AE755E40E941F02DC01CB018F83988763
:10465000A987BA876F81788589859A8520E030E0BF
:1046600040E85FE30E94250488232CF481E090E079
:104670009E838D833FC06F81788589859A8520E0F0
:104680003FEF4FE757E40E94C50318164CF56B85C2
:104690007C858D859E8520E030E040E251E40E94DB
:1046A0001F02DC01CB01BC01CD010E944900DC01ED
:1046B000CB019E838D830FC080E991E09C838B8327
:1046C0008B819C810197F1F79C838B838D819E81E7
:1046D00001979E838D838D819E81009769F714C019
:1046E0006F81788589859A850E944900DC01CB011C
:1046F0009E838D838D819E819A83898389819A810E
:104700000197F1F79A838983AB960FB6F894DEBFD1
:104710000FBECDBFCF91DF9108950F931F93DF930D
:10472000CF93CDB7DEB7C654D0400FB6F894DEBFF6
:104730000FBECDBFFE01ED5BFF4F80E090E0A6E134
:10474000B3E480839183A283B3838E01015C1F4F06
:10475000FE01ED5BFF4F608171818281938120E0DA
:1047600030E04AE755E40E941F02DC01CB01F8016A
:1047700080839183A283B383FE01FF966081718160
:104780008281938120E030E040E85FE30E942504CD
:1047900088232CF481E090E09EAF8DAF46C0FE01EF
:1047A000FF96608171818281938120E03FEF4FE726
:1047B00057E40E94C503181664F5FE01ED5BFF4F38
:1047C000608171818281938120E030E040E251E498
:1047D0000E941F02DC01CB01BC01CD010E944900F7
:1047E000DC01CB019EAF8DAF0FC080E991E09CAFA3
:1047F0008BAF8BAD9CAD0197F1F79CAF8BAF8DADBF
:104800009EAD01979EAF8DAF8DAD9EAD009769F7C0
:1048100016C0FE01FF9660817181828193810E94A2
:104820004900DC01CB019EAF8DAF8DAD9EAD9AAF3F
:1048300089AF89AD9AAD0197F1F79AAF89AF8DE055
:1048400060E00E944F1482E00E94172680E090E012
:10485000A0EAB0E48DAB9EABAFABB8AF6DA97EA9BB
:104860008FA998AD20E030E04AE755E40E941F028E
:10487000DC01CB0189AB9AABABABBCAB69A97AA924
:104880008BA99CA920E030E040E85FE30E9425046A
:1048900088232CF481E090E098AB8FA73FC069A9F2
:1048A0007AA98BA99CA920E03FEF4FE757E40E942B
:1048B000C50318164CF56DA97EA98FA998AD20E007
:1048C00030E040E251E40E941F02DC01CB01BC0158
:1048D000CD010E944900DC01CB0198AB8FA70FC02E
:1048E00080E991E09EA78DA78DA59EA50197F1F780
:1048F0009EA78DA78FA598A9019798AB8FA78FA585
:1049000098A9009769F714C069A97AA98BA99CA9ED
:104910000E944900DC01CB0198AB8FA78FA598A915
:104920009CA78BA78BA59CA50197F1F79CA78BA7AC
:1049300088E20E94172680E090E0A0EAB0E48FA30E
:1049400098A7A9A7BAA76FA178A589A59AA520E0DD
:1049500030E04AE755E40E941F02DC01CB018BA343
:104960009CA3ADA3BEA36BA17CA18DA19EA120E0C1
:1049700030E040E85FE30E94250488232CF481E0C6
:1049800090E09AA389A33FC06BA17CA18DA19EA1B9
:1049900020E03FEF4FE757E40E94C50318164CF59F
:1049A0006FA178A589A59AA520E030E040E251E406
:1049B0000E941F02DC01CB01BC01CD010E94490015
:1049C000DC01CB019AA389A30FC080E991E098A3F1
:1049D0008F8F8F8D98A10197F1F798A38F8F89A161
:1049E0009AA101979AA389A389A19AA1009769F72F
:1049F00014C06BA17CA18DA19EA10E944900DC0185
:104A0000CB019AA389A389A19AA19E8F8D8F8D8DA9
:104A10009E8D0197F1F79E8F8D8F8CE00E94172657
:104A200080E090E0A0EAB0E4898F9A8FAB8FBC8FD2
:104A3000698D7A8D8B8D9C8D20E030E04AE755E4BE
:104A40000E941F02DC01CB018D8B9E8BAF8BB88F38
:104A50006D897E898F89988D20E030E040E85FE3A2
:104A60000E94250488232CF481E090E09C8B8B8BA2
:104A70003FC06D897E898F89988D20E03FEF4FE799
:104A800057E40E94C50318164CF5698D7A8D8B8DFD
:104A90009C8D20E030E040E251E40E941F02DC01E6
:104AA000CB01BC01CD010E944900DC01CB019C8BF4
:104AB0008B8B0FC080E991E09A8B898B89899A89C9
:104AC0000197F1F79A8B898B8B899C8901979C8B35
:104AD0008B8B8B899C89009769F714C06D897E89BF
:104AE0008F89988D0E944900DC01CB019C8B8B8BB8
:104AF0008B899C89988B8F878F8598890197F1F78F
:104B0000988B8F8781E00E94172680E090E0A0EAD2
:104B1000B0E48B879C87AD87BE876B857C858D8550
:104B20009E8520E030E04AE755E40E941F02DC0148
:104B3000CB018F839887A987BA876F81788589850C
:104B40009A8520E030E040E85FE30E942504882356
:104B50002CF481E090E09E838D833FC06F81788547
:104B600089859A8520E03FEF4FE757E40E94C5030F
:104B700018164CF56B857C858D859E8520E030E090
:104B800040E251E40E941F02DC01CB01BC01CD01D7
:104B90000E944900DC01CB019E838D830FC080E918
:104BA00091E09C838B838B819C810197F1F79C839F
:104BB0008B838D819E8101979E838D838D819E81C4
:104BC000009769F714C06F81788589859A850E945E
:104BD0004900DC01CB019E838D838D819E819A8368
:104BE000898389819A810197F1F79A83898386E085
:104BF0000E941726CA5BDF4F0FB6F894DEBF0FBEC8
:104C0000CDBFCF91DF911F910F910895DF93CF9387
:104C10000F92CDB7DEB789838DE061E00E944F141B
:104C200089810E94C6210F90CF91DF910895DF9373
:104C3000CF930F92CDB7DEB789838DE060E00E94FD
:104C40004F1489810E94C6210F90CF91DF91089562
:104C5000DF93CF9300D00F92CDB7DEB79B838A83CB
:104C600019820EC08981282F30E08A819B81FC0146
:104C7000E20FF31F80810E94062689818F5F89835E
:104C80008981282F30E08A819B81FC01E20FF31F8C
:104C90008081882339F70F900F900F90CF91DF918B
:104CA00008950F931F93DF93CF93CDB7DEB7A597EA
:104CB0000FB6F894DEBF0FBECDBF6AA37BA38CA353
:104CC0009DA380E2FE013296DF01982F1D929A95F6
:104CD000E9F719828AA19BA1ACA1BDA1BB230CF06D
:104CE0004AC08AA19BA1ACA1BDA1B095A095909509
:104CF00081959F4FAF4FBF4F8AA39BA3ACA3BDA38A
:104D00008DE20E94062637C08981082F10E08AA113
:104D10009BA1ACA1BDA12AE030E040E050E0BC0185
:104D2000CD010E94DA28DC01CB01AC01BD01980164
:104D3000220F331F220F331FCE010196820F931FC4
:104D4000FC01319640835183628373838AA19BA1C6
:104D5000ACA1BDA12AE030E040E050E0BC01CD01B3
:104D60000E94DA28DA01C9018AA39BA3ACA3BDA3E0
:104D700089818F5F89838AA19BA1ACA1BDA1009786
:104D8000A105B10509F689818150898318C08981FF
:104D9000882F90E09C01220F331F220F331FCE017A
:104DA0000196820F931FFC01319680819181A2812F
:104DB000B381805D0E940626898181508983898123
:104DC000803328F3A5960FB6F894DEBF0FBECDBF93
:104DD000CF91DF911F910F910895DF93CF9300D072
:104DE0000F92CDB7DEB78A836B838A81813019F445
:104DF0008B81898314C08A81823021F48B81805C0D
:104E000089830DC08A81833021F48B818C5E8983F4
:104E100006C08A81843019F48B818C5A89838981F8
:104E200080580E9417260F900F900F90CF91DF911E
:104E30000895DF93CF9300D000D00F92CDB7DEB7A7
:104E40009C838B836D831A8219828D81882F90E0D9
:104E5000880F991F880F991F880F991F898389814F
:104E6000805C0E9417261A820EC08A81282F30E0AB
:104E70008B819C81FC01E20FF31F80810E9406263A
:104E80008A818F5F8A838A81883078F381E060E04D
:104E90000E94ED268D810E9406260F900F900F90A4
:104EA0000F900F90CF91DF910895DF93CF930F92E2
:104EB000CDB7DEB7898389810E9406260F90CF91F6
:104EC000DF910895DF93CF93CDB7DEB781E00E94E5
:104ED0001726CF91DF910895DF93CF93CDB7DEB73B
:104EE00089E092E00E94120F0E948D230E949D1F74
:104EF000CF91DF910895DF93CF9300D0CDB7DEB788
:104F00001A8219820E94A81F9A83898389819A81B3
:104F100089319105D0F40E94622780E690E00E94DA
:104F2000282689819A81CC01A0E0B0E0BC01CD01A6
:104F30000E9451260E94B92182E060E00E94ED2685
:104F40008DE690E00E9428264EC089819A818A31A0
:104F5000910528F189819A818332910500F50E949B
:104F6000622780E690E00E94282689819A81CC0100
:104F7000A0E0B0E0BC01CD010E94512664EF71E0D9
:104F800080E090E042E321E00E94712182E060E055
:104F90000E94ED2685E790E00E94282624C08981A2
:104FA0009A8184329105F8F00E94622780E690E0B1
:104FB0000E94282689819A81CC01A0E0B0E0BC0142
:104FC000CD010E94512664E670E080E090E040E56B
:104FD00021E00E94712182E060E00E94ED2685E8D8
:104FE00090E00E9428260F900F90CF91DF910895B6
:104FF000DF93CF93CDB7DEB72E970FB6F894DEBF11
:105000000FBECDBF0E946C270E947B2780E090E4FA
:10501000ACE9B5E48B879C87AD87BE876B857C85C3
:105020008D859E8520E030E04AE755E40E941F020E
:10503000DC01CB018F839887A987BA876F81788538
:1050400089859A8520E030E040E85FE30E942504EE
:1050500088232CF481E090E09E838D833FC06F8194
:10506000788589859A8520E03FEF4FE757E40E94D5
:10507000C50318164CF56B857C858D859E8520E0D3
:1050800030E040E251E40E941F02DC01CB01BC0190
:10509000CD010E944900DC01CB019E838D830FC0AE
:1050A00080E991E09C838B838B819C810197F1F750
:1050B0009C838B838D819E8101979E838D838D81BF
:1050C0009E81009769F7A0CF6F81788589859A8541
:1050D0000E944900DC01CB019E838D838D819E81DE
:1050E0009A83898389819A810197F1F79A838983C9
:1050F0008BCF629FD001739FF001829FE00DF11D65
:10510000649FE00DF11D929FF00D839FF00D749F41
:10511000F00D659FF00D9927729FB00DE11DF91FED
:10512000639FB00DE11DF91FBD01CF01112408954A
:10513000991B79E004C0991F961708F0961B881FE9
:105140007A95C9F780950895AA1BBB1B51E107C04A
:10515000AA1FBB1FA617B70710F0A61BB70B881F07
:10516000991F5A95A9F780959095BC01CD01089596
:10517000A1E21A2EAA1BBB1BFD010DC0AA1FBB1F5B
:10518000EE1FFF1FA217B307E407F50720F0A21BCD
:10519000B30BE40BF50B661F771F881F991F1A943A
:1051A00069F760957095809590959B01AC01BD0164
:1051B000CF01089597FB092E05260ED057FD04D088
:1051C000D7DF0AD0001C38F45095409530952195D2
:1051D0003F4F4F4F5F4F0895F6F79095809570952C
:1051E00061957F4F8F4F9F4F08952F923F924F921F
:1051F0005F926F927F928F929F92AF92BF92CF9267
:10520000DF92EF92FF920F931F93CF93DF93CDB76F
:10521000DEB7CA1BDB0B0FB6F894DEBF0FBECDBFE7
:1052200009942A88398848885F846E847D848C84B8
:105230009B84AA84B984C884DF80EE80FD800C81C1
:105240001B81AA81B981CE0FD11D0FB6F894DEBFA4
:0C5250000FBECDBFED010895F894FFCF14
:10525C0054656D70657261747572653A0046616E65
:10526C00204F46460046414E204F4E3A4455545925
:10527C00203530250046414E204F4E3A4455545966
:10528C002038302500000000000000000000010262
:10529C0002030303030404040404040404050505C5
:1052AC00050505050505050505050505050606069F
:1052BC000606060606060606060606060606060682
:1052CC00060606060606060606060606060707076F
:1052DC000707070707070707070707070707070752
:1052EC000707070707070707070707070707070742
:1052FC000707070707070707070707070707070732
:10530C00070707070707070707070707070808081E
:10531C000808080808080808080808080808080801
:10532C0008080808080808080808080808080808F1
:10533C0008080808080808080808080808080808E1
:10534C0008080808080808080808080808080808D1
:10535C0008080808080808080808080808080808C1
:10536C0008080808080808080808080808080808B1
:10537C0008080808080808080808080808080808A1
:10538C000808080808080808080808080840030066
:10539C000000003738392F3435362A3132332D415D
:1053AC00303D2B232221202F2E2D2B1515151111BD
:1053BC0011111F0100010D0F041C00000000010160
:1053CC00010F00001B15110A04000000000A001157
:1053DC000E000000010103020201000000080000A1
:1053EC000040000000000100000004000040070025
:1053FC000000004007200000000A0000010B010023
:10540C00010C0101010D0101010E0001010F000150
:10541C00011000010111000101140101011501012C
:10542C000116010101170001011801010119000108
:10543C00011A0001011B0001011E0001011F0001E6
:10544C0001200101012101010122010101230101BE
:10545C00012400010125000101280000012900019F
:10546C00012A0000002B0100002C0001012D01007D
:0E547C00002E0100002F010000330000000090
:00000001FF
