:100000000C942A000C9449130C947C130C948C13BC
:100010000C9447000C9447000C9447000C94470044
:100020000C9447000C9447000C94D50E0C946C0E65
:100030000C9447000C9447000C9447000C94470024
:100040000C94FF180C9447000C9447000C94470044
:100050000C94470011241FBECFE5D8E0DEBFCDBF12
:1000600012E0A0E6B0E0E0ECF6E402C005900D92EC
:10007000A836B107D9F712E0A8E6B2E001C01D9298
:10008000AD3EB107E1F70E946A210C945E230C9407
:100090000000EF92FF920F931F937B018C0120E0F1
:1000A00030E040E05FE40E94F50388238CF0C80153
:1000B000B70120E030E040E05FE40E94C1010E940F
:1000C00055049B01AC01205030404040504806C0D0
:1000D000C801B7010E9455049B01AC01B901CA01D6
:1000E0001F910F91FF90EF900895A0E0B0E0EBE733
:1000F000F0E00C942723DC012B01FA019C91923053
:1001000008F439C1EB018881823008F433C194309E
:1001100069F4843009F02FC111969C91119789815F
:10012000981709F428C1A2E7B0E025C1843009F48A
:1001300021C18230A9F4923009F01DC19A01AD01AC
:1001400088E0EA010990AE01E90109929E0181501F
:10015000C1F7E201898111969C918923818308C1AD
:10016000923009F407C112962D903C901397EB0141
:100170008A819B811496AD90BD90CD90DC901797AD
:10018000EC80FD800E811F819101281B390BB90184
:1001900037FF04C066277727621B730B6032710537
:1001A0000CF061C0121613066CF537014801062EDB
:1001B00004C096948794779467940A94D2F721E0C8
:1001C00030E040E050E004C0220F331F441F551FB1
:1001D0006A95D2F721503040404050402E213F21B7
:1001E00040235123211531054105510521F021E01E
:1001F00030E040E050E079018A01E628F72808293C
:1002000019293CC0232BD1F1260E371E350146019A
:10021000062E04C096948794779467940A94D2F734
:1002200021E030E040E050E004C0220F331F441FC3
:10023000551F6A95D2F721503040404050402A2146
:100240003B214C215D21211531054105510521F04E
:1002500021E030E040E050E059016A01A628B728CB
:10026000C828D9280BC0821593052CF01C01AA249C
:10027000BB24650103C0EE24FF24870111969C91E5
:10028000D20111968C91981709F445C0992339F041
:10029000A80197012A193B094C095D0906C0A6016E
:1002A00095012E193F09400B510B57FD08C01182D3
:1002B0003382228224833583468357831DC081E0A5
:1002C00081833382228288279927DC01821B930B4A
:1002D000A40BB50B84839583A683B7830DC0220F2F
:1002E000331F441F551F24833583468357838281E0
:1002F000938101979383828324813581468157813D
:10030000DA01C9010197A109B1098F5F9F4FAF4F72
:10031000BF4328F30BC0918333822282EA0CFB1C7B
:100320000C1D1D1DE482F5820683178383E0808304
:10033000248135814681578157FF1AC0C901AA27F8
:1003400097FDA095BA2F81709070A070B0705695EF
:10035000479537952795822B932BA42BB52B848318
:100360009583A683B7838281938101969383828349
:10037000DF0101C0D201CD01CDB7DEB7E2E10C94BF
:100380004323A0E2B0E0E7ECF1E00C94332369836F
:100390007A838B839C832D833E834F835887E9E048
:1003A000EE2EF12CEC0EFD1ECE010196B7010E943F
:1003B00046068E010F5E1F4FCE010596B8010E94C2
:1003C00046068A8991E089278A8BC701B801AE0168
:1003D000475E5F4F0E9475000E947105A096E6E09F
:1003E0000C944F23A0E2B0E0E8EFF1E00C9433234B
:1003F00069837A838B839C832D833E834F835887C5
:10040000F9E0EF2EF12CEC0EFD1ECE010196B701A6
:100410000E9446068E010F5E1F4FCE010596B80161
:100420000E944606C701B801AE01475E5F4F0E94B9
:1004300075000E947105A096E6E00C944F23A0E29F
:10044000B0E0E5E2F2E00C94272369837A838B83A2
:100450009C832D833E834F835887CE010196BE0136
:10046000675F7F4F0E944606CE010596BE016F5E14
:100470007F4F0E9446069985923088F089898230A4
:10048000C8F0943019F4823051F404C0843029F457
:10049000923081F482E790E0C6C0923049F420E0C7
:1004A0009A858A89981321E02A87CE010996BBC0D4
:1004B000823049F420E09A858A89981321E02A8BBA
:1004C000CE014196B0C02D843E844F8458886D88FB
:1004D0007E888F88988CEE24FF248701AA24BB2471
:1004E000650140E050E060E070E0E0E0F0E0C10174
:1004F00081709070892BE9F0E60CF71C081D191D1E
:100500009A01AB012A0D3B1D4C1D5D1D80E090E062
:10051000A0E0B0E0E614F7040805190520F481E036
:1005200090E0A0E0B0E0BA01A901480F591F6A1F8E
:100530007B1FAA0CBB1CCC1CDD1C97FE08C081E0F5
:1005400090E0A0E0B0E0A82AB92ACA2ADB2A3196B6
:10055000E032F10549F0660C771C881C991C569412
:10056000479437942794C3CFFA85EA892B893C892D
:100570008B859C85280F391F2E5F3F4F17C0CA01FE
:1005800081709070892B61F016950795F794E79428
:1005900080E090E0A0E0B0E8E82AF92A0A2B1B2BC3
:1005A00076956795579547952F5F3F4F77FDE7CF36
:1005B0000CC0440F551F661F771F17FD4160EE0CDE
:1005C000FF1C001F111F21503040403090E05907A0
:1005D00090E0690790E4790760F32B8F3C8FDB0193
:1005E000CA018F779070A070B07080349105A1051A
:1005F000B10561F447FD0AC0E114F10401051105DC
:1006000029F0405C5F4F6F4F7F4F40781A8EFE1786
:1006100011F081E08A8F4D8F5E8F6F8F78A383E01A
:10062000898FCE0149960E947105A096E2E10C9453
:100630004323A8E1B0E0EFE1F3E00C942F236983BA
:100640007A838B839C832D833E834F835887B9E0C5
:10065000EB2EF12CEC0EFD1ECE010196B7010E948F
:1006600046068E010F5E1F4FCE010596B8010E940F
:1006700046062985223008F47EC03989323010F4CC
:10068000B8017CC08A859A8989278A87243011F02D
:10069000223031F4231709F06EC062E770E06EC0BB
:1006A000343039F41D861E861F86188A1C861B86E8
:1006B00004C0323021F484E08987B7015FC02B8504
:1006C0003C858B899C89281B390B3C872B87ED84C3
:1006D000FE840F851889AD88BE88CF88D88CEA142F
:1006E000FB040C051D0540F4EE0CFF1C001F111F40
:1006F000215030403C872B8720E030E040E050E044
:1007000080E090E0A0E0B0E460E070E0EA14FB0478
:100710000C051D0540F0282B392B4A2B5B2BEA18C2
:10072000FB080C091D09B695A79597958795EE0CC2
:10073000FF1C001F111F6F5F7F4F6F31710531F775
:10074000DA01C9018F779070A070B0708034910584
:10075000A105B10561F427FD0AC0E114F10401050A
:10076000110529F0205C3F4F4F4F5F4F20782D87B8
:100770003E874F87588BBE01675F7F4FCB010E943A
:1007800071056896EAE00C944B23A8E1B0E0EBEC2D
:10079000F3E00C94332369837A838B839C832D83CA
:1007A0003E834F83588789E0E82EF12CEC0EFD1E26
:1007B000CE010196B7010E9446068E010F5E1F4FC3
:1007C000CE010596B8010E9446068985823040F028
:1007D0008989823028F0C701B8010E94BE0601C095
:1007E0008FEF6896E6E00C944F23A8E1B0E0EBEFC2
:1007F000F3E00C94332369837A838B839C832D836A
:100800003E834F83588789E0E82EF12CEC0EFD1EC5
:10081000CE010196B7010E9446068E010F5E1F4F62
:10082000CE010596B8010E9446068985823040F0C7
:100830008989823028F0C701B8010E94BE0601C034
:100840008FEF6896E6E00C944F23A8E1B0E0EBE26E
:10085000F4E00C94332369837A838B839C832D8308
:100860003E834F83588789E0E82EF12CEC0EFD1E65
:10087000CE010196B7010E9446068E010F5E1F4F02
:10088000CE010596B8010E9446068985823040F067
:100890008989823028F0C701B8010E94BE0601C0D4
:1008A00081E06896E6E00C944F23ACE0B0E0EBE525
:1008B000F4E00C94372369837A838B839C83CE0185
:1008C0000196BE016B5F7F4F0E9446068D8182308C
:1008D00061F1823050F1843021F48E81882351F10E
:1008E0002EC02F81388537FD20C06E812F31310514
:1008F0001CF06623F9F023C08EE190E0821B930B7D
:1009000029853A854B855C8504C056954795379572
:1009100027958A95D2F76623B1F05095409530958A
:1009200021953F4F4F4F5F4F0EC020E030E040E039
:1009300050E009C02FEF3FEF4FEF5FE704C020E02A
:1009400030E040E050E8B901CA012C96E2E00C9496
:100950005323A8E0B0E0EFEAF4E00C942F237B01EE
:100960008C01611571058105910519F482E0898377
:1009700060C083E089838EE1C82ED12CDC82CB82DB
:10098000ED82FE820F831887C801B7010E942205FD
:10099000FC013197F7FF3BC0222733272E1B3F0B6B
:1009A00057016801022E04C0D694C794B794A79447
:1009B0000A94D2F740E050E060E070E081E090E01F
:1009C000A0E0B0E004C0880F991FAA1FBB1F2A95A2
:1009D000D2F70197A109B1098E219F21A023B1234C
:1009E0000097A105B10521F041E050E060E070E022
:1009F0004A295B296C297D294D835E836F83788723
:100A00008EE190E08E1B9F0B9C838B8312C03097EE
:100A100081F00E2E04C0EE0CFF1C001F111F0A9463
:100A2000D2F7ED82FE820F831887CE1ADF0ADC82AE
:100A3000CB821A82CE0101960E9471052896EAE0C7
:100A40000C944B23EF92FF920F931F937B018C0129
:100A500080E0E81680E0F80681E0080780E01807EB
:100A600088F48FEFE816F1040105110531F028F044
:100A700088E090E0A0E0B0E017C080E090E0A0E067
:100A8000B0E012C080E0E81680E0F80680E00807D9
:100A900081E0180728F088E190E0A0E0B0E004C011
:100AA00080E190E0A0E0B0E020E230E040E050E003
:100AB000281B390B4A0B5B0B04C016950795F7945E
:100AC000E7948A95D2F7F701E658FF4F8081281BFB
:100AD000310941095109C9011F910F91FF90EF9010
:100AE0000895DF92EF92FF920F931F93FC01E48031
:100AF000F58006811781D1808081823048F480E0C2
:100B000090E0A0E1B0E0E82AF92A0A2B1B2BA5C04F
:100B1000843009F49FC0823021F4EE24FF24870141
:100B200005C0E114F1040105110519F4E0E0F0E05D
:100B300096C0628173819FEF623879070CF05BC0C9
:100B400022E83FEF261B370B2A3131052CF020E03D
:100B500030E040E050E02AC0B801A701022E04C0F6
:100B600076956795579547950A94D2F781E090E07E
:100B7000A0E0B0E004C0880F991FAA1FBB1F2A95F0
:100B8000D2F70197A109B1098E219F21A023B1239A
:100B90000097A105B10521F081E090E0A0E0B0E070
:100BA0009A01AB01282B392B4A2B5B2BDA01C901A7
:100BB0008F779070A070B07080349105A105B10559
:100BC00039F427FF09C0205C3F4F4F4F5F4F04C0EF
:100BD000215C3F4F4F4F5F4FE0E0F0E02030A0E05E
:100BE0003A07A0E04A07A0E45A0710F0E1E0F0E07D
:100BF00079018A0127C06038710564F5FB01E1586D
:100C0000FF4FD801C7018F779070A070B07080340B
:100C10009105A105B10539F4E7FE0DC080E490E02F
:100C2000A0E0B0E004C08FE390E0A0E0B0E0E80E08
:100C3000F91E0A1F1B1F17FF05C016950795F7948D
:100C4000E794319687E016950795F794E7948A958F
:100C5000D1F705C0EE24FF248701EFEFF0E06E2FFF
:100C6000679566276795902F9F77D794DD24D79453
:100C70008E2F8695492F462B582F5D29B701CA0123
:100C80001F910F91FF90EF90DF900895FC01DB0121
:100C9000408151812281622F6F7770E0221F2227CD
:100CA000221F9381892F880F822B282F30E0991FD4
:100CB0009927991F11969C93119721153105A9F534
:100CC000411551056105710511F482E037C082E8D4
:100CD0009FEF13969C938E9312979A01AB0167E056
:100CE000220F331F441F551F6A95D1F783E08C9361
:100CF0000DC0220F331F441F551F12968D919C91DA
:100D00001397019713969C938E931297203080E04F
:100D1000380780E0480780E4580758F314962D936D
:100D20003D934D935C93179708952F3F310579F4C8
:100D3000411551056105710519F484E08C930895FE
:100D400064FF03C081E08C9312C01C9210C02F5727
:100D5000304013963C932E93129783E08C9387E058
:100D6000440F551F661F771F8A95D1F7706414963C
:100D70004D935D936D937C93179708951F93DC01BA
:100D8000FB019C91923008F447C08081823008F4C6
:100D900043C0943051F411961C91843099F58181AF
:100DA000682F70E0611B71093FC0843021F09230E0
:100DB00031F48230B9F18181882389F12DC01196F7
:100DC0001C9111978230F1F081811817D9F4129695
:100DD0002D913C911397828193818217930794F010
:100DE00028173907BCF014968D919D910D90BC91F8
:100DF000A02D2481358146815781281739074A075C
:100E00005B0718F4112341F00AC082179307A40767
:100E1000B50740F4112319F061E070E005C06FEFF1
:100E20007FEF02C060E070E0CB011F910895DF9377
:100E3000CF93CDB7DEB780E060E00E94390B80E051
:100E40000E94C60D23EA37E080E0B9010E94360E09
:100E50000E945011CF91DF910895DF93CF9300D07E
:100E6000CDB7DEB79A83898380916802853008F018
:100E700065C0E981FA818381948181508093680201
:100E800080916802282F30E0E981FA814181528106
:100E9000C901880F991F820F931F880F991F880F10
:100EA000991F820F931FFC01E659FD4F5183408328
:100EB00080916802282F30E0E981FA8143855485CA
:100EC000C901880F991F820F931F880F991F880FE0
:100ED000991F820F931FFC01EC58FD4F51834083F3
:100EE00080916802282F30E0E981FA81458156819E
:100EF000C901880F991F820F931F880F991F880FB0
:100F0000991F820F931FFC01E259FD4F51834083CB
:100F100080916802282F30E0E981FA814081C9017F
:100F2000880F991F820F931F880F991F880F991F91
:100F3000820F931FFC01E759FD4F40830F900F90E4
:100F4000CF91DF910895DF93CF930F92CDB7DEB7A6
:100F5000198213C18981282F30E0C901880F991F98
:100F6000820F931F880F991F880F991F820F931F5D
:100F7000FC01E059FD4F80819181A281B3810097EE
:100F8000A105B10599F48981282F30E0C901880FA6
:100F9000991F820F931F880F991F880F991F820F27
:100FA000931FFC01E759FD4F10822DC08981282F26
:100FB00030E0C901880F991F820F931F880F991F76
:100FC000880F991F820F931FFC01E059FD4F80810C
:100FD0009181A281B381AC01BD014150504060407C
:100FE0007040C901880F991F820F931F880F991FA6
:100FF000880F991F820F931FFC01E059FD4F40831A
:101000005183628373838981282F30E0C901880F5F
:10101000991F820F931F880F991F880F991F820FA6
:10102000931FFC01E659FD4F80819181009709F4DF
:10103000A1C08981282F30E0C901880F991F820F34
:10104000931F880F991F880F991F820F931FFC0110
:10105000E759FD4F8081882309F08CC08981282FB2
:1010600030E0C901880F991F820F931F880F991FC5
:10107000880F991F820F931FFC01E259FD4F808159
:101080009181009709F476C08981282F30E0C90149
:10109000880F991F820F931F880F991F880F991F20
:1010A000820F931FFC01E259FD4F80819181AC01B9
:1010B00041505040C901880F991F820F931F880F1C
:1010C000991F880F991F820F931FFC01E259FD4F52
:1010D000518340838981282F30E0C901880F991FEF
:1010E000820F931F880F991F880F991F820F931FDC
:1010F000FC01E259FD4F808191810097D9F58981EA
:10110000282F30E0C901880F991F820F931F880F85
:10111000991F880F991F820F931FFC01EC58FD4FF8
:101120000190F081E02D09958981482F50E0898157
:10113000282F30E0C901880F991F820F931F880F55
:10114000991F880F991F820F931FFC01E659FD4FCD
:1011500020813181CA01880F991F840F951F880F44
:10116000991F880F991F840F951FFC01E259FD4FAD
:101170003183208389818F5F89838981853008F459
:10118000E9CE0F90CF91DF910895DF93CF93CDB744
:10119000DEB764E170E080E090E040E025E00E948E
:1011A000CB0CCF91DF910895DF93CF930F92CDB702
:1011B000DEB7898389818530B0F48981882F90E0FA
:1011C0009C0121503040C901880F991F820F931F45
:1011D000880F991F880F991F820F931FFC01E759F1
:1011E000FD4F81E080830F90CF91DF910895DF93D1
:1011F000CF930F92CDB7DEB789838981853060F5B3
:101200008981882F90E09C0121503040C901880FCE
:10121000991F820F931F880F991F880F991F820FA4
:10122000931FFC01E759FD4F80818130A9F489812A
:10123000882F90E09C0121503040C901880F991FF0
:10124000820F931F880F991F880F991F820F931F7A
:10125000FC01E759FD4F10820F90CF91DF91089567
:10126000DF93CF930F92CDB7DEB789838981853025
:1012700060F58981882F90E09C0121503040C901A0
:10128000880F991F820F931F880F991F880F991F2E
:10129000820F931FFC01E659FD4F11821082898154
:1012A000882F90E09C0121503040C901880F991F80
:1012B000820F931F880F991F880F991F820F931F0A
:1012C000FC01EC58FD4F118210820F90CF91DF91FD
:1012D0000895DF93CF9300D000D00F92CDB7DEB743
:1012E00089834A835B836C837D838981882F90E027
:1012F0009C0121503040C901880F991F820F931F14
:10130000880F991F880F991F820F931FFC01E059C6
:10131000FD4F8A819B81AC81BD8180839183A283B3
:10132000B3838981882F90E09C0121503040C9010E
:10133000880F991F820F931F880F991F880F991F7D
:10134000820F931FFC01E759FD4F81E080830F90CE
:101350000F900F900F900F90CF91DF910895DF9332
:10136000CF9300D0CDB7DEB789836A838981882384
:10137000A9F5AFE4B0E0EFE4F0E080818E7F8C93DC
:10138000AFE4B0E0EFE4F0E080818D7F8C93AEE4D9
:10139000B0E0EEE4F0E080819181877F11969C932C
:1013A0008E93AEE4B0E0EEE4F0E0808191818F7E38
:1013B00011969C938E938A81882309F042C0AFE4F2
:1013C000B0E0EFE4F0E080818F7B8C93AFE4B0E09D
:1013D000EFE4F0E080818F778C9333C08981813096
:1013E00081F5AFE4B0E0EFE4F0E0808180688C93B9
:1013F000AFE4B0E0EFE4F0E080818F7B8C93AFE46A
:10140000B0E0EFE4F0E080818E7F8C93AFE4B0E059
:10141000EFE4F0E0808182608C93AEE4B0E0EEE433
:10142000F0E080819181886011969C938E93AEE468
:10143000B0E0EEE4F0E080819181806111969C93B0
:101440008E930F900F90CF91DF910895DF93CF93FC
:101450000F92CDB7DEB7898389818230F9F4AEE48B
:10146000B0E0EEE4F0E0808191818E7F11969C9354
:101470008E93AEE4B0E0EEE4F0E080819181826092
:1014800011969C938E93AEE4B0E0EEE4F0E08081A0
:1014900091818B7F11969C938E9321C089818823A3
:1014A000F1F4AEE4B0E0EEE4F0E0808191818E7F73
:1014B00011969C938E93AEE4B0E0EEE4F0E0808170
:1014C00091818D7F11969C938E93AEE4B0E0EEE413
:1014D000F0E0808191818B7F11969C938E930F9089
:1014E000CF91DF910895DF93CF9300D0CDB7DEB7D2
:1014F0009A838983E6E4F0E089819A8191838083ED
:101500000F900F90CF91DF910895DF93CF9300D08C
:10151000CDB7DEB79A838983EAE4F0E089819A81C6
:10152000918380830F900F90CF91DF910895DF9387
:10153000CF93CDB7DEB7AEE4B0E0EEE4F0E080816B
:1015400091818E7F11969C938E93AEE4B0E0EEE491
:10155000F0E0808191818D7F11969C938E93AEE413
:10156000B0E0EEE4F0E0808191818B7F11969C9356
:101570008E93CF91DF910895DF93CF93CDB7DEB7F0
:10158000A9E5B0E0E9E5F0E0808180628C93AEE40B
:10159000B0E0EEE4F0E080819181806411969C934C
:1015A0008E93CF91DF910895DF93CF930F92CDB7B4
:1015B000DEB789838981882359F4AEE4B0E0EEE494
:1015C000F0E0808191818F7B11969C938E930DC06A
:1015D0008981813051F4AEE4B0E0EEE4F0E0808146
:1015E0009181806411969C938E930F90CF91DF919F
:1015F0000895DF93CF93CDB7DEB7A9E5B0E0E9E575
:10160000F0E080818F7D8C93CF91DF910895DF93FF
:10161000CF93CDB7DEB7E6E4F0E080819181CF9142
:10162000DF910895DF93CF93CDB7DEB7CF91DF91F0
:101630000895DF93CF930F92CDB7DEB78983898169
:10164000882341F4A8E5B0E0E8E5F0E0808180621D
:101650008C930AC08981833039F4A8E5B0E0E8E5CD
:10166000F0E0808184608C9380E00F90CF91DF91D7
:101670000895DF93CF93CDB7DEB72C970FB6F894CC
:10168000DEBF0FBECDBF89836A838981282F30E0FA
:101690003C872B878B859C858130910509F466C03A
:1016A0002B853C85223031052CF48B859C85009759
:1016B00071F023C12B853C852230310509F4A6C089
:1016C0008B859C858330910509F4DCC016C1A3E5A8
:1016D000B0E0E3E5F0E08081877D8C93A3E5B0E0A6
:1016E000E3E5F0E080818C938A81282F30E03A870F
:1016F000298789859A8582309105D1F029853A8597
:101700002330310521F189859A858130910509F0D1
:10171000F4C0A3E5B0E0E3E5F0E080818F7C8C933A
:10172000A3E5B0E0E3E5F0E0808180618C93E5C063
:10173000A3E5B0E0E3E5F0E080818F7C8C93A3E546
:10174000B0E0E3E5F0E0808180628C93D6C0A3E551
:10175000B0E0E3E5F0E080818F7C8C93A3E5B0E01E
:10176000E3E5F0E0808180638C93C7C0A3E5B0E03F
:10177000E3E5F0E08081877D8C93A3E5B0E0E3E5CD
:10178000F0E0808188608C938A81282F30E0388750
:101790002F838F81988582309105D1F02F813885F4
:1017A0002330310521F18F8198858130910509F031
:1017B000A4C0A3E5B0E0E3E5F0E080818F7C8C93EA
:1017C000A3E5B0E0E3E5F0E0808180618C9395C013
:1017D000A3E5B0E0E3E5F0E080818F7C8C93A3E5A6
:1017E000B0E0E3E5F0E0808180628C9386C0A3E501
:1017F000B0E0E3E5F0E080818F7C8C93A3E5B0E07E
:10180000E3E5F0E0808180638C9377C0A3E5B0E0EE
:10181000E3E5F0E08081877D8C93A3E5B0E0E3E52C
:10182000F0E0808188648C938A81282F30E03E83A9
:101830002D838D819E818430910531F02D813E81F3
:101840002530310581F059C0A3E5B0E0E3E5F0E0D3
:1018500080818F7C8C93A3E5B0E0E3E5F0E08081AC
:1018600080638C934AC0A3E5B0E0E3E5F0E08081BB
:101870008F7C8C93A3E5B0E0E3E5F0E080818062AB
:101880008C933BC0A3E5B0E0E3E5F0E08081877D89
:101890008C93A3E5B0E0E3E5F0E0808180648C9375
:1018A0008A81282F30E03C832B838B819C8184307C
:1018B000910531F02B813C812530310581F01DC02F
:1018C000A3E5B0E0E3E5F0E080818F7C8C93A3E5B5
:1018D000B0E0E3E5F0E0808180638C930EC0A3E587
:1018E000B0E0E3E5F0E080818F7C8C93A3E5B0E08D
:1018F000E3E5F0E0808180628C932C960FB6F8943B
:10190000DEBF0FBECDBFCF91DF910895DF93CF93A0
:101910000F92CDB7DEB78983A3E5B0E0E3E5F0E051
:101920008081887F8C93A3E5B0E0E3E5F0E09081CF
:101930008981892B8C930F90CF91DF910895DF934C
:10194000CF93CDB7DEB7A3E5B0E0E3E5F0E080816B
:10195000887F8C93A3E5B0E0E3E5F0E080818C9391
:10196000CF91DF910895DF93CF93CDB7DEB7E2E556
:10197000F0E08081CF91DF910895DF93CF930F92B4
:10198000CDB7DEB78983E2E5F0E0898180830F90EF
:10199000CF91DF910895DF93CF93CDB7DEB7AC97AA
:1019A0000FB6F894DEBF0FBECDBF6AA37BA38CA396
:1019B0009DA34EA32FA3CE010E9699A788A7E8EC6E
:1019C000F1E0FBA7EAA7F4E1FCA7EAA5FBA50080EC
:1019D0008AA59BA501969BA78AA7E8A5F9A50082E1
:1019E00088A599A5019699A788A79CA591509CA721
:1019F000ECA5EE2351F78E8D9F8DA8A1B9A1BC0156
:101A0000CD010E94A904DC01CB01BC01CD0120E085
:101A100030E040E851E40E941903DC01CB018A87E1
:101A20009B87AC87BD871E821F82188619861A8203
:101A30001B821C821D826AA17BA18CA19DA10E9498
:101A4000A904DC01CB01BC01CD0120E030E04AE774
:101A500054E40E941F02DC01CB01BC01CD012A85A8
:101A60003B854C855D850E941903DC01CB01BC01DF
:101A7000CD010E944900DC01CB018E839F83A887A2
:101A8000B9878EA18823C9F58E819F81A885B985E4
:101A9000892F9A2FAB2FBB278093B0029093B1026E
:101AA000A093B202B093B3028E818093B4028E8170
:101AB0009F81A885B9859070A070B0700097A1052E
:101AC000B10509F457C0E2E5F0E08091B4028195D8
:101AD00080838091B0029091B102A091B202B09146
:101AE000B3020196A11DB11D8093B0029093B10283
:101AF000A093B202B093B3023DC08EA18130D1F564
:101B00008FEF90E0A0E0B0E08A839B83AC83BD833D
:101B100019820BC08A819B81AC81BD810197A1098B
:101B2000B1098A839B83AC83BD838E819F81A88505
:101B3000B9852A813B814C815D81BC01CD010E9428
:101B4000EA22DC01CB010097A105B10519F78E81CE
:101B50009F81A885B9852A813B814C815D81BC012B
:101B6000CD010E94EA22DC01CB018983ECE5F0E0A3
:101B7000898180838FA10E94860CAC960FB6F89461
:101B8000DEBF0FBECDBFCF91DF910895DF93CF931E
:101B900000D00F92CDB7DEB789838981282F30E03E
:101BA0003B832A838A819B81009731F02A813B8184
:101BB0002130310581F01DC0A9E5B0E0E9E5F0E094
:101BC00080818E7F8C93A9E5B0E0E9E5F0E080812B
:101BD00081608C930EC0A9E5B0E0E9E5F0E080817A
:101BE0008D7F8C93A9E5B0E0E9E5F0E0808182602B
:101BF0008C930F900F900F90CF91DF910895DF930A
:101C0000CF9300D00F92CDB7DEB789838981282F7B
:101C100030E03B832A838A819B81009731F02A81BF
:101C20003B812130310579F01BC0A9E5B0E0E9E541
:101C3000F0E080818E7F8C93A9E5B0E0E9E5F0E0EB
:101C400080818C930DC0A9E5B0E0E9E5F0E08081EA
:101C50008D7F8C93A9E5B0E0E9E5F0E080818C937D
:101C60000F900F900F90CF91DF910895DF93CF9356
:101C700000D000D00F92CDB7DEB789837B836A8313
:101C80008981282F30E03D832C838C819D810097B2
:101C900031F02C813D812130310561F015C08A8100
:101CA0009B81009789F08A819B819093AD028093FC
:101CB000AC020AC08A819B81009731F08A819B81A6
:101CC0009093AF028093AE020F900F900F900F9001
:101CD0000F90CF91DF9108951F920F920FB60F9240
:101CE00011242F933F934F935F936F937F938F9321
:101CF0009F93AF93BF93EF93FF93DF93CF93CDB7B2
:101D0000DEB78091B5029091B602A091B702B09172
:101D1000B8020196A11DB11D8093B5029093B60241
:101D2000A093B702B093B8028091AC029091AD023B
:101D3000009741F12091B5023091B6024091B7026F
:101D40005091B8028091B0029091B102A091B2027C
:101D5000B091B302281739074A075B0799F4E0915D
:101D6000AC02F091AD0209951092B5021092B60244
:101D70001092B7021092B802E2E5F0E08091B4024E
:101D800081958083CF91DF91FF91EF91BF91AF91CA
:101D90009F918F917F916F915F914F913F912F9183
:101DA0000F900FBE0F901F9018951F920F920FB6B5
:101DB0000F921124DF93CF93CDB7DEB7CF91DF9190
:101DC0000F900FBE0F901F901895DF93CF93CDB754
:101DD000DEB72B970FB6F894DEBF0FBECDBF9D8345
:101DE0008C838C819D81009709F451C21B824BC268
:101DF0008B81882F90E09C01220F331F220F331F0D
:101E00008C819D81FC01E20FF31F80819AE0692F94
:101E10000E94CA22892F8A838B81882F90E09C019F
:101E2000220F331F220F331F8C819D81FC01E20F93
:101E3000F31F80819AE0692F0E94CA2289838B81D7
:101E4000882F90E09C01220F331F220F331F8C81BB
:101E50009D81FC01E20FF31F8281882389F08B8131
:101E6000882F90E09C01220F331F220F331F8C819B
:101E70009D81FC01E20FF31F8281813009F000C2D5
:101E80008981282F30E03B872A876A857B856230ED
:101E90007105D1F18A859B858330910534F42A85BB
:101EA0003B852130310571F094C06A857B856330B4
:101EB000710509F44BC08A859B858430910509F42E
:101EC00067C087C0AAE3B0E0EAE3F0E040818B811D
:101ED000882F90E09C01220F331F220F331F8C812B
:101EE0009D81FC01E20FF31F8281282F30E08A815F
:101EF000882F90E0B90102C0660F771F8A95E2F73C
:101F0000CB01842B8C9365C0A7E3B0E0E7E3F0E05E
:101F100040818B81882F90E09C01220F331F220F7C
:101F2000331F8C819D81FC01E20FF31F8281282FDA
:101F300030E08A81882F90E0B90102C0660F771FD8
:101F40008A95E2F7CB01842B8C9343C0A4E3B0E0E5
:101F5000E4E3F0E040818B81882F90E09C01220F28
:101F6000331F220F331F8C819D81FC01E20FF31F71
:101F70008281282F30E08A81882F90E0B90102C049
:101F8000660F771F8A95E2F7CB01842B8C9321C0D3
:101F9000A1E3B0E0E1E3F0E040818B81882F90E0A5
:101FA0009C01220F331F220F331F8C819D81FC0166
:101FB000E20FF31F8281282F30E08A81882F90E082
:101FC000B90102C0660F771F8A95E2F7CB01842B17
:101FD0008C938B81882F90E09C01220F331F220F5E
:101FE000331F8C819D81FC01E20FF31F81818823C7
:101FF00089F08B81882F90E09C01220F331F220FE4
:10200000331F8C819D81FC01E20FF31F81818130A0
:1020100009F036C18981282F30E039872887688503
:10202000798562307105D1F1888599858330910574
:1020300034F4288539852130310571F094C06885E4
:1020400079856330710509F44BC0888599858430A2
:10205000910509F467C087C0ABE3B0E0EBE3F0E0C3
:1020600040818B81882F90E09C01220F331F220F2B
:10207000331F8C819D81FC01E20FF31F8181282F8A
:1020800030E08A81882F90E0B90102C0660F771F87
:102090008A95E2F7CB01842B8C9365C0A8E3B0E06E
:1020A000E8E3F0E040818B81882F90E09C01220FD3
:1020B000331F220F331F8C819D81FC01E20FF31F20
:1020C0008181282F30E08A81882F90E0B90102C0F9
:1020D000660F771F8A95E2F7CB01842B8C9343C060
:1020E000A5E3B0E0E5E3F0E040818B81882F90E04C
:1020F0009C01220F331F220F331F8C819D81FC0115
:10210000E20FF31F8181282F30E08A81882F90E031
:10211000B90102C0660F771F8A95E2F7CB01842BC5
:102120008C9321C0A2E3B0E0E2E3F0E040818B8138
:10213000882F90E09C01220F331F220F331F8C81C8
:102140009D81FC01E20FF31F8181282F30E08A81FD
:10215000882F90E0B90102C0660F771F8A95E2F7D9
:10216000CB01842B8C938B81882F90E09C01220FD4
:10217000331F220F331F8C819D81FC01E20FF31F5F
:102180008281813009F07CC08B81882F90E09C0196
:10219000220F331F220F331F8C819D81FC01E20F20
:1021A000F31F8381882309F06BC08981282F30E0D9
:1021B0003F832E836E817F816230710549F18E816C
:1021C0009F818330910534F42E813F812130310588
:1021D00061F056C06E817F816330710561F18E813F
:1021E0009F8184309105D1F14BC0ABE3B0E0EBE3CC
:1021F000F0E040818A81282F30E081E090E0022EDB
:1022000002C0880F991F0A94E2F7842B8C9338C080
:10221000A8E3B0E0E8E3F0E040818A81282F30E0D5
:1022200081E090E0022E02C0880F991F0A94E2F725
:10223000842B8C9325C0A5E3B0E0E5E3F0E040817A
:102240008A81282F30E081E090E0022E02C0880FC2
:10225000991F0A94E2F7842B8C9312C0A2E3B0E09A
:10226000E2E3F0E040818A81282F30E081E090E0D5
:10227000022E02C0880F991F0A94E2F7842B8C93D8
:102280008B818F5F8B838B81803208F4B1CD2B964D
:102290000FB6F894DEBF0FBECDBFCF91DF9108958A
:1022A000DF93CF93CDB7DEB7AFE5B0E0EFE5F0E079
:1022B000808180688C93CF91DF910895DF93CF93D5
:1022C000CDB7DEB7AFE5B0E0EFE5F0E080818F7726
:1022D0008C93CF91DF910895DF93CF93CDB7DEB785
:1022E0002B970FB6F894DEBF0FBECDBF9B838A83BA
:1022F00019820EC18981882F90E09C01220F331F23
:102300008A819B81FC01E20FF31F8081282F30E03E
:102310003B872A878A859B858130910509F44AC0CD
:102320002A853B852230310509F4B1C08A859B8519
:10233000009709F0EAC08981882F90E09C01220F64
:10234000331F8A819B81FC01E20FF31F8181282FBB
:1023500030E03987288788859985009731F028856E
:1023600039852130310581F01DC0A5E5B0E0E5E5F6
:10237000F0E080818D7F8C93A5E5B0E0E5E5F0E0AD
:1023800080818E7F8C930EC0A5E5B0E0E5E5F0E09E
:1023900080818D7F8C93A5E5B0E0E5E5F0E080815C
:1023A00081608C93ABE5B0E0EBE5F0E08081806488
:1023B0008C93ABC08981882F90E09C01220F331F42
:1023C0008A819B81FC01E20FF31F8181282F30E07D
:1023D0003F832E838E819F818130910521F12E8153
:1023E0003F81223031052CF48E819F81009761F06E
:1023F00046C02E813F812230310521F18E819F819F
:102400008330910571F13BC0A5E5B0E0E5E5F0E072
:10241000808182608C93A5E5B0E0E5E5F0E0808105
:102420008E7F8C932CC0A5E5B0E0E5E5F0E08081DF
:102430008D7F8C93A5E5B0E0E5E5F0E080818160DB
:102440008C931DC0A5E5B0E0E5E5F0E080818260F9
:102450008C93A5E5B0E0E5E5F0E080818E7F8C937C
:102460000EC0A5E5B0E0E5E5F0E0808182608C93E8
:10247000A5E5B0E0E5E5F0E0808181608C93ABE517
:10248000B0E0EBE5F0E0808180688C933EC089810C
:10249000882F90E09C01220F331F8A819B81FC01D1
:1024A000E20FF31F8181282F30E03D832C838C8144
:1024B0009D81009731F02C813D812130310581F0E3
:1024C0001DC0A5E5B0E0E5E5F0E0808182608C9379
:1024D000A5E5B0E0E5E5F0E080818E7F8C930EC04D
:1024E000A5E5B0E0E5E5F0E080818D7F8C93A5E582
:1024F000B0E0E5E5F0E0808181608C93ABE5B0E091
:10250000EBE5F0E0808180628C9389818F5F898325
:102510008981833008F4EECE2B960FB6F894DEBF97
:102520000FBECDBFCF91DF910895DF93CF9300D041
:1025300000D0CDB7DEB79A838983E981FA818081A3
:10254000282F30E03C832B838B819C818130910547
:1025500089F02B813C8122303105A1F08B819C8157
:102560000097B9F4ABE5B0E0EBE5F0E080818F7B5C
:102570008C930FC0ABE5B0E0EBE5F0E080818F77A6
:102580008C9307C0ABE5B0E0EBE5F0E080818F7D98
:102590008C930F900F900F900F90CF91DF91089533
:1025A000DF93CF93CDB7DEB728970FB6F894DEBF91
:1025B0000FBECDBF9C838B837E836D8382E08A8335
:1025C000198259C08981882F90E09C01220F331F06
:1025D0008B819C81FC01E20FF31F8081282F30E06A
:1025E00038872F838F81988581309105E1F02F8185
:1025F00038852230310551F18F8198850097C1F5DA
:102600008D819E81009769F08981882F90E0880FE5
:10261000991FFC01E754FD4F8D819E81918380833A
:1026200027C01A8225C08D819E81009769F089811B
:10263000882F90E0880F991FFC01E754FD4F8D8192
:102640009E819183808314C01A8212C08D819E81E5
:10265000009769F08981882F90E0880F991FFC010D
:10266000E754FD4F8D819E819183808301C01A8242
:1026700089818F5F89838981833008F4A3CF8A8120
:1026800028960FB6F894DEBF0FBECDBFCF91DF9175
:1026900008951F920F920FB60F9211242F933F931C
:1026A0004F935F936F937F938F939F93AF93BF935A
:1026B000EF93FF93DF93CF93CDB7DEB78091B9024D
:1026C0009091BA02009729F0E091B902F091BA0214
:1026D0000995CF91DF91FF91EF91BF91AF919F91BC
:1026E0008F917F916F915F914F913F912F910F90BB
:1026F0000FBE0F901F9018951F920F920FB60F925A
:102700001124DF93CF93CDB7DEB7CF91DF910F9038
:102710000FBE0F901F9018951F920F920FB60F9239
:102720001124DF93CF93CDB7DEB7CF91DF910F9018
:102730000FBE0F901F901895DF93CF9300D000D05D
:1027400000D0CDB7DEB78C838C819AE0692F0E94D0
:10275000CA22892F8B838C819AE0692F0E94CA221A
:102760008A838A81282F30E03E832D834D815E81CC
:102770004230510541F18D819E818330910534F4C1
:102780002D813E812130310561F052C04D815E8145
:102790004330510551F18D819E8184309105B9F10D
:1027A00047C0E9E3F0E08081282F30E08B81882F5B
:1027B00090E0A90102C0559547958A95E2F7CA01B4
:1027C0008170898335C0E6E3F0E08081282F30E016
:1027D0008B81882F90E0A90102C0559547958A9575
:1027E000E2F7CA018170898323C0E3E3F0E08081CE
:1027F000282F30E08B81882F90E0A90102C05595E9
:1028000047958A95E2F7CA018170898311C0E0E398
:10281000F0E08081282F30E08B81882F90E0A901A3
:1028200002C0559547958A95E2F7CA018170898360
:10283000898126960FB6F894DEBF0FBECDBFCF912B
:10284000DF910895DF93CF93CDB7DEB728970FB60A
:10285000F894DEBF0FBECDBF8B836C838B819AE073
:10286000692F0E94CA22892F8A838B819AE0692F5F
:102870000E94CA2289838C81813009F070C08981CD
:10288000282F30E038872F838F81988582309105FB
:1028900051F12F8138852330310534F48F819885AB
:1028A0008130910561F0D3C02F8138852330310507
:1028B00071F18F81988584309105E9F1C8C0ABE34F
:1028C000B0E0EBE3F0E08081482F8A81282F30E0F0
:1028D00081E090E0022E02C0880F991F0A94E2F76F
:1028E000842B8C93B4C0A8E3B0E0E8E3F0E08081EF
:1028F000482F8A81282F30E081E090E0022E02C02C
:10290000880F991F0A94E2F7842B8C93A0C0A5E34B
:10291000B0E0E5E3F0E08081482F8A81282F30E0A5
:1029200081E090E0022E02C0880F991F0A94E2F71E
:10293000842B8C938CC0A2E3B0E0E2E3F0E08081D2
:10294000482F8A81282F30E081E090E0022E02C0DB
:10295000880F991F0A94E2F7842B8C9378C08C819E
:10296000882309F074C08981282F30E03E832D83AD
:102970008D819E818230910561F12D813E812330D0
:10298000310534F48D819E818130910569F05FC0FD
:102990002D813E812330310589F18D819E818430E6
:1029A000910509F440C053C0ABE3B0E0EBE3F0E0C5
:1029B0008081482F8A81282F30E081E090E0022E2C
:1029C00002C0880F991F0A94E2F7809584238C93A4
:1029D0003EC0A8E3B0E0E8E3F0E08081482F8A81C0
:1029E000282F30E081E090E0022E02C0880F991F6E
:1029F0000A94E2F7809584238C9329C0A5E3B0E084
:102A0000E5E3F0E08081482F8A81282F30E081E0E3
:102A100090E0022E02C0880F991F0A94E2F7809579
:102A200084238C9314C0A2E3B0E0E2E3F0E0808161
:102A3000482F8A81282F30E081E090E0022E02C0EA
:102A4000880F991F0A94E2F7809584238C93289627
:102A50000FB6F894DEBF0FBECDBFCF91DF910895C2
:102A6000DF93CF9300D000D0CDB7DEB78A838A81C1
:102A7000282F30E03C832B838B819C818230910511
:102A8000D9F02B813C812330310534F48B819C813A
:102A90008130910561F01EC02B813C8123303105CE
:102AA00081F08B819C818430910581F013C0EBE330
:102AB000F0E0808189830EC0E8E3F0E080818983C3
:102AC00009C0E5E3F0E08081898304C0E2E3F0E03F
:102AD0008081898389810F900F900F900F90CF9103
:102AE000DF910895DF93CF9300D000D0CDB7DEB74C
:102AF00089836A838981282F30E03C832B838B81F3
:102B00009C8182309105D9F02B813C8123303105A5
:102B100034F48B819C818130910561F01EC02B8142
:102B20003C812330310581F08B819C81843091057B
:102B300081F013C0EBE3F0E08A8180830EC0E8E30C
:102B4000F0E08A81808309C0E5E3F0E08A81808338
:102B500004C0E2E3F0E08A8180830F900F900F9031
:102B60000F90CF91DF910895DF93CF9300D000D0E5
:102B70000F92CDB7DEB78B838B819AE0692F0E94CD
:102B8000CA22892F8A838B819AE0692F0E94CA22E8
:102B900089838981282F30E03D832C838C819D811E
:102BA0008230910551F12C813D812330310534F47F
:102BB0008C819D818130910561F05AC02C813D81CD
:102BC0002330310571F18C819D8184309105E9F1CB
:102BD0004FC0ABE3B0E0EBE3F0E08081482F8A81A7
:102BE000282F30E081E090E0022E02C0880F991F6C
:102BF0000A94E2F784278C933BC0A8E3B0E0E8E3B3
:102C0000F0E08081482F8A81282F30E081E090E039
:102C1000022E02C0880F991F0A94E2F784278C9332
:102C200027C0A5E3B0E0E5E3F0E08081482F8A818A
:102C3000282F30E081E090E0022E02C0880F991F1B
:102C40000A94E2F784278C9313C0A2E3B0E0E2E396
:102C5000F0E08081482F8A81282F30E081E090E0E9
:102C6000022E02C0880F991F0A94E2F784278C93E2
:102C70000F900F900F900F900F90CF91DF910895CC
:102C8000DF93CF93CDB7DEB72A970FB6F894DEBFA8
:102C90000FBECDBF9A838983E981FA818081282F75
:102CA00030E03A87298789859A858034910531F00B
:102CB00029853A85203C310581F01DC0A7E2B0E0AE
:102CC000E7E2F0E080818F778C93A7E2B0E0E7E263
:102CD000F0E0808180648C930EC0A7E2B0E0E7E270
:102CE000F0E0808180688C93A7E2B0E0E7E2F0E05A
:102CF000808180648C93E981FA818281282F30E081
:102D000038872F838F819885009731F02F81388500
:102D10002032310549F00FC0A7E2B0E0E7E2F0E071
:102D200080818F7D8C9307C0A7E2B0E0E7E2F0E0FE
:102D3000808180628C93E981FA818181282F30E043
:102D40003E832D838D819E818330910509F470C06F
:102D50002D813E812430310584F48D819E81813026
:102D60009105D1F12D813E81223031050CF04AC010
:102D70008D819E810097D1F0C8C02D813E81253084
:102D8000310509F481C08D819E81853091050CF457
:102D900065C02D813E812630310509F48BC08D81BF
:102DA0009E818730910509F49BC0AFC0A6E2B0E0D8
:102DB000E6E2F0E080818E7F8C93A6E2B0E0E6E26E
:102DC000F0E080818D7F8C93A6E2B0E0E6E2F0E057
:102DD00080818B7F8C9399C0A6E2B0E0E6E2F0E0C0
:102DE000808181608C93A6E2B0E0E6E2F0E0808131
:102DF0008D7F8C93A6E2B0E0E6E2F0E080818B7FED
:102E00008C9383C0A6E2B0E0E6E2F0E080818E7FA2
:102E10008C93A6E2B0E0E6E2F0E0808182608C93E1
:102E2000A6E2B0E0E6E2F0E080818B7F8C936DC09B
:102E3000A6E2B0E0E6E2F0E0808181608C93A6E259
:102E4000B0E0E6E2F0E0808182608C93A6E2B0E040
:102E5000E6E2F0E080818B7F8C9357C0A6E2B0E081
:102E6000E6E2F0E080818E7F8C93A6E2B0E0E6E2BD
:102E7000F0E080818D7F8C93A6E2B0E0E6E2F0E0A6
:102E8000808184608C9341C0A6E2B0E0E6E2F0E08D
:102E9000808181608C93A6E2B0E0E6E2F0E0808180
:102EA0008D7F8C93A6E2B0E0E6E2F0E08081846062
:102EB0008C932BC0A6E2B0E0E6E2F0E080818E7F4A
:102EC0008C93A6E2B0E0E6E2F0E0808182608C9331
:102ED000A6E2B0E0E6E2F0E0808184608C9315C069
:102EE000A6E2B0E0E6E2F0E0808181608C93A6E2A9
:102EF000B0E0E6E2F0E0808182608C93A6E2B0E090
:102F0000E6E2F0E0808184608C93E981FA8184813B
:102F1000282F30E03C832B838B819C81009731F0FC
:102F20002B813C812130310549F00FC0A6E2B0E091
:102F3000E6E2F0E0808180628C9307C0A6E2B0E018
:102F4000E6E2F0E080818F7D8C93E981FA818581D2
:102F5000882F90E0009769F4A0E5B0E0E0E5F0E0AC
:102F600080818F718C93A0E5B0E0E0E5F0E0808196
:102F70008C93A6E2B0E0E6E2F0E0808180688C937A
:102F80002A960FB6F894DEBF0FBECDBFCF91DF916A
:102F90000895DF93CF93CDB7DEB72A970FB6F89495
:102FA000DEBF0FBECDBF8D836E831C821B821A8253
:102FB0001982A7E2B0E0E7E2F0E08081807E8C93A6
:102FC000A7E2B0E0E7E2F0E090818D81892B8C935D
:102FD0008E81282F30E03A87298789859A85009746
:102FE00069F029853A852130310579F4A6E2B0E00F
:102FF000E6E2F0E0808180688C9307C0A6E2B0E052
:10300000E6E2F0E080818F778C93A6E2B0E0E6E222
:10301000F0E0808180648C9305C089819A8101965B
:103020009A838983E6E2F0E0808182958695869591
:103030008370882F90E081709070882371F7898168
:103040009A8133EC8035930740F3E6E2F0E080812B
:103050008295869586958370882F90E08170907018
:10306000009739F4E4E2F0E08081918198878F83C2
:1030700002C018861F828F8198852A960FB6F89411
:10308000DEBF0FBECDBFCF91DF910895DF93CF9309
:10309000CDB7DEB727970FB6F894DEBF0FBECDBF12
:1030A00089836A834B83A7E2B0E0E7E2F0E08081A6
:1030B000807E8C93A7E2B0E0E7E2F0E09081898126
:1030C000892B8C938A81282F30E03F832E838E8139
:1030D0009F810097A1F02E813F8121303105B1F40D
:1030E000A6E2B0E0E6E2F0E080818F778C93A6E282
:1030F000B0E0E6E2F0E0808180688C9307C0A6E251
:10310000B0E0E6E2F0E080818F778C938B81282F0E
:1031100030E03D832C838C819D81009731F02C81A0
:103120003D812130310581F016C0A6E2B0E0E6E233
:10313000F0E08081877F8C93A6E2B0E0E6E2F0E0E9
:10314000808188608C9307C0A6E2B0E0E6E2F0E000
:103150008081877F8C93A6E2B0E0E6E2F0E0808198
:103160008F7B8C93A6E2B0E0E6E2F0E080818064A1
:103170008C9327960FB6F894DEBF0FBECDBFCF91CC
:10318000DF910895DF93CF93CDB7DEB7E4E2F0E0AF
:1031900080819181CF91DF910895DF93CF93CDB757
:1031A000DEB7A6E2B0E0E6E2F0E0808188608C93D2
:1031B000CF91DF910895DF93CF93CDB7DEB7A6E22D
:1031C000B0E0E6E2F0E08081877F8C93CF91DF91E1
:1031D0000895DF93CF9300D0CDB7DEB79A8389836C
:1031E00089819A81009731F089819A819093C002F8
:1031F0008093BF020F900F90CF91DF9108951F929F
:103200000F920FB60F9211242F933F934F935F931A
:103210006F937F938F939F93AF93BF93EF93FF939E
:10322000DF93CF93CDB7DEB78091BF029091C002FC
:10323000009729F0E091BF02F091C0020995CF916B
:10324000DF91FF91EF91BF91AF919F918F917F910E
:103250006F915F914F913F912F910F900FBE0F9003
:103260001F901895DF93CF9300D00F92CDB7DEB7A4
:1032700089838981282F30E03B832A838A819B813F
:103280008130910531F02A813B812230310531F0C6
:1032900009C085E261E00E94221404C081E161E07E
:1032A0000E9422140F900F900F90CF91DF910895FC
:1032B000DF93CF9300D00F92CDB7DEB7898389819A
:1032C000282F30E03B832A838A819B8181309105BE
:1032D00031F02A813B812230310531F009C085E28D
:1032E00060E00E94221404C081E160E00E94221488
:1032F0000F900F900F90CF91DF910895DF93CF93B0
:10330000CDB7DEB764970FB6F894DEBF0FBECDBF62
:10331000898B6A8B81E0888B8989282F30E03C8BF0
:103320002B8B8B899C898130910509F49BC02B895B
:103330003C89223031052CF48B899C89009771F0EF
:10334000C3C02B893C892230310509F49CC08B898C
:103350009C898330910509F4A7C0B6C08FE20E9412
:103360009C138F878F85882309F0AEC080E090E0A2
:10337000A8E4B2E48B879C87AD87BE876B857C858C
:103380008D859E8520E030E04AE755E40E941F02CB
:10339000DC01CB018F839887A987BA876F817885F5
:1033A00089859A8520E030E040E85FE30E942504AB
:1033B00088232CF481E090E09E838D833FC06F8151
:1033C000788589859A8520E03FEF4FE757E40E9492
:1033D000C50318164CF56B857C858D859E8520E090
:1033E00030E040E251E40E941F02DC01CB01BC014D
:1033F000CD010E944900DC01CB019E838D830FC06B
:1034000080E991E09C838B838B819C810197F1F70C
:103410009C838B838D819E8101979E838D838D817B
:103420009E81009769F719C06F81788589859A8593
:103430000E944900DC01CB019E838D838D819E819A
:103440009A83898389819A810197F1F79A83898385
:1034500004C08FE20E949C138F878F858823C9F355
:10346000188A32C08EE20E949C138F878F85882332
:1034700059F504C08EE20E949C138F878F858823A4
:10348000C9F3188A21C08DE20E949C138F878F8513
:103490008823D1F404C08DE20E949C138F878F850E
:1034A0008823C9F3188A10C08BE20E949C138F876F
:1034B0008F85882349F404C08BE20E949C138F8778
:1034C0008F858823C9F3188A888964960FB6F89483
:1034D000DEBF0FBECDBFCF91DF910895DF93CF93B5
:1034E000CDB7DEB78AE791E00E944016CF91DF9119
:1034F0000895DF93CF9300D000D0CDB7DEB71C8204
:103500001B821A82198280E061E00E94C9179C83A5
:103510008B832B813C81C901880F991F880F991FCC
:10352000820F931F2AE030E0B9010E94D622CB011E
:1035300001979A83898389819A810F900F900F90C8
:103540000F90CF91DF910895DF93CF9300D00F922A
:10355000CDB7DEB789838981282F30E03B832A836A
:103560008A819B8181309105F9F02A813B8122304B
:1035700031052CF48A819B81009761F01EC02A815D
:103580003B812230310559F08A819B81833091053E
:1035900081F013C08BE161E00E9422140EC08EE026
:1035A00061E00E94221409C08FE061E00E942214B1
:1035B00004C080E161E00E9422140F900F900F90F0
:1035C000CF91DF910895DF93CF9300D00F92CDB7C5
:1035D000DEB789838981282F30E03B832A838A8163
:1035E0009B8181309105F9F02A813B8122303105A0
:1035F0002CF48A819B81009761F01EC02A813B8157
:103600002230310559F08A819B818330910581F008
:1036100013C08BE160E00E9422140EC08EE060E0D7
:103620000E94221409C08FE060E00E94221404C0AE
:1036300080E160E00E9422140F900F900F90CF91D4
:10364000DF910895DF93CF9300D00F92CDB7DEB70F
:1036500089838981282F30E03B832A838A819B815B
:1036600081309105E9F02A813B81223031052CF42B
:103670008A819B81009761F01AC02A813B812230A8
:10368000310551F08A819B818330910569F00FC02B
:103690008BE10E94B4150BC08EE00E94B41507C0E8
:1036A0008FE00E94B41503C080E10E94B4150F9012
:1036B0000F900F90CF91DF910895DF93CF93CDB707
:1036C000DEB727970FB6F894DEBF0FBECDBF9A8343
:1036D00089837C836B834D8381E061E00E94AF0925
:1036E00089819A810E94730A8B819C810E94850A3C
:1036F0008D81282F30E03F832E838E819F81813002
:10370000910531F02E813F812230310531F009C021
:1037100089E161E00E94221404C089E160E00E9416
:1037200022148AE161E00E94221482E00E94260AAB
:1037300027960FB6F894DEBF0FBECDBFCF91DF91B5
:103740000895DF93CF93CDB7DEB780E00E94260ABD
:103750008AE160E00E942214CF91DF910895DF9307
:10376000CF93CDB7DEB7AB970FB6F894DEBF0FBEE1
:10377000CDBF8BA78CE060E00E9422148BA58295C0
:103780008F70982F917084E1692F0E9422148BA56D
:10379000829586958770982F917085E1692F0E9498
:1037A00022148BA58295869586958370982F9170AB
:1037B00086E1692F0E9422148BA5982F991F9927C3
:1037C000991F88E1692F0E9422148CE061E00E9419
:1037D000221480E090E0A0E8BFE38FA398A7A9A7F8
:1037E000BAA76FA178A589A59AA520E030E04AE79D
:1037F00055E40E941F02DC01CB018BA39CA3ADA367
:10380000BEA36BA17CA18DA19EA120E030E040E889
:103810005FE30E94250488232CF481E090E09AA3C2
:1038200089A33FC06BA17CA18DA19EA120E03FEFA9
:103830004FE757E40E94C50318164CF56FA178A511
:1038400089A59AA520E030E040E251E40E941F02E1
:10385000DC01CB01BC01CD010E944900DC01CB01A0
:103860009AA389A30FC080E991E098A38F8F8F8DD1
:1038700098A10197F1F798A38F8F89A19AA1019739
:103880009AA389A389A19AA1009769F714C06BA193
:103890007CA18DA19EA10E944900DC01CB019AA3CD
:1038A00089A389A19AA19E8F8D8F8D8D9E8D019761
:1038B000F1F79E8F8D8F8CE060E00E9422148BA523
:1038C000982F917084E1692F0E9422148BA5869510
:1038D000982F917085E1692F0E9422148BA58695FF
:1038E0008695982F917086E1692F0E9422148BA5EE
:1038F000869586958695982F917088E1692F0E940C
:1039000022148CE061E00E94221480E090E0A0E8A4
:10391000BFE3898F9A8FAB8FBC8F698D7A8D8B8D2A
:103920009C8D20E030E04AE755E40E941F02DC0154
:10393000CB018D8B9E8BAF8BB88F6D897E898F89E4
:10394000988D20E030E040E85FE30E942504882362
:103950002CF481E090E09C8B8B8B3FC06D897E893D
:103960008F89988D20E03FEF4FE757E40E94C50311
:1039700018164CF5698D7A8D8B8D9C8D20E030E08A
:1039800040E251E40E941F02DC01CB01BC01CD01E9
:103990000E944900DC01CB019C8B8B8B0FC080E91E
:1039A00091E09A8B898B89899A890197F1F79A8B93
:1039B000898B8B899C8901979C8B8B8B8B899C89AC
:1039C000009769F714C06D897E898F89988D0E9450
:1039D0004900DC01CB019C8B8B8B8B899C89988B5C
:1039E0008F878F8598890197F1F7988B8F878CE067
:1039F00060E00E94221480E090E0A0E8BFE38B87A3
:103A00009C87AD87BE876B857C858D859E8520E0F4
:103A100030E04AE755E40E941F02DC01CB018F83AE
:103A20009887A987BA876F81788589859A8520E0EC
:103A300030E040E85FE30E94250488232CF481E015
:103A400090E09E838D833FC06F81788589859A85BC
:103A500020E03FEF4FE757E40E94C50318164CF5EE
:103A60006B857C858D859E8520E030E040E251E4C9
:103A70000E941F02DC01CB01BC01CD010E94490064
:103A8000DC01CB019E838D830FC080E991E09C8394
:103A90008B838B819C810197F1F79C838B838D8134
:103AA0009E8101979E838D838D819E81009769F70A
:103AB00014C06F81788589859A850E944900DC0150
:103AC000CB019E838D838D819E819A838983898199
:103AD0009A810197F1F79A838983AB960FB6F89490
:103AE000DEBF0FBECDBFCF91DF9108950F931F931F
:103AF000DF93CF93CDB7DEB7C654D0400FB6F8945E
:103B0000DEBF0FBECDBFFE01ED5BFF4F80E090E05A
:103B1000A6E1B3E480839183A283B3838E01015C29
:103B20001F4FFE01ED5BFF4F6081718182819381A8
:103B300020E030E04AE755E40E941F02DC01CB019F
:103B4000F80180839183A283B383FE01FF96608195
:103B500071818281938120E030E040E85FE30E9440
:103B6000250488232CF481E090E09EAF8DAF46C001
:103B7000FE01FF96608171818281938120E03FEF99
:103B80004FE757E40E94C503181664F5FE01ED5B8C
:103B9000FF4F608171818281938120E030E040E2BB
:103BA00051E40E941F02DC01CB01BC01CD010E9447
:103BB0004900DC01CB019EAF8DAF0FC080E991E0E1
:103BC0009CAF8BAF8BAD9CAD0197F1F79CAF8BAFEA
:103BD0008DAD9EAD01979EAF8DAF8DAD9EAD009723
:103BE00069F716C0FE01FF96608171818281938121
:103BF0000E944900DC01CB019EAF8DAF8DAD9EAD23
:103C00009AAF89AF89AD9AAD0197F1F79AAF89AFB5
:103C10008DE060E00E94221482E00E94002080E09B
:103C200090E0A0EAB0E48DAB9EABAFABB8AF6DA9AE
:103C30007EA98FA998AD20E030E04AE755E40E94C4
:103C40001F02DC01CB0189AB9AABABABBCAB69A962
:103C50007AA98BA99CA920E030E040E85FE30E94AC
:103C6000250488232CF481E090E098AB8FA73FC017
:103C700069A97AA98BA99CA920E03FEF4FE757E4F7
:103C80000E94C50318164CF56DA97EA98FA998ADA1
:103C900020E030E040E251E40E941F02DC01CB0151
:103CA000BC01CD010E944900DC01CB0198AB8FA77C
:103CB0000FC080E991E09EA78DA78DA59EA50197D5
:103CC000F1F79EA78DA78FA598A9019798AB8FA70D
:103CD0008FA598A9009769F714C069A97AA98BA93B
:103CE0009CA90E944900DC01CB0198AB8FA78FA54E
:103CF00098A99CA78BA78BA59CA50197F1F79CA7DA
:103D00008BA788E20E94002080E090E0A0EAB0E467
:103D10008FA398A7A9A7BAA76FA178A589A59AA5E7
:103D200020E030E04AE755E40E941F02DC01CB01AD
:103D30008BA39CA3ADA3BEA36BA17CA18DA19EA1CF
:103D400020E030E040E85FE30E94250488232CF463
:103D500081E090E09AA389A33FC06BA17CA18DA1D3
:103D60009EA120E03FEF4FE757E40E94C5031816DD
:103D70004CF56FA178A589A59AA520E030E040E236
:103D800051E40E941F02DC01CB01BC01CD010E9465
:103D90004900DC01CB019AA389A30FC080E991E01F
:103DA00098A38F8F8F8D98A10197F1F798A38F8F8C
:103DB00089A19AA101979AA389A389A19AA10097A1
:103DC00069F714C06BA17CA18DA19EA10E9449003E
:103DD000DC01CB019AA389A389A19AA19E8F8D8F23
:103DE0008D8D9E8D0197F1F79E8F8D8F8CE00E94B7
:103DF000002080E090E0A0EAB0E4898F9A8FAB8F3A
:103E0000BC8F698D7A8D8B8D9C8D20E030E04AE7E8
:103E100055E40E941F02DC01CB018D8B9E8BAF8B82
:103E2000B88F6D897E898F89988D20E030E040E8D9
:103E30005FE30E94250488232CF481E090E09C8BB2
:103E40008B8B3FC06D897E898F89988D20E03FEFF5
:103E50004FE757E40E94C50318164CF5698D7A8D1B
:103E60008B8D9C8D20E030E040E251E40E941F02E7
:103E7000DC01CB01BC01CD010E944900DC01CB017A
:103E80009C8B8B8B0FC080E991E09A8B898B898901
:103E90009A890197F1F79A8B898B8B899C89019775
:103EA0009C8B8B8B8B899C89009769F714C06D89DB
:103EB0007E898F89988D0E944900DC01CB019C8B03
:103EC0008B8B8B899C89988B8F878F85988901979D
:103ED000F1F7988B8F8781E00E94002080E090E0CE
:103EE000A0EAB0E48B879C87AD87BE876B857C8515
:103EF0008D859E8520E030E04AE755E40E941F0250
:103F0000DC01CB018F839887A987BA876F81788579
:103F100089859A8520E030E040E85FE30E9425042F
:103F200088232CF481E090E09E838D833FC06F81D5
:103F3000788589859A8520E03FEF4FE757E40E9416
:103F4000C50318164CF56B857C858D859E8520E014
:103F500030E040E251E40E941F02DC01CB01BC01D1
:103F6000CD010E944900DC01CB019E838D830FC0EF
:103F700080E991E09C838B838B819C810197F1F791
:103F80009C838B838D819E8101979E838D838D8100
:103F90009E81009769F714C06F81788589859A851D
:103FA0000E944900DC01CB019E838D838D819E811F
:103FB0009A83898389819A810197F1F79A8389830A
:103FC00086E00E940020CA5BDF4F0FB6F894DEBF88
:103FD0000FBECDBFCF91DF911F910F910895DF9359
:103FE000CF930F92CDB7DEB789838DE061E00E9459
:103FF000221489810E94AF1B0F90CF91DF91089509
:10400000DF93CF930F92CDB7DEB789838DE060E069
:104010000E94221489810E94AF1B0F90CF91DF91E3
:104020000895DF93CF9300D00F92CDB7DEB79B8377
:104030008A8319820EC08981282F30E08A819B8172
:10404000FC01E20FF31F80810E94EF1F89818F5FC7
:1040500089838981282F30E08A819B81FC01E20FCE
:10406000F31F8081882339F70F900F900F90CF9125
:10407000DF9108950F931F93DF93CF93CDB7DEB7F2
:10408000A5970FB6F894DEBF0FBECDBF6AA37BA382
:104090008CA39DA380E2FE013296DF01982F1D9232
:1040A0009A95E9F719828AA19BA1ACA1BDA1BB2376
:1040B0000CF04AC08AA19BA1ACA1BDA1B095A0956E
:1040C000909581959F4FAF4FBF4F8AA39BA3ACA301
:1040D000BDA38DE20E94EF1F37C08981082F10E039
:1040E0008AA19BA1ACA1BDA12AE030E040E050E054
:1040F000BC01CD010E940C23DC01CB01AC01BD0150
:104100009801220F331F220F331FCE010196820F19
:10411000931FFC01319640835183628373838AA18C
:104120009BA1ACA1BDA12AE030E040E050E0BC0181
:10413000CD010E940C23DA01C9018AA39BA3ACA381
:10414000BDA389818F5F89838AA19BA1ACA1BDA1F9
:104150000097A105B10509F689818150898318C0AE
:104160008981882F90E09C01220F331F220F331F7B
:10417000CE010196820F931FFC01319680819181BF
:10418000A281B381805D0E94EF1F89818150898364
:104190008981803328F3A5960FB6F894DEBF0FBE51
:1041A000CDBFCF91DF911F910F910895DF93CF93F2
:1041B00000D00F92CDB7DEB78A836B838A818130BE
:1041C00019F48B81898314C08A81823021F48B8118
:1041D000805C89830DC08A81833021F48B818C5E61
:1041E000898306C08A81843019F48B818C5A898333
:1041F000898180580E9400200F900F900F90CF91DE
:10420000DF910895DF93CF9300D000D00F92CDB708
:10421000DEB79C838B836D831A8219828D81882FF0
:1042200090E0880F991F880F991F880F991F898325
:104230008981805C0E9400201A820EC08A81282F0A
:1042400030E08B819C81FC01E20FF31F80810E9492
:10425000EF1F8A818F5F8A838A81883078F381E0BB
:1042600060E00E94D6208D810E94EF1F0F900F907A
:104270000F900F900F90CF91DF910895DF93CF9320
:104280000F92CDB7DEB7898389810E94EF1F0F900F
:10429000CF91DF910895DF93CF93CDB7DEB781E063
:1042A0000E940020CF91DF910895DF93CF93CDB787
:1042B000DEB784E20E94B415CF91DF910895DF93B9
:1042C000CF93CDB7DEB784E260E00E942214CF9195
:1042D000DF910895DF93CF93CDB7DEB788EE91E0FD
:1042E0000E94E50E0E94761D0E946E1A0E9417071A
:1042F00086E891E00E942D0783E991E00E942D0756
:1043000080EA91E00E942D078DEA91E00E942D073E
:104310008AEB91E00E942D070E94C508FFCFDF9332
:10432000CF93CDB7DEB78091C7019091C102692FBD
:104330000E94D62080E690E00E9411208091C10268
:104340008C5F8093C1028091C102843190F0809192
:10435000C7018F5F8093C7011092C1028091C7018E
:10436000843039F481E08093C7011092C1020E9429
:104370004B21CF91DF910895DF93CF93CDB7DEB777
:104380002E970FB6F894DEBF0FBECDBF8091C2024C
:104390008F5F8093C2028091C2028A3029F489E142
:1043A0000E94B4151092C2028AE161E00E942214B8
:1043B00087E161E00E9422140E94552180E090E094
:1043C000A0E2B1E48B879C87AD87BE876B857C8537
:1043D0008D859E8520E030E04AE755E40E941F026B
:1043E000DC01CB018F839887A987BA876F81788595
:1043F00089859A8520E030E040E85FE30E9425044B
:1044000088232CF481E090E09E838D833FC06F81F0
:10441000788589859A8520E03FEF4FE757E40E9431
:10442000C50318164CF56B857C858D859E8520E02F
:1044300030E040E251E40E941F02DC01CB01BC01EC
:10444000CD010E944900DC01CB019E838D830FC00A
:1044500080E991E09C838B838B819C810197F1F7AC
:104460009C838B838D819E8101979E838D838D811B
:104470009E81009769F714C06F81788589859A8538
:104480000E944900DC01CB019E838D838D819E813A
:104490009A83898389819A810197F1F79A83898325
:1044A0000E9455212E960FB6F894DEBF0FBECDBFE9
:1044B000CF91DF910895DF93CF93CDB7DEB781E041
:1044C0000E94221B82E00E94221B83E00E94221B8A
:1044D000CF91DF910895DF93CF93CDB7DEB7809171
:1044E000C402813099F481E00E94581982E00E9450
:1044F00032198091C3028F5F8093C3028091C302FF
:10450000853021F41092C4021092C3028091C4023B
:104510008823A1F481E00E94321982E00E94581998
:104520008091C3028F5F8093C3028091C302853064
:1045300029F481E08093C4021092C302CF91DF91ED
:104540000895DF93CF9300D0CDB7DEB70E94791ADC
:104550009A83898389819A8123E130E0B9010E949D
:10456000D622CB019A83898384E060E00E94D62022
:1045700085E690E00E94112089819A81CC01A0E01B
:10458000B0E0BC01CD010E943A200F900F90CF9176
:10459000DF910895991B79E004C0991F961708F0E0
:1045A000961B881F7A95C9F780950895AA1BBB1B97
:1045B00051E107C0AA1FBB1FA617B70710F0A61B23
:1045C000B70B881F991F5A95A9F780959095BC0144
:1045D000CD010895A1E21A2EAA1BBB1BFD010DC03F
:1045E000AA1FBB1FEE1FFF1FA217B307E407F507A3
:1045F00020F0A21BB30BE40BF50B661F771F881F7F
:10460000991F1A9469F760957095809590959B0114
:10461000AC01BD01CF01089597FB092E05260ED0F0
:1046200057FD04D0D7DF0AD0001C38F450954095D0
:10463000309521953F4F4F4F5F4F0895F6F7909576
:104640008095709561957F4F8F4F9F4F08952F9262
:104650003F924F925F926F927F928F929F92AF9212
:10466000BF92CF92DF92EF92FF920F931F93CF935F
:10467000DF93CDB7DEB7CA1BDB0B0FB6F894DEBFF6
:104680000FBECDBF09942A88398848885F846E841C
:104690007D848C849B84AA84B984C884DF80EE8066
:1046A000FD800C811B81AA81B981CE0FD11D0FB66F
:1046B000F894DEBF0FBECDBFED010895F894FFCF93
:1046C0004E6F75720054656D7065726174757265B8
:1046D0003A00000000000000000000010202030395
:1046E0000303040404040404040405050505050586
:1046F0000505050505050505050506060606060664
:104700000606060606060606060606060606060649
:104710000606060606060606060607070707070733
:104720000707070707070707070707070707070719
:104730000707070707070707070707070707070709
:1047400007070707070707070707070707070707F9
:1047500007070707070707070707080808080808E3
:1047600008080808080808080808080808080808C9
:1047700008080808080808080808080808080808B9
:1047800008080808080808080808080808080808A9
:104790000808080808080808080808080808080899
:1047A0000808080808080808080808080808080889
:1047B0000808080808080808080808080808080879
:1047C0000808080808080808080808080808080869
:1047D0000808080808080808080840030000010045
:1047E000000101030202000D0001000100000000B1
:1047F000008F210032000200320000000000BC21C6
:10480000001E0003000100000000005B22002800E1
:1048100004000100000000006B220064000500019C
:104820000000000000A122010100000008000000BB
:1048300040000000000100000004000040070000EC
:1048400000004007200000000A0000010B000101E9
:104850000C0001010D0101010E0001010F00010119
:1048600010000101110001011401010115010101F4
:1048700016010101170001011801010119000101D0
:104880001A0001011B0001011E0001011F000101AE
:104890002001010121010101220101012301010186
:1048A0002400010125000101280001012900010166
:1048B0002A0000002B0100002C0001012D01000046
:0848C0002E0100002F01000091
:00000001FF
