:100000000C942A000C948E120C94C1120C94D112F0
:100010000C9447000C9447000C9447000C94470044
:100020000C9447000C9447000C941A0E0C94B10DDC
:100030000C9447000C9405090C9447000C9447005D
:100040000C9447000C9447000C9447000C94470014
:100050000C94470011241FBECFE5D8E0DEBFCDBF12
:1000600012E0A0E6B0E0EAEEFCE302C005900D92DB
:10007000A035B107D9F712E0A0E5B2E001C01D92AA
:10008000A936B107E1F70E94A31D0C94731E0C94CE
:100090000000EF92FF920F931F937B018C0120E0F1
:1000A00030E040E05FE40E94F50388238CF0C80153
:1000B000B70120E030E040E05FE40E94C1010E940F
:1000C00055049B01AC01205030404040504806C0D0
:1000D000C801B7010E9455049B01AC01B901CA01D6
:1000E0001F910F91FF90EF900895A0E0B0E0EBE733
:1000F000F0E00C943C1EDC012B01FA019C91923043
:1001000008F439C1EB018881823008F433C194309E
:1001100069F4843009F02FC111969C91119789815F
:10012000981709F428C1A0E6B0E025C1843009F48D
:1001300021C18230A9F4923009F01DC19A01AD01AC
:1001400088E0EA010990AE01E90109929E0181501F
:10015000C1F7E201898111969C918923818308C1AD
:10016000923009F407C112962D903C901397EB0141
:100170008A819B811496AD90BD90CD90DC901797AD
:10018000EC80FD800E811F819101281B390BB90184
:1001900037FF04C066277727621B730B6032710537
:1001A0000CF061C0121613066CF537014801062EDB
:1001B00004C096948794779467940A94D2F721E0C8
:1001C00030E040E050E004C0220F331F441F551FB1
:1001D0006A95D2F721503040404050402E213F21B7
:1001E00040235123211531054105510521F021E01E
:1001F00030E040E050E079018A01E628F72808293C
:1002000019293CC0232BD1F1260E371E350146019A
:10021000062E04C096948794779467940A94D2F734
:1002200021E030E040E050E004C0220F331F441FC3
:10023000551F6A95D2F721503040404050402A2146
:100240003B214C215D21211531054105510521F04E
:1002500021E030E040E050E059016A01A628B728CB
:10026000C828D9280BC0821593052CF01C01AA249C
:10027000BB24650103C0EE24FF24870111969C91E5
:10028000D20111968C91981709F445C0992339F041
:10029000A80197012A193B094C095D0906C0A6016E
:1002A00095012E193F09400B510B57FD08C01182D3
:1002B0003382228224833583468357831DC081E0A5
:1002C00081833382228288279927DC01821B930B4A
:1002D000A40BB50B84839583A683B7830DC0220F2F
:1002E000331F441F551F24833583468357838281E0
:1002F000938101979383828324813581468157813D
:10030000DA01C9010197A109B1098F5F9F4FAF4F72
:10031000BF4328F30BC0918333822282EA0CFB1C7B
:100320000C1D1D1DE482F5820683178383E0808304
:10033000248135814681578157FF1AC0C901AA27F8
:1003400097FDA095BA2F81709070A070B0705695EF
:10035000479537952795822B932BA42BB52B848318
:100360009583A683B7838281938101969383828349
:10037000DF0101C0D201CD01CDB7DEB7E2E10C94BF
:10038000581EA0E2B0E0E7ECF1E00C94481E69834F
:100390007A838B839C832D833E834F835887E9E048
:1003A000EE2EF12CEC0EFD1ECE010196B7010E943F
:1003B00046068E010F5E1F4FCE010596B8010E94C2
:1003C00046068A8991E089278A8BC701B801AE0168
:1003D000475E5F4F0E9475000E947105A096E6E09F
:1003E0000C94641EA0E2B0E0E8EFF1E00C94481E2B
:1003F00069837A838B839C832D833E834F835887C5
:10040000F9E0EF2EF12CEC0EFD1ECE010196B701A6
:100410000E9446068E010F5E1F4FCE010596B80161
:100420000E944606C701B801AE01475E5F4F0E94B9
:1004300075000E947105A096E6E00C94641EA0E28F
:10044000B0E0E5E2F2E00C943C1E69837A838B8392
:100450009C832D833E834F835887CE010196BE0136
:10046000675F7F4F0E944606CE010596BE016F5E14
:100470007F4F0E9446069985923088F089898230A4
:10048000C8F0943019F4823051F404C0843029F457
:10049000923081F480E690E0C6C0923049F420E0CA
:1004A0009A858A89981321E02A87CE010996BBC0D4
:1004B000823049F420E09A858A89981321E02A8BBA
:1004C000CE014196B0C02D843E844F8458886D88FB
:1004D0007E888F88988CEE24FF248701AA24BB2471
:1004E000650140E050E060E070E0E0E0F0E0C10174
:1004F00081709070892BE9F0E60CF71C081D191D1E
:100500009A01AB012A0D3B1D4C1D5D1D80E090E062
:10051000A0E0B0E0E614F7040805190520F481E036
:1005200090E0A0E0B0E0BA01A901480F591F6A1F8E
:100530007B1FAA0CBB1CCC1CDD1C97FE08C081E0F5
:1005400090E0A0E0B0E0A82AB92ACA2ADB2A3196B6
:10055000E032F10549F0660C771C881C991C569412
:10056000479437942794C3CFFA85EA892B893C892D
:100570008B859C85280F391F2E5F3F4F17C0CA01FE
:1005800081709070892B61F016950795F794E79428
:1005900080E090E0A0E0B0E8E82AF92A0A2B1B2BC3
:1005A00076956795579547952F5F3F4F77FDE7CF36
:1005B0000CC0440F551F661F771F17FD4160EE0CDE
:1005C000FF1C001F111F21503040403090E05907A0
:1005D00090E0690790E4790760F32B8F3C8FDB0193
:1005E000CA018F779070A070B07080349105A1051A
:1005F000B10561F447FD0AC0E114F10401051105DC
:1006000029F0405C5F4F6F4F7F4F40781A8EFE1786
:1006100011F081E08A8F4D8F5E8F6F8F78A383E01A
:10062000898FCE0149960E947105A096E2E10C9453
:10063000581EA8E1B0E0EFE1F3E00C94441E69839A
:100640007A838B839C832D833E834F835887B9E0C5
:10065000EB2EF12CEC0EFD1ECE010196B7010E948F
:1006600046068E010F5E1F4FCE010596B8010E940F
:1006700046062985223008F47EC03989323010F4CC
:10068000B8017CC08A859A8989278A87243011F02D
:10069000223031F4231709F06EC060E670E06EC0BE
:1006A000343039F41D861E861F86188A1C861B86E8
:1006B00004C0323021F484E08987B7015FC02B8504
:1006C0003C858B899C89281B390B3C872B87ED84C3
:1006D000FE840F851889AD88BE88CF88D88CEA142F
:1006E000FB040C051D0540F4EE0CFF1C001F111F40
:1006F000215030403C872B8720E030E040E050E044
:1007000080E090E0A0E0B0E460E070E0EA14FB0478
:100710000C051D0540F0282B392B4A2B5B2BEA18C2
:10072000FB080C091D09B695A79597958795EE0CC2
:10073000FF1C001F111F6F5F7F4F6F31710531F775
:10074000DA01C9018F779070A070B0708034910584
:10075000A105B10561F427FD0AC0E114F10401050A
:10076000110529F0205C3F4F4F4F5F4F20782D87B8
:100770003E874F87588BBE01675F7F4FCB010E943A
:1007800071056896EAE00C94601EA8E1B0E0EBEC1D
:10079000F3E00C94481E69837A838B839C832D83BA
:1007A0003E834F83588789E0E82EF12CEC0EFD1E26
:1007B000CE010196B7010E9446068E010F5E1F4FC3
:1007C000CE010596B8010E9446068985823040F028
:1007D0008989823028F0C701B8010E94BE0601C095
:1007E0008FEF6896E6E00C94641EA8E1B0E0EBEFB2
:1007F000F3E00C94481E69837A838B839C832D835A
:100800003E834F83588789E0E82EF12CEC0EFD1EC5
:10081000CE010196B7010E9446068E010F5E1F4F62
:10082000CE010596B8010E9446068985823040F0C7
:100830008989823028F0C701B8010E94BE0601C034
:100840008FEF6896E6E00C94641EA8E1B0E0EBE25E
:10085000F4E00C94481E69837A838B839C832D83F8
:100860003E834F83588789E0E82EF12CEC0EFD1E65
:10087000CE010196B7010E9446068E010F5E1F4F02
:10088000CE010596B8010E9446068985823040F067
:100890008989823028F0C701B8010E94BE0601C0D4
:1008A00081E06896E6E00C94641EACE0B0E0EBE515
:1008B000F4E00C944C1E69837A838B839C83CE0175
:1008C0000196BE016B5F7F4F0E9446068D8182308C
:1008D00061F1823050F1843021F48E81882351F10E
:1008E0002EC02F81388537FD20C06E812F31310514
:1008F0001CF06623F9F023C08EE190E0821B930B7D
:1009000029853A854B855C8504C056954795379572
:1009100027958A95D2F76623B1F05095409530958A
:1009200021953F4F4F4F5F4F0EC020E030E040E039
:1009300050E009C02FEF3FEF4FEF5FE704C020E02A
:1009400030E040E050E8B901CA012C96E2E00C9496
:10095000681EA8E0B0E0EFEAF4E00C94441E7B01CE
:100960008C01611571058105910519F482E0898377
:1009700060C083E089838EE1C82ED12CDC82CB82DB
:10098000ED82FE820F831887C801B7010E942205FD
:10099000FC013197F7FF3BC0222733272E1B3F0B6B
:1009A00057016801022E04C0D694C794B794A79447
:1009B0000A94D2F740E050E060E070E081E090E01F
:1009C000A0E0B0E004C0880F991FAA1FBB1F2A95A2
:1009D000D2F70197A109B1098E219F21A023B1234C
:1009E0000097A105B10521F041E050E060E070E022
:1009F0004A295B296C297D294D835E836F83788723
:100A00008EE190E08E1B9F0B9C838B8312C03097EE
:100A100081F00E2E04C0EE0CFF1C001F111F0A9463
:100A2000D2F7ED82FE820F831887CE1ADF0ADC82AE
:100A3000CB821A82CE0101960E9471052896EAE0C7
:100A40000C94601EEF92FF920F931F937B018C0119
:100A500080E0E81680E0F80681E0080780E01807EB
:100A600088F48FEFE816F1040105110531F028F044
:100A700088E090E0A0E0B0E017C080E090E0A0E067
:100A8000B0E012C080E0E81680E0F80680E00807D9
:100A900081E0180728F088E190E0A0E0B0E004C011
:100AA00080E190E0A0E0B0E020E230E040E050E003
:100AB000281B390B4A0B5B0B04C016950795F7945E
:100AC000E7948A95D2F7F701E859FF4F8081281BF8
:100AD000310941095109C9011F910F91FF90EF9010
:100AE0000895DF92EF92FF920F931F93FC01E48031
:100AF000F58006811781D1808081823048F480E0C2
:100B000090E0A0E1B0E0E82AF92A0A2B1B2BA5C04F
:100B1000843009F49FC0823021F4EE24FF24870141
:100B200005C0E114F1040105110519F4E0E0F0E05D
:100B300096C0628173819FEF623879070CF05BC0C9
:100B400022E83FEF261B370B2A3131052CF020E03D
:100B500030E040E050E02AC0B801A701022E04C0F6
:100B600076956795579547950A94D2F781E090E07E
:100B7000A0E0B0E004C0880F991FAA1FBB1F2A95F0
:100B8000D2F70197A109B1098E219F21A023B1239A
:100B90000097A105B10521F081E090E0A0E0B0E070
:100BA0009A01AB01282B392B4A2B5B2BDA01C901A7
:100BB0008F779070A070B07080349105A105B10559
:100BC00039F427FF09C0205C3F4F4F4F5F4F04C0EF
:100BD000215C3F4F4F4F5F4FE0E0F0E02030A0E05E
:100BE0003A07A0E04A07A0E45A0710F0E1E0F0E07D
:100BF00079018A0127C06038710564F5FB01E1586D
:100C0000FF4FD801C7018F779070A070B07080340B
:100C10009105A105B10539F4E7FE0DC080E490E02F
:100C2000A0E0B0E004C08FE390E0A0E0B0E0E80E08
:100C3000F91E0A1F1B1F17FF05C016950795F7948D
:100C4000E794319687E016950795F794E7948A958F
:100C5000D1F705C0EE24FF248701EFEFF0E06E2FFF
:100C6000679566276795902F9F77D794DD24D79453
:100C70008E2F8695492F462B582F5D29B701CA0123
:100C80001F910F91FF90EF90DF900895FC01DB0121
:100C9000408151812281622F6F7770E0221F2227CD
:100CA000221F9381892F880F822B282F30E0991FD4
:100CB0009927991F11969C93119721153105A9F534
:100CC000411551056105710511F482E037C082E8D4
:100CD0009FEF13969C938E9312979A01AB0167E056
:100CE000220F331F441F551F6A95D1F783E08C9361
:100CF0000DC0220F331F441F551F12968D919C91DA
:100D00001397019713969C938E931297203080E04F
:100D1000380780E0480780E4580758F314962D936D
:100D20003D934D935C93179708952F3F310579F4C8
:100D3000411551056105710519F484E08C930895FE
:100D400064FF03C081E08C9312C01C9210C02F5727
:100D5000304013963C932E93129783E08C9387E058
:100D6000440F551F661F771F8A95D1F7706414963C
:100D70004D935D936D937C93179708951F93DC01BA
:100D8000FB019C91923008F447C08081823008F4C6
:100D900043C0943051F411961C91843099F58181AF
:100DA000682F70E0611B71093FC0843021F09230E0
:100DB00031F48230B9F18181882389F12DC01196F7
:100DC0001C9111978230F1F081811817D9F4129695
:100DD0002D913C911397828193818217930794F010
:100DE00028173907BCF014968D919D910D90BC91F8
:100DF000A02D2481358146815781281739074A075C
:100E00005B0718F4112341F00AC082179307A40767
:100E1000B50740F4112319F061E070E005C06FEFF1
:100E20007FEF02C060E070E0CB011F910895DF9377
:100E3000CF93CDB7DEB72B970FB6F894DEBF0FBEBA
:100E4000CDBF9B838A83198289818F7B8983898126
:100E50008E7F8983EA81FB81208131813B872A87CC
:100E60008A859B858F3C910589F02A853B8581E0A9
:100E7000203A380731F02A853B852736310559F06D
:100E80000EC0E9E2F0E080EA808309C0E9E2F0E028
:100E90008FEC808304C0E9E2F0E087E68083EA819A
:100EA000FB818281282F30E03987288788859985C2
:100EB00082309105B1F1288539852330310554F40C
:100EC00088859985009789F02885398521303105F5
:100ED000D1F050C0888599858330910581F12885AE
:100EE000398524303105C9F145C089818D7F8983D9
:100EF00089818B7F8983AAE2B0E0EAE2F0E0808119
:100F00008B7F8C9337C089818260898389818B7FB5
:100F10008983AAE2B0E0EAE2F0E080818B7F8C93E3
:100F200029C089818D7F8983898184608983AAE230
:100F3000B0E0EAE2F0E080818B7F8C931BC0898176
:100F400082608983898184608983AAE2B0E0EAE2D1
:100F5000F0E080818B7F8C930DC0898182608983D2
:100F6000898184608983AAE2B0E0EAE2F0E08081CE
:100F700084608C93EA81FB818381282F30E03F835A
:100F80002E838E819F818130910569F02E813F8172
:100F90002230310579F08E819F81009789F4898113
:100FA0008F7C89830DC089818F7C89838981806250
:100FB000898306C089818F7C898389818063898345
:100FC000EA81FB818481282F30E03D832C838C8152
:100FD0009D81009731F02C813D812130310529F030
:100FE0000AC08981877F898306C08981877F898339
:100FF00089818860898389818F77898389818068E5
:101000008983E0E4F0E089818083AAE2B0E0EAE24B
:10101000F0E0808180688C93AAE2B0E0EAE2F0E040
:10102000808180618C932B960FB6F894DEBF0FBE43
:10103000CDBFCF91DF910895DF93CF9300D0CDB78F
:10104000DEB78983EBE2F0E08081ECE2F0E08981B9
:1010500080830F900F90CF91DF910895DF93CF930E
:10106000CDB7DEB761970FB6F894DEBF0FBECDBF28
:10107000998B888B1F861F8680C080E090E0AAEF46
:10108000B3E48B879C87AD87BE876B857C858D8518
:101090009E8520E030E04AE755E40E941F02DC0113
:1010A000CB018F839887A987BA876F8178858985D7
:1010B0009A8520E030E040E85FE30E942504882321
:1010C0002CF481E090E09E838D833FC06F81788512
:1010D00089859A8520E03FEF4FE757E40E94C503DA
:1010E00018164CF56B857C858D859E8520E030E05B
:1010F00040E251E40E941F02DC01CB01BC01CD01A2
:101100000E944900DC01CB019E838D830FC080E9E2
:1011100091E09C838B838B819C810197F1F79C8369
:101120008B838D819E8101979E838D838D819E818E
:10113000009769F714C06F81788589859A850E9428
:101140004900DC01CB019E838D838D819E819A8332
:10115000898389819A810197F1F79A8389838F85A1
:10116000282F30E088899989FC01E20FF31F8081E4
:101170000E941C088F858F5F8F878F85282F30E016
:1011800088899989FC01E20FF31F8081882309F087
:1011900074CF61960FB6F894DEBF0FBECDBFCF916E
:1011A000DF910895DF93CF93CDB7DEB7EBE2F0E0A8
:1011B00080818823DCF7ECE2F0E08081CF91DF9141
:1011C0000895DF93CF93CDB7DEB7ECE2F0E08081F6
:1011D000CF91DF910895DF93CF9300D00F92CDB7D9
:1011E000DEB79B838A8319828A819B81009731F0C5
:1011F0008A819B81909351028093500289810F9044
:101200000F900F90CF91DF9108951F920F920FB61C
:101210000F9211242F933F934F935F936F937F937C
:101220008F939F93AF93BF93EF93FF93DF93CF93EE
:10123000CDB7DEB78091500290915102009729F00E
:10124000E0915002F09151020995CF91DF91FF9109
:10125000EF91BF91AF919F918F917F916F915F912E
:101260004F913F912F910F900FBE0F901F901895A7
:10127000DF93CF9300D0CDB7DEB789836A838981AE
:10128000882399F5AFE4B0E0EFE4F0E080818E7F51
:101290008C93AFE4B0E0EFE4F0E080818D7F8C933D
:1012A000AEE4B0E0EEE4F0E080819181877F1196BA
:1012B0009C938E93AEE4B0E0EEE4F0E08081918107
:1012C0008F7E11969C938E938A81882371F4AFE46C
:1012D000B0E0EFE4F0E080818F7B8C93AFE4B0E08E
:1012E000EFE4F0E080818F778C930F900F90CF9197
:1012F000DF910895DF93CF930F92CDB7DEB7898347
:1013000089818230F1F4AEE4B0E0EEE4F0E0808177
:1013100091818E7F11969C938E93AEE4B0E0EEE4C3
:10132000F0E080819181826011969C938E93AEE46F
:10133000B0E0EEE4F0E0808191818B7F11969C9388
:101340008E930F90CF91DF910895DF93CF93CDB718
:10135000DEB7AEE4B0E0EEE4F0E0808191818E7F14
:1013600011969C938E93AEE4B0E0EEE4F0E08081C1
:1013700091818D7F11969C938E93AEE4B0E0EEE464
:10138000F0E0808191818B7F11969C938E93CF9119
:10139000DF910895DF93CF93CDB7DEB7A9E5B0E035
:1013A000E9E5F0E0808180628C93AEE4B0E0EEE4A9
:1013B000F0E080819181806411969C938E93CF910F
:1013C000DF910895DF93CF930F92CDB7DEB7898376
:1013D0008981882359F4AEE4B0E0EEE4F0E0808146
:1013E00091818F7B11969C938E930DC08981813062
:1013F00051F4AEE4B0E0EEE4F0E0808191818064ED
:1014000011969C938E930F90CF91DF910895DF9367
:10141000CF93CDB7DEB7A9E5B0E0E9E5F0E0808194
:101420008F7D8C93CF91DF910895DF93CF93CDB7CC
:10143000DEB7E6E4F0E080819181CF91DF910895FD
:10144000DF93CF93CDB7DEB7CF91DF910895DF93D0
:10145000CF930F92CDB7DEB789838981882341F47A
:10146000A8E5B0E0E8E5F0E0808180628C930AC0F6
:101470008981833039F4A8E5B0E0E8E5F0E08081C7
:1014800084608C9380E00F90CF91DF910895DF937B
:10149000CF93CDB7DEB72C970FB6F894DEBF0FBE53
:1014A000CDBF89836A838981282F30E03C872B87D1
:1014B0008B859C858130910509F466C02B853C8520
:1014C000223031052CF48B859C85009771F023C167
:1014D0002B853C852230310509F4A6C08B859C857F
:1014E0008330910509F4DCC016C1A3E5B0E0E3E563
:1014F000F0E08081877D8C93A3E5B0E0E3E5F0E048
:1015000080818C938A81282F30E03A8729878985CA
:101510009A8582309105D1F029853A8523303105AD
:1015200021F189859A858130910509F0F4C0A3E500
:10153000B0E0E3E5F0E080818F7C8C93A3E5B0E040
:10154000E3E5F0E0808180618C93E5C0A3E5B0E045
:10155000E3E5F0E080818F7C8C93A3E5B0E0E3E5E8
:10156000F0E0808180628C93D6C0A3E5B0E0E3E533
:10157000F0E080818F7C8C93A3E5B0E0E3E5F0E0C0
:10158000808180638C93C7C0A3E5B0E0E3E5F0E021
:101590008081877D8C93A3E5B0E0E3E5F0E0808176
:1015A00088608C938A81282F30E038872F838F8141
:1015B000988582309105D1F02F813885233031050F
:1015C00021F18F8198858130910509F0A4C0A3E5B0
:1015D000B0E0E3E5F0E080818F7C8C93A3E5B0E0A0
:1015E000E3E5F0E0808180618C9395C0A3E5B0E0F5
:1015F000E3E5F0E080818F7C8C93A3E5B0E0E3E548
:10160000F0E0808180628C9386C0A3E5B0E0E3E5E2
:10161000F0E080818F7C8C93A3E5B0E0E3E5F0E01F
:10162000808180638C9377C0A3E5B0E0E3E5F0E0D0
:101630008081877D8C93A3E5B0E0E3E5F0E08081D5
:1016400088648C938A81282F30E03E832D838D819E
:101650009E818430910531F02D813E812530310508
:1016600081F059C0A3E5B0E0E3E5F0E080818F7C34
:101670008C93A3E5B0E0E3E5F0E0808180638C9398
:101680004AC0A3E5B0E0E3E5F0E080818F7C8C9375
:10169000A3E5B0E0E3E5F0E0808180628C933BC09D
:1016A000A3E5B0E0E3E5F0E08081877D8C93A3E5DE
:1016B000B0E0E3E5F0E0808180648C938A81282F9C
:1016C00030E03C832B838B819C818430910531F009
:1016D0002B813C812530310581F01DC0A3E5B0E0B0
:1016E000E3E5F0E080818F7C8C93A3E5B0E0E3E557
:1016F000F0E0808180638C930EC0A3E5B0E0E3E569
:10170000F0E080818F7C8C93A3E5B0E0E3E5F0E02E
:10171000808180628C932C960FB6F894DEBF0FBE4A
:10172000CDBFCF91DF910895DF93CF930F92CDB7C7
:10173000DEB78983A3E5B0E0E3E5F0E08081887F50
:101740008C93A3E5B0E0E3E5F0E090818981892BFB
:101750008C930F90CF91DF910895DF93CF93CDB706
:10176000DEB7A3E5B0E0E3E5F0E08081887F8C930D
:10177000A3E5B0E0E3E5F0E080818C93CF91DF91C9
:101780000895DF93CF93CDB7DEB7E2E5F0E0808137
:10179000CF91DF910895DF93CF930F92CDB7DEB74E
:1017A0008983E2E5F0E0898180830F90CF91DF911A
:1017B0000895DF93CF93CDB7DEB7AC970FB6F8940B
:1017C000DEBF0FBECDBF6AA37BA38CA39DA34EA398
:1017D0002FA3CE010E9699A788A7E3EBF1E0FBA714
:1017E000EAA7F4E1FCA7EAA5FBA500808AA59BA5D2
:1017F00001969BA78AA7E8A5F9A5008288A599A5C7
:10180000019699A788A79CA591509CA7ECA5EE23CB
:1018100051F78FA1882F90E001979C01220F331F71
:10182000220F331FCE010196820F931FFC013D96BC
:1018300080819181A281B381BC01CD010E94A90464
:10184000DC01CB01BC01CD0120E030E040E851E4F7
:101850000E941903DC01CB018A879B87AC87BD8777
:101860001E821F82188619861A821B821C821D8284
:101870008AA19BA1ACA1BDA120E432E44FE050E0DD
:10188000BC01CD010E94D41DDC01CB01BC01CD0106
:101890000E94A904DC01CB01BC01CD012A853B8556
:1018A0004C855D850E941903DC01CB01BC01CD0193
:1018B0000E944900DC01CB018E839F83A887B987F2
:1018C0008E819F81A885B985BC01CD010E94881CAD
:1018D0008EA1882309F056C08E819F81A885B98585
:1018E000892F9A2FAB2FBB278093580290935902D0
:1018F000A0935A02B0935B028E8180935C028E812A
:101900009F81A885B9859070A070B0700097A105DF
:10191000B10559F1E2E5F0E080915C0281958083A8
:101920008091580290915902A0915A02B0915B02A5
:101930000196A11DB11D8093580290935902A09366
:101940005A02B0935B0282E090E060E070E00E9497
:10195000241D8091580290915902A0915A02B09191
:101960005B02BC01CD010E94881C82E090E06AE02D
:1019700070E00E94241D80915C02882F90E00E94FC
:10198000881C3DC08EA18130D1F58FEF90E0A0E0A2
:10199000B0E08A839B83AC83BD8319820BC08A81AC
:1019A0009B81AC81BD810197A109B1098A839B8389
:1019B000AC83BD838E819F81A885B9852A813B81B7
:1019C0004C815D81BC01CD010E94FF1DDC01CB017A
:1019D0000097A105B10519F78E819F81A885B9856A
:1019E0002A813B814C815D81BC01CD010E94FF1D9C
:1019F000DC01CB018983ECE5F0E0898180838FA154
:101A00000E94940BAC960FB6F894DEBF0FBECDBF0C
:101A1000CF91DF910895DF93CF9300D00F92CDB790
:101A2000DEB789838981282F30E03B832A838A812E
:101A30009B81009731F02A813B812130310581F073
:101A40001DC0A9E5B0E0E9E5F0E080818E7F8C93D0
:101A5000A9E5B0E0E9E5F0E0808181608C930EC0FB
:101A6000A9E5B0E0E9E5F0E080818D7F8C93A9E500
:101A7000B0E0E9E5F0E0808182608C930F900F90F8
:101A80000F90CF91DF910895DF93CF9300D00F9205
:101A9000CDB7DEB789838981282F30E03B832A8345
:101AA0008A819B81009731F02A813B812130310569
:101AB00079F01BC0A9E5B0E0E9E5F0E080818E7F18
:101AC0008C93A9E5B0E0E9E5F0E080818C930DC04E
:101AD000A9E5B0E0E9E5F0E080818D7F8C93A9E590
:101AE000B0E0E9E5F0E080818C930F900F900F90CB
:101AF000CF91DF910895DF93CF9300D000D00F9264
:101B0000CDB7DEB789837B836A838981282F30E054
:101B10003D832C838C819D81009731F02C813D8108
:101B20002130310561F015C08A819B81009789F0D1
:101B30008A819B8190935502809354020AC08A81C6
:101B40009B81009731F08A819B819093570280930B
:101B500056020F900F900F900F900F90CF91DF9142
:101B600008951F920F920FB60F9211242F933F9357
:101B70004F935F936F937F938F939F93AF93BF9395
:101B8000EF93FF93DF93CF93CDB7DEB780915D02E4
:101B900090915E02A0915F02B09160020196A11D3A
:101BA000B11D80935D0290935E02A0935F02B0939B
:101BB00060028091540290915502009741F120916A
:101BC0005D0230915E0240915F025091600280910F
:101BD000580290915902A0915A02B0915B022817C5
:101BE00039074A075B0799F4E0915402F0915502D6
:101BF000099510925D0210925E0210925F0210929F
:101C00006002E2E5F0E080915C0281958083CF91F3
:101C1000DF91FF91EF91BF91AF919F918F917F9154
:101C20006F915F914F913F912F910F900FBE0F9049
:101C30001F9018951F920F920FB60F921124DF93E9
:101C4000CF93CDB7DEB7CF91DF910F900FBE0F903E
:101C50001F901895DF93CF93CDB7DEB72B970FB6B4
:101C6000F894DEBF0FBECDBF9D838C838C819D8198
:101C7000009709F451C21B824BC28B81882F90E0E0
:101C80009C01220F331F220F331F8C819D81FC0189
:101C9000E20FF31F80819AE0692F0E94F31D892FC4
:101CA0008A838B81882F90E09C01220F331F220FA3
:101CB000331F8C819D81FC01E20FF31F80819AE02C
:101CC000692F0E94F31D89838B81882F90E09C01EE
:101CD000220F331F220F331F8C819D81FC01E20FE5
:101CE000F31F8281882389F08B81882F90E09C01EB
:101CF000220F331F220F331F8C819D81FC01E20FC5
:101D0000F31F8281813009F000C28981282F30E0E1
:101D10003B872A876A857B8562307105D1F18A8588
:101D20009B858330910534F42A853B85213031052C
:101D300071F094C06A857B856330710509F44BC0EE
:101D40008A859B858430910509F467C087C0AAE322
:101D5000B0E0EAE3F0E040818B81882F90E09C01C5
:101D6000220F331F220F331F8C819D81FC01E20F54
:101D7000F31F8281282F30E08A81882F90E0B901FB
:101D800002C0660F771F8A95E2F7CB01842B8C93F4
:101D900065C0A7E3B0E0E7E3F0E040818B81882FE6
:101DA00090E09C01220F331F220F331F8C819D81F5
:101DB000FC01E20FF31F8281282F30E08A81882FF7
:101DC00090E0B90102C0660F771F8A95E2F7CB0158
:101DD000842B8C9343C0A4E3B0E0E4E3F0E04081C3
:101DE0008B81882F90E09C01220F331F220F331F1D
:101DF0008C819D81FC01E20FF31F8281282F30E04E
:101E00008A81882F90E0B90102C0660F771F8A95FA
:101E1000E2F7CB01842B8C9321C0A1E3B0E0E1E396
:101E2000F0E040818B81882F90E09C01220F331FCE
:101E3000220F331F8C819D81FC01E20FF31F8281F1
:101E4000282F30E08A81882F90E0B90102C0660F08
:101E5000771F8A95E2F7CB01842B8C938B81882F97
:101E600090E09C01220F331F220F331F8C819D8134
:101E7000FC01E20FF31F8181882389F08B81882F79
:101E800090E09C01220F331F220F331F8C819D8114
:101E9000FC01E20FF31F8181813009F036C1898195
:101EA000282F30E039872887688579856230710569
:101EB000D1F1888599858330910534F42885398559
:101EC0002130310571F094C06885798563307105E2
:101ED00009F44BC0888599858430910509F467C061
:101EE00087C0ABE3B0E0EBE3F0E040818B81882F6B
:101EF00090E09C01220F331F220F331F8C819D81A4
:101F0000FC01E20FF31F8181282F30E08A81882FA6
:101F100090E0B90102C0660F771F8A95E2F7CB0106
:101F2000842B8C9365C0A8E3B0E0E8E3F0E0408147
:101F30008B81882F90E09C01220F331F220F331FCB
:101F40008C819D81FC01E20FF31F8181282F30E0FD
:101F50008A81882F90E0B90102C0660F771F8A95A9
:101F6000E2F7CB01842B8C9343C0A5E3B0E0E5E31B
:101F7000F0E040818B81882F90E09C01220F331F7D
:101F8000220F331F8C819D81FC01E20FF31F8181A1
:101F9000282F30E08A81882F90E0B90102C0660FB7
:101FA000771F8A95E2F7CB01842B8C9321C0A2E3A3
:101FB000B0E0E2E3F0E040818B81882F90E09C016B
:101FC000220F331F220F331F8C819D81FC01E20FF2
:101FD000F31F8181282F30E08A81882F90E0B9019A
:101FE00002C0660F771F8A95E2F7CB01842B8C9392
:101FF0008B81882F90E09C01220F331F220F331F0B
:102000008C819D81FC01E20FF31F8281813009F0F8
:102010007CC08B81882F90E09C01220F331F220F00
:10202000331F8C819D81FC01E20FF31F8381882384
:1020300009F06BC08981282F30E03F832E836E81A9
:102040007F816230710549F18E819F8183309105D6
:1020500034F42E813F812130310561F056C06E810C
:102060007F816330710561F18E819F81843091059C
:10207000D1F14BC0ABE3B0E0EBE3F0E040818A810B
:10208000282F30E081E090E0022E02C0880F991FD7
:102090000A94E2F7842B8C9338C0A8E3B0E0E8E31D
:1020A000F0E040818A81282F30E081E090E0022E2C
:1020B00002C0880F991F0A94E2F7842B8C9325C0E5
:1020C000A5E3B0E0E5E3F0E040818A81282F30E02D
:1020D00081E090E0022E02C0880F991F0A94E2F777
:1020E000842B8C9312C0A2E3B0E0E2E3F0E04081E5
:1020F0008A81282F30E081E090E0022E02C0880F14
:10210000991F0A94E2F7842B8C938B818F5F8B83CA
:102110008B81803208F4B1CD2B960FB6F894DEBFD8
:102120000FBECDBFCF91DF910895DF93CF93CDB791
:10213000DEB7AFE5B0E0EFE5F0E0808180688C933A
:10214000CF91DF910895DF93CF93CDB7DEB7AFE5A1
:10215000B0E0EFE5F0E080818F778C93CF91DF9155
:102160000895DF93CF93CDB7DEB72B970FB6F894D2
:10217000DEBF0FBECDBF9B838A8319820EC18981CA
:10218000882F90E09C01220F331F8A819B81FC01E4
:10219000E20FF31F8081282F30E03B872A878A8552
:1021A0009B858130910509F44AC02A853B85223000
:1021B000310509F4B1C08A859B85009709F0EAC012
:1021C0008981882F90E09C01220F331F8A819B8197
:1021D000FC01E20FF31F8181282F30E03987288727
:1021E00088859985009731F028853985213031051A
:1021F00081F01DC0A5E5B0E0E5E5F0E080818D7FD0
:102200008C93A5E5B0E0E5E5F0E080818E7F8C93CE
:102210000EC0A5E5B0E0E5E5F0E080818D7F8C9310
:10222000A5E5B0E0E5E5F0E0808181608C93ABE569
:10223000B0E0EBE5F0E0808180648C93ABC08981F5
:10224000882F90E09C01220F331F8A819B81FC0123
:10225000E20FF31F8181282F30E03F832E838E8190
:102260009F818130910521F12E813F8122303105FE
:102270002CF48E819F81009761F046C02E813F81B2
:102280002230310521F18E819F818330910571F1DA
:102290003BC0A5E5B0E0E5E5F0E0808182608C938D
:1022A000A5E5B0E0E5E5F0E080818E7F8C932CC061
:1022B000A5E5B0E0E5E5F0E080818D7F8C93A5E5B4
:1022C000B0E0E5E5F0E0808181608C931DC0A5E57C
:1022D000B0E0E5E5F0E0808182608C93A5E5B0E0B8
:1022E000E5E5F0E080818E7F8C930EC0A5E5B0E03F
:1022F000E5E5F0E0808182608C93A5E5B0E0E5E55E
:10230000F0E0808181608C93ABE5B0E0EBE5F0E03C
:10231000808180688C933EC08981882F90E09C01E9
:10232000220F331F8A819B81FC01E20FF31F818101
:10233000282F30E03D832C838C819D81009731F0E4
:102340002C813D812130310581F01DC0A5E5B0E033
:10235000E5E5F0E0808182608C93A5E5B0E0E5E5FD
:10236000F0E080818E7F8C930EC0A5E5B0E0E5E5BE
:10237000F0E080818D7F8C93A5E5B0E0E5E5F0E0AD
:10238000808181608C93ABE5B0E0EBE5F0E080818B
:1023900080628C9389818F5F89838981833008F47F
:1023A000EECE2B960FB6F894DEBF0FBECDBFCF9109
:1023B000DF910895DF93CF9300D000D0CDB7DEB783
:1023C0009A838983E981FA818081282F30E03C83D8
:1023D0002B838B819C818130910589F02B813C81FD
:1023E00022303105A1F08B819C810097B9F4ABE5D7
:1023F000B0E0EBE5F0E080818F7B8C930FC0ABE524
:10240000B0E0EBE5F0E080818F778C9307C0ABE51F
:10241000B0E0EBE5F0E080818F7D8C930F900F9022
:102420000F900F90CF91DF910895DF93CF93CDB7A9
:10243000DEB728970FB6F894DEBF0FBECDBF9C83E2
:102440008B837E836D8382E08A83198259C0898160
:10245000882F90E09C01220F331F8B819C81FC010F
:10246000E20FF31F8081282F30E038872F838F8180
:10247000988581309105E1F02F8138852230310532
:1024800051F18F8198850097C1F58D819E810097CC
:1024900069F08981882F90E0880F991FFC01EF591E
:1024A000FD4F8D819E819183808327C01A8225C034
:1024B0008D819E81009769F08981882F90E0880F37
:1024C000991FFC01EF59FD4F8D819E81918380837F
:1024D00014C01A8212C08D819E81009769F0898193
:1024E000882F90E0880F991FFC01EF59FD4F8D81D7
:1024F0009E819183808301C01A8289818F5F898345
:102500008981833008F4A3CF8A8128960FB6F89486
:10251000DEBF0FBECDBFCF91DF9108951F920F9206
:102520000FB60F9211242F933F934F935F936F93A6
:102530007F938F939F93AF93BF93EF93FF93DF931B
:10254000CF93CDB7DEB78091610290916202009780
:1025500029F0E0916102F09162020995CF91DF913B
:10256000FF91EF91BF91AF919F918F917F916F916B
:102570005F914F913F912F910F900FBE0F901F9041
:1025800018951F920F920FB60F921124DF93CF93DD
:10259000CDB7DEB7CF91DF910F900FBE0F901F9098
:1025A00018951F920F920FB60F921124DF93CF93BD
:1025B000CDB7DEB7CF91DF910F900FBE0F901F9078
:1025C0001895DF93CF9300D000D000D0CDB7DEB701
:1025D0008C838C819AE0692F0E94F31D892F8B8355
:1025E0008C819AE0692F0E94F31D8A838A81282FAB
:1025F00030E03E832D834D815E814230510541F1B3
:102600008D819E818330910534F42D813E8121306E
:10261000310561F052C04D815E814330510551F169
:102620008D819E8184309105B9F147C0E9E3F0E0E6
:102630008081282F30E08B81882F90E0A90102C093
:10264000559547958A95E2F7CA018170898335C00F
:10265000E6E3F0E08081282F30E08B81882F90E046
:10266000A90102C0559547958A95E2F7CA01817084
:10267000898323C0E3E3F0E08081282F30E08B8161
:10268000882F90E0A90102C0559547958A95E2F7F9
:10269000CA018170898311C0E0E3F0E08081282FB6
:1026A00030E08B81882F90E0A90102C055954795B5
:1026B0008A95E2F7CA0181708983898126960FB6CF
:1026C000F894DEBF0FBECDBFCF91DF910895DF93A9
:1026D000CF93CDB7DEB728970FB6F894DEBF0FBE05
:1026E000CDBF8B836C838B819AE0692F0E94F31D91
:1026F000892F8A838B819AE0692F0E94F31D898339
:102700008C81813009F070C08981282F30E03887B2
:102710002F838F8198858230910551F12F813885E3
:102720002330310534F48F8198858130910561F033
:10273000D3C02F8138852330310571F18F81988581
:1027400084309105E9F1C8C0ABE3B0E0EBE3F0E021
:102750008081482F8A81282F30E081E090E0022E8E
:1027600002C0880F991F0A94E2F7842B8C93B4C09F
:10277000A8E3B0E0E8E3F0E08081482F8A81282FC9
:1027800030E081E090E0022E02C0880F991F0A9489
:10279000E2F7842B8C93A0C0A5E3B0E0E5E3F0E082
:1027A0008081482F8A81282F30E081E090E0022E3E
:1027B00002C0880F991F0A94E2F7842B8C938CC077
:1027C000A2E3B0E0E2E3F0E08081482F8A81282F85
:1027D00030E081E090E0022E02C0880F991F0A9439
:1027E000E2F7842B8C9378C08C81882309F074C025
:1027F0008981282F30E03E832D838D819E81823018
:10280000910561F12D813E812330310534F48D81B4
:102810009E818130910569F05FC02D813E8123301A
:10282000310589F18D819E818430910509F440C084
:1028300053C0ABE3B0E0EBE3F0E08081482F8A8146
:10284000282F30E081E090E0022E02C0880F991F0F
:102850000A94E2F7809584238C933EC0A8E3B0E00D
:10286000E8E3F0E08081482F8A81282F30E081E082
:1028700090E0022E02C0880F991F0A94E2F780951B
:1028800084238C9329C0A5E3B0E0E5E3F0E08081E8
:10289000482F8A81282F30E081E090E0022E02C08C
:1028A000880F991F0A94E2F7809584238C9314C0B3
:1028B000A2E3B0E0E2E3F0E08081482F8A81282F94
:1028C00030E081E090E0022E02C0880F991F0A9448
:1028D000E2F7809584238C9328960FB6F894DEBF98
:1028E0000FBECDBFCF91DF910895DF93CF9300D07E
:1028F00000D0CDB7DEB78A838A81282F30E03C83B1
:102900002B838B819C8182309105D9F02B813C8176
:102910002330310534F48B819C818130910561F045
:102920001EC02B813C812330310581F08B819C813D
:102930008430910581F013C0EBE3F0E0808189835E
:102940000EC0E8E3F0E08081898309C0E5E3F0E0B0
:102950008081898304C0E2E3F0E0808189838981FA
:102960000F900F900F900F90CF91DF910895DF930C
:10297000CF9300D000D0CDB7DEB789836A83898139
:10298000282F30E03C832B838B819C818230910502
:10299000D9F02B813C812330310534F48B819C812B
:1029A0008130910561F01EC02B813C8123303105BF
:1029B00081F08B819C818430910581F013C0EBE321
:1029C000F0E08A8180830EC0E8E3F0E08A818083B2
:1029D00009C0E5E3F0E08A81808304C0E2E3F0E02F
:1029E0008A8180830F900F900F900F90CF91DF918D
:1029F0000895DF93CF9300D000D00F92CDB7DEB70C
:102A00008B838B819AE0692F0E94F31D892F8A8323
:102A10008B819AE0692F0E94F31D89838981282F79
:102A200030E03D832C838C819D818230910551F172
:102A30002C813D812330310534F48C819D8181309E
:102A4000910561F05AC02C813D812330310571F12F
:102A50008C819D8184309105E9F14FC0ABE3B0E0FA
:102A6000EBE3F0E08081482F8A81282F30E081E07D
:102A700090E0022E02C0880F991F0A94E2F7842783
:102A80008C933BC0A8E3B0E0E8E3F0E08081482FFE
:102A90008A81282F30E081E090E0022E02C0880F6A
:102AA000991F0A94E2F784278C9327C0A5E3B0E02E
:102AB000E5E3F0E08081482F8A81282F30E081E033
:102AC00090E0022E02C0880F991F0A94E2F7842733
:102AD0008C9313C0A2E3B0E0E2E3F0E08081482FE2
:102AE0008A81282F30E081E090E0022E02C0880F1A
:102AF000991F0A94E2F784278C930F900F900F9000
:102B00000F900F90CF91DF910895DF93CF9300D076
:102B10000F92CDB7DEB79B838A831982EA81FB814E
:102B20008081882379F4A7E2B0E0E7E2F0E08081D9
:102B30008F7B8C93A7E2B0E0E7E2F0E080818068D1
:102B40008C9313C0EA81FB818081813071F4A7E20C
:102B5000B0E0E7E2F0E0808180648C93A7E2B0E02F
:102B6000E7E2F0E0808180688C93EA81FB818281DA
:102B7000882341F4A7E2B0E0E7E2F0E080818F7DB6
:102B80008C930CC0EA81FB818281882339F4A7E20F
:102B9000B0E0E7E2F0E0808180628C93EA81FB8123
:102BA00081818630B1F4A6E2B0E0E6E2F0E0808117
:102BB00081608C93A6E2B0E0E6E2F0E08081826082
:102BC0008C93A6E2B0E0E6E2F0E0808184608C9332
:102BD0001AC0EA81FB8181818823A9F4A6E2B0E0D2
:102BE000E6E2F0E080818E7F8C93A6E2B0E0E6E240
:102BF000F0E080818D7F8C93A6E2B0E0E6E2F0E029
:102C000080818B7F8C9389810F900F900F90CF9153
:102C1000DF910895DF93CF93CDB7DEB728970FB636
:102C2000F894DEBF0FBECDBF9E838D831C821B82B6
:102C30001A821982ED81FE818381882319F5A7E22A
:102C4000B0E0E7E2F0E080818E7F8C93A7E2B0E015
:102C5000E7E2F0E080818D7F8C93A7E2B0E0E7E2CD
:102C6000F0E080818B7F8C93A7E2B0E0E7E2F0E0B8
:102C70008081877F8C93A7E2B0E0E7E2F0E080817B
:102C80008F7E8C93A6E2B0E0E6E2F0E0808180687F
:102C90008C93A6E2B0E0E6E2F0E0808180648C9361
:102CA00005C089819A8101969A838983E6E2F0E0E2
:102CB00080818295869586958370882F90E08170BB
:102CC0009070882371F789819A8123EC813592076E
:102CD00040F3E6E2F0E080818295869586958370E8
:102CE000882F90E081709070009741F4E4E2F0E06A
:102CF0008081282F30E038872F8302C018861F82FA
:102D00008F81988528960FB6F894DEBF0FBECDBF91
:102D1000CF91DF910895DF93CF93CDB7DEB728979A
:102D20000FB6F894DEBF0FBECDBF9E838D831C828D
:102D30001B821A821982ED81FE818381882319F515
:102D4000A7E2B0E0E7E2F0E080818E7F8C93A7E21B
:102D5000B0E0E7E2F0E080818D7F8C93A7E2B0E005
:102D6000E7E2F0E080818B7F8C93A7E2B0E0E7E2BE
:102D7000F0E08081877F8C93A7E2B0E0E7E2F0E0AB
:102D800080818F7E8C930E94E816A6E2B0E0E6E296
:102D9000F0E0808180688C93A6E2B0E0E6E2F0E0AB
:102DA000808180648C9328960FB6F894DEBF0FBEA6
:102DB000CDBFCF91DF910895DF93CF93CDB7DEB72D
:102DC000E4E2F0E08081882F90E0CF91DF910895D8
:102DD000DF93CF93CDB7DEB7A6E2B0E0E6E2F0E056
:102DE000808188608C93CF91DF910895DF93CF939A
:102DF000CDB7DEB7A6E2B0E0E6E2F0E08081877F03
:102E00008C93CF91DF910895DF93CF9300D00F92F1
:102E1000CDB7DEB79A83898389819A8190936802BE
:102E2000809367020F900F900F90CF91DF910895DC
:102E3000DF93CF93CDB7DEB762970FB6F894DEBFBE
:102E40000FBECDBF198A188AC8C08091780161E091
:102E50000E9467138091790161E00E94671380915D
:102E60007A0161E00E94671380917B0161E00E941A
:102E700067138889882F90E0FC01E858FE4F808115
:102E800060E00E9467131F86A1C08F85882F90E0A5
:102E9000FC01E458FE4F80810E94E112882309F072
:102EA00092C080E090E0A8E4B2E48B879C87AD8775
:102EB000BE876B857C858D859E8520E030E04AE766
:102EC00055E40E941F02DC01CB018F839887A987FC
:102ED000BA876F81788589859A8520E030E040E85F
:102EE0005FE30E94250488232CF481E090E09E8318
:102EF0008D833FC06F81788589859A8520E03FEF7B
:102F00004FE757E40E94C50318164CF56B857C8586
:102F10008D859E8520E030E040E251E40E941F0252
:102F2000DC01CB01BC01CD010E944900DC01CB01D9
:102F30009E838D830FC080E991E09C838B838B817E
:102F40009C810197F1F79C838B838D819E810197F2
:102F50009E838D838D819E81009769F714C06F8158
:102F6000788589859A850E944900DC01CB019E8382
:102F70008D838D819E819A83898389819A8101972E
:102F8000F1F79A8389838F85882F90E0FC01E458BC
:102F9000FE4F80810E94E1128823A9F38889482F7F
:102FA00050E08F85282F30E0CA01880F991F880FC5
:102FB000991F820F931FFC01E859FE4F8081898B76
:102FC00089898A8B10C08F858F5F8F878F8584302A
:102FD00008F45BCF88898F5F888B8889843008F4F8
:102FE00034CF89898A8B8A8962960FB6F894DEBFBE
:102FF0000FBECDBFCF91DF910895DF93CF93CDB7B3
:10300000DEB7AB970FB6F894DEBF0FBECDBF8BA770
:103010008CE060E00E9467138BA582958F70982FDB
:10302000917084E1692F0E9467138BA58295869524
:103030008770982F917085E1692F0E9467138BA587
:103040008295869586958370982F917086E1692F79
:103050000E9467138BA5982F991F9927991F88E1C4
:10306000692F0E9467138CE061E00E94671380E083
:1030700090E0A0E8BFE38FA398A7A9A7BAA76FA184
:1030800078A589A59AA520E030E04AE755E40E949A
:103090001F02DC01CB018BA39CA3ADA3BEA36BA13C
:1030A0007CA18DA19EA120E030E040E85FE30E947A
:1030B000250488232CF481E090E09AA389A33FC0E3
:1030C0006BA17CA18DA19EA120E03FEF4FE757E4CB
:1030D0000E94C50318164CF56FA178A589A59AA57D
:1030E00020E030E040E251E40E941F02DC01CB010D
:1030F000BC01CD010E944900DC01CB019AA389A348
:103100000FC080E991E098A38F8F8F8D98A10197D0
:10311000F1F798A38F8F89A19AA101979AA389A308
:1031200089A19AA1009769F714C06BA17CA18DA118
:103130009EA10E944900DC01CB019AA389A389A129
:103140009AA19E8F8D8F8D8D9E8D0197F1F79E8F09
:103150008D8F8CE060E00E9467138BA5982F917093
:1031600084E1692F0E9467138BA58695982F917033
:1031700085E1692F0E9467138BA586958695982F08
:10318000917086E1692F0E9467138BA586958695BD
:103190008695982F917088E1692F0E9467138CE0C3
:1031A00061E00E94671380E090E0A0E8BFE3898FB0
:1031B0009A8FAB8FBC8F698D7A8D8B8D9C8D20E023
:1031C00030E04AE755E40E941F02DC01CB018D8B01
:1031D0009E8BAF8BB88F6D897E898F89988D20E00B
:1031E00030E040E85FE30E94250488232CF481E06E
:1031F00090E09C8B8B8B3FC06D897E898F89988DE9
:1032000020E03FEF4FE757E40E94C50318164CF546
:10321000698D7A8D8B8D9C8D20E030E040E251E409
:103220000E941F02DC01CB01BC01CD010E944900BC
:10323000DC01CB019C8B8B8B0FC080E991E09A8BDA
:10324000898B89899A890197F1F79A8B898B8B8968
:103250009C8901979C8B8B8B8B899C89009769F744
:1032600014C06D897E898F89988D0E944900DC0188
:10327000CB019C8B8B8B8B899C89988B8F878F85BF
:1032800098890197F1F7988B8F878CE060E00E9416
:10329000671380E090E0A0EFB1E48B879C87AD8757
:1032A000BE876B857C858D859E8520E030E04AE772
:1032B00055E40E941F02DC01CB018F839887A98708
:1032C000BA876F81788589859A8520E030E040E86B
:1032D0005FE30E94250488232CF481E090E09E8324
:1032E0008D833FC06F81788589859A8520E03FEF87
:1032F0004FE757E40E94C50318164CF56B857C8593
:103300008D859E8520E030E040E251E40E941F025E
:10331000DC01CB01BC01CD010E944900DC01CB01E5
:103320009E838D830FC080E991E09C838B838B818A
:103330009C810197F1F79C838B838D819E810197FE
:103340009E838D838D819E81009769F714C06F8164
:10335000788589859A850E944900DC01CB019E838E
:103360008D838D819E819A83898389819A8101973A
:10337000F1F79A838983AB960FB6F894DEBF0FBE40
:10338000CDBFCF91DF9108950F931F93DF93CF931C
:10339000CDB7DEB7C654D0400FB6F894DEBF0FBE2F
:1033A000CDBFFE01ED5BFF4F80E090E0A6E1B3E40E
:1033B00080839183A283B3838E01015C1F4FFE0142
:1033C000ED5BFF4F608171818281938120E030E06D
:1033D0004AE755E40E941F02DC01CB01F80180831B
:1033E0009183A283B383FE01FF9660817181828104
:1033F000938120E030E040E85FE30E9425048823C9
:103400002CF481E090E09EAF8DAF46C0FE01FF96A8
:10341000608171818281938120E03FEF4FE757E423
:103420000E94C503181664F5FE01ED5BFF4F608135
:1034300071818281938120E030E040E251E40E947A
:103440001F02DC01CB01BC01CD010E944900DC015F
:10345000CB019EAF8DAF0FC080E991E09CAF8BAFE9
:103460008BAD9CAD0197F1F79CAF8BAF8DAD9EAD51
:1034700001979EAF8DAF8DAD9EAD009769F716C0D9
:10348000FE01FF9660817181828193810E944900D3
:10349000DC01CB019EAF8DAF8DAD9EAD9AAF89AFF4
:1034A00089AD9AAD0197F1F79AAF89AF8DE060E0F1
:1034B0000E94671382E00E944E1C80E090E0A0EA28
:1034C000B0E48DAB9EABAFABB8AF6DA97EA98FA9B1
:1034D00098AD20E030E04AE755E40E941F02DC018D
:1034E000CB0189AB9AABABABBCAB69A97AA98BA971
:1034F0009CA920E030E040E85FE30E942504882397
:103500002CF481E090E098AB8FA73FC069A97AA91D
:103510008BA99CA920E03FEF4FE757E40E94C50329
:1035200018164CF56DA97EA98FA998AD20E030E062
:1035300040E251E40E941F02DC01CB01BC01CD013D
:103540000E944900DC01CB0198AB8FA70FC080E936
:1035500091E09EA78DA78DA59EA50197F1F79EA747
:103560008DA78FA598A9019798AB8FA78FA598A92C
:10357000009769F714C069A97AA98BA99CA90E9430
:103580004900DC01CB0198AB8FA78FA598A99CA718
:103590008BA78BA59CA50197F1F79CA78BA788E229
:1035A0000E944E1C80E090E0A0EAB0E48FA398A7B0
:1035B000A9A7BAA76FA178A589A59AA520E030E0B0
:1035C0004AE755E40E941F02DC01CB018BA39CA3B8
:1035D000ADA3BEA36BA17CA18DA19EA120E030E094
:1035E00040E85FE30E94250488232CF481E090E00A
:1035F0009AA389A33FC06BA17CA18DA19EA120E0CD
:103600003FEF4FE757E40E94C50318164CF56FA132
:1036100078A589A59AA520E030E040E251E40E9417
:103620001F02DC01CB01BC01CD010E944900DC017D
:10363000CB019AA389A30FC080E991E098A38F8F53
:103640008F8D98A10197F1F798A38F8F89A19AA1E7
:1036500001979AA389A389A19AA1009769F714C039
:103660006BA17CA18DA19EA10E944900DC01CB0130
:103670009AA389A389A19AA19E8F8D8F8D8D9E8DEE
:103680000197F1F79E8F8D8F8CE00E944E1C80E099
:1036900090E0A0EAB0E4898F9A8FAB8FBC8F698DE0
:1036A0007A8D8B8D9C8D20E030E04AE755E40E94B6
:1036B0001F02DC01CB018D8B9E8BAF8BB88F6D8988
:1036C0007E898F89988D20E030E040E85FE30E949A
:1036D000250488232CF481E090E09C8B8B8B3FC0E9
:1036E0006D897E898F89988D20E03FEF4FE757E401
:1036F0000E94C50318164CF5698D7A8D8B8D9C8DB3
:1037000020E030E040E251E40E941F02DC01CB01E6
:10371000BC01CD010E944900DC01CB019C8B8B8B4D
:103720000FC080E991E09A8B898B89899A890197EA
:10373000F1F79A8B898B8B899C8901979C8B8B8B5A
:103740008B899C89009769F714C06D897E898F8960
:10375000988D0E944900DC01CB019C8B8B8B8B895F
:103760009C89988B8F878F8598890197F1F7988B23
:103770008F8781E00E944E1C80E090E0A0EAB0E4D8
:103780008B879C87AD87BE876B857C858D859E8565
:1037900020E030E04AE755E40E941F02DC01CB0143
:1037A0008F839887A987BA876F81788589859A855D
:1037B00020E030E040E85FE30E94250488232CF4F9
:1037C00081E090E09E838D833FC06F8178858985FD
:1037D0009A8520E03FEF4FE757E40E94C503181693
:1037E0004CF56B857C858D859E8520E030E040E240
:1037F00051E40E941F02DC01CB01BC01CD010E94FB
:103800004900DC01CB019E838D830FC080E991E0EC
:103810009C838B838B819C810197F1F79C838B83A5
:103820008D819E8101979E838D838D819E810097DE
:1038300069F714C06F81788589859A850E9449004F
:10384000DC01CB019E838D838D819E819A83898348
:1038500089819A810197F1F79A83898386E00E9492
:103860004E1CCA5BDF4F0FB6F894DEBF0FBECDBF54
:10387000CF91DF911F910F910895DF93CF930F9216
:10388000CDB7DEB789838DE061E00E94671389813F
:103890000E94FD170F90CF91DF910895DF93CF9392
:1038A0000F92CDB7DEB789838DE060E00E94671389
:1038B00089810E94FD170F90CF91DF910895DF93CA
:1038C000CF9300D00F92CDB7DEB79B838A83198246
:1038D0000EC08981282F30E08A819B81FC01E20F94
:1038E000F31F80810E943D1C89818F5F89838981BC
:1038F000282F30E08A819B81FC01E20FF31F808139
:10390000882339F70F900F900F90CF91DF91089592
:103910000F931F93DF93CF93CDB7DEB7A5970FB665
:10392000F894DEBF0FBECDBF6AA37BA38CA39DA37B
:1039300080E2FE013296DF01982F1D929A95E9F7F9
:1039400019828AA19BA1ACA1BDA1BB230CF04AC0E6
:103950008AA19BA1ACA1BDA1B095A09590958195A0
:103960009F4FAF4FBF4F8AA39BA3ACA3BDA38DE2D4
:103970000E943D1C37C08981082F10E08AA19BA1BD
:10398000ACA1BDA12AE030E040E050E0BC01CD0197
:103990000E94211EDC01CB01AC01BD019801220F68
:1039A000331F220F331FCE010196820F931FFC019C
:1039B000319640835183628373838AA19BA1ACA11A
:1039C000BDA12AE030E040E050E0BC01CD010E9402
:1039D000211EDA01C9018AA39BA3ACA3BDA38981DF
:1039E0008F5F89838AA19BA1ACA1BDA10097A1058E
:1039F000B10509F689818150898318C08981882F92
:103A000090E09C01220F331F220F331FCE0101963D
:103A1000820F931FFC01319680819181A281B38135
:103A2000805D0E943D1C898181508983898180331A
:103A300028F3A5960FB6F894DEBF0FBECDBFCF9189
:103A4000DF911F910F910895DF93CF9300D00F92D4
:103A5000CDB7DEB78A836B838A81813019F48B817D
:103A6000898314C08A81823021F48B81805C8983B0
:103A70000DC08A81833021F48B818C5E898306C0DE
:103A80008A81843019F48B818C5A8983898180588A
:103A90000E944E1C0F900F900F90CF91DF910895D0
:103AA000DF93CF9300D000D00F92CDB7DEB79C83C9
:103AB0008B836D831A8219828D81882F90E0880F05
:103AC000991F880F991F880F991F89838981805CAE
:103AD0000E944E1C1A820EC08A81282F30E08B81F2
:103AE0009C81FC01E20FF31F80810E943D1C8A81B2
:103AF0008F5F8A838A81883078F381E060E00E945A
:103B0000241D8D810E943D1C0F900F900F900F90EF
:103B10000F90CF91DF910895DF93CF930F92CDB7A0
:103B2000DEB7898389810E943D1C0F90CF91DF9180
:103B30000895DF93CF93CDB7DEB781E00E944E1C8E
:103B4000CF91DF910895DF93CF93CDB7DEB78FECA0
:103B500091E00E942A0E0E94C4198EEA91E00E9410
:103B6000170788EB9DE10E94EB080E949510FFCF9C
:103B7000DF93CF930F92CDB7DEB719820E94E10891
:103B800089838981882339F08981813421F0898171
:103B90000E943D1C05C08981813411F40E94991D49
:103BA0000F90CF91DF910895629FD001739FF00134
:103BB000829FE00DF11D649FE00DF11D929FF00DBD
:103BC000839FF00D749FF00D659FF00D9927729FF4
:103BD000B00DE11DF91F639FB00DE11DF91FBD017F
:103BE000CF0111240895991B79E004C0991F9617FD
:103BF00008F0961B881F7A95C9F780950895A1E271
:103C00001A2EAA1BBB1BFD010DC0AA1FBB1FEE1F56
:103C1000FF1FA217B307E407F50720F0A21BB30BA1
:103C2000E40BF50B661F771F881F991F1A9469F71D
:103C300060957095809590959B01AC01BD01CF0179
:103C4000089597FB092E05260ED057FD04D0D7DF27
:103C50000AD0001C38F450954095309521953F4F7F
:103C60004F4F5F4F0895F6F7909580957095619549
:103C70007F4F8F4F9F4F08952F923F924F925F92A9
:103C80006F927F928F929F92AF92BF92CF92DF926C
:103C9000EF92FF920F931F93CF93DF93CDB7DEB7D1
:103CA000CA1BDB0B0FB6F894DEBF0FBECDBF099465
:103CB0002A88398848885F846E847D848C849B84BC
:103CC000AA84B984C884DF80EE80FD800C811B81CA
:103CD000AA81B981CE0FD11D0FB6F894DEBF0FBEF9
:0A3CE000CDBFED010895F894FFCF69
:103CEA0000000000000000000001020203030303B9
:103CFA000404040404040404050505050505050572
:103D0A000505050505050505060606060606060651
:103D1A000606060606060606060606060606060639
:103D2A000606060606060606070707070707070721
:103D3A000707070707070707070707070707070709
:103D4A0007070707070707070707070707070707F9
:103D5A0007070707070707070707070707070707E9
:103D6A0007070707070707070808080808080808D1
:103D7A0008080808080808080808080808080808B9
:103D8A0008080808080808080808080808080808A9
:103D9A000808080808080808080808080808080899
:103DAA000808080808080808080808080808080889
:103DBA000808080808080808080808080808080879
:103DCA000808080808080808080808080808080869
:103DDA000808080808080808080808080808080859
:103DEA0008080808080808083738392F3435362AE9
:103DFA003132332D41303D2B232221202F2E2D2BE2
:103E0A00151515111111111F0100010D0F041C00C8
:103E1A000000000101010F00001B15110A04000037
:103E2A0000000A00110E00000001010302026700EF
:103E3A00030000010000000800000040000000002C
:103E4A000100000004000000060000000601000A4C
:103E5A000000010B0001010C0101010D0101010E1D
:103E6A000001010F000101100001011100010114FC
:103E7A0001010115010101160101011700010118D3
:103E8A00010101190001011A0001011B0001011EB3
:103E9A000001011F0001012001010121010101228C
:103EAA00010101230101012400010125000101286A
:103EBA00000001290001012A0000002B0100002C4A
:103ECA000001012D0100002E0100002F0100000059
:00000001FF
