:100000000C942A000C9447000C9447000C94470071
:100010000C9447000C9447000C9447000C94470044
:100020000C9447000C9447000C9447000C94470034
:100030000C9447000C9431070C9447000C94470033
:100040000C9447000C9447000C9447000C94470014
:100050000C94470011241FBECFE5D8E0DEBFCDBF12
:1000600012E0A0E6B0E0E2EAF6E302C005900D92ED
:10007000AA36B107D9F712E0AAE6B2E001C01D9294
:10008000AC38B107E1F70E94C41A0C944F1B0C94D2
:100090000000EF92FF920F931F937B018C0120E0F1
:1000A00030E040E05FE40E94490388238CF0C801FF
:1000B000B70120E030E040E05FE40E94C1010E940F
:1000C000A9039B01AC01205030404040504806C07D
:1000D000C801B7010E94A9039B01AC01B901CA0183
:1000E0001F910F91FF90EF900895A0E0B0E0EBE733
:1000F000F0E00C94181BDC012B01FA019C9192306A
:1001000008F439C1EB018881823008F433C194309E
:1001100069F4843009F02FC111969C91119789815F
:10012000981709F428C1A6E2B1E025C1843009F48A
:1001300021C18230A9F4923009F01DC19A01AD01AC
:1001400088E0EA010990AE01E90109929E0181501F
:10015000C1F7E201898111969C918923818308C1AD
:10016000923009F407C112962D903C901397EB0141
:100170008A819B811496AD90BD90CD90DC901797AD
:10018000EC80FD800E811F819101281B390BB90184
:1001900037FF04C066277727621B730B6032710537
:1001A0000CF061C0121613066CF537014801062EDB
:1001B00004C096948794779467940A94D2F721E0C8
:1001C00030E040E050E004C0220F331F441F551FB1
:1001D0006A95D2F721503040404050402E213F21B7
:1001E00040235123211531054105510521F021E01E
:1001F00030E040E050E079018A01E628F72808293C
:1002000019293CC0232BD1F1260E371E350146019A
:10021000062E04C096948794779467940A94D2F734
:1002200021E030E040E050E004C0220F331F441FC3
:10023000551F6A95D2F721503040404050402A2146
:100240003B214C215D21211531054105510521F04E
:1002500021E030E040E050E059016A01A628B728CB
:10026000C828D9280BC0821593052CF01C01AA249C
:10027000BB24650103C0EE24FF24870111969C91E5
:10028000D20111968C91981709F445C0992339F041
:10029000A80197012A193B094C095D0906C0A6016E
:1002A00095012E193F09400B510B57FD08C01182D3
:1002B0003382228224833583468357831DC081E0A5
:1002C00081833382228288279927DC01821B930B4A
:1002D000A40BB50B84839583A683B7830DC0220F2F
:1002E000331F441F551F24833583468357838281E0
:1002F000938101979383828324813581468157813D
:10030000DA01C9010197A109B1098F5F9F4FAF4F72
:10031000BF4328F30BC0918333822282EA0CFB1C7B
:100320000C1D1D1DE482F5820683178383E0808304
:10033000248135814681578157FF1AC0C901AA27F8
:1003400097FDA095BA2F81709070A070B0705695EF
:10035000479537952795822B932BA42BB52B848318
:100360009583A683B7838281938101969383828349
:10037000DF0101C0D201CD01CDB7DEB7E2E10C94BF
:10038000341BA0E2B0E0E7ECF1E00C94241B69839D
:100390007A838B839C832D833E834F835887E9E048
:1003A000EE2EF12CEC0EFD1ECE010196B7010E943F
:1003B000D2048E010F5E1F4FCE010596B8010E9438
:1003C000D2048A8991E089278A8BC701B801AE01DE
:1003D000475E5F4F0E9475000E94FD03A096E6E015
:1003E0000C94401BA0E2B0E0E8EFF1E00C94241B79
:1003F00069837A838B839C832D833E834F835887C5
:10040000F9E0EF2EF12CEC0EFD1ECE010196B701A6
:100410000E94D2048E010F5E1F4FCE010596B801D7
:100420000E94D204C701B801AE01475E5F4F0E942F
:1004300075000E94FD03A096E6E00C94401BA0E22C
:10044000B0E0E5E2F2E00C94181B69837A838B83B9
:100450009C832D833E834F835887CE010196BE0136
:10046000675F7F4F0E94D204CE010596BE016F5E8A
:100470007F4F0E94D2049985923088F0898982301A
:10048000C8F0943019F4823051F404C0843029F457
:10049000923081F486E291E0C6C0923049F420E0C7
:1004A0009A858A89981321E02A87CE010996BBC0D4
:1004B000823049F420E09A858A89981321E02A8BBA
:1004C000CE014196B0C02D843E844F8458886D88FB
:1004D0007E888F88988CEE24FF248701AA24BB2471
:1004E000650140E050E060E070E0E0E0F0E0C10174
:1004F00081709070892BE9F0E60CF71C081D191D1E
:100500009A01AB012A0D3B1D4C1D5D1D80E090E062
:10051000A0E0B0E0E614F7040805190520F481E036
:1005200090E0A0E0B0E0BA01A901480F591F6A1F8E
:100530007B1FAA0CBB1CCC1CDD1C97FE08C081E0F5
:1005400090E0A0E0B0E0A82AB92ACA2ADB2A3196B6
:10055000E032F10549F0660C771C881C991C569412
:10056000479437942794C3CFFA85EA892B893C892D
:100570008B859C85280F391F2E5F3F4F17C0CA01FE
:1005800081709070892B61F016950795F794E79428
:1005900080E090E0A0E0B0E8E82AF92A0A2B1B2BC3
:1005A00076956795579547952F5F3F4F77FDE7CF36
:1005B0000CC0440F551F661F771F17FD4160EE0CDE
:1005C000FF1C001F111F21503040403090E05907A0
:1005D00090E0690790E4790760F32B8F3C8FDB0193
:1005E000CA018F779070A070B07080349105A1051A
:1005F000B10561F447FD0AC0E114F10401051105DC
:1006000029F0405C5F4F6F4F7F4F40781A8EFE1786
:1006100011F081E08A8F4D8F5E8F6F8F78A383E01A
:10062000898FCE0149960E94FD03A096E2E10C94C9
:10063000341BA8E1B0E0EFE1F3E00C94241B6983E4
:100640007A838B839C832D833E834F83588789E0F5
:10065000E82EF12CEC0EFD1ECE010196B7010E9492
:10066000D2048E010F5E1F4FCE010596B8010E9485
:10067000D2048985823040F08989823028F0C70110
:10068000B8010E944A0501C08FEF6896E6E00C941D
:10069000401BA8E1B0E0EFE4F3E00C94241B698375
:1006A0007A838B839C832D833E834F83588789E095
:1006B000E82EF12CEC0EFD1ECE010196B7010E9432
:1006C000D2048E010F5E1F4FCE010596B8010E9425
:1006D000D2048985823040F08989823028F0C701B0
:1006E000B8010E944A0501C08FEF6896E6E00C94BD
:1006F000401BA8E1B0E0EFE7F3E00C94241B698312
:100700007A838B839C832D833E834F83588789E034
:10071000E82EF12CEC0EFD1ECE010196B7010E94D1
:10072000D2048E010F5E1F4FCE010596B8010E94C4
:10073000D2048985823040F08989823028F0C7014F
:10074000B8010E944A0501C081E06896E6E00C9479
:10075000401BACE0B0E0EFEAF3E00C94281B6983A7
:100760007A838B839C83CE010196BE016B5F7F4FA2
:100770000E94D2048D81823061F1823050F1843048
:1007800021F48E81882351F12EC02F81388537FDC9
:1007900020C06E812F3131051CF06623F9F023C093
:1007A0008EE190E0821B930B29853A854B855C8511
:1007B00004C056954795379527958A95D2F76623B5
:1007C000B1F050954095309521953F4F4F4F5F4F79
:1007D0000EC020E030E040E050E009C02FEF3FEFD6
:1007E0004FEF5FE704C020E030E040E050E8B9019F
:1007F000CA012C96E2E00C94441BDF92EF92FF9228
:100800000F931F93FC01E480F58006811781D1804E
:100810008081823048F480E090E0A0E1B0E0E82AF6
:10082000F92A0A2B1B2BA5C0843009F49FC0823003
:1008300021F4EE24FF24870105C0E114F104010531
:10084000110519F4E0E0F0E096C0628173819FEF3A
:10085000623879070CF05BC022E83FEF261B370BAC
:100860002A3131052CF020E030E040E050E02AC091
:10087000B801A701022E04C0769567955795479554
:100880000A94D2F781E090E0A0E0B0E004C0880FC5
:10089000991FAA1FBB1F2A95D2F70197A109B10979
:1008A0008E219F21A023B1230097A105B10521F03E
:1008B00081E090E0A0E0B0E09A01AB01282B392B59
:1008C0004A2B5B2BDA01C9018F779070A070B07052
:1008D00080349105A105B10539F427FF09C0205CDA
:1008E0003F4F4F4F5F4F04C0215C3F4F4F4F5F4F13
:1008F000E0E0F0E02030A0E03A07A0E04A07A0E402
:100900005A0710F0E1E0F0E079018A0127C0603871
:10091000710564F5FB01E158FF4FD801C7018F77DE
:100920009070A070B07080349105A105B10539F4C4
:10093000E7FE0DC080E490E0A0E0B0E004C08FE3EB
:1009400090E0A0E0B0E0E80EF91E0A1F1B1F17FFA1
:1009500005C016950795F794E794319687E01695AC
:100960000795F794E7948A95D1F705C0EE24FF2404
:100970008701EFEFF0E06E2F679566276795902F60
:100980009F77D794DD24D7948E2F8695492F462BB9
:10099000582F5D29B701CA011F910F91FF90EF9069
:1009A000DF900895FC01DB01408151812281622F9B
:1009B0006F7770E0221F2227221F9381892F880FD3
:1009C000822B282F30E0991F9927991F11969C930D
:1009D000119721153105A9F54115510561057105DD
:1009E00011F482E037C082E89FEF13969C938E93B8
:1009F00012979A01AB0167E0220F331F441F551F66
:100A00006A95D1F783E08C930DC0220F331F441FEA
:100A1000551F12968D919C911397019713969C9355
:100A20008E931297203080E0380780E0480780E4FA
:100A3000580758F314962D933D934D935C93179755
:100A400008952F3F310579F4411551056105710570
:100A500019F484E08C93089564FF03C081E08C93C3
:100A600012C01C9210C02F57304013963C932E9307
:100A7000129783E08C9387E0440F551F661F771F02
:100A80008A95D1F7706414964D935D936D937C9322
:100A9000179708951F93DC01FB019C91923008F495
:100AA00047C08081823008F443C0943051F41196DD
:100AB0001C91843099F58181682F70E0611B710968
:100AC0003FC0843021F0923031F48230B9F181811D
:100AD000882389F12DC011961C9111978230F1F075
:100AE00081811817D9F412962D913C911397828128
:100AF00093818217930794F028173907BCF0149656
:100B00008D919D910D90BC91A02D248135814681C0
:100B10005781281739074A075B0718F4112341F05A
:100B20000AC082179307A407B50740F4112319F0F0
:100B300061E070E005C06FEF7FEF02C060E070E041
:100B4000CB011F910895DF93CF93CDB7DEB72B97DD
:100B50000FB6F894DEBF0FBECDBF9B838A83198288
:100B600089818F7B898389818E7F8983EA81FB815B
:100B7000208131813B872A878A859B85873691052D
:100B8000A9F02A853B852836310530F48A859B8576
:100B90008031910581F013C02A853B852F3C3105BA
:100BA00071F4E9E2F0E08FEC808309C0E9E2F0E063
:100BB00088E0808304C0E9E2F0E080E18083EA819C
:100BC000FB818281282F30E03987288788859985A5
:100BD00082309105B1F1288539852330310554F4EF
:100BE00088859985009789F02885398521303105D8
:100BF000D1F050C0888599858330910581F1288591
:100C0000398524303105C9F145C089818D7F8983BB
:100C100089818B7F8983AAE2B0E0EAE2F0E08081FB
:100C20008B7F8C9337C089818260898389818B7F98
:100C30008983AAE2B0E0EAE2F0E080818B7F8C93C6
:100C400029C089818D7F8983898184608983AAE213
:100C5000B0E0EAE2F0E080818B7F8C931BC0898159
:100C600082608983898184608983AAE2B0E0EAE2B4
:100C7000F0E080818B7F8C930DC0898182608983B5
:100C8000898184608983AAE2B0E0EAE2F0E08081B1
:100C900084608C93EA81FB818381282F30E03F833D
:100CA0002E838E819F818130910569F02E813F8155
:100CB0002230310579F08E819F81009789F48981F6
:100CC0008F7C89830DC089818F7C89838981806233
:100CD000898306C089818F7C898389818063898328
:100CE000EA81FB818481282F30E03D832C838C8135
:100CF0009D81009731F02C813D812130310529F013
:100D00000AC08981877F898306C08981877F89831B
:100D100089818860898389818F77898389818068C7
:100D20008983E0E4F0E089818083AAE2B0E0EAE22E
:100D3000F0E0808188608C93AAE2B0E0EAE2F0E023
:100D4000808180688C93AAE2B0E0EAE2F0E08081E2
:100D500080618C932B960FB6F894DEBF0FBECDBF8B
:100D6000CF91DF910895DF93CF930F92CDB7DEB788
:100D70008983EBE2F0E08081829586958770882FE9
:100D800090E0817090700097A1F3ECE2F0E089812F
:100D900080830F90CF91DF910895DF93CF9300D0A0
:100DA0000F92CDB7DEB79B838A83198219820EC05A
:100DB0008981282F30E08A819B81FC01E20FF31F9B
:100DC00080810E94B30689818F5F89838981282F62
:100DD00030E08A819B81FC01E20FF31F8081882330
:100DE00039F70F900F900F90CF91DF910895DF9317
:100DF000CF930F92CDB7DEB71982EBE2F0E080819E
:100E0000882324F089818F5F8983F7CFECE2F0E0BB
:100E100080810F90CF91DF910895DF93CF93CDB76D
:100E2000DEB7ECE2F0E08081CF91DF910895DF93AF
:100E3000CF9300D00F92CDB7DEB79B838A83198200
:100E40008A819B81009731F08A819B8190936B020C
:100E500080936A0289810F900F900F90CF91DF915C
:100E600008951F920F920FB60F9211242F933F9364
:100E70004F935F936F937F938F939F93AF93BF93A2
:100E8000EF93FF93DF93CF93CDB7DEB780916A02E4
:100E900090916B02009729F0E0916A02F0916B0249
:100EA0000995CF91DF91FF91EF91BF91AF919F9104
:100EB0008F917F916F915F914F913F912F910F9003
:100EC0000FBE0F901F901895DF93CF93CDB7DEB76D
:100ED0002B970FB6F894DEBF0FBECDBF9D838C83DA
:100EE0008C819D81009709F451C21B824BC28B817A
:100EF000882F90E09C01220F331F220F331F8C811B
:100F00009D81FC01E20FF31F80819AE0692F0E940E
:100F1000CF1A892F8A838B81882F90E09C01220F22
:100F2000331F220F331F8C819D81FC01E20FF31FC1
:100F300080819AE0692F0E94CF1A89838B81882F44
:100F400090E09C01220F331F220F331F8C819D8163
:100F5000FC01E20FF31F8281882389F08B81882FA7
:100F600090E09C01220F331F220F331F8C819D8143
:100F7000FC01E20FF31F8281813009F000C28981F8
:100F8000282F30E03B872A876A857B856230710590
:100F9000D1F18A859B858330910534F42A853B8580
:100FA0002130310571F094C06A857B85633071050D
:100FB00009F44BC08A859B858430910509F467C08C
:100FC00087C0AAE3B0E0EAE3F0E040818B81882F9C
:100FD00090E09C01220F331F220F331F8C819D81D3
:100FE000FC01E20FF31F8281282F30E08A81882FD5
:100FF00090E0B90102C0660F771F8A95E2F7CB0136
:10100000842B8C9365C0A7E3B0E0E7E3F0E0408178
:101010008B81882F90E09C01220F331F220F331FFA
:101020008C819D81FC01E20FF31F8281282F30E02B
:101030008A81882F90E0B90102C0660F771F8A95D8
:10104000E2F7CB01842B8C9343C0A4E3B0E0E4E34C
:10105000F0E040818B81882F90E09C01220F331FAC
:10106000220F331F8C819D81FC01E20FF31F8281CF
:10107000282F30E08A81882F90E0B90102C0660FE6
:10108000771F8A95E2F7CB01842B8C9321C0A1E3D3
:10109000B0E0E1E3F0E040818B81882F90E09C019B
:1010A000220F331F220F331F8C819D81FC01E20F21
:1010B000F31F8281282F30E08A81882F90E0B901C8
:1010C00002C0660F771F8A95E2F7CB01842B8C93C1
:1010D0008B81882F90E09C01220F331F220F331F3A
:1010E0008C819D81FC01E20FF31F8181882389F0AF
:1010F0008B81882F90E09C01220F331F220F331F1A
:101100008C819D81FC01E20FF31F8181813009F008
:1011100036C18981282F30E039872887688579850D
:1011200062307105D1F1888599858330910534F459
:10113000288539852130310571F094C0688579851D
:101140006330710509F44BC0888599858430910519
:1011500009F467C087C0ABE3B0E0EBE3F0E04081A7
:101160008B81882F90E09C01220F331F220F331FA9
:101170008C819D81FC01E20FF31F8181282F30E0DB
:101180008A81882F90E0B90102C0660F771F8A9587
:10119000E2F7CB01842B8C9365C0A8E3B0E0E8E3D1
:1011A000F0E040818B81882F90E09C01220F331F5B
:1011B000220F331F8C819D81FC01E20FF31F81817F
:1011C000282F30E08A81882F90E0B90102C0660F95
:1011D000771F8A95E2F7CB01842B8C9343C0A5E35C
:1011E000B0E0E5E3F0E040818B81882F90E09C0146
:1011F000220F331F220F331F8C819D81FC01E20FD0
:10120000F31F8181282F30E08A81882F90E0B90177
:1012100002C0660F771F8A95E2F7CB01842B8C936F
:1012200021C0A2E3B0E0E2E3F0E040818B81882FAF
:1012300090E09C01220F331F220F331F8C819D8170
:10124000FC01E20FF31F8181282F30E08A81882F73
:1012500090E0B90102C0660F771F8A95E2F7CB01D3
:10126000842B8C938B81882F90E09C01220F331F5D
:10127000220F331F8C819D81FC01E20FF31F8281BD
:10128000813009F07CC08B81882F90E09C01220F77
:10129000331F220F331F8C819D81FC01E20FF31F4E
:1012A0008381882309F06BC08981282F30E03F8338
:1012B0002E836E817F816230710549F18E819F811D
:1012C0008330910534F42E813F812130310561F066
:1012D00056C06E817F816330710561F18E819F817F
:1012E00084309105D1F14BC0ABE3B0E0EBE3F0E02B
:1012F00040818A81282F30E081E090E0022E02C0F8
:10130000880F991F0A94E2F7842B8C9338C0A8E3C6
:10131000B0E0E8E3F0E040818A81282F30E081E00E
:1013200090E0022E02C0880F991F0A94E2F7842BE6
:101330008C9325C0A5E3B0E0E5E3F0E040818A812D
:10134000282F30E081E090E0022E02C0880F991F24
:101350000A94E2F7842B8C9312C0A2E3B0E0E2E39C
:10136000F0E040818A81282F30E081E090E0022E79
:1013700002C0880F991F0A94E2F7842B8C938B810B
:101380008F5F8B838B81803208F4B1CD2B960FB6A3
:10139000F894DEBF0FBECDBFCF91DF910895DF93EC
:1013A000CF93CDB7DEB7AFE5B0E0EFE5F0E08081F9
:1013B00080688C93CF91DF910895DF93CF93CDB761
:1013C000DEB7AFE5B0E0EFE5F0E080818F778C939A
:1013D000CF91DF910895DF93CF9300D000D000D05C
:1013E000CDB7DEB78C838C819AE0692F0E94CF1A2B
:1013F000892F8B838C819AE0692F0E94CF1A8A8370
:101400008A81282F30E03E832D834D815E814230DA
:10141000510541F18D819E818330910534F42D81F8
:101420003E812130310561F052C04D815E814330F3
:10143000510551F18D819E8184309105B9F147C0EC
:10144000E9E3F0E08081282F30E08B81882F90E065
:10145000A90102C0559547958A95E2F7CA018170A6
:10146000898335C0E6E3F0E08081282F30E08B816E
:10147000882F90E0A90102C0559547958A95E2F71B
:10148000CA018170898323C0E3E3F0E08081282FC3
:1014900030E08B81882F90E0A90102C055954795D7
:1014A0008A95E2F7CA018170898311C0E0E3F0E018
:1014B0008081282F30E08B81882F90E0A90102C025
:1014C000559547958A95E2F7CA018170898389818C
:1014D00026960FB6F894DEBF0FBECDBFCF91DF9139
:1014E0000895DF93CF93CDB7DEB728970FB6F89462
:1014F000DEBF0FBECDBF8B836C838B819AE0692FDB
:101500000E94CF1A892F8A838B819AE0692F0E94CB
:10151000CF1A89838C81813009F070C08981282F8E
:1015200030E038872F838F8198858230910551F183
:101530002F8138852330310534F48F8198858130AF
:10154000910561F0D3C02F8138852330310571F1C9
:101550008F81988584309105E9F1C8C0ABE3B0E094
:10156000EBE3F0E08081482F8A81282F30E081E092
:1015700090E0022E02C0880F991F0A94E2F7842B94
:101580008C93B4C0A8E3B0E0E8E3F0E08081482F9A
:101590008A81282F30E081E090E0022E02C0880F7F
:1015A000991F0A94E2F7842B8C93A0C0A5E3B0E0C6
:1015B000E5E3F0E08081482F8A81282F30E081E048
:1015C00090E0022E02C0880F991F0A94E2F7842B44
:1015D0008C938CC0A2E3B0E0E2E3F0E08081482F7E
:1015E0008A81282F30E081E090E0022E02C0880F2F
:1015F000991F0A94E2F7842B8C9378C08C818823FE
:1016000009F074C08981282F30E03E832D838D81BD
:101610009E818230910561F12D813E81233031051B
:1016200034F48D819E818130910569F05FC02D81F8
:101630003E812330310589F18D819E818430910571
:1016400009F440C053C0ABE3B0E0EBE3F0E08081CD
:10165000482F8A81282F30E081E090E0022E02C0DE
:10166000880F991F0A94E2F7809584238C933EC0DB
:10167000A8E3B0E0E8E3F0E08081482F8A81282FDA
:1016800030E081E090E0022E02C0880F991F0A949A
:10169000E2F7809584238C9329C0A5E3B0E0E5E3CD
:1016A000F0E08081482F8A81282F30E081E090E0AF
:1016B000022E02C0880F991F0A94E2F780958423B6
:1016C0008C9314C0A2E3B0E0E2E3F0E08081482F05
:1016D0008A81282F30E081E090E0022E02C0880F3E
:1016E000991F0A94E2F7809584238C9328960FB66D
:1016F000F894DEBF0FBECDBFCF91DF910895DF9389
:10170000CF9300D000D0CDB7DEB78A838A81282F4F
:1017100030E03C832B838B819C8182309105D9F012
:101720002B813C812330310534F48B819C818130C5
:10173000910561F01EC02B813C812330310581F081
:101740008B819C818430910581F013C0EBE3F0E044
:10175000808189830EC0E8E3F0E08081898309C03D
:10176000E5E3F0E08081898304C0E2E3F0E080817A
:10177000898389810F900F900F900F90CF91DF9107
:101780000895DF93CF9300D000D0CDB7DEB7898323
:101790006A838981282F30E03C832B838B819C8155
:1017A00082309105D9F02B813C812330310534F40E
:1017B0008B819C818130910561F01EC02B813C8121
:1017C0002330310581F08B819C818430910581F03B
:1017D00013C0EBE3F0E08A8180830EC0E8E3F0E021
:1017E0008A81808309C0E5E3F0E08A81808304C0B8
:1017F000E2E3F0E08A8180830F900F900F900F90CA
:10180000CF91DF910895DF93CF9300D000D00F9256
:10181000CDB7DEB78B838B819AE0692F0E94CF1AF8
:10182000892F8A838B819AE0692F0E94CF1A89833E
:101830008981282F30E03D832C838C819D818230EB
:10184000910551F12C813D812330310534F48C8197
:101850009D818130910561F05AC02C813D812330FA
:10186000310571F18C819D8184309105E9F14FC082
:10187000ABE3B0E0EBE3F0E08081482F8A81282FD2
:1018800030E081E090E0022E02C0880F991F0A9498
:10189000E2F784278C933BC0A8E3B0E0E8E3F0E0F4
:1018A0008081482F8A81282F30E081E090E0022E4D
:1018B00002C0880F991F0A94E2F784278C9327C0EF
:1018C000A5E3B0E0E5E3F0E08081482F8A81282F8E
:1018D00030E081E090E0022E02C0880F991F0A9448
:1018E000E2F784278C9313C0A2E3B0E0E2E3F0E0D8
:1018F0008081482F8A81282F30E081E090E0022EFD
:1019000002C0880F991F0A94E2F784278C930F90E6
:101910000F900F900F900F90CF91DF910895DF936C
:10192000CF93CDB7DEB78AEE91E00E9464070E94A4
:10193000E51689EA91E00E94A30584E095E10E9402
:1019400017070E94CF09CF91DF910895DF93CF93BE
:10195000CDB7DEB7A0970FB6F894DEBF0FBECDBFF0
:101960009F8F8E8F68A31D8E8D8D282F30E08E8DDA
:101970009F8DFC01E20FF31F80810E94B3068D8DC5
:101980008F5F8D8F80E090E0AAEFB3E4898F9A8F0C
:10199000AB8FBC8F698D7A8D8B8D9C8D20E030E074
:1019A0004AE755E40E941F02DC01CB018D8B9E8B20
:1019B000AF8BB88F6D897E898F89988D20E030E05C
:1019C00040E85FE30E94790388232CF481E090E0F3
:1019D0009C8B8B8B3FC06D897E898F89988D20E091
:1019E0003FEF4FE757E40E94190318164CF5698D35
:1019F0007A8D8B8D9C8D20E030E040E251E40E9496
:101A00001F02DC01CB01BC01CD010E944900DC01B9
:101A1000CB019C8B8B8B0FC080E991E09A8B898BDB
:101A200089899A890197F1F79A8B898B8B899C898F
:101A300001979C8B8B8B8B899C89009769F714C0CD
:101A40006D897E898F89988D0E944900DC01CB01C8
:101A50009C8B8B8B8B899C89988B8F878F859889A2
:101A60000197F1F7988B8F879D8D88A1981708F4BF
:101A70007BCF80E090E0AAE7B4E48B879C87AD87BA
:101A8000BE876B857C858D859E8520E030E04AE7AA
:101A900055E40E941F02DC01CB018F839887A98740
:101AA000BA876F81788589859A8520E030E040E8A3
:101AB0005FE30E94790388232CF481E090E09E8309
:101AC0008D833FC06F81788589859A8520E03FEFBF
:101AD0004FE757E40E94190318164CF56B857C8577
:101AE0008D859E8520E030E040E251E40E941F0297
:101AF000DC01CB01BC01CD010E944900DC01CB011E
:101B00009E838D830FC080E991E09C838B838B81C2
:101B10009C810197F1F79C838B838D819E81019736
:101B20009E838D838D819E81009769F714C06F819C
:101B3000788589859A850E944900DC01CB019E83C6
:101B40008D838D819E819A83898389819A81019772
:101B5000F1F79A838983A0960FB6F894DEBF0FBE83
:101B6000CDBFCF91DF910895DF93CF9300D000D008
:101B700000D0CDB7DEB78E830E941B0E8C838C8184
:101B8000882329F581E00E94DA0E8B838B818823DC
:101B9000F1F40E941B0E8C838C818823C1F482E0B7
:101BA0000E94DA0E8B838B81882389F40E94FF0FB9
:101BB0008A838A81882359F48E810E94A5108983A3
:101BC0008981882321F48EE40E945E191D828D8113
:101BD00026960FB6F894DEBF0FBECDBFCF91DF9132
:101BE0000895DF93CF9300D000D00F92CDB7DEB72A
:101BF0000E941B0E8B838B81882391F481E00E94CD
:101C0000DA0E8A838A81882359F4CE0104960E94D1
:101C10005E1189838981882319F48C818D8302C0A8
:101C20008C818D838D810F900F900F900F900F906E
:101C3000CF91DF910895DF93CF93CDB7DEB7609753
:101C40000FB6F894DEBF0FBECDBFA3C00E94BA1A74
:101C500080E690E00E94801980E090E0AAEFB4E472
:101C60008B879C87AD87BE876B857C858D859E85A0
:101C700020E030E04AE755E40E941F02DC01CB017E
:101C80008F839887A987BA876F81788589859A8598
:101C900020E030E040E85FE30E94790388232CF4E1
:101CA00081E090E09E838D833FC06F817885898538
:101CB0009A8520E03FEF4FE757E40E94190318167A
:101CC0004CF56B857C858D859E8520E030E040E27B
:101CD00051E40E941F02DC01CB01BC01CD010E9436
:101CE0004900DC01CB019E838D830FC080E991E028
:101CF0009C838B838B819C810197F1F79C838B83E1
:101D00008D819E8101979E838D838D819E81009719
:101D100069F714C06F81788589859A850E9449008A
:101D2000DC01CB019E838D838D819E819A83898383
:101D300089819A810197F1F79A8389838AE491E0F6
:101D40006CE00E94A60C80917702882361F41F86C4
:101D50000E94BA1A8EE690E00E9480190E94C11477
:101D60008F85888B1DC080917702813019F40E9485
:101D7000C1140FC080917702823049F40E94BA1AD0
:101D80008AE790E00E9480190E94C11402C00E945C
:101D9000C1148091BD01882309F058CF8F85888BAD
:101DA000888960960FB6F894DEBF0FBECDBFCF9185
:101DB000DF910895DF93CF93CDB7DEB76F970FB65E
:101DC000F894DEBF0FBECDBF8E8F08C18E8D8130DF
:101DD00031F486E591E06DE00E94A60C08C08E8D7E
:101DE000823029F483E691E06DE00E94A60C809198
:101DF0007702882309F07EC01D8E0E94BA1A8DE8F2
:101E000090E00E94801980E090E0AAE7B4E4898F16
:101E10009A8FAB8FBC8F698D7A8D8B8D9C8D20E0D6
:101E200030E04AE755E40E941F02DC01CB018D8BB4
:101E30009E8BAF8BB88F6D897E898F89988D20E0BE
:101E400030E040E85FE30E94790388232CF481E0CE
:101E500090E09C8B8B8B3FC06D897E898F89988D9C
:101E600020E03FEF4FE757E40E94190318164CF5A6
:101E7000698D7A8D8B8D9C8D20E030E040E251E4BD
:101E80000E941F02DC01CB01BC01CD010E94490070
:101E9000DC01CB019C8B8B8B0FC080E991E09A8B8E
:101EA000898B89899A890197F1F79A8B898B8B891C
:101EB0009C8901979C8B8B8B8B899C89009769F7F8
:101EC00014C06D897E898F89988D0E944900DC013C
:101ED000CB019C8B8B8B8B899C89988B8F878F8573
:101EE00098890197F1F7988B8F870E94C1148D8D87
:101EF0008F8F7BC00E94C11480E090E0AAE7B3E41A
:101F00008B879C87AD87BE876B857C858D859E85FD
:101F100020E030E04AE755E40E941F02DC01CB01DB
:101F20008F839887A987BA876F81788589859A85F5
:101F300020E030E040E85FE30E94790388232CF43E
:101F400081E090E09E838D833FC06F817885898595
:101F50009A8520E03FEF4FE757E40E9419031816D7
:101F60004CF56B857C858D859E8520E030E040E2D8
:101F700051E40E941F02DC01CB01BC01CD010E9493
:101F80004900DC01CB019E838D830FC080E991E085
:101F90009C838B838B819C810197F1F79C838B833E
:101FA0008D819E8101979E838D838D819E81009777
:101FB00069F714C06F81788589859A850E944900E8
:101FC000DC01CB019E838D838D819E819A838983E1
:101FD00089819A810197F1F79A8389838091BE0163
:101FE000882309F0F3CE8D8D8F8F8F8D6F960FB66E
:101FF000F894DEBF0FBECDBFCF91DF910895DF9380
:10200000CF93CDB7DEB760970FB6F894DEBF0FBEA3
:10201000CDBF8AC080E791E06CE00E94A60C809161
:102020007702882309F07EC01F860E94BA1A89E9C8
:1020300090E00E94801980E090E0AAE7B4E48B87EA
:102040009C87AD87BE876B857C858D859E8520E0CE
:1020500030E04AE755E40E941F02DC01CB018F8388
:102060009887A987BA876F81788589859A8520E0C6
:1020700030E040E85FE30E94790388232CF481E09C
:1020800090E09E838D833FC06F81788589859A8596
:1020900020E03FEF4FE757E40E94190318164CF574
:1020A0006B857C858D859E8520E030E040E251E4A3
:1020B0000E941F02DC01CB01BC01CD010E9449003E
:1020C000DC01CB019E838D830FC080E991E09C836E
:1020D0008B838B819C810197F1F79C838B838D810E
:1020E0009E8101979E838D838D819E81009769F7E4
:1020F00014C06F81788589859A850E944900DC012A
:10210000CB019E838D838D819E819A838983898172
:102110009A810197F1F79A8389830E94C1148F8570
:10212000888B09C00E94C1148091BF01882309F0E7
:1021300071CF8F85888B888960960FB6F894DEBF43
:102140000FBECDBFCF91DF910895DF93CF93CDB771
:10215000DEB761970FB6F894DEBF0FBECDBF888B98
:102160009CC088890E94DC148EEA91E06FE00E9496
:10217000A60C0E94BA1A81E40E945E19809177022F
:10218000882F90E0A0E0B0E0BC01CD010E94A91929
:1021900080917702882309F07EC01F860E94BA1AB8
:1021A0008DEA90E00E94801980E090E0AAE7B4E414
:1021B0008B879C87AD87BE876B857C858D859E854B
:1021C00020E030E04AE755E40E941F02DC01CB0129
:1021D0008F839887A987BA876F81788589859A8543
:1021E00020E030E040E85FE30E94790388232CF48C
:1021F00081E090E09E838D833FC06F8178858985E3
:102200009A8520E03FEF4FE757E40E941903181624
:102210004CF56B857C858D859E8520E030E040E225
:1022200051E40E941F02DC01CB01BC01CD010E94E0
:102230004900DC01CB019E838D830FC080E991E0D2
:102240009C838B838B819C810197F1F79C838B838B
:102250008D819E8101979E838D838D819E810097C4
:1022600069F714C06F81788589859A850E94490035
:10227000DC01CB019E838D838D819E819A8389832E
:1022800089819A810197F1F79A8389830E94C11409
:102290008F85898B09C00E94C1148091C001882359
:1022A00009F05FCF8F85898B898961960FB6F89485
:1022B000DEBF0FBECDBFCF91DF910895DF93CF93E7
:1022C000CDB7DEB7EC970FB6F894DEBF0FBECDBF2B
:1022D0009BAF8AAF2EC28CE791E061E10E94A60C11
:1022E00080917702882309F0A0C119AE0E94BA1A22
:1022F0008AEB90E00E94801980E090E0AAEFB4E4BD
:102300008DAB9EABAFABB8AF6DA97EA98FA998ADD1
:1023100020E030E04AE755E40E941F02DC01CB01D7
:1023200089AB9AABABABBCAB69A97AA98BA99CA9C9
:1023300020E030E040E85FE30E94790388232CF43A
:1023400081E090E098AB8FA73FC069A97AA98BA9DB
:102350009CA920E03FEF4FE757E40E9419031816AD
:102360004CF56DA97EA98FA998AD20E030E040E240
:1023700051E40E941F02DC01CB01BC01CD010E948F
:102380004900DC01CB0198AB8FA70FC080E991E039
:102390009EA78DA78DA59EA50197F1F79EA78DA756
:1023A0008FA598A9019798AB8FA78FA598A900979B
:1023B00069F714C069A97AA98BA99CA90E94490050
:1023C000DC01CB0198AB8FA78FA598A99CA78BA701
:1023D0008BA59CA50197F1F79CA78BA7809179020B
:1023E000813009F07FC0EAADFBAD81E080830E94BF
:1023F000BA1A8CEC90E00E9480190E94C11480E00F
:1024000090E0AAEFB4E48FA398A7A9A7BAA76FA1F9
:1024100078A589A59AA520E030E04AE755E40E9416
:102420001F02DC01CB018BA39CA3ADA3BEA36BA1B8
:102430007CA18DA19EA120E030E040E85FE30E94F6
:10244000790388232CF481E090E09AA389A33FC00C
:102450006BA17CA18DA19EA120E03FEF4FE757E447
:102460000E94190318164CF56FA178A589A59AA5A5
:1024700020E030E040E251E40E941F02DC01CB0189
:10248000BC01CD010E944900DC01CB019AA389A3C4
:102490000FC080E991E098A38F8F8F8D98A101974D
:1024A000F1F798A38F8F89A19AA101979AA389A385
:1024B00089A19AA1009769F743C06BA17CA18DA166
:1024C0009EA10E944900DC01CB019AA389A389A1A6
:1024D0009AA19E8F8D8F8D8D9E8D0197F1F79E8F86
:1024E0008D8F2EC080917902823069F4EAADFBAD08
:1024F00082E080830E94BA1A89ED90E00E948019E0
:102500000E94C1141DC080917902833069F4EAAD44
:10251000FBAD83E080830E94BA1A87EE90E00E94B0
:1025200080190E94C1140CC0EAADFBAD84E6808323
:102530000E94BA1A87EF90E00E9480190E94C1148D
:1025400080E090E0AAE7B4E4898F9A8FAB8FBC8FCC
:10255000698D7A8D8B8D9C8D20E030E04AE755E4C3
:102560000E941F02DC01CB018D8B9E8BAF8BB88F3D
:102570006D897E898F89988D20E030E040E85FE3A7
:102580000E94790388232CF481E090E09C8B8B8B54
:102590003FC06D897E898F89988D20E03FEF4FE79E
:1025A00057E40E94190318164CF5698D7A8D8B8DAE
:1025B0009C8D20E030E040E251E40E941F02DC01EB
:1025C000CB01BC01CD010E944900DC01CB019C8BF9
:1025D0008B8B0FC080E991E09A8B898B89899A89CE
:1025E0000197F1F79A8B898B8B899C8901979C8B3A
:1025F0008B8B8B899C89009769F714C06D897E89C4
:102600008F89988D0E944900DC01CB019C8B8B8BBC
:102610008B899C89988B8F878F8598890197F1F793
:10262000988B8F8789AD8CAF8BC080917702893072
:1026300009F07FC089E089AF0E94BA1A80E091E07A
:102640000E9480190E94C11480E090E0AAE7B4E4DF
:102650008B879C87AD87BE876B857C858D859E85A6
:1026600020E030E04AE755E40E941F02DC01CB0184
:102670008F839887A987BA876F81788589859A859E
:1026800020E030E040E85FE30E94790388232CF4E7
:1026900081E090E09E838D833FC06F81788589853E
:1026A0009A8520E03FEF4FE757E40E941903181680
:1026B0004CF56B857C858D859E8520E030E040E281
:1026C00051E40E941F02DC01CB01BC01CD010E943C
:1026D0004900DC01CB019E838D830FC080E991E02E
:1026E0009C838B838B819C810197F1F79C838B83E7
:1026F0008D819E8101979E838D838D819E81009720
:1027000069F714C06F81788589859A850E94490090
:10271000DC01CB019E838D838D819E819A83898389
:1027200089819A810197F1F79A83898389AD8CAF6A
:1027300007C08091C101882309F0CDCD89AD8CAF50
:102740008CADEC960FB6F894DEBF0FBECDBFCF9127
:10275000DF910895DF93CF93CDB7DEB76C970FB6B7
:10276000F894DEBF0FBECDBF81E080936D02FBC049
:102770008DE891E06CE00E94A60C8091770288239E
:1027800009F07DC00E94BA1A82E191E00E9480198E
:102790000E94C11480E090E0AAE7B4E4898F9A8F88
:1027A000AB8FBC8F698D7A8D8B8D9C8D20E030E056
:1027B0004AE755E40E941F02DC01CB018D8B9E8B02
:1027C000AF8BB88F6D897E898F89988D20E030E03E
:1027D00040E85FE30E94790388232CF481E090E0D5
:1027E0009C8B8B8B3FC06D897E898F89988D20E073
:1027F0003FEF4FE757E40E94190318164CF5698D17
:102800007A8D8B8D9C8D20E030E040E251E40E9477
:102810001F02DC01CB01BC01CD010E944900DC019B
:10282000CB019C8B8B8B0FC080E991E09A8B898BBD
:1028300089899A890197F1F79A8B898B8B899C8971
:1028400001979C8B8B8B8B899C89009769F714C0AF
:102850006D897E898F89988D0E944900DC01CB01AA
:102860009C8B8B8B8B899C89988B8F878F85988984
:102870000197F1F7988B8F8710926D0274C00E94B8
:10288000C11480E090E0AAEFB3E48B879C87AD870A
:10289000BE876B857C858D859E8520E030E04AE78C
:1028A00055E40E941F02DC01CB018F839887A98722
:1028B000BA876F81788589859A8520E030E040E885
:1028C0005FE30E94790388232CF481E090E09E83EB
:1028D0008D833FC06F81788589859A8520E03FEFA1
:1028E0004FE757E40E94190318164CF56B857C8559
:1028F0008D859E8520E030E040E251E40E941F0279
:10290000DC01CB01BC01CD010E944900DC01CB01FF
:102910009E838D830FC080E991E09C838B838B81A4
:102920009C810197F1F79C838B838D819E81019718
:102930009E838D838D819E81009769F714C06F817E
:10294000788589859A850E944900DC01CB019E83A8
:102950008D838D819E819A83898389819A81019754
:10296000F1F79A83898380916D02882309F000CF63
:102970006C960FB6F894DEBF0FBECDBFCF91DF913E
:102980000895DF93CF930F92CDB7DEB710926C020C
:1029900019820BC08981882F90E0FC01E259FD4F1C
:1029A0008AEA808389818F5F898389818E3190F360
:1029B0000F90CF91DF910895DF93CF9300D00F92C6
:1029C000CDB7DEB78B831A8219828B818093BA01CF
:1029D00086E089830DC08981882F90E0FC01E25553
:1029E000FE4F90818A81890F8A8389818F5F8983D5
:1029F00089818D3080F38A818093BC010F900F9084
:102A00000F90CF91DF9108950F931F93DF93CF9392
:102A1000CDB7DEB780916C02082F10E00E940D0741
:102A2000F801E259FD4F808380916C028F5F8093A3
:102A30006C02CF91DF911F910F910895DF93CF9397
:102A4000CDB7DEB7AB970FB6F894DEBF0FBECDBFE4
:102A50008BA78CE060E00E94710A8BA582958F7035
:102A6000982F917084E1692F0E94710A8BA582953D
:102A700086958770982F917085E1692F0E94710A61
:102A80008BA58295869586958370982F917086E1A7
:102A9000692F0E94710A8BA5982F991F9927991F5A
:102AA00088E1692F0E94710A8CE061E00E94710A3E
:102AB00080E090E0A0E8BFE38FA398A7A9A7BAA7FA
:102AC0006FA178A589A59AA520E030E04AE755E4F2
:102AD0000E941F02DC01CB018BA39CA3ADA3BEA36C
:102AE0006BA17CA18DA19EA120E030E040E85FE3D6
:102AF0000E94790388232CF481E090E09AA389A3B3
:102B00003FC06BA17CA18DA19EA120E03FEF4FE7CC
:102B100057E40E94190318164CF56FA178A589A5F2
:102B20009AA520E030E040E251E40E941F02DC015F
:102B3000CB01BC01CD010E944900DC01CB019AA36D
:102B400089A30FC080E991E098A38F8F8F8D98A102
:102B50000197F1F798A38F8F89A19AA101979AA362
:102B600089A389A19AA1009769F714C06BA17CA1E0
:102B70008DA19EA10E944900DC01CB019AA389A3EB
:102B800089A19AA19E8F8D8F8D8D9E8D0197F1F7D2
:102B90009E8F8D8F8CE060E00E94710A8BA5982F2C
:102BA000917084E1692F0E94710A8BA58695982FF8
:102BB000917085E1692F0E94710A8BA58695869593
:102BC000982F917086E1692F0E94710A8BA58695D6
:102BD00086958695982F917088E1692F0E94710AD9
:102BE0008CE061E00E94710A80E090E0A0E8BFE321
:102BF000898F9A8FAB8FBC8F698D7A8D8B8D9C8DD1
:102C000020E030E04AE755E40E941F02DC01CB01DE
:102C10008D8B9E8BAF8BB88F6D897E898F89988DB8
:102C200020E030E040E85FE30E94790388232CF441
:102C300081E090E09C8B8B8B3FC06D897E898F8972
:102C4000988D20E03FEF4FE757E40E9419031816D4
:102C50004CF5698D7A8D8B8D9C8D20E030E040E2C3
:102C600051E40E941F02DC01CB01BC01CD010E9496
:102C70004900DC01CB019C8B8B8B0FC080E991E07C
:102C80009A8B898B89899A890197F1F79A8B898B1D
:102C90008B899C8901979C8B8B8B8B899C89009756
:102CA00069F714C06D897E898F89988D0E944900CB
:102CB000DC01CB019C8B8B8B8B899C89988B8F87BC
:102CC0008F8598890197F1F7988B8F878CE060E06A
:102CD0000E94710A80E090E0A0EFB1E48B879C87AE
:102CE000AD87BE876B857C858D859E8520E030E035
:102CF0004AE755E40E941F02DC01CB018F839887CD
:102D0000A987BA876F81788589859A8520E030E028
:102D100040E85FE30E94790388232CF481E090E08F
:102D20009E838D833FC06F81788589859A8520E059
:102D30003FEF4FE757E40E94190318164CF56B85D7
:102D40007C858D859E8520E030E040E251E40E9444
:102D50001F02DC01CB01BC01CD010E944900DC0156
:102D6000CB019E838D830FC080E991E09C838B8390
:102D70008B819C810197F1F79C838B838D819E8150
:102D800001979E838D838D819E81009769F714C082
:102D90006F81788589859A850E944900DC01CB0185
:102DA0009E838D838D819E819A83898389819A8177
:102DB0000197F1F79A838983AB960FB6F894DEBF3B
:102DC0000FBECDBFCF91DF9108950F931F93DF9377
:102DD000CF93CDB7DEB7C654D0400FB6F894DEBF60
:102DE0000FBECDBFFE01ED5BFF4F80E090E0A6E19E
:102DF000B3E480839183A283B3838E01015C1F4F70
:102E0000FE01ED5BFF4F608171818281938120E043
:102E100030E04AE755E40E941F02DC01CB01F801D3
:102E200080839183A283B383FE01FF9660817181C9
:102E30008281938120E030E040E85FE30E947903E3
:102E400088232CF481E090E09EAF8DAF46C0FE0158
:102E5000FF96608171818281938120E03FEF4FE78F
:102E600057E40E941903181664F5FE01ED5BFF4F4D
:102E7000608171818281938120E030E040E251E401
:102E80000E941F02DC01CB01BC01CD010E94490060
:102E9000DC01CB019EAF8DAF0FC080E991E09CAF0C
:102EA0008BAF8BAD9CAD0197F1F79CAF8BAF8DAD28
:102EB0009EAD01979EAF8DAF8DAD9EAD009769F72A
:102EC00016C0FE01FF9660817181828193810E940C
:102ED0004900DC01CB019EAF8DAF8DAD9EAD9AAFA9
:102EE00089AF89AD9AAD0197F1F79AAF89AF8DE0BF
:102EF00060E00E94710A82E00E946F1980E090E019
:102F0000A0EAB0E48DAB9EABAFABB8AF6DA97EA924
:102F10008FA998AD20E030E04AE755E40E941F02F7
:102F2000DC01CB0189AB9AABABABBCAB69A97AA98D
:102F30008BA99CA920E030E040E85FE30E94790380
:102F400088232CF481E090E098AB8FA73FC069A95B
:102F50007AA98BA99CA920E03FEF4FE757E40E9494
:102F6000190318164CF56DA97EA98FA998AD20E01C
:102F700030E040E251E40E941F02DC01CB01BC01C1
:102F8000CD010E944900DC01CB0198AB8FA70FC097
:102F900080E991E09EA78DA78DA59EA50197F1F7E9
:102FA0009EA78DA78FA598A9019798AB8FA78FA5EE
:102FB00098A9009769F714C069A97AA98BA99CA957
:102FC0000E944900DC01CB0198AB8FA78FA598A97F
:102FD0009CA78BA78BA59CA50197F1F79CA78BA716
:102FE00088E20E946F1980E090E0A0EAB0E48FA32D
:102FF00098A7A9A7BAA76FA178A589A59AA520E047
:1030000030E04AE755E40E941F02DC01CB018BA3AC
:103010009CA3ADA3BEA36BA17CA18DA19EA120E02A
:1030200030E040E85FE30E94790388232CF481E0DC
:1030300090E09AA389A33FC06BA17CA18DA19EA122
:1030400020E03FEF4FE757E40E94190318164CF5B4
:103050006FA178A589A59AA520E030E040E251E46F
:103060000E941F02DC01CB01BC01CD010E9449007E
:10307000DC01CB019AA389A30FC080E991E098A35A
:103080008F8F8F8D98A10197F1F798A38F8F89A1CA
:103090009AA101979AA389A389A19AA1009769F798
:1030A00014C06BA17CA18DA19EA10E944900DC01EE
:1030B000CB019AA389A389A19AA19E8F8D8F8D8D13
:1030C0009E8D0197F1F79E8F8D8F8CE00E946F1976
:1030D00080E090E0A0EAB0E4898F9A8FAB8FBC8F3C
:1030E000698D7A8D8B8D9C8D20E030E04AE755E428
:1030F0000E941F02DC01CB018D8B9E8BAF8BB88FA2
:103100006D897E898F89988D20E030E040E85FE30B
:103110000E94790388232CF481E090E09C8B8B8BB8
:103120003FC06D897E898F89988D20E03FEF4FE702
:1031300057E40E94190318164CF5698D7A8D8B8D12
:103140009C8D20E030E040E251E40E941F02DC014F
:10315000CB01BC01CD010E944900DC01CB019C8B5D
:103160008B8B0FC080E991E09A8B898B89899A8932
:103170000197F1F79A8B898B8B899C8901979C8B9E
:103180008B8B8B899C89009769F714C06D897E8928
:103190008F89988D0E944900DC01CB019C8B8B8B21
:1031A0008B899C89988B8F878F8598890197F1F7F8
:1031B000988B8F8781E00E946F1980E090E0A0EAF1
:1031C000B0E48B879C87AD87BE876B857C858D85BA
:1031D0009E8520E030E04AE755E40E941F02DC01B2
:1031E000CB018F839887A987BA876F817885898576
:1031F0009A8520E030E040E85FE30E94790388236D
:103200002CF481E090E09E838D833FC06F817885B0
:1032100089859A8520E03FEF4FE757E40E94190324
:1032200018164CF56B857C858D859E8520E030E0F9
:1032300040E251E40E941F02DC01CB01BC01CD0140
:103240000E944900DC01CB019E838D830FC080E981
:1032500091E09C838B838B819C810197F1F79C8308
:103260008B838D819E8101979E838D838D819E812D
:10327000009769F714C06F81788589859A850E94C7
:103280004900DC01CB019E838D838D819E819A83D1
:10329000898389819A810197F1F79A83898386E0EE
:1032A0000E946F19CA5BDF4F0FB6F894DEBF0FBEE6
:1032B000CDBFCF91DF911F910F910895DF93CF93F1
:1032C0000F92CDB7DEB789838DE061E00E94710A6D
:1032D00089810E941E150F90CF91DF910895DF9391
:1032E000CF930F92CDB7DEB789838DE060E00E9467
:1032F000710A89810E941E150F90CF91DF91089568
:10330000DF93CF9300D00F92CDB7DEB79B838A8334
:1033100019820EC08981282F30E08A819B81FC01AF
:10332000E20FF31F80810E945E1989818F5F89837C
:103330008981282F30E08A819B81FC01E20FF31FF5
:103340008081882339F70F900F900F90CF91DF91F4
:1033500008950F931F93DF93CF93CDB7DEB7A59753
:103360000FB6F894DEBF0FBECDBF6AA37BA38CA3BC
:103370009DA380E2FE013296DF01982F1D929A955F
:10338000E9F719828AA19BA1ACA1BDA1BB230CF0D6
:103390004AC08AA19BA1ACA1BDA1B095A095909572
:1033A00081959F4FAF4FBF4F8AA39BA3ACA3BDA3F3
:1033B0008DE20E945E1937C08981082F10E08AA132
:1033C0009BA1ACA1BDA12AE030E040E050E0BC01EF
:1033D000CD010E94DB1ADC01CB01AC01BD019801DB
:1033E000220F331F220F331FCE010196820F931F2E
:1033F000FC01319640835183628373838AA19BA130
:10340000ACA1BDA12AE030E040E050E0BC01CD011C
:103410000E94DB1ADA01C9018AA39BA3ACA3BDA356
:1034200089818F5F89838AA19BA1ACA1BDA10097EF
:10343000A105B10509F689818150898318C0898168
:10344000882F90E09C01220F331F220F331FCE01E3
:103450000196820F931FFC01319680819181A28198
:10346000B381805D0E945E19898181508983898141
:10347000803328F3A5960FB6F894DEBF0FBECDBFFC
:10348000CF91DF911F910F910895DF93CF9300D0DB
:103490000F92CDB7DEB78A836B838A81813019F4AE
:1034A0008B81898314C08A81823021F48B81805C76
:1034B00089830DC08A81833021F48B818C5E89835E
:1034C00006C08A81843019F48B818C5A8983898162
:1034D00080580E946F190F900F900F90CF91DF913D
:1034E0000895DF93CF9300D000D00F92CDB7DEB711
:1034F0009C838B836D831A8219828D81882F90E043
:10350000880F991F880F991F880F991F89838981B8
:10351000805C0E946F191A820EC08A81282F30E0C9
:103520008B819C81FC01E20FF31F80810E945E1958
:103530008A818F5F8A838A81883078F381E060E0B6
:103540000E94451A8D810E945E190F900F900F9076
:103550000F900F90CF91DF910895DF93CF930F924B
:10356000CDB7DEB7898389810E945E190F90CF9114
:10357000DF910895DF93CF93CDB7DEB781E00E944E
:103580006F19CF91DF910895DF93CF93CDB7DEB759
:103590000E94E5160E948F0C0E94AA13FFCF991B70
:1035A00079E004C0991F961708F0961B881F7A953A
:1035B000C9F78095089597FB092E05260ED057FD73
:1035C00004D014D00AD0001C38F4509540953095A2
:1035D00021953F4F4F4F5F4F0895F6F79095809597
:1035E000709561957F4F8F4F9F4F0895A1E21A2EDE
:1035F000AA1BBB1BFD010DC0AA1FBB1FEE1FFF1F97
:10360000A217B307E407F50720F0A21BB30BE40BE6
:10361000F50B661F771F881F991F1A9469F760952D
:103620007095809590959B01AC01BD01CF010895E7
:103630002F923F924F925F926F927F928F929F92C2
:10364000AF92BF92CF92DF92EF92FF920F931F93B0
:10365000CF93DF93CDB7DEB7CA1BDB0B0FB6F89461
:10366000DEBF0FBECDBF09942A88398848885F84A1
:103670006E847D848C849B84AA84B984C884DF8012
:10368000EE80FD800C811B81AA81B981CE0FD11DF6
:103690000FB6F894DEBF0FBECDBFED010895F894CC
:0236A000FFCF5A
:1036A200436865636B2046696E67657221004368F3
:1036B20065636B2020646F6E6500436865636B20F1
:1036C20046696E67657220616761696E0042756660
:1036D20066657220646F6E65005265676973746512
:1036E20072204D6F64656C20646F6E650053746F59
:1036F20072696E6720646F6E650046696E676572F7
:103702005072696E7420466F756E640057656C6303
:103712006F6D65204E6F75720057656C636F6D65D6
:10372200205A6564616E0057656C636F6D65204E4B
:103732006F6D726F7369004E657720557365720005
:103742004E6F206D61746368696E6720466F756E97
:10375200640054656D706C617465206C69737420CB
:10376200656D707479000000000000000000EF0138
:10377200FFFFFFFF010003400044EF01FFFFFFFFD7
:103782000100071300000000001BEF01FFFFFFFF15
:10379200010003010005EF01FFFFFFFF010004022A
:1037A200010008EF01FFFFFFFF0100040202000910
:1037B200EF01FFFFFFFF010003050009EF01FFFF1B
:1037C200FFFF01000804010001000F001EEF01FFCE
:1037D200FFFFFF0100030D0011EF01FFFFFFFF01DB
:1037E20000070C0000000A001E1000030000EF0199
:1037F200FFFFFFFF01000606010001000F010101AA
:103802000101151515111111111F0100010D0F04F0
:103812001C000000000101010F00001B15110A0429
:10382200000000000A00110E00000A0000010B0156
:1038320000010C0101010D0101010E0100000F0147
:103842000000100100001101000014010101150126
:1038520001011601010117010101180101011900FD
:1038620001011A0001011B0001011E0001011F00DC
:1038720001012001010121010101220101012301B4
:103882000101240001012500010128000001290095
:1038920001012A0000002B0100002C0001012D0172
:0A38A20000002E0100002F010000BD
:00000001FF
