:100000000C942A000C9447000C9447000C94470071
:100010000C9447000C9447000C9447000C94470044
:100020000C9447000C9447000C9447000C94470034
:100030000C9447000C9432070C9447000C94470032
:100040000C9447000C9447000C9447000C94470014
:100050000C94470011241FBECFE5D8E0DEBFCDBF12
:1000600014E0A0E6B0E0EEE3FEE502C005900D92DC
:10007000A230B107D9F714E0A2E0B4E001C01D92AC
:10008000A632B107E1F70E94942E0C941D2F0C9418
:100090000000EF92FF920F931F937B018C0120E0F1
:1000A00030E040E05FE40E94490388238CF0C801FF
:1000B000B70120E030E040E05FE40E94C1010E940F
:1000C000A9039B01AC01205030404040504806C07D
:1000D000C801B7010E94A9039B01AC01B901CA0183
:1000E0001F910F91FF90EF900895A0E0B0E0EBE733
:1000F000F0E00C94E62EDC012B01FA019C91923089
:1001000008F439C1EB018881823008F433C194309E
:1001100069F4843009F02FC111969C91119789815F
:10012000981709F428C1AEE5B2E025C1843009F47E
:1001300021C18230A9F4923009F01DC19A01AD01AC
:1001400088E0EA010990AE01E90109929E0181501F
:10015000C1F7E201898111969C918923818308C1AD
:10016000923009F407C112962D903C901397EB0141
:100170008A819B811496AD90BD90CD90DC901797AD
:10018000EC80FD800E811F819101281B390BB90184
:1001900037FF04C066277727621B730B6032710537
:1001A0000CF061C0121613066CF537014801062EDB
:1001B00004C096948794779467940A94D2F721E0C8
:1001C00030E040E050E004C0220F331F441F551FB1
:1001D0006A95D2F721503040404050402E213F21B7
:1001E00040235123211531054105510521F021E01E
:1001F00030E040E050E079018A01E628F72808293C
:1002000019293CC0232BD1F1260E371E350146019A
:10021000062E04C096948794779467940A94D2F734
:1002200021E030E040E050E004C0220F331F441FC3
:10023000551F6A95D2F721503040404050402A2146
:100240003B214C215D21211531054105510521F04E
:1002500021E030E040E050E059016A01A628B728CB
:10026000C828D9280BC0821593052CF01C01AA249C
:10027000BB24650103C0EE24FF24870111969C91E5
:10028000D20111968C91981709F445C0992339F041
:10029000A80197012A193B094C095D0906C0A6016E
:1002A00095012E193F09400B510B57FD08C01182D3
:1002B0003382228224833583468357831DC081E0A5
:1002C00081833382228288279927DC01821B930B4A
:1002D000A40BB50B84839583A683B7830DC0220F2F
:1002E000331F441F551F24833583468357838281E0
:1002F000938101979383828324813581468157813D
:10030000DA01C9010197A109B1098F5F9F4FAF4F72
:10031000BF4328F30BC0918333822282EA0CFB1C7B
:100320000C1D1D1DE482F5820683178383E0808304
:10033000248135814681578157FF1AC0C901AA27F8
:1003400097FDA095BA2F81709070A070B0705695EF
:10035000479537952795822B932BA42BB52B848318
:100360009583A683B7838281938101969383828349
:10037000DF0101C0D201CD01CDB7DEB7E2E10C94BF
:10038000022FA0E2B0E0E7ECF1E00C94F22E6983DA
:100390007A838B839C832D833E834F835887E9E048
:1003A000EE2EF12CEC0EFD1ECE010196B7010E943F
:1003B000D2048E010F5E1F4FCE010596B8010E9438
:1003C000D2048A8991E089278A8BC701B801AE01DE
:1003D000475E5F4F0E9475000E94FD03A096E6E015
:1003E0000C940E2FA0E2B0E0E8EFF1E00C94F22EB6
:1003F00069837A838B839C832D833E834F835887C5
:10040000F9E0EF2EF12CEC0EFD1ECE010196B701A6
:100410000E94D2048E010F5E1F4FCE010596B801D7
:100420000E94D204C701B801AE01475E5F4F0E942F
:1004300075000E94FD03A096E6E00C940E2FA0E24A
:10044000B0E0E5E2F2E00C94E62E69837A838B83D8
:100450009C832D833E834F835887CE010196BE0136
:10046000675F7F4F0E94D204CE010596BE016F5E8A
:100470007F4F0E94D2049985923088F0898982301A
:10048000C8F0943019F4823051F404C0843029F457
:10049000923081F48EE592E0C6C0923049F420E0BB
:1004A0009A858A89981321E02A87CE010996BBC0D4
:1004B000823049F420E09A858A89981321E02A8BBA
:1004C000CE014196B0C02D843E844F8458886D88FB
:1004D0007E888F88988CEE24FF248701AA24BB2471
:1004E000650140E050E060E070E0E0E0F0E0C10174
:1004F00081709070892BE9F0E60CF71C081D191D1E
:100500009A01AB012A0D3B1D4C1D5D1D80E090E062
:10051000A0E0B0E0E614F7040805190520F481E036
:1005200090E0A0E0B0E0BA01A901480F591F6A1F8E
:100530007B1FAA0CBB1CCC1CDD1C97FE08C081E0F5
:1005400090E0A0E0B0E0A82AB92ACA2ADB2A3196B6
:10055000E032F10549F0660C771C881C991C569412
:10056000479437942794C3CFFA85EA892B893C892D
:100570008B859C85280F391F2E5F3F4F17C0CA01FE
:1005800081709070892B61F016950795F794E79428
:1005900080E090E0A0E0B0E8E82AF92A0A2B1B2BC3
:1005A00076956795579547952F5F3F4F77FDE7CF36
:1005B0000CC0440F551F661F771F17FD4160EE0CDE
:1005C000FF1C001F111F21503040403090E05907A0
:1005D00090E0690790E4790760F32B8F3C8FDB0193
:1005E000CA018F779070A070B07080349105A1051A
:1005F000B10561F447FD0AC0E114F10401051105DC
:1006000029F0405C5F4F6F4F7F4F40781A8EFE1786
:1006100011F081E08A8F4D8F5E8F6F8F78A383E01A
:10062000898FCE0149960E94FD03A096E2E10C94C9
:10063000022FA8E1B0E0EFE1F3E00C94F22E698321
:100640007A838B839C832D833E834F83588789E0F5
:10065000E82EF12CEC0EFD1ECE010196B7010E9492
:10066000D2048E010F5E1F4FCE010596B8010E9485
:10067000D2048985823040F08989823028F0C70110
:10068000B8010E944A0501C08FEF6896E6E00C941D
:100690000E2FA8E1B0E0EFE4F3E00C94F22E6983B2
:1006A0007A838B839C832D833E834F83588789E095
:1006B000E82EF12CEC0EFD1ECE010196B7010E9432
:1006C000D2048E010F5E1F4FCE010596B8010E9425
:1006D000D2048985823040F08989823028F0C701B0
:1006E000B8010E944A0501C08FEF6896E6E00C94BD
:1006F0000E2FA8E1B0E0EFE7F3E00C94F22E69834F
:100700007A838B839C832D833E834F83588789E034
:10071000E82EF12CEC0EFD1ECE010196B7010E94D1
:10072000D2048E010F5E1F4FCE010596B8010E94C4
:10073000D2048985823040F08989823028F0C7014F
:10074000B8010E944A0501C081E06896E6E00C9479
:100750000E2FACE0B0E0EFEAF3E00C94F62E6983E4
:100760007A838B839C83CE010196BE016B5F7F4FA2
:100770000E94D2048D81823061F1823050F1843048
:1007800021F48E81882351F12EC02F81388537FDC9
:1007900020C06E812F3131051CF06623F9F023C093
:1007A0008EE190E0821B930B29853A854B855C8511
:1007B00004C056954795379527958A95D2F76623B5
:1007C000B1F050954095309521953F4F4F4F5F4F79
:1007D0000EC020E030E040E050E009C02FEF3FEFD6
:1007E0004FEF5FE704C020E030E040E050E8B9019F
:1007F000CA012C96E2E00C94122FDF92EF92FF9246
:100800000F931F93FC01E480F58006811781D1804E
:100810008081823048F480E090E0A0E1B0E0E82AF6
:10082000F92A0A2B1B2BA5C0843009F49FC0823003
:1008300021F4EE24FF24870105C0E114F104010531
:10084000110519F4E0E0F0E096C0628173819FEF3A
:10085000623879070CF05BC022E83FEF261B370BAC
:100860002A3131052CF020E030E040E050E02AC091
:10087000B801A701022E04C0769567955795479554
:100880000A94D2F781E090E0A0E0B0E004C0880FC5
:10089000991FAA1FBB1F2A95D2F70197A109B10979
:1008A0008E219F21A023B1230097A105B10521F03E
:1008B00081E090E0A0E0B0E09A01AB01282B392B59
:1008C0004A2B5B2BDA01C9018F779070A070B07052
:1008D00080349105A105B10539F427FF09C0205CDA
:1008E0003F4F4F4F5F4F04C0215C3F4F4F4F5F4F13
:1008F000E0E0F0E02030A0E03A07A0E04A07A0E402
:100900005A0710F0E1E0F0E079018A0127C0603871
:10091000710564F5FB01E158FF4FD801C7018F77DE
:100920009070A070B07080349105A105B10539F4C4
:10093000E7FE0DC080E490E0A0E0B0E004C08FE3EB
:1009400090E0A0E0B0E0E80EF91E0A1F1B1F17FFA1
:1009500005C016950795F794E794319687E01695AC
:100960000795F794E7948A95D1F705C0EE24FF2404
:100970008701EFEFF0E06E2F679566276795902F60
:100980009F77D794DD24D7948E2F8695492F462BB9
:10099000582F5D29B701CA011F910F91FF90EF9069
:1009A000DF900895FC01DB01408151812281622F9B
:1009B0006F7770E0221F2227221F9381892F880FD3
:1009C000822B282F30E0991F9927991F11969C930D
:1009D000119721153105A9F54115510561057105DD
:1009E00011F482E037C082E89FEF13969C938E93B8
:1009F00012979A01AB0167E0220F331F441F551F66
:100A00006A95D1F783E08C930DC0220F331F441FEA
:100A1000551F12968D919C911397019713969C9355
:100A20008E931297203080E0380780E0480780E4FA
:100A3000580758F314962D933D934D935C93179755
:100A400008952F3F310579F4411551056105710570
:100A500019F484E08C93089564FF03C081E08C93C3
:100A600012C01C9210C02F57304013963C932E9307
:100A7000129783E08C9387E0440F551F661F771F02
:100A80008A95D1F7706414964D935D936D937C9322
:100A9000179708951F93DC01FB019C91923008F495
:100AA00047C08081823008F443C0943051F41196DD
:100AB0001C91843099F58181682F70E0611B710968
:100AC0003FC0843021F0923031F48230B9F181811D
:100AD000882389F12DC011961C9111978230F1F075
:100AE00081811817D9F412962D913C911397828128
:100AF00093818217930794F028173907BCF0149656
:100B00008D919D910D90BC91A02D248135814681C0
:100B10005781281739074A075B0718F4112341F05A
:100B20000AC082179307A407B50740F4112319F0F0
:100B300061E070E005C06FEF7FEF02C060E070E041
:100B4000CB011F910895DF93CF93CDB7DEB72B97DD
:100B50000FB6F894DEBF0FBECDBF9B838A83198288
:100B600089818F7B898389818E7F8983EA81FB815B
:100B7000208131813B872A878A859B85873691052D
:100B8000A9F02A853B852836310530F48A859B8576
:100B90008031910581F013C02A853B852F3C3105BA
:100BA00071F4E9E2F0E08FEC808309C0E9E2F0E063
:100BB00088E0808304C0E9E2F0E080E18083EA819C
:100BC000FB818281282F30E03987288788859985A5
:100BD00082309105B1F1288539852330310554F4EF
:100BE00088859985009789F02885398521303105D8
:100BF000D1F050C0888599858330910581F1288591
:100C0000398524303105C9F145C089818D7F8983BB
:100C100089818B7F8983AAE2B0E0EAE2F0E08081FB
:100C20008B7F8C9337C089818260898389818B7F98
:100C30008983AAE2B0E0EAE2F0E080818B7F8C93C6
:100C400029C089818D7F8983898184608983AAE213
:100C5000B0E0EAE2F0E080818B7F8C931BC0898159
:100C600082608983898184608983AAE2B0E0EAE2B4
:100C7000F0E080818B7F8C930DC0898182608983B5
:100C8000898184608983AAE2B0E0EAE2F0E08081B1
:100C900084608C93EA81FB818381282F30E03F833D
:100CA0002E838E819F818130910569F02E813F8155
:100CB0002230310579F08E819F81009789F48981F6
:100CC0008F7C89830DC089818F7C89838981806233
:100CD000898306C089818F7C898389818063898328
:100CE000EA81FB818481282F30E03D832C838C8135
:100CF0009D81009731F02C813D812130310529F013
:100D00000AC08981877F898306C08981877F89831B
:100D100089818860898389818F77898389818068C7
:100D20008983E0E4F0E089818083AAE2B0E0EAE22E
:100D3000F0E0808188608C93AAE2B0E0EAE2F0E023
:100D4000808180688C93AAE2B0E0EAE2F0E08081E2
:100D500080618C932B960FB6F894DEBF0FBECDBF8B
:100D6000CF91DF910895DF93CF930F92CDB7DEB788
:100D70008983EBE2F0E08081829586958770882FE9
:100D800090E0817090700097A1F3ECE2F0E089812F
:100D900080830F90CF91DF910895DF93CF9300D0A0
:100DA0000F92CDB7DEB79B838A83198219820EC05A
:100DB0008981282F30E08A819B81FC01E20FF31F9B
:100DC00080810E94B30689818F5F89838981282F62
:100DD00030E08A819B81FC01E20FF31F8081882330
:100DE00039F70F900F900F90CF91DF910895DF9317
:100DF000CF930F92CDB7DEB71982EBE2F0E080819E
:100E0000882324F089818F5F8983F7CFECE2F0E0BB
:100E100080810F90CF91DF910895DF93CF93CDB76D
:100E2000DEB7ECE2F0E08081CF91DF910895DF93AF
:100E3000CF9300D00F92CDB7DEB79B838A8381E03A
:100E400089838A819B81009731F08A819B8190936D
:100E500003048093020489810F900F900F90CF912B
:100E6000DF9108951F920F920FB60F9211242F93C6
:100E70003F934F935F936F937F938F939F93AF9322
:100E8000BF93EF93FF93DF93CF93CDB7DEB78091FE
:100E9000020490910304009729F0E0910204F0917C
:100EA00003040995CF91DF91FF91EF91BF91AF912D
:100EB0009F918F917F916F915F914F913F912F9172
:100EC0000F900FBE0F901F901895DF93CF930F9246
:100ED000CDB7DEB78983A1E2B0E0E1E2F0E0808146
:100EE000887F8C93A1E2B0E0E1E2F0E080818C9316
:100EF000E0E2F0E089818083A6E5B0E0E6E5F0E09D
:100F0000808184688C930F90CF91DF910895DF9357
:100F1000CF93CDB7DEB7E6E5F0E084EA8083E6E57F
:100F2000F0E080818823DCF70E941308CF91DF91E5
:100F30000895DF93CF930F92CDB7DEB78983E2E2B6
:100F4000F0E0898180830F90CF91DF910895DF9346
:100F5000CF930F92CDB7DEB78983E3E2F0E08981CA
:100F60008083E6E5F0E084E88083E6E5F0E08081D8
:100F70008823DCF70E9413080F90CF91DF9108952A
:100F8000DF93CF9300D0CDB7DEB79A838983A6E5F0
:100F9000B0E0E6E5F0E08081846C8C93E6E5F0E07B
:100FA00080818823DCF7E3E2F0E08081E981FA8147
:100FB00080830F900F90CF91DF910895DF93CF93AF
:100FC00000D0CDB7DEB79A838983A6E5B0E0E6E529
:100FD000F0E080818F7B8C93E6E5F0E084E880830D
:100FE000E6E5F0E080818823DCF7E3E2F0E0808151
:100FF000E981FA8180830F900F90CF91DF9108955E
:10100000DF93CF9300D0CDB7DEB79A838983E1E237
:10101000F0E08081887FE981FA8180830F900F90D2
:10102000CF91DF910895DF93CF93CDB7DEB7E1E2A3
:10103000F0E08081887FCF91DF910895DF93CF9397
:10104000CDB7DEB7A6E5B0E0E6E5F0E080818469E3
:101050008C93CF91DF910895DF93CF93CDB7DEB717
:101060002B970FB6F894DEBF0FBECDBF9D838C8348
:101070008C819D81009709F451C21B824BC28B81E8
:10108000882F90E09C01220F331F220F331F8C8189
:101090009D81FC01E20FF31F80819AE0692F0E947D
:1010A0009D2E892F8A838B81882F90E09C01220FAF
:1010B000331F220F331F8C819D81FC01E20FF31F30
:1010C00080819AE0692F0E949D2E89838B81882FD1
:1010D00090E09C01220F331F220F331F8C819D81D2
:1010E000FC01E20FF31F8281882389F08B81882F16
:1010F00090E09C01220F331F220F331F8C819D81B2
:10110000FC01E20FF31F8281813009F000C2898166
:10111000282F30E03B872A876A857B8562307105FE
:10112000D1F18A859B858330910534F42A853B85EE
:101130002130310571F094C06A857B85633071057B
:1011400009F44BC08A859B858430910509F467C0FA
:1011500087C0AAE3B0E0EAE3F0E040818B81882F0A
:1011600090E09C01220F331F220F331F8C819D8141
:10117000FC01E20FF31F8281282F30E08A81882F43
:1011800090E0B90102C0660F771F8A95E2F7CB01A4
:10119000842B8C9365C0A7E3B0E0E7E3F0E04081E7
:1011A0008B81882F90E09C01220F331F220F331F69
:1011B0008C819D81FC01E20FF31F8281282F30E09A
:1011C0008A81882F90E0B90102C0660F771F8A9547
:1011D000E2F7CB01842B8C9343C0A4E3B0E0E4E3BB
:1011E000F0E040818B81882F90E09C01220F331F1B
:1011F000220F331F8C819D81FC01E20FF31F82813E
:10120000282F30E08A81882F90E0B90102C0660F54
:10121000771F8A95E2F7CB01842B8C9321C0A1E341
:10122000B0E0E1E3F0E040818B81882F90E09C0109
:10123000220F331F220F331F8C819D81FC01E20F8F
:10124000F31F8281282F30E08A81882F90E0B90136
:1012500002C0660F771F8A95E2F7CB01842B8C932F
:101260008B81882F90E09C01220F331F220F331FA8
:101270008C819D81FC01E20FF31F8181882389F01D
:101280008B81882F90E09C01220F331F220F331F88
:101290008C819D81FC01E20FF31F8181813009F077
:1012A00036C18981282F30E039872887688579857C
:1012B00062307105D1F1888599858330910534F4C8
:1012C000288539852130310571F094C0688579858C
:1012D0006330710509F44BC0888599858430910588
:1012E00009F467C087C0ABE3B0E0EBE3F0E0408116
:1012F0008B81882F90E09C01220F331F220F331F18
:101300008C819D81FC01E20FF31F8181282F30E049
:101310008A81882F90E0B90102C0660F771F8A95F5
:10132000E2F7CB01842B8C9365C0A8E3B0E0E8E33F
:10133000F0E040818B81882F90E09C01220F331FC9
:10134000220F331F8C819D81FC01E20FF31F8181ED
:10135000282F30E08A81882F90E0B90102C0660F03
:10136000771F8A95E2F7CB01842B8C9343C0A5E3CA
:10137000B0E0E5E3F0E040818B81882F90E09C01B4
:10138000220F331F220F331F8C819D81FC01E20F3E
:10139000F31F8181282F30E08A81882F90E0B901E6
:1013A00002C0660F771F8A95E2F7CB01842B8C93DE
:1013B00021C0A2E3B0E0E2E3F0E040818B81882F1E
:1013C00090E09C01220F331F220F331F8C819D81DF
:1013D000FC01E20FF31F8181282F30E08A81882FE2
:1013E00090E0B90102C0660F771F8A95E2F7CB0142
:1013F000842B8C938B81882F90E09C01220F331FCC
:10140000220F331F8C819D81FC01E20FF31F82812B
:10141000813009F07CC08B81882F90E09C01220FE5
:10142000331F220F331F8C819D81FC01E20FF31FBC
:101430008381882309F06BC08981282F30E03F83A6
:101440002E836E817F816230710549F18E819F818B
:101450008330910534F42E813F812130310561F0D4
:1014600056C06E817F816330710561F18E819F81ED
:1014700084309105D1F14BC0ABE3B0E0EBE3F0E099
:1014800040818A81282F30E081E090E0022E02C066
:10149000880F991F0A94E2F7842B8C9338C0A8E335
:1014A000B0E0E8E3F0E040818A81282F30E081E07D
:1014B00090E0022E02C0880F991F0A94E2F7842B55
:1014C0008C9325C0A5E3B0E0E5E3F0E040818A819C
:1014D000282F30E081E090E0022E02C0880F991F93
:1014E0000A94E2F7842B8C9312C0A2E3B0E0E2E30B
:1014F000F0E040818A81282F30E081E090E0022EE8
:1015000002C0880F991F0A94E2F7842B8C938B8179
:101510008F5F8B838B81803208F4B1CD2B960FB611
:10152000F894DEBF0FBECDBFCF91DF910895DF935A
:10153000CF93CDB7DEB7AFE5B0E0EFE5F0E0808167
:1015400080688C93CF91DF910895DF93CF93CDB7CF
:10155000DEB7AFE5B0E0EFE5F0E080818F778C9308
:10156000CF91DF910895DF93CF9300D000D000D0CA
:10157000CDB7DEB78C838C819AE0692F0E949D2EB7
:10158000892F8B838C819AE0692F0E949D2E8A83FC
:101590008A81282F30E03E832D834D815E81423049
:1015A000510541F18D819E818330910534F42D8167
:1015B0003E812130310561F052C04D815E81433062
:1015C000510551F18D819E8184309105B9F147C05B
:1015D000E9E3F0E08081282F30E08B81882F90E0D4
:1015E000A90102C0559547958A95E2F7CA01817015
:1015F000898335C0E6E3F0E08081282F30E08B81DD
:10160000882F90E0A90102C0559547958A95E2F789
:10161000CA018170898323C0E3E3F0E08081282F31
:1016200030E08B81882F90E0A90102C05595479545
:101630008A95E2F7CA018170898311C0E0E3F0E086
:101640008081282F30E08B81882F90E0A90102C093
:10165000559547958A95E2F7CA01817089838981FA
:1016600026960FB6F894DEBF0FBECDBFCF91DF91A7
:101670000895DF93CF93CDB7DEB728970FB6F894D0
:10168000DEBF0FBECDBF8B836C838B819AE0692F49
:101690000E949D2E892F8A838B819AE0692F0E9458
:1016A0009D2E89838C81813009F070C08981282F1B
:1016B00030E038872F838F8198858230910551F1F2
:1016C0002F8138852330310534F48F81988581301E
:1016D000910561F0D3C02F8138852330310571F138
:1016E0008F81988584309105E9F1C8C0ABE3B0E003
:1016F000EBE3F0E08081482F8A81282F30E081E001
:1017000090E0022E02C0880F991F0A94E2F7842B02
:101710008C93B4C0A8E3B0E0E8E3F0E08081482F08
:101720008A81282F30E081E090E0022E02C0880FED
:10173000991F0A94E2F7842B8C93A0C0A5E3B0E034
:10174000E5E3F0E08081482F8A81282F30E081E0B6
:1017500090E0022E02C0880F991F0A94E2F7842BB2
:101760008C938CC0A2E3B0E0E2E3F0E08081482FEC
:101770008A81282F30E081E090E0022E02C0880F9D
:10178000991F0A94E2F7842B8C9378C08C8188236C
:1017900009F074C08981282F30E03E832D838D812C
:1017A0009E818230910561F12D813E81233031058A
:1017B00034F48D819E818130910569F05FC02D8167
:1017C0003E812330310589F18D819E8184309105E0
:1017D00009F440C053C0ABE3B0E0EBE3F0E080813C
:1017E000482F8A81282F30E081E090E0022E02C04D
:1017F000880F991F0A94E2F7809584238C933EC04A
:10180000A8E3B0E0E8E3F0E08081482F8A81282F48
:1018100030E081E090E0022E02C0880F991F0A9408
:10182000E2F7809584238C9329C0A5E3B0E0E5E33B
:10183000F0E08081482F8A81282F30E081E090E01D
:10184000022E02C0880F991F0A94E2F78095842324
:101850008C9314C0A2E3B0E0E2E3F0E08081482F73
:101860008A81282F30E081E090E0022E02C0880FAC
:10187000991F0A94E2F7809584238C9328960FB6DB
:10188000F894DEBF0FBECDBFCF91DF910895DF93F7
:10189000CF9300D000D0CDB7DEB78A838A81282FBE
:1018A00030E03C832B838B819C8182309105D9F081
:1018B0002B813C812330310534F48B819C81813034
:1018C000910561F01EC02B813C812330310581F0F0
:1018D0008B819C818430910581F013C0EBE3F0E0B3
:1018E000808189830EC0E8E3F0E08081898309C0AC
:1018F000E5E3F0E08081898304C0E2E3F0E08081E9
:10190000898389810F900F900F900F90CF91DF9175
:101910000895DF93CF9300D000D0CDB7DEB7898391
:101920006A838981282F30E03C832B838B819C81C3
:1019300082309105D9F02B813C812330310534F47C
:101940008B819C818130910561F01EC02B813C818F
:101950002330310581F08B819C818430910581F0A9
:1019600013C0EBE3F0E08A8180830EC0E8E3F0E08F
:101970008A81808309C0E5E3F0E08A81808304C026
:10198000E2E3F0E08A8180830F900F900F900F9038
:10199000CF91DF910895DF93CF9300D000D00F92C5
:1019A000CDB7DEB78B838B819AE0692F0E949D2E85
:1019B000892F8A838B819AE0692F0E949D2E8983CB
:1019C0008981282F30E03D832C838C819D8182305A
:1019D000910551F12C813D812330310534F48C8106
:1019E0009D818130910561F05AC02C813D81233069
:1019F000310571F18C819D8184309105E9F14FC0F1
:101A0000ABE3B0E0EBE3F0E08081482F8A81282F40
:101A100030E081E090E0022E02C0880F991F0A9406
:101A2000E2F784278C933BC0A8E3B0E0E8E3F0E062
:101A30008081482F8A81282F30E081E090E0022EBB
:101A400002C0880F991F0A94E2F784278C9327C05D
:101A5000A5E3B0E0E5E3F0E08081482F8A81282FFC
:101A600030E081E090E0022E02C0880F991F0A94B6
:101A7000E2F784278C9313C0A2E3B0E0E2E3F0E046
:101A80008081482F8A81282F30E081E090E0022E6B
:101A900002C0880F991F0A94E2F784278C930F9055
:101AA0000F900F900F900F90CF91DF910895DF93DB
:101AB000CF9300D00F92CDB7DEB789838981282FCD
:101AC00030E03B832A838A819B818130910531F00C
:101AD0002A813B812230310531F009C085E261E085
:101AE0000E94390B04C081E161E00E94390B0F9024
:101AF0000F900F90CF91DF910895DF93CF9300D097
:101B00000F92CDB7DEB789838981282F30E03B83E0
:101B10002A838A819B818130910531F02A813B8122
:101B20002230310531F009C085E260E00E94390BB6
:101B300004C081E160E00E94390B0F900F900F907C
:101B4000CF91DF910895DF93CF93CDB7DEB784E2D5
:101B50000E946507CF91DF910895DF93CF9300D066
:101B600000D0CDB7DEB79B838A836C83EA81FB818B
:101B7000808189830E94870780ED0E94A70780E00B
:101B80000E94A707EA81FB8182810E94D30E0E94F6
:101B9000A707EA81FB8181810E94D30E0E94A707DB
:101BA0008C818C3321F489818066898306C08C8185
:101BB000883219F489818064898389810E94A7070A
:101BC0000E941E080F900F900F900F90CF91DF9101
:101BD0000895DF93CF9300D000D000D0CDB7DEB70B
:101BE0000E94870780ED0E94A70780E00E94A70758
:101BF0000E94870781ED0E94A707CE0106960E94EA
:101C0000C0078E810E94000F8E810E94000F8C837E
:101C1000CE0106960E94C0078E810E94000F8E8121
:101C20000E94000F8B83CE0106960E94DE078E81F4
:101C3000807F898389810E94000F8D838E818F70C0
:101C40008E838E810E94000F8A830E941E088A81E3
:101C50009B81AC81BD81BC01CD0126960FB6F89465
:101C6000DEBF0FBECDBFCF91DF910895DF93CF933D
:101C700000D0CDB7DEB79A8389830E94870780EDB5
:101C80000E94A70784E00E94A707E981FA8180816A
:101C90000E94D30E0E94A707E981FA8181810E94E8
:101CA000D30E0E94A707E981FA8182810E94D30E98
:101CB0000E94A7070E941E080F900F90CF91DF91FE
:101CC0000895DF93CF93CDB7DEB760970FB6F89442
:101CD000DEBF0FBECDBF0E94870780ED0E94A70721
:101CE00084E00E94A7070E94870781ED0E94A70752
:101CF000CE0107960E94C0078F810E94000F8F813E
:101D00000E94000F8C83CE0107960E94C0078F812E
:101D10000E94000F8F810E94000F8D83CE010796D5
:101D20000E94DE078F810E94000F8F810E94000FAA
:101D30008E830E941E08CE01019699878887FE0136
:101D40003496FB87EA87F3E0FC87EA85FB85008011
:101D50008A859B8501969B878A87E885F98500821D
:101D6000888599850196998788879C8591509C875D
:101D7000EC85EE2351F720E0298180E08A8190E014
:101D80009B812D878E879F878D859E85AF85B8899E
:101D9000BC01CD0160960FB6F894DEBF0FBECDBF7B
:101DA000CF91DF910895DF93CF9300D00F92CDB7FD
:101DB000DEB78B831A8219828B819AE0692F0E9489
:101DC0009D2E892F8A838B819AE0692F0E949D2EF8
:101DD00089838A818F708A838981882F90E0829598
:101DE0009295907F9827807F9827807789839A8122
:101DF0008981892B0F900F900F90CF91DF910895DB
:101E0000DF93CF9300D00F92CDB7DEB78B831A82CA
:101E100019828B818F708A838B81807F89838981EE
:101E200082958F70882F90E09C01220F331FC9018B
:101E3000880F991F880F991F820F931F89839A819A
:101E40008981890F0F900F900F90CF91DF910895A6
:101E5000DF93CF93CDB7DEB762970FB6F894DEBFAE
:101E60000FBECDBF198A188AC8C08091760261E082
:101E70000E94390B8091770261E00E94390B8091BA
:101E8000780261E00E94390B8091790261E00E9442
:101E9000390B8889882F90E0FC01EA58FD4F80813A
:101EA00060E00E94390B1F86A1C08F85882F90E0CB
:101EB000FC01E658FD4F80810E94B30A882309F097
:101EC00092C080E090E0A8E4B2E48B879C87AD8765
:101ED000BE876B857C858D859E8520E030E04AE756
:101EE00055E40E941F02DC01CB018F839887A987EC
:101EF000BA876F81788589859A8520E030E040E84F
:101F00005FE30E94790388232CF481E090E09E83B4
:101F10008D833FC06F81788589859A8520E03FEF6A
:101F20004FE757E40E94190318164CF56B857C8522
:101F30008D859E8520E030E040E251E40E941F0242
:101F4000DC01CB01BC01CD010E944900DC01CB01C9
:101F50009E838D830FC080E991E09C838B838B816E
:101F60009C810197F1F79C838B838D819E810197E2
:101F70009E838D838D819E81009769F714C06F8148
:101F8000788589859A850E944900DC01CB019E8372
:101F90008D838D819E819A83898389819A8101971E
:101FA000F1F79A8389838F85882F90E0FC01E658AA
:101FB000FD4F80810E94B30A8823A9F38889482FA6
:101FC00050E08F85282F30E0CA01880F991F880FB5
:101FD000991F820F931FFC01EA59FD4F8081898B65
:101FE00089898A8B10C08F858F5F8F878F8584301A
:101FF00008F45BCF88898F5F888B8889843008F4E8
:1020000034CF89898A8B8A8962960FB6F894DEBFAD
:102010000FBECDBFCF91DF910895DF93CF93CDB7A2
:10202000DEB78DE793E00E942C080E94041889E334
:1020300093E00E94A3058AE995E10E9417070E9498
:10204000970A82E063E04FE02FE00E94321083E0C5
:1020500063E04FE02FE00E9432100E945715CF91AD
:10206000DF910895DF93CF9300D000D000D0CDB79B
:10207000DEB78B836C834D832E831A8219828B810A
:10208000809303038D81809304038C8180930503E7
:102090008E818093060386E089830DC08981882F15
:1020A00090E0FC01E750FD4F90818A81890F8A837F
:1020B00089818F5F898389818E3080F38A818093C3
:1020C000080389EF92E00E946E1026960FB6F894EE
:1020D000DEBF0FBECDBFCF91DF910895DF93CF93C9
:1020E000CDB7DEB761970FB6F894DEBF0FBECDBF98
:1020F000998B888B1F868F85282F30E08889998956
:10210000FC01E20FF31F80810E94B3068F858F5F71
:102110008F8780E090E0A8E4B2E48B879C87AD874E
:10212000BE876B857C858D859E8520E030E04AE703
:1021300055E40E941F02DC01CB018F839887A98799
:10214000BA876F81788589859A8520E030E040E8FC
:102150005FE30E94790388232CF481E090E09E8362
:102160008D833FC06F81788589859A8520E03FEF18
:102170004FE757E40E94190318164CF56B857C85D0
:102180008D859E8520E030E040E251E40E941F02F0
:10219000DC01CB01BC01CD010E944900DC01CB0177
:1021A0009E838D830FC080E991E09C838B838B811C
:1021B0009C810197F1F79C838B838D819E81019790
:1021C0009E838D838D819E81009769F714C06F81F6
:1021D000788589859A850E944900DC01CB019E8320
:1021E0008D838D819E819A83898389819A810197CC
:1021F000F1F79A8389838F85803108F47CCF6196CB
:102200000FB6F894DEBF0FBECDBFCF91DF9108951A
:10221000DF93CF93CDB7DEB7A0970FB6F894DEBFAC
:102220000FBECDBF9F8F8E8F68A31D8E8D8D282FE3
:1022300030E08E8D9F8DFC01E20FF31F80810E94A4
:10224000B3068D8D8F5F8D8F80E090E0A8E4B2E4BF
:10225000898F9A8FAB8FBC8F698D7A8D8B8D9C8D7A
:1022600020E030E04AE755E40E941F02DC01CB0188
:102270008D8B9E8BAF8BB88F6D897E898F89988D62
:1022800020E030E040E85FE30E94790388232CF4EB
:1022900081E090E09C8B8B8B3FC06D897E898F891C
:1022A000988D20E03FEF4FE757E40E94190318167E
:1022B0004CF5698D7A8D8B8D9C8D20E030E040E26D
:1022C00051E40E941F02DC01CB01BC01CD010E9440
:1022D0004900DC01CB019C8B8B8B0FC080E991E026
:1022E0009A8B898B89899A890197F1F79A8B898BC7
:1022F0008B899C8901979C8B8B8B8B899C89009700
:1023000069F714C06D897E898F89988D0E94490074
:10231000DC01CB019C8B8B8B8B899C89988B8F8765
:102320008F8598890197F1F7988B8F879D8D88A16C
:10233000981708F47BCF80E090E0AAEFB3E48B8796
:102340009C87AD87BE876B857C858D859E8520E0CB
:1023500030E04AE755E40E941F02DC01CB018F8385
:102360009887A987BA876F81788589859A8520E0C3
:1023700030E040E85FE30E94790388232CF481E099
:1023800090E09E838D833FC06F81788589859A8593
:1023900020E03FEF4FE757E40E94190318164CF571
:1023A0006B857C858D859E8520E030E040E251E4A0
:1023B0000E941F02DC01CB01BC01CD010E9449003B
:1023C000DC01CB019E838D830FC080E991E09C836B
:1023D0008B838B819C810197F1F79C838B838D810B
:1023E0009E8101979E838D838D819E81009769F7E1
:1023F00014C06F81788589859A850E944900DC0127
:10240000CB019E838D838D819E819A83898389816F
:102410009A810197F1F79A838983A0960FB6F89471
:10242000DEBF0FBECDBFCF91DF910895DF93CF9375
:1024300000D000D000D0CDB7DEB78E830E947A12D4
:102440008C838C81882311F581E00E94CC128B83D0
:102450008B818823D9F40E947A128C838C81882303
:10246000A9F482E00E94CC128B838B81882371F4C3
:102470000E940A138A838A81882341F48E810E94F4
:10248000BC1389838981882309F41D828D81269656
:102490000FB6F894DEBF0FBECDBFCF91DF91089588
:1024A000DF93CF9300D000D00F92CDB7DEB70E945C
:1024B0007A128B838B81882391F481E00E94CC1265
:1024C0008A838A81882359F4CE0104960E94FB13E3
:1024D00089838981882319F48C818D8302C08C8142
:1024E0008D838D810F900F900F900F900F90CF9153
:1024F000DF910895DF93CF9300D0CDB7DEB73FC013
:102500000E94D91B80E690E00E949F1A8AE992E01F
:102510006CE00E94081180910F04882361F41982F5
:1025200083E062E04FE02FE00E9432100E945715D6
:1025300089818A832BC080910F04813049F483E024
:1025400061E04FE02FE00E9432100E94571517C043
:1025500080910F04823059F40E94D91B83E061E01E
:102560004FE02FE00E9432100E94571508C083E010
:1025700061E04FE02FE00E9432100E9457158091D9
:102580004D03882309F0BCCF89818A838A810F900B
:102590000F90CF91DF910895DF93CF9300D00F92EA
:1025A000CDB7DEB78A8329C08A81813031F486EACB
:1025B00092E06DE00E94081108C08A81823029F4FF
:1025C00083EB92E06DE00E94081180910F04882354
:1025D00061F4198283E062E04FE02FE00E94321044
:1025E0000E94571589818B830EC083E061E04FE024
:1025F0002FE00E9432100E94571580914E038823CD
:1026000099F689818B838B810F900F900F90CF91DA
:10261000DF910895DF93CF93CDB7DEB760970FB604
:10262000F894DEBF0FBECDBF96C080EC92E06CE0A8
:102630000E94081180910F04882309F084C01F862E
:102640000E94D91B8EE690E00E949F1A80E090E0E5
:10265000AAE7B4E48B879C87AD87BE876B857C85B2
:102660008D859E8520E030E04AE755E40E941F02F8
:10267000DC01CB018F839887A987BA876F81788522
:1026800089859A8520E030E040E85FE30E94790385
:1026900088232CF481E090E09E838D833FC06F817E
:1026A000788589859A8520E03FEF4FE757E40E94BF
:1026B000190318164CF56B857C858D859E8520E069
:1026C00030E040E251E40E941F02DC01CB01BC017A
:1026D000CD010E944900DC01CB019E838D830FC098
:1026E00080E991E09C838B838B819C810197F1F73A
:1026F0009C838B838D819E8101979E838D838D81A9
:102700009E81009769F714C06F81788589859A85C5
:102710000E944900DC01CB019E838D838D819E81C7
:102720009A83898389819A810197F1F79A838983B2
:1027300083E062E04FE02FE00E9432100E945715C4
:102740008F85888B0FC083E061E04FE02FE00E940F
:1027500032100E94571580914F03882309F065CFEE
:102760008F85888B888960960FB6F894DEBF0FBE80
:10277000CDBFCF91DF910895DF93CF9300D00F921B
:10278000CDB7DEB78A832AC08A810E9472158EE394
:1027900093E06FE00E94081180910F04882F90E071
:1027A000A0E0B0E0BC01CD010E94C81A80910F04E6
:1027B000882361F4198283E062E04FE02FE00E94F9
:1027C00032100E94571589818B830EC083E061E02F
:1027D0004FE02FE00E9432100E9457158091500365
:1027E000882391F689818B838B810F900F900F90B6
:1027F000CF91DF910895DF93CF9300D000D0CDB774
:10280000DEB79B838A832EC08CEC92E061E10E944C
:10281000081180910F04882389F419828091110492
:10282000EA81FB81808383E063E04FE02FE00E9438
:1028300032100E94571589818C831AC080910F0431
:10284000893081F489E08983EA81FB81108283E009
:1028500061E04FE02FE00E9432100E9457158981FD
:102860008C8306C080915103882371F689818C8303
:102870008C810F900F900F900F90CF91DF91089562
:10288000DF93CF93CDB7DEB76C970FB6F894DEBF6A
:102890000FBECDBF81E080930504FBC08DED92E0BB
:1028A0006CE00E94081180910F04882309F07DC01C
:1028B0000E94D91B8AE790E00E949F1A0E94571538
:1028C00080E090E0AAE7B4E4898F9A8FAB8FBC8F49
:1028D000698D7A8D8B8D9C8D20E030E04AE755E440
:1028E0000E941F02DC01CB018D8B9E8BAF8BB88FBA
:1028F0006D897E898F89988D20E030E040E85FE324
:102900000E94790388232CF481E090E09C8B8B8BD0
:102910003FC06D897E898F89988D20E03FEF4FE71A
:1029200057E40E94190318164CF5698D7A8D8B8D2A
:102930009C8D20E030E040E251E40E941F02DC0167
:10294000CB01BC01CD010E944900DC01CB019C8B75
:102950008B8B0FC080E991E09A8B898B89899A894A
:102960000197F1F79A8B898B8B899C8901979C8BB6
:102970008B8B8B899C89009769F714C06D897E8940
:102980008F89988D0E944900DC01CB019C8B8B8B39
:102990008B899C89988B8F878F8598890197F1F710
:1029A000988B8F871092050474C00E94571580E0A1
:1029B00090E0AAEFB3E48B879C87AD87BE876B85D9
:1029C0007C858D859E8520E030E04AE755E40E94B5
:1029D0001F02DC01CB018F839887A987BA876F819B
:1029E000788589859A8520E030E040E85FE30E94A1
:1029F000790388232CF481E090E09E838D833FC08F
:102A00006F81788589859A8520E03FEF4FE757E40D
:102A10000E94190318164CF56B857C858D859E8563
:102A200020E030E040E251E40E941F02DC01CB01D3
:102A3000BC01CD010E944900DC01CB019E838D8346
:102A40000FC080E991E09C838B838B819C810197EF
:102A5000F1F79C838B838D819E8101979E838D836B
:102A60008D819E81009769F714C06F817885898573
:102A70009A850E944900DC01CB019E838D838D8164
:102A80009E819A83898389819A810197F1F79A833C
:102A9000898380910504882309F000CF6C960FB6D6
:102AA000F894DEBF0FBECDBFCF91DF910895DF93C5
:102AB000CF930F92CDB7DEB71092040419820BC0EA
:102AC0008981882F90E0FC01EA5FFB4F8AEA8083CE
:102AD00089818F5F898389818E3190F30F90CF91A7
:102AE000DF910895DF93CF9300D00F92CDB7DEB77B
:102AF0008B831A8219828B8180934A0386E08983B3
:102B00000DC08981882F90E0FC01E25CFC4F908130
:102B10008A81890F8A8389818F5F898389818D303A
:102B200080F38A8180934C030F900F900F90CF9188
:102B3000DF9108950F931F93DF93CF93CDB7DEB747
:102B400080910404082F10E00E940D07F801EA5F4D
:102B5000FB4F8083809104048F5F80930404CF91A6
:102B6000DF911F910F910895DF93CF93CDB7DEB71B
:102B70008CE00E946507CF91DF910895DF93CF939A
:102B800000D000D0CDB7DEB79A8389836B830E94D3
:102B900087070E941308883019F081E08C8311C0E8
:102BA00089819A81892F99278E75806A0E94A7074B
:102BB00089810E94A7078B810E94A7070E941E0897
:102BC0001C828C810F900F900F900F90CF91DF910E
:102BD0000895DF93CF9300D000D00F92CDB7DEB72A
:102BE0009A8389837C836B830E9487070E941308E2
:102BF000883019F081E08D8337C089819A81892FCF
:102C000099278E75806A0E94A7070E941308883151
:102C100019F081E08D8328C089810E94A7070E9456
:102C20001308883219F081E08D831EC00E94870747
:102C30000E941308803119F081E08D8315C08981CD
:102C40009A81892F9927816A0E94A7070E941308F9
:102C5000803419F081E08D8307C08B819C810E94B4
:102C6000DE070E941E081D828D810F900F900F902D
:102C70000F900F90CF91DF910895DF93CF93CDB751
:102C8000DEB7AB970FB6F894DEBF0FBECDBF8BA7F4
:102C90008CE060E00E94390B8BA582958F70982F95
:102CA000917084E1692F0E94390B8BA582958695DE
:102CB0008770982F917085E1692F0E94390B8BA541
:102CC0008295869586958370982F917086E1692FFD
:102CD0000E94390B8BA5982F991F9927991F88E17E
:102CE000692F0E94390B8CE061E00E94390B80E073
:102CF00090E0A0E8BFE38FA398A7A9A7BAA76FA108
:102D000078A589A59AA520E030E04AE755E40E941D
:102D10001F02DC01CB018BA39CA3ADA3BEA36BA1BF
:102D20007CA18DA19EA120E030E040E85FE30E94FD
:102D3000790388232CF481E090E09AA389A33FC013
:102D40006BA17CA18DA19EA120E03FEF4FE757E44E
:102D50000E94190318164CF56FA178A589A59AA5AC
:102D600020E030E040E251E40E941F02DC01CB0190
:102D7000BC01CD010E944900DC01CB019AA389A3CB
:102D80000FC080E991E098A38F8F8F8D98A1019754
:102D9000F1F798A38F8F89A19AA101979AA389A38C
:102DA00089A19AA1009769F714C06BA17CA18DA19C
:102DB0009EA10E944900DC01CB019AA389A389A1AD
:102DC0009AA19E8F8D8F8D8D9E8D0197F1F79E8F8D
:102DD0008D8F8CE060E00E94390B8BA5982F91704D
:102DE00084E1692F0E94390B8BA58695982F9170ED
:102DF00085E1692F0E94390B8BA586958695982FC2
:102E0000917086E1692F0E94390B8BA58695869576
:102E10008695982F917088E1692F0E94390B8CE07C
:102E200061E00E94390B80E090E0A0E8BFE3898F69
:102E30009A8FAB8FBC8F698D7A8D8B8D9C8D20E0A6
:102E400030E04AE755E40E941F02DC01CB018D8B84
:102E50009E8BAF8BB88F6D897E898F89988D20E08E
:102E600030E040E85FE30E94790388232CF481E09E
:102E700090E09C8B8B8B3FC06D897E898F89988D6C
:102E800020E03FEF4FE757E40E94190318164CF576
:102E9000698D7A8D8B8D9C8D20E030E040E251E48D
:102EA0000E941F02DC01CB01BC01CD010E94490040
:102EB000DC01CB019C8B8B8B0FC080E991E09A8B5E
:102EC000898B89899A890197F1F79A8B898B8B89EC
:102ED0009C8901979C8B8B8B8B899C89009769F7C8
:102EE00014C06D897E898F89988D0E944900DC010C
:102EF000CB019C8B8B8B8B899C89988B8F878F8543
:102F000098890197F1F7988B8F878CE060E00E9499
:102F1000390B80E090E0A0EFB1E48B879C87AD8710
:102F2000BE876B857C858D859E8520E030E04AE7F5
:102F300055E40E941F02DC01CB018F839887A9878B
:102F4000BA876F81788589859A8520E030E040E8EE
:102F50005FE30E94790388232CF481E090E09E8354
:102F60008D833FC06F81788589859A8520E03FEF0A
:102F70004FE757E40E94190318164CF56B857C85C2
:102F80008D859E8520E030E040E251E40E941F02E2
:102F9000DC01CB01BC01CD010E944900DC01CB0169
:102FA0009E838D830FC080E991E09C838B838B810E
:102FB0009C810197F1F79C838B838D819E81019782
:102FC0009E838D838D819E81009769F714C06F81E8
:102FD000788589859A850E944900DC01CB019E8312
:102FE0008D838D819E819A83898389819A810197BE
:102FF000F1F79A838983AB960FB6F894DEBF0FBEC4
:10300000CDBFCF91DF9108950F931F93DF93CF939F
:10301000CDB7DEB7C654D0400FB6F894DEBF0FBEB2
:10302000CDBFFE01ED5BFF4F80E090E0A6E1B3E491
:1030300080839183A283B3838E01015C1F4FFE01C5
:10304000ED5BFF4F608171818281938120E030E0F0
:103050004AE755E40E941F02DC01CB01F80180839E
:103060009183A283B383FE01FF9660817181828187
:10307000938120E030E040E85FE30E9479038823F9
:103080002CF481E090E09EAF8DAF46C0FE01FF962C
:10309000608171818281938120E03FEF4FE757E4A7
:1030A0000E941903181664F5FE01ED5BFF4F608165
:1030B00071818281938120E030E040E251E40E94FE
:1030C0001F02DC01CB01BC01CD010E944900DC01E3
:1030D000CB019EAF8DAF0FC080E991E09CAF8BAF6D
:1030E0008BAD9CAD0197F1F79CAF8BAF8DAD9EADD5
:1030F00001979EAF8DAF8DAD9EAD009769F716C05D
:10310000FE01FF9660817181828193810E94490056
:10311000DC01CB019EAF8DAF8DAD9EAD9AAF89AF77
:1031200089AD9AAD0197F1F79AAF89AF8DE060E074
:103130000E94390B82E00E948E1A80E090E0A0EAA3
:10314000B0E48DAB9EABAFABB8AF6DA97EA98FA934
:1031500098AD20E030E04AE755E40E941F02DC0110
:10316000CB0189AB9AABABABBCAB69A97AA98BA9F4
:103170009CA920E030E040E85FE30E9479038823C7
:103180002CF481E090E098AB8FA73FC069A97AA9A1
:103190008BA99CA920E03FEF4FE757E40E94190359
:1031A00018164CF56DA97EA98FA998AD20E030E0E6
:1031B00040E251E40E941F02DC01CB01BC01CD01C1
:1031C0000E944900DC01CB0198AB8FA70FC080E9BA
:1031D00091E09EA78DA78DA59EA50197F1F79EA7CB
:1031E0008DA78FA598A9019798AB8FA78FA598A9B0
:1031F000009769F714C069A97AA98BA99CA90E94B4
:103200004900DC01CB0198AB8FA78FA598A99CA79B
:103210008BA78BA59CA50197F1F79CA78BA788E2AC
:103220000E948E1A80E090E0A0EAB0E48FA398A7F5
:10323000A9A7BAA76FA178A589A59AA520E030E033
:103240004AE755E40E941F02DC01CB018BA39CA33B
:10325000ADA3BEA36BA17CA18DA19EA120E030E017
:1032600040E85FE30E94790388232CF481E090E03A
:103270009AA389A33FC06BA17CA18DA19EA120E050
:103280003FEF4FE757E40E94190318164CF56FA162
:1032900078A589A59AA520E030E040E251E40E949B
:1032A0001F02DC01CB01BC01CD010E944900DC0101
:1032B000CB019AA389A30FC080E991E098A38F8FD7
:1032C0008F8D98A10197F1F798A38F8F89A19AA16B
:1032D00001979AA389A389A19AA1009769F714C0BD
:1032E0006BA17CA18DA19EA10E944900DC01CB01B4
:1032F0009AA389A389A19AA19E8F8D8F8D8D9E8D72
:103300000197F1F79E8F8D8F8CE00E948E1A80E0DE
:1033100090E0A0EAB0E4898F9A8FAB8FBC8F698D63
:103320007A8D8B8D9C8D20E030E04AE755E40E9439
:103330001F02DC01CB018D8B9E8BAF8BB88F6D890B
:103340007E898F89988D20E030E040E85FE30E941D
:10335000790388232CF481E090E09C8B8B8B3FC019
:103360006D897E898F89988D20E03FEF4FE757E484
:103370000E94190318164CF5698D7A8D8B8D9C8DE2
:1033800020E030E040E251E40E941F02DC01CB016A
:10339000BC01CD010E944900DC01CB019C8B8B8BD1
:1033A0000FC080E991E09A8B898B89899A8901976E
:1033B000F1F79A8B898B8B899C8901979C8B8B8BDE
:1033C0008B899C89009769F714C06D897E898F89E4
:1033D000988D0E944900DC01CB019C8B8B8B8B89E3
:1033E0009C89988B8F878F8598890197F1F7988BA7
:1033F0008F8781E00E948E1A80E090E0A0EAB0E41E
:103400008B879C87AD87BE876B857C858D859E85E8
:1034100020E030E04AE755E40E941F02DC01CB01C6
:103420008F839887A987BA876F81788589859A85E0
:1034300020E030E040E85FE30E94790388232CF429
:1034400081E090E09E838D833FC06F817885898580
:103450009A8520E03FEF4FE757E40E9419031816C2
:103460004CF56B857C858D859E8520E030E040E2C3
:1034700051E40E941F02DC01CB01BC01CD010E947E
:103480004900DC01CB019E838D830FC080E991E070
:103490009C838B838B819C810197F1F79C838B8329
:1034A0008D819E8101979E838D838D819E81009762
:1034B00069F714C06F81788589859A850E944900D3
:1034C000DC01CB019E838D838D819E819A838983CC
:1034D00089819A810197F1F79A83898386E00E9416
:1034E0008E1ACA5BDF4F0FB6F894DEBF0FBECDBF9A
:1034F000CF91DF911F910F910895DF93CF930F929A
:10350000CDB7DEB789838DE061E00E94390B8981F8
:103510000E943D160F90CF91DF910895DF93CF93D6
:103520000F92CDB7DEB789838DE060E00E94390B42
:1035300089810E943D160F90CF91DF910895DF930E
:10354000CF9300D00F92CDB7DEB79B838A831982C9
:103550000EC08981282F30E08A819B81FC01E20F17
:10356000F31F80810E947D1A89818F5F8983898101
:10357000282F30E08A819B81FC01E20FF31F8081BC
:10358000882339F70F900F900F90CF91DF91089516
:103590000F931F93DF93CF93CDB7DEB7A5970FB6E9
:1035A000F894DEBF0FBECDBF6AA37BA38CA39DA3FF
:1035B00080E2FE013296DF01982F1D929A95E9F77D
:1035C00019828AA19BA1ACA1BDA1BB230CF04AC06A
:1035D0008AA19BA1ACA1BDA1B095A0959095819524
:1035E0009F4FAF4FBF4F8AA39BA3ACA3BDA38DE258
:1035F0000E947D1A37C08981082F10E08AA19BA103
:10360000ACA1BDA12AE030E040E050E0BC01CD011A
:103610000E94A92EDC01CB01AC01BD019801220F53
:10362000331F220F331FCE010196820F931FFC011F
:10363000319640835183628373838AA19BA1ACA19D
:10364000BDA12AE030E040E050E0BC01CD010E9485
:10365000A92EDA01C9018AA39BA3ACA3BDA38981CA
:103660008F5F89838AA19BA1ACA1BDA10097A10511
:10367000B10509F689818150898318C08981882F15
:1036800090E09C01220F331F220F331FCE010196C1
:10369000820F931FFC01319680819181A281B381B9
:1036A000805D0E947D1A8981815089838981803360
:1036B00028F3A5960FB6F894DEBF0FBECDBFCF910D
:1036C000DF911F910F910895DF93CF9300D00F9258
:1036D000CDB7DEB78A836B838A81813019F48B8101
:1036E000898314C08A81823021F48B81805C898334
:1036F0000DC08A81833021F48B818C5E898306C062
:103700008A81843019F48B818C5A8983898180580D
:103710000E948E1A0F900F900F90CF91DF91089515
:10372000DF93CF9300D000D00F92CDB7DEB79C834C
:103730008B836D831A8219828D81882F90E0880F88
:10374000991F880F991F880F991F89838981805C31
:103750000E948E1A1A820EC08A81282F30E08B8137
:103760009C81FC01E20FF31F80810E947D1A8A81F7
:103770008F5F8A838A81883078F381E060E00E94DD
:10378000641B8D810E947D1A0F900F900F900F90F7
:103790000F90CF91DF910895DF93CF930F92CDB724
:1037A000DEB7898389810E947D1A0F90CF91DF91C6
:1037B0000895DF93CF93CDB7DEB781E00E948E1AD4
:1037C000CF91DF910895DF93CF93CDB7DEB784E239
:1037D00061E00E94390BCF91DF910895DF93CF9381
:1037E000CDB7DEB784E260E00E94390BCF91DF9164
:1037F0000895DF93CF93CDB7DEB7AA970FB6F894AD
:10380000DEBF0FBECDBF8DE793E00E942C080E9463
:1038100004180E94B41580E090E0A8E4B3E48FA3FC
:1038200098A7A9A7BAA76FA178A589A59AA520E00E
:1038300030E04AE755E40E941F02DC01CB018BA374
:103840009CA3ADA3BEA36BA17CA18DA19EA120E0F2
:1038500030E040E85FE30E94790388232CF481E0A4
:1038600090E09AA389A33FC06BA17CA18DA19EA1EA
:1038700020E03FEF4FE757E40E94190318164CF57C
:103880006FA178A589A59AA520E030E040E251E437
:103890000E941F02DC01CB01BC01CD010E94490046
:1038A000DC01CB019AA389A30FC080E991E098A322
:1038B0008F8F8F8D98A10197F1F798A38F8F89A192
:1038C0009AA101979AA389A389A19AA1009769F760
:1038D00014C06BA17CA18DA19EA10E944900DC01B6
:1038E000CB019AA389A389A19AA19E8F8D8F8D8DDB
:1038F0009E8D0197F1F79E8F8D8F0E94A30D80E022
:1039000090E0A8E4B3E4898F9A8FAB8FBC8F698D68
:103910007A8D8B8D9C8D20E030E04AE755E40E9443
:103920001F02DC01CB018D8B9E8BAF8BB88F6D8915
:103930007E898F89988D20E030E040E85FE30E9427
:10394000790388232CF481E090E09C8B8B8B3FC023
:103950006D897E898F89988D20E03FEF4FE757E48E
:103960000E94190318164CF5698D7A8D8B8D9C8DEC
:1039700020E030E040E251E40E941F02DC01CB0174
:10398000BC01CD010E944900DC01CB019C8B8B8BDB
:103990000FC080E991E09A8B898B89899A89019778
:1039A000F1F79A8B898B8B899C8901979C8B8B8BE8
:1039B0008B899C89009769F714C06D897E898F89EE
:1039C000988D0E944900DC01CB019C8B8B8B8B89ED
:1039D0009C89988B8F878F8598890197F1F7988BB1
:1039E0008F870E940D1080E160E00E94390B8EE805
:1039F00090E00E949F1A82E065E00E94641B83EAC7
:103A000090E00E949F1A83E062E00E94641B8FEAAC
:103A100090E00E949F1A84E060E00E94641B8EE8A0
:103A200090E00E949F1A80E090E4ACE9B5E48B87B7
:103A30009C87AD87BE876B857C858D859E8520E0C4
:103A400030E04AE755E40E941F02DC01CB018F837E
:103A50009887A987BA876F81788589859A8520E0BC
:103A600030E040E85FE30E94790388232CF481E092
:103A700090E09E838D833FC06F81788589859A858C
:103A800020E03FEF4FE757E40E94190318164CF56A
:103A90006B857C858D859E8520E030E040E251E499
:103AA0000E941F02DC01CB01BC01CD010E94490034
:103AB000DC01CB019E838D830FC080E991E09C8364
:103AC0008B838B819C810197F1F79C838B838D8104
:103AD0009E8101979E838D838D819E81009769F7DA
:103AE00014C06F81788589859A850E944900DC0120
:103AF000CB019E838D838D819E819A838983898169
:103B00009A810197F1F79A838983AA960FB6F89460
:103B1000DEBF0FBECDBFCF91DF910895DF93CF936E
:103B2000CDB7DEB7AF970FB6F894DEBF0FBECDBFEF
:103B30001DA61CA61BA60E94D91B0E94202A0E941B
:103B4000280F8DA78DA58823D1F38DA5282F30E0D0
:103B50003FA72EA78EA59FA58233910559F02EA5CC
:103B60003FA52333310579F08EA59FA581339105BB
:103B700031F080C082E08CA70E9421207DC00E948D
:103B80005E1F8CA779C083E38CA70E940F2D80E075
:103B900090E0A8E4B3E48FA398A7A9A7BAA76FA160
:103BA00078A589A59AA520E030E04AE755E40E946F
:103BB0001F02DC01CB018BA39CA3ADA3BEA36BA111
:103BC0007CA18DA19EA120E030E040E85FE30E944F
:103BD000790388232CF481E090E09AA389A33FC065
:103BE0006BA17CA18DA19EA120E03FEF4FE757E4A0
:103BF0000E94190318164CF56FA178A589A59AA5FE
:103C000020E030E040E251E40E941F02DC01CB01E1
:103C1000BC01CD010E944900DC01CB019AA389A31C
:103C20000FC080E991E098A38F8F8F8D98A10197A5
:103C3000F1F798A38F8F89A19AA101979AA389A3DD
:103C400089A19AA1009769F717C06BA17CA18DA1EA
:103C50009EA10E944900DC01CB019AA389A389A1FE
:103C60009AA19E8F8D8F8D8D9E8D0197F1F79E8FDE
:103C70008D8F02C084E68CA70E94D91B8CA5813051
:103C800039F481EC90E00E949F1A0E946C220DC1D1
:103C90008CA5882309F009C181E060E00E94641BC3
:103CA0008DEC90E00E949F1A80E090E0AAE7B4E4D7
:103CB000898F9A8FAB8FBC8F698D7A8D8B8D9C8D00
:103CC00020E030E04AE755E40E941F02DC01CB010E
:103CD0008D8B9E8BAF8BB88F6D897E898F89988DE8
:103CE00020E030E040E85FE30E94790388232CF471
:103CF00081E090E09C8B8B8B3FC06D897E898F89A2
:103D0000988D20E03FEF4FE757E40E941903181603
:103D10004CF5698D7A8D8B8D9C8D20E030E040E2F2
:103D200051E40E941F02DC01CB01BC01CD010E94C5
:103D30004900DC01CB019C8B8B8B0FC080E991E0AB
:103D40009A8B898B89899A890197F1F79A8B898B4C
:103D50008B899C8901979C8B8B8B8B899C89009785
:103D600069F714C06D897E898F89988D0E944900FA
:103D7000DC01CB019C8B8B8B8B899C89988B8F87EB
:103D80008F8598890197F1F7988B8F870E947C29FE
:103D90008BA70E94D91B8BA5813009F079C081ECDB
:103DA00090E00E949F1A80E090E0AAEFB4E48B8735
:103DB0009C87AD87BE876B857C858D859E8520E041
:103DC00030E04AE755E40E941F02DC01CB018F83FB
:103DD0009887A987BA876F81788589859A8520E039
:103DE00030E040E85FE30E94790388232CF481E00F
:103DF00090E09E838D833FC06F81788589859A8509
:103E000020E03FEF4FE757E40E94190318164CF5E6
:103E10006B857C858D859E8520E030E040E251E415
:103E20000E941F02DC01CB01BC01CD010E944900B0
:103E3000DC01CB019E838D830FC080E991E09C83E0
:103E40008B838B819C810197F1F79C838B838D8180
:103E50009E8101979E838D838D819E81009769F756
:103E600014C06F81788589859A850E944900DC019C
:103E7000CB019E838D838D819E819A8389838981E5
:103E80009A810197F1F79A8389830E946C220BC073
:103E900080912404823011F40E94852780912404AB
:103EA000823009F0F9CE10922404AF960FB6F89440
:103EB000DEBF0FBECDBFCF91DF910895DF93CF93CB
:103EC000CDB7DEB765970FB6F894DEBF0FBECDBF96
:103ED000188A198A1A8A1B8A1C8A1F860E94501205
:103EE0008F878F85882309F496C00E94D91B8BED9C
:103EF00090E00E949F1A8F85805D0E947D1A80E06D
:103F000090E0AAEFB4E48B879C87AD87BE876B8572
:103F10007C858D859E8520E030E04AE755E40E944F
:103F20001F02DC01CB018F839887A987BA876F8135
:103F3000788589859A8520E030E040E85FE30E943B
:103F4000790388232CF481E090E09E838D833FC029
:103F50006F81788589859A8520E03FEF4FE757E4A8
:103F60000E94190318164CF56B857C858D859E85FE
:103F700020E030E040E251E40E941F02DC01CB016E
:103F8000BC01CD010E944900DC01CB019E838D83E1
:103F90000FC080E991E09C838B838B819C8101978A
:103FA000F1F79C838B838D819E8101979E838D8306
:103FB0008D819E81009769F714C06F81788589850E
:103FC0009A850E944900DC01CB019E838D838D81FF
:103FD0009E819A83898389819A810197F1F79A83D7
:103FE00089830E94D91B84EE90E00E949F1A82E090
:103FF00060E00E94641BCE0141960E941C2B0E942F
:10400000D91BCE01419661E00E94472A888B88899E
:10401000813049F00BC00E94D91B84EF90E00E94D0
:104020009F1A1D8A04C081E08D8B01C01D8A8D8975
:1040300065960FB6F894DEBF0FBECDBFCF91DF916E
:104040000895DF93CF93CDB7DEB7EF970FB6F8940F
:10405000DEBF0FBECDBF1BAE1CAE1DAE1EAE1FAE73
:1040600081E08AAF19AE0E94D91B81E060E00E9416
:10407000641B86E091E00E949F1A82E060E00E944B
:10408000641B84E191E00E949F1A83E061E00E943A
:10409000641BCE01CB960E941C2BCE01CB966AAD41
:1040A0000E94472A89AF8AE291E00E949F1A80E02D
:1040B00090E0AAE7B4E48DAB9EABAFABB8AF6DA90F
:1040C0007EA98FA998AD20E030E04AE755E40E9430
:1040D0001F02DC01CB0189AB9AABABABBCAB69A9CE
:1040E0007AA98BA99CA920E030E040E85FE30E9418
:1040F000790388232CF481E090E098AB8FA73FC030
:1041000069A97AA98BA99CA920E03FEF4FE757E462
:104110000E94190318164CF56DA97EA98FA998ADB8
:1041200020E030E040E251E40E941F02DC01CB01BC
:10413000BC01CD010E944900DC01CB0198AB8FA7E7
:104140000FC080E991E09EA78DA78DA59EA5019740
:10415000F1F79EA78DA78FA598A9019798AB8FA778
:104160008FA598A9009769F714C069A97AA98BA9A6
:104170009CA90E944900DC01CB0198AB8FA78FA5B9
:1041800098A99CA78BA78BA59CA50197F1F79CA745
:104190008BA789AD813021F483E089AF1AAE07C0C7
:1041A0008AAD8F5F8AAF8AAD833008F476CF0E94E4
:1041B000D91B8AAD882309F477C08CE291E00E9474
:1041C0009F1A80E090E0AAE7B4E48FA398A7A9A77C
:1041D000BAA76FA178A589A59AA520E030E04AE7A3
:1041E00055E40E941F02DC01CB018BA39CA3ADA36D
:1041F000BEA36BA17CA18DA19EA120E030E040E890
:104200005FE30E94790388232CF481E090E09AA375
:1042100089A33FC06BA17CA18DA19EA120E03FEFAF
:104220004FE757E40E94190318164CF56FA178A5C3
:1042300089A59AA520E030E040E251E40E941F02E7
:10424000DC01CB01BC01CD010E944900DC01CB01A6
:104250009AA389A30FC080E991E098A38F8F8F8DD7
:1042600098A10197F1F798A38F8F89A19AA101973F
:104270009AA389A389A19AA1009769F724C16BA188
:104280007CA18DA19EA10E944900DC01CB019AA3D3
:1042900089A389A19AA19E8F8D8F8D8D9E8D019767
:1042A000F1F79E8F8D8F0FC181E060E00E94641B4B
:1042B0008FE391E00E949F1A80E090E0AAE7B4E4C7
:1042C000898F9A8FAB8FBC8F698D7A8D8B8D9C8DEA
:1042D00020E030E04AE755E40E941F02DC01CB01F8
:1042E0008D8B9E8BAF8BB88F6D897E898F89988DD2
:1042F00020E030E040E85FE30E94790388232CF45B
:1043000081E090E09C8B8B8B3FC06D897E898F898B
:10431000988D20E03FEF4FE757E40E9419031816ED
:104320004CF5698D7A8D8B8D9C8D20E030E040E2DC
:1043300051E40E941F02DC01CB01BC01CD010E94AF
:104340004900DC01CB019C8B8B8B0FC080E991E095
:104350009A8B898B89899A890197F1F79A8B898B36
:104360008B899C8901979C8B8B8B8B899C8900976F
:1043700069F714C06D897E898F89988D0E944900E4
:10438000DC01CB019C8B8B8B8B899C89988B8F87D5
:104390008F8598890197F1F7988B8F879E01215C13
:1043A0003F4F8FEF90E0B9010E94E91580E090E067
:1043B000A8E4B3E48B879C87AD87BE876B857C853B
:1043C0008D859E8520E030E04AE755E40E941F027B
:1043D000DC01CB018F839887A987BA876F817885A5
:1043E00089859A8520E030E040E85FE30E94790308
:1043F00088232CF481E090E09E838D833FC06F8101
:10440000788589859A8520E03FEF4FE757E40E9441
:10441000190318164CF56B857C858D859E8520E0EB
:1044200030E040E251E40E941F02DC01CB01BC01FC
:10443000CD010E944900DC01CB019E838D830FC01A
:1044400080E991E09C838B838B819C810197F1F7BC
:104450009C838B838D819E8101979E838D838D812B
:104460009E81009769F714C06F81788589859A8548
:104470000E944900DC01CB019E838D838D819E814A
:104480009A83898389819A810197F1F79A83898335
:104490008FAD0E9416120E94D91B82E591E00E9406
:1044A0009F1A82E060E00E94641BCE01CB960E94BE
:1044B0001C2B0E94D91B2FADCE01CB96622F0E94E0
:1044C0004E2B0E94D91BEF960FB6F894DEBF0FBE9D
:1044D000CDBFCF91DF910895DF93CF93CDB7DEB7F6
:1044E0006C970FB6F894DEBF0FBECDBF81E00E947F
:1044F000570D80E161E00E94390B81E060E00E948D
:10450000641B88E691E00E949F1A82E060E00E94AE
:10451000641B8EE791E00E949F1A83E060E00E9496
:10452000641B0E94BD2580E090E8ABE3B5E4898F71
:104530009A8FAB8FBC8F698D7A8D8B8D9C8D20E08F
:1045400030E04AE755E40E941F02DC01CB018D8B6D
:104550009E8BAF8BB88F6D897E898F89988D20E077
:1045600030E040E85FE30E94790388232CF481E087
:1045700090E09C8B8B8B3FC06D897E898F89988D55
:1045800020E03FEF4FE757E40E94190318164CF55F
:10459000698D7A8D8B8D9C8D20E030E040E251E476
:1045A0000E941F02DC01CB01BC01CD010E94490029
:1045B000DC01CB019C8B8B8B0FC080E991E09A8B47
:1045C000898B89899A890197F1F79A8B898B8B89D5
:1045D0009C8901979C8B8B8B8B899C89009769F7B1
:1045E00014C06D897E898F89988D0E944900DC01F5
:1045F000CB019C8B8B8B8B899C89988B8F878F852C
:1046000098890197F1F7988B8F870E94D91B0E9498
:104610008D2380E090E4ACE9B5E48B879C87AD877F
:10462000BE876B857C858D859E8520E030E04AE7DE
:1046300055E40E941F02DC01CB018F839887A98774
:10464000BA876F81788589859A8520E030E040E8D7
:104650005FE30E94790388232CF481E090E09E833D
:104660008D833FC06F81788589859A8520E03FEFF3
:104670004FE757E40E94190318164CF56B857C85AB
:104680008D859E8520E030E040E251E40E941F02CB
:10469000DC01CB01BC01CD010E944900DC01CB0152
:1046A0009E838D830FC080E991E09C838B838B81F7
:1046B0009C810197F1F79C838B838D819E8101976B
:1046C0009E838D838D819E81009769F714C06F81D1
:1046D000788589859A850E944900DC01CB019E83FB
:1046E0008D838D819E819A83898389819A810197A7
:1046F000F1F79A83898381E00E947D0D0E94D91B86
:1047000080E160E00E94390B6C960FB6F894DEBF32
:104710000FBECDBFCF91DF910895FF920F931F93EE
:10472000DF93CF93CDB7DEB7C254D0400FB6F89425
:10473000DEBF0FBECDBF1E8E1D8E0E94610E6FA705
:1047400078AB89ABCE0185969DAB8CABFE01BF9655
:10475000FFABEEABF3E0F8AFEEA9FFA900808EA9A6
:104760009FA901969FAB8EABECA9FDA900828CA9F5
:104770009DA901969DAB8CAB98AD915098AFE8ADDB
:10478000EE2351F7FDA1FBAB0E94610E6FA778AB42
:1047900089ABCE0182969AAF89AFFE01BF96FCAF7E
:1047A000EBAFF3E0FDAFEBADFCAD00808BAD9CADAE
:1047B00001969CAF8BAFE9ADFAAD008289AD9AADA1
:1047C00001969AAF89AF9DAD91509DAFEDADEE23AF
:1047D00051F7FBA1FAAB0E94610E6FA778AB89ABD2
:1047E000CE014F969FAF8EAFFE01BF962296FFAFD0
:1047F000EEAF2297F3E02396FFAF23972296EEAD1C
:10480000FFAD2297008022968EAD9FAD2297019634
:1048100022969FAF8EAF2297EEADFFAD00828EAD98
:104820009FAD01969FAF8EAF23969FAD239791507A
:1048300023969FAF23972396EFAD2397EE23F1F6B0
:1048400089A1FBA9F8A79AA999A78AA70E94E90DAF
:10485000DC01CB01F82E0E94E90DDC01CB01192F00
:104860000E94E90DDC01CB010A2F0E94E90DDC0159
:10487000CB018B2FFBA61CA70DA78EA782E060E0C3
:104880000E94641B8EE891E00E949F1A88E18D8F40
:104890001E8E9CC08E8D282F30E0CE018896FC01A4
:1048A000E20FF31F8081882F90E0A0E0B0E0BC0110
:1048B000CD010E94C81A8D8D482F50E08E8D282F73
:1048C00030E0CE018896FC01E20FF31F2081CA017F
:1048D000622F0E94BE158FE20E947D1A80E090E058
:1048E000A8E4B3E4898F9A8FAB8FBC8F698D7A8DE2
:1048F0008B8D9C8D20E030E04AE755E40E941F023A
:10490000DC01CB018D8B9E8BAF8BB88F6D897E893F
:104910008F89988D20E030E040E85FE30E947903C2
:1049200088232CF481E090E09C8B8B8B3FC06D89B9
:104930007E898F89988D20E03FEF4FE757E40E94F2
:10494000190318164CF5698D7A8D8B8D9C8D20E09E
:1049500030E040E251E40E941F02DC01CB01BC01C7
:10496000CD010E944900DC01CB019C8B8B8B0FC0D9
:1049700080E991E09A8B898B89899A890197F1F76F
:104980009A8B898B8B899C8901979C8B8B8B8B89CC
:104990009C89009769F714C06D897E898F89988DED
:1049A0000E944900DC01CB019C8B8B8B8B899C89FD
:1049B000988B8F878F8598890197F1F7988B8F87D0
:1049C0008D8D8F5F8D8F8E8D8F5F8E8F8E8D8330CF
:1049D00008F460CF83E060E00E94641B89E991E005
:1049E0000E949F1A84E18D8F1E8E9FC08E8D833012
:1049F000A1F08E8D282F30E0CE018B96FC01E20FC6
:104A0000F31F8081882F90E0A0E0B0E0BC01CD01D1
:104A10000E94C81A8AE30E947D1A8D8D482F50E0AB
:104A20008E8D282F30E0CE018B96FC01E20FF31F14
:104A30002081CA01622F0E94BE1580E090E0A8E4A8
:104A4000B3E48B879C87AD87BE876B857C858D851E
:104A50009E8520E030E04AE755E40E941F02DC0119
:104A6000CB018F839887A987BA876F8178858985DD
:104A70009A8520E030E040E85FE30E9479038823D4
:104A80002CF481E090E09E838D833FC06F81788518
:104A900089859A8520E03FEF4FE757E40E9419038C
:104AA00018164CF56B857C858D859E8520E030E061
:104AB00040E251E40E941F02DC01CB01BC01CD01A8
:104AC0000E944900DC01CB019E838D830FC080E9E9
:104AD00091E09C838B838B819C810197F1F79C8370
:104AE0008B838D819E8101979E838D838D819E8195
:104AF000009769F714C06F81788589859A850E942F
:104B00004900DC01CB019E838D838D819E819A8338
:104B1000898389819A810197F1F79A8389838D8DA1
:104B20008F5F8D8F8E8D8F5F8E8F8E8D843008F48A
:104B30005DCF0E94E90DDC01CB018B2F883229F477
:104B400083EA91E00E949F1A0BC00E94E90DDC01EC
:104B5000CB018B2F8C3321F487EA91E00E949F1ABE
:104B6000CE5BDF4F0FB6F894DEBF0FBECDBFCF9147
:104B7000DF911F910F91FF900895DF93CF93CDB7F1
:104B8000DEB7AC970FB6F894DEBF0FBECDBF1BA645
:104B900083E060E00E94641B80E090E0A8E4B3E45E
:104BA0008FA398A7A9A7BAA76FA178A589A59AA549
:104BB00020E030E04AE755E40E941F02DC01CB010F
:104BC0008BA39CA3ADA3BEA36BA17CA18DA19EA131
:104BD00020E030E040E85FE30E94790388232CF472
:104BE00081E090E09AA389A33FC06BA17CA18DA135
:104BF0009EA120E03FEF4FE757E40E9419031816EB
:104C00004CF56FA178A589A59AA520E030E040E297
:104C100051E40E941F02DC01CB01BC01CD010E94C6
:104C20004900DC01CB019AA389A30FC080E991E080
:104C300098A38F8F8F8D98A10197F1F798A38F8FED
:104C400089A19AA101979AA389A389A19AA1009702
:104C500069F714C06BA17CA18DA19EA10E9449009F
:104C6000DC01CB019AA389A389A19AA19E8F8D8F84
:104C70008D8D9E8D0197F1F79E8F8D8F83E060E083
:104C80000E94641B88E18BA78AC08BA5882F90E0C7
:104C90009E01245D3F4FB9010E94E9158CA5882F24
:104CA00090E0A0E0B0E0BC01CD010E94C81A8FE204
:104CB0000E947D1A80E090E0A8E4B3E4898F9A8F87
:104CC000AB8FBC8F698D7A8D8B8D9C8D20E030E011
:104CD0004AE755E40E941F02DC01CB018D8B9E8BBD
:104CE000AF8BB88F6D897E898F89988D20E030E0F9
:104CF00040E85FE30E94790388232CF481E090E090
:104D00009C8B8B8B3FC06D897E898F89988D20E02D
:104D10003FEF4FE757E40E94190318164CF5698DD1
:104D20007A8D8B8D9C8D20E030E040E251E40E9432
:104D30001F02DC01CB01BC01CD010E944900DC0156
:104D4000CB019C8B8B8B0FC080E991E09A8B898B78
:104D500089899A890197F1F79A8B898B8B899C892C
:104D600001979C8B8B8B8B899C89009769F714C06A
:104D70006D897E898F89988D0E944900DC01CB0165
:104D80009C8B8B8B8B899C89988B8F878F8598893F
:104D90000197F1F7988B8F878BA58F5F8BA78BA5DA
:104DA0008B3108F472CF84E060E00E94641B84E1E0
:104DB0008BA78AC08BA5882F90E09E01245D3F4F72
:104DC000B9010E94E9158CA5882F90E0A0E0B0E021
:104DD000BC01CD010E94C81A8AE30E947D1A80E0BE
:104DE00090E0A8E4B3E48B879C87AD87BE876B8592
:104DF0007C858D859E8520E030E04AE755E40E9461
:104E00001F02DC01CB018F839887A987BA876F8146
:104E1000788589859A8520E030E040E85FE30E944C
:104E2000790388232CF481E090E09E838D833FC03A
:104E30006F81788589859A8520E03FEF4FE757E4B9
:104E40000E94190318164CF56B857C858D859E850F
:104E500020E030E040E251E40E941F02DC01CB017F
:104E6000BC01CD010E944900DC01CB019E838D83F2
:104E70000FC080E991E09C838B838B819C8101979B
:104E8000F1F79C838B838D819E8101979E838D8317
:104E90008D819E81009769F714C06F81788589851F
:104EA0009A850E944900DC01CB019E838D838D8110
:104EB0009E819A83898389819A810197F1F79A83E8
:104EC00089838BA58F5F8BA78BA5873108F472CF61
:104ED0009E01245D3F4F87E190E0B9010E94E915F2
:104EE0008CA58C3329F487EA91E00E949F1A04C0B4
:104EF00083EA91E00E949F1AAC960FB6F894DEBF49
:104F00000FBECDBFCF91DF910895DF93CF93CDB783
:104F1000DEB7E9970FB6F894DEBF0FBECDBF19AE6E
:104F20008BEA91E00E949F1A0E94E31B0E94E31B00
:104F300080E090E0AAE7B3E48DAB9EABAFABB8AF37
:104F40006DA97EA98FA998AD20E030E04AE755E42D
:104F50000E941F02DC01CB0189AB9AABABABBCABAF
:104F600069A97AA98BA99CA920E030E040E85FE319
:104F70000E94790388232CF481E090E098AB8FA7FE
:104F80003FC069A97AA98BA99CA920E03FEF4FE710
:104F900057E40E94190318164CF56DA97EA98FA934
:104FA00098AD20E030E040E251E40E941F02DC01B5
:104FB000CB01BC01CD010E944900DC01CB0198ABC3
:104FC0008FA70FC080E991E09EA78DA78DA59EA514
:104FD0000197F1F79EA78DA78FA598A9019798AB88
:104FE0008FA78FA598A9009769F714C069A97AA916
:104FF0008BA99CA90E944900DC01CB0198AB8FA72B
:105000008FA598A99CA78BA78BA59CA50197F1F7C5
:105010009CA78BA70E94EE1B80E090E0AAE7B3E478
:105020008FA398A7A9A7BAA76FA178A589A59AA5C4
:1050300020E030E04AE755E40E941F02DC01CB018A
:105040008BA39CA3ADA3BEA36BA17CA18DA19EA1AC
:1050500020E030E040E85FE30E94790388232CF4ED
:1050600081E090E09AA389A33FC06BA17CA18DA1B0
:105070009EA120E03FEF4FE757E40E941903181666
:105080004CF56FA178A589A59AA520E030E040E213
:1050900051E40E941F02DC01CB01BC01CD010E9442
:1050A0004900DC01CB019AA389A30FC080E991E0FC
:1050B00098A38F8F8F8D98A10197F1F798A38F8F69
:1050C00089A19AA101979AA389A389A19AA100977E
:1050D00069F714C06BA17CA18DA19EA10E9449001B
:1050E000DC01CB019AA389A389A19AA19E8F8D8F00
:1050F0008D8D9E8D0197F1F79E8F8D8F0E94E31B02
:1051000080E090E0A8E4B4E4898F9A8FAB8FBC8FE5
:10511000698D7A8D8B8D9C8D20E030E04AE755E4D7
:105120000E941F02DC01CB018D8B9E8BAF8BB88F51
:105130006D897E898F89988D20E030E040E85FE3BB
:105140000E94790388232CF481E090E09C8B8B8B68
:105150003FC06D897E898F89988D20E03FEF4FE7B2
:1051600057E40E94190318164CF5698D7A8D8B8DC2
:105170009C8D20E030E040E251E40E941F02DC01FF
:10518000CB01BC01CD010E944900DC01CB019C8B0D
:105190008B8B0FC080E991E09A8B898B89899A89E2
:1051A0000197F1F79A8B898B8B899C8901979C8B4E
:1051B0008B8B8B899C89009769F714C06D897E89D8
:1051C0008F89988D0E944900DC01CB019C8B8B8BD1
:1051D0008B899C89988B8F878F8598890197F1F7A8
:1051E000988B8F870E94EE1B80E090E0AAE7B3E4E3
:1051F0008B879C87AD87BE876B857C858D859E85DB
:1052000020E030E04AE755E40E941F02DC01CB01B8
:105210008F839887A987BA876F81788589859A85D2
:1052200020E030E040E85FE30E94790388232CF41B
:1052300081E090E09E838D833FC06F817885898572
:105240009A8520E03FEF4FE757E40E9419031816B4
:105250004CF56B857C858D859E8520E030E040E2B5
:1052600051E40E941F02DC01CB01BC01CD010E9470
:105270004900DC01CB019E838D830FC080E991E062
:105280009C838B838B819C810197F1F79C838B831B
:105290008D819E8101979E838D838D819E81009754
:1052A00069F714C06F81788589859A850E944900C5
:1052B000DC01CB019E838D838D819E819A838983BE
:1052C00089819A810197F1F79A83898389AD8F5FEC
:1052D00089AF89AD8A3009F029CE0E94EE1B0E9469
:1052E000D91B0E94A50AE9960FB6F894DEBF0FBE3F
:1052F000CDBFCF91DF910895DF93CF93CDB7DEB7C8
:1053000060970FB6F894DEBF0FBECDBF81E0888BEB
:105310001F86809124048F5F8093240482E060E0E4
:105320000E94641B87EB91E00E949F1A80E090E04E
:10533000AAE7B4E48B879C87AD87BE876B857C85A5
:105340008D859E8520E030E04AE755E40E941F02EB
:10535000DC01CB018F839887A987BA876F81788515
:1053600089859A8520E030E040E85FE30E94790378
:1053700088232CF481E090E09E838D833FC06F8171
:10538000788589859A8520E03FEF4FE757E40E94B2
:10539000190318164CF56B857C858D859E8520E05C
:1053A00030E040E251E40E941F02DC01CB01BC016D
:1053B000CD010E944900DC01CB019E838D830FC08B
:1053C00080E991E09C838B838B819C810197F1F72D
:1053D0009C838B838D819E8101979E838D838D819C
:1053E0009E81009769F714C06F81788589859A85B9
:1053F0000E944900DC01CB019E838D838D819E81BB
:105400009A83898389819A810197F1F79A838983A5
:105410000E945E1F8F870E94D91B8F85813011F4F7
:1054200081E0888B8F85882309F4188A88896096A3
:105430000FB6F894DEBF0FBECDBFCF91DF910895B8
:10544000DF93CF93CDB7DEB781E060E00E94641BAD
:1054500088EC91E00E949F1A82E060E00E94641B49
:105460008CED91E00E949F1A83E060E00E94641B33
:105470008AEE91E00E949F1A84E060E00E94641B23
:105480008EEF91E00E949F1ACF91DF910895DF93F4
:10549000CF93CDB7DEB767970FB6F894DEBF0FBED8
:1054A000CDBF9B8B8A8B6C8B188A1F86198A8C893F
:1054B000282F30E03F8B2E8B8E899F89813091057C
:1054C00031F02E893F892230310539F00DC01F8619
:1054D0008DE092E00E949F1A0DC084E08F8782E1E8
:1054E00092E00E949F1A06C087E192E00E949F1AF4
:1054F0001D8A98C0188A8FC080E090E0A8E4B3E4C9
:105500008B879C87AD87BE876B857C858D859E85C7
:1055100020E030E04AE755E40E941F02DC01CB01A5
:105520008F839887A987BA876F81788589859A85BF
:1055300020E030E040E85FE30E94790388232CF408
:1055400081E090E09E838D833FC06F81788589855F
:105550009A8520E03FEF4FE757E40E9419031816A1
:105560004CF56B857C858D859E8520E030E040E2A2
:1055700051E40E941F02DC01CB01BC01CD010E945D
:105580004900DC01CB019E838D830FC080E991E04F
:105590009C838B838B819C810197F1F79C838B8308
:1055A0008D819E8101979E838D838D819E81009741
:1055B00069F714C06F81788589859A850E944900B2
:1055C000DC01CB019E838D838D819E819A838983AB
:1055D00089819A810197F1F79A8389838F85882F32
:1055E00090E09E012F5E3F4FB9010E94E915888926
:1055F000282F30E08A899B89FC01E20FF31F9081FC
:105600008989981711F01D8A0DC08F858F5F8F874C
:1056100088898F5F888B8889843008F46DCF1F86D6
:1056200031E03D8B8D8967960FB6F894DEBF0FBED3
:10563000CDBFCF91DF910895DF93CF9300D000D0FD
:10564000CDB7DEB79C838B831A8219820E94280F04
:10565000898389818823C1F08A81282F30E08B815A
:105660009C81FC01E20FF31F898180838A81282FAE
:1056700030E08B819C81FC01E20FF31F80810E944E
:105680007D1A8A818F5F8A838A818430F9F60F9030
:105690000F900F900F90CF91DF910895DF93CF93EC
:1056A000CDB7DEB7E1970FB6F894DEBF0FBECDBF22
:1056B0009EA78DA76FA71CA61BA68FA5282F30E03D
:1056C00039AB28AB88A999A98130910531F028A977
:1056D00039A92230310539F00CC01CA684E292E0D1
:1056E0000E949F1A06C084E08CA78AE292E00E9482
:1056F0009F1A8FA5833008F011C180E392E00E94C9
:105700009F1A1BA68CC080E090E0A8E4B3E48FA3AE
:1057100098A7A9A7BAA76FA178A589A59AA520E0FF
:1057200030E04AE755E40E941F02DC01CB018BA365
:105730009CA3ADA3BEA36BA17CA18DA19EA120E0E3
:1057400030E040E85FE30E94790388232CF481E095
:1057500090E09AA389A33FC06BA17CA18DA19EA1DB
:1057600020E03FEF4FE757E40E94190318164CF56D
:105770006FA178A589A59AA520E030E040E251E428
:105780000E941F02DC01CB01BC01CD010E94490037
:10579000DC01CB019AA389A30FC080E991E098A313
:1057A0008F8F8F8D98A10197F1F798A38F8F89A183
:1057B0009AA101979AA389A389A19AA1009769F751
:1057C00014C06BA17CA18DA19EA10E944900DC01A7
:1057D000CB019AA389A389A19AA19E8F8D8F8D8DCC
:1057E0009E8D0197F1F79E8F8D8F8CA5482F50E0ED
:1057F0008BA5282F30E08DA59EA5FC01E20FF31F9D
:105800002081CA01622F0E94BE158AE291E00E94A7
:105810009F1A8CA58F5F8CA78BA58F5F8BA78BA5FD
:10582000843008F470CF8FA58F5F8FA780E090E061
:10583000A8E4B3E4898F9A8FAB8FBC8F698D7A8D82
:105840008B8D9C8D20E030E04AE755E40E941F02DA
:10585000DC01CB018D8B9E8BAF8BB88F6D897E89E0
:105860008F89988D20E030E040E85FE30E94790363
:1058700088232CF481E090E09C8B8B8B3FC06D895A
:105880007E898F89988D20E03FEF4FE757E40E9493
:10589000190318164CF5698D7A8D8B8D9C8D20E03F
:1058A00030E040E251E40E941F02DC01CB01BC0168
:1058B000CD010E944900DC01CB019C8B8B8B0FC07A
:1058C00080E991E09A8B898B89899A890197F1F710
:1058D0009A8B898B8B899C8901979C8B8B8B8B896D
:1058E0009C89009769F714C06D897E898F89988D8E
:1058F0000E944900DC01CB019C8B8B8B8B899C899E
:10590000988B8F878F8598890197F1F7988B8F8770
:105910008FEF90E06FA50E94BE1578C08CE392E0F7
:105920000E949F1A80E090E0AAEFB4E48B879C87E6
:10593000AD87BE876B857C858D859E8520E030E0B8
:105940004AE755E40E941F02DC01CB018F83988750
:10595000A987BA876F81788589859A8520E030E0AC
:1059600040E85FE30E94790388232CF481E090E013
:105970009E838D833FC06F81788589859A8520E0DD
:105980003FEF4FE757E40E94190318164CF56B855B
:105990007C858D859E8520E030E040E251E40E94C8
:1059A0001F02DC01CB01BC01CD010E944900DC01DA
:1059B000CB019E838D830FC080E991E09C838B8314
:1059C0008B819C810197F1F79C838B838D819E81D4
:1059D00001979E838D838D819E81009769F714C006
:1059E0006F81788589859A850E944900DC01CB0109
:1059F0009E838D838D819E819A83898389819A81FB
:105A00000197F1F79A8389830E94D91BE1960FB61B
:105A1000F894DEBF0FBECDBFCF91DF910895DF9325
:105A2000CF93CDB7DEB7AF970FB6F894DEBF0FBEFA
:105A3000CDBF81E38CA782E38DA783E38EA784E3A8
:105A40008FA781E08BA70E94D91BCE018C966BA5F6
:105A50000E944E2B80E090E0A8E4B3E48FA398A7C7
:105A6000A9A7BAA76FA178A589A59AA520E030E0DB
:105A70004AE755E40E941F02DC01CB018BA39CA3E3
:105A8000ADA3BEA36BA17CA18DA19EA120E030E0BF
:105A900040E85FE30E94790388232CF481E090E0E2
:105AA0009AA389A33FC06BA17CA18DA19EA120E0F8
:105AB0003FEF4FE757E40E94190318164CF56FA10A
:105AC00078A589A59AA520E030E040E251E40E9443
:105AD0001F02DC01CB01BC01CD010E944900DC01A9
