:100000000C942A000C942F100C9462100C94721013
:100010000C9447000C9447000C94DB070C944700A9
:100020000C9447000C9447000C94BB0B0C94520B9F
:100030000C9447000C9447000C9447000C94470024
:100040000C9447000C9447000C9447000C94470014
:100050000C94470011241FBECFE5D8E0DEBFCDBF12
:1000600012E0A0E6B0E0E8E9F7E402C005900D92E6
:10007000AC3FB107D9F713E0ACEFB2E001C01D927D
:10008000A531B107E1F70E940E230C94CA230C940A
:100090000000EF92FF920F931F937B018C0120E0F1
:1000A00030E040E05FE40E94F50388238CF0C80153
:1000B000B70120E030E040E05FE40E94C1010E940F
:1000C00055049B01AC01205030404040504806C0D0
:1000D000C801B7010E9455049B01AC01B901CA01D6
:1000E0001F910F91FF90EF900895A0E0B0E0EBE733
:1000F000F0E00C949323DC012B01FA019C919230E7
:1001000008F439C1EB018881823008F433C194309E
:1001100069F4843009F02FC111969C91119789815F
:10012000981709F428C1AEE0B1E025C1843009F484
:1001300021C18230A9F4923009F01DC19A01AD01AC
:1001400088E0EA010990AE01E90109929E0181501F
:10015000C1F7E201898111969C918923818308C1AD
:10016000923009F407C112962D903C901397EB0141
:100170008A819B811496AD90BD90CD90DC901797AD
:10018000EC80FD800E811F819101281B390BB90184
:1001900037FF04C066277727621B730B6032710537
:1001A0000CF061C0121613066CF537014801062EDB
:1001B00004C096948794779467940A94D2F721E0C8
:1001C00030E040E050E004C0220F331F441F551FB1
:1001D0006A95D2F721503040404050402E213F21B7
:1001E00040235123211531054105510521F021E01E
:1001F00030E040E050E079018A01E628F72808293C
:1002000019293CC0232BD1F1260E371E350146019A
:10021000062E04C096948794779467940A94D2F734
:1002200021E030E040E050E004C0220F331F441FC3
:10023000551F6A95D2F721503040404050402A2146
:100240003B214C215D21211531054105510521F04E
:1002500021E030E040E050E059016A01A628B728CB
:10026000C828D9280BC0821593052CF01C01AA249C
:10027000BB24650103C0EE24FF24870111969C91E5
:10028000D20111968C91981709F445C0992339F041
:10029000A80197012A193B094C095D0906C0A6016E
:1002A00095012E193F09400B510B57FD08C01182D3
:1002B0003382228224833583468357831DC081E0A5
:1002C00081833382228288279927DC01821B930B4A
:1002D000A40BB50B84839583A683B7830DC0220F2F
:1002E000331F441F551F24833583468357838281E0
:1002F000938101979383828324813581468157813D
:10030000DA01C9010197A109B1098F5F9F4FAF4F72
:10031000BF4328F30BC0918333822282EA0CFB1C7B
:100320000C1D1D1DE482F5820683178383E0808304
:10033000248135814681578157FF1AC0C901AA27F8
:1003400097FDA095BA2F81709070A070B0705695EF
:10035000479537952795822B932BA42BB52B848318
:100360009583A683B7838281938101969383828349
:10037000DF0101C0D201CD01CDB7DEB7E2E10C94BF
:10038000AF23A0E2B0E0E7ECF1E00C949F23698397
:100390007A838B839C832D833E834F835887E9E048
:1003A000EE2EF12CEC0EFD1ECE010196B7010E943F
:1003B00046068E010F5E1F4FCE010596B8010E94C2
:1003C00046068A8991E089278A8BC701B801AE0168
:1003D000475E5F4F0E9475000E947105A096E6E09F
:1003E0000C94BB23A0E2B0E0E8EFF1E00C949F2373
:1003F00069837A838B839C832D833E834F835887C5
:10040000F9E0EF2EF12CEC0EFD1ECE010196B701A6
:100410000E9446068E010F5E1F4FCE010596B80161
:100420000E944606C701B801AE01475E5F4F0E94B9
:1004300075000E947105A096E6E00C94BB23A0E233
:10044000B0E0E5E2F2E00C94932369837A838B8336
:100450009C832D833E834F835887CE010196BE0136
:10046000675F7F4F0E944606CE010596BE016F5E14
:100470007F4F0E9446069985923088F089898230A4
:10048000C8F0943019F4823051F404C0843029F457
:10049000923081F48EE091E0C6C0923049F420E0C1
:1004A0009A858A89981321E02A87CE010996BBC0D4
:1004B000823049F420E09A858A89981321E02A8BBA
:1004C000CE014196B0C02D843E844F8458886D88FB
:1004D0007E888F88988CEE24FF248701AA24BB2471
:1004E000650140E050E060E070E0E0E0F0E0C10174
:1004F00081709070892BE9F0E60CF71C081D191D1E
:100500009A01AB012A0D3B1D4C1D5D1D80E090E062
:10051000A0E0B0E0E614F7040805190520F481E036
:1005200090E0A0E0B0E0BA01A901480F591F6A1F8E
:100530007B1FAA0CBB1CCC1CDD1C97FE08C081E0F5
:1005400090E0A0E0B0E0A82AB92ACA2ADB2A3196B6
:10055000E032F10549F0660C771C881C991C569412
:10056000479437942794C3CFFA85EA892B893C892D
:100570008B859C85280F391F2E5F3F4F17C0CA01FE
:1005800081709070892B61F016950795F794E79428
:1005900080E090E0A0E0B0E8E82AF92A0A2B1B2BC3
:1005A00076956795579547952F5F3F4F77FDE7CF36
:1005B0000CC0440F551F661F771F17FD4160EE0CDE
:1005C000FF1C001F111F21503040403090E05907A0
:1005D00090E0690790E4790760F32B8F3C8FDB0193
:1005E000CA018F779070A070B07080349105A1051A
:1005F000B10561F447FD0AC0E114F10401051105DC
:1006000029F0405C5F4F6F4F7F4F40781A8EFE1786
:1006100011F081E08A8F4D8F5E8F6F8F78A383E01A
:10062000898FCE0149960E947105A096E2E10C9453
:10063000AF23A8E1B0E0EFE1F3E00C949B236983E2
:100640007A838B839C832D833E834F835887B9E0C5
:10065000EB2EF12CEC0EFD1ECE010196B7010E948F
:1006600046068E010F5E1F4FCE010596B8010E940F
:1006700046062985223008F47EC03989323010F4CC
:10068000B8017CC08A859A8989278A87243011F02D
:10069000223031F4231709F06EC06EE071E06EC0B5
:1006A000343039F41D861E861F86188A1C861B86E8
:1006B00004C0323021F484E08987B7015FC02B8504
:1006C0003C858B899C89281B390B3C872B87ED84C3
:1006D000FE840F851889AD88BE88CF88D88CEA142F
:1006E000FB040C051D0540F4EE0CFF1C001F111F40
:1006F000215030403C872B8720E030E040E050E044
:1007000080E090E0A0E0B0E460E070E0EA14FB0478
:100710000C051D0540F0282B392B4A2B5B2BEA18C2
:10072000FB080C091D09B695A79597958795EE0CC2
:10073000FF1C001F111F6F5F7F4F6F31710531F775
:10074000DA01C9018F779070A070B0708034910584
:10075000A105B10561F427FD0AC0E114F10401050A
:10076000110529F0205C3F4F4F4F5F4F20782D87B8
:100770003E874F87588BBE01675F7F4FCB010E943A
:1007800071056896EAE00C94B723A8E1B0E0EBECC1
:10079000F3E00C949F2369837A838B839C832D835E
:1007A0003E834F83588789E0E82EF12CEC0EFD1E26
:1007B000CE010196B7010E9446068E010F5E1F4FC3
:1007C000CE010596B8010E9446068985823040F028
:1007D0008989823028F0C701B8010E94BE0601C095
:1007E0008FEF6896E6E00C94BB23A8E1B0E0EBEF56
:1007F000F3E00C949F2369837A838B839C832D83FE
:100800003E834F83588789E0E82EF12CEC0EFD1EC5
:10081000CE010196B7010E9446068E010F5E1F4F62
:10082000CE010596B8010E9446068985823040F0C7
:100830008989823028F0C701B8010E94BE0601C034
:100840008FEF6896E6E00C94BB23A8E1B0E0EBE202
:10085000F4E00C949F2369837A838B839C832D839C
:100860003E834F83588789E0E82EF12CEC0EFD1E65
:10087000CE010196B7010E9446068E010F5E1F4F02
:10088000CE010596B8010E9446068985823040F067
:100890008989823028F0C701B8010E94BE0601C0D4
:1008A00081E06896E6E00C94BB23ACE0B0E0EBE5B9
:1008B000F4E00C94A32369837A838B839C83CE0119
:1008C0000196BE016B5F7F4F0E9446068D8182308C
:1008D00061F1823050F1843021F48E81882351F10E
:1008E0002EC02F81388537FD20C06E812F31310514
:1008F0001CF06623F9F023C08EE190E0821B930B7D
:1009000029853A854B855C8504C056954795379572
:1009100027958A95D2F76623B1F05095409530958A
:1009200021953F4F4F4F5F4F0EC020E030E040E039
:1009300050E009C02FEF3FEF4FEF5FE704C020E02A
:1009400030E040E050E8B901CA012C96E2E00C9496
:10095000BF23A8E0B0E0EFEAF4E00C949B237B0116
:100960008C01611571058105910519F482E0898377
:1009700060C083E089838EE1C82ED12CDC82CB82DB
:10098000ED82FE820F831887C801B7010E942205FD
:10099000FC013197F7FF3BC0222733272E1B3F0B6B
:1009A00057016801022E04C0D694C794B794A79447
:1009B0000A94D2F740E050E060E070E081E090E01F
:1009C000A0E0B0E004C0880F991FAA1FBB1F2A95A2
:1009D000D2F70197A109B1098E219F21A023B1234C
:1009E0000097A105B10521F041E050E060E070E022
:1009F0004A295B296C297D294D835E836F83788723
:100A00008EE190E08E1B9F0B9C838B8312C03097EE
:100A100081F00E2E04C0EE0CFF1C001F111F0A9463
:100A2000D2F7ED82FE820F831887CE1ADF0ADC82AE
:100A3000CB821A82CE0101960E9471052896EAE0C7
:100A40000C94B723EF92FF920F931F937B018C01BD
:100A500080E0E81680E0F80681E0080780E01807EB
:100A600088F48FEFE816F1040105110531F028F044
:100A700088E090E0A0E0B0E017C080E090E0A0E067
:100A8000B0E012C080E0E81680E0F80680E00807D9
:100A900081E0180728F088E190E0A0E0B0E004C011
:100AA00080E190E0A0E0B0E020E230E040E050E003
:100AB000281B390B4A0B5B0B04C016950795F7945E
:100AC000E7948A95D2F7F701EA5EFE4F8081281BF2
:100AD000310941095109C9011F910F91FF90EF9010
:100AE0000895DF92EF92FF920F931F93FC01E48031
:100AF000F58006811781D1808081823048F480E0C2
:100B000090E0A0E1B0E0E82AF92A0A2B1B2BA5C04F
:100B1000843009F49FC0823021F4EE24FF24870141
:100B200005C0E114F1040105110519F4E0E0F0E05D
:100B300096C0628173819FEF623879070CF05BC0C9
:100B400022E83FEF261B370B2A3131052CF020E03D
:100B500030E040E050E02AC0B801A701022E04C0F6
:100B600076956795579547950A94D2F781E090E07E
:100B7000A0E0B0E004C0880F991FAA1FBB1F2A95F0
:100B8000D2F70197A109B1098E219F21A023B1239A
:100B90000097A105B10521F081E090E0A0E0B0E070
:100BA0009A01AB01282B392B4A2B5B2BDA01C901A7
:100BB0008F779070A070B07080349105A105B10559
:100BC00039F427FF09C0205C3F4F4F4F5F4F04C0EF
:100BD000215C3F4F4F4F5F4FE0E0F0E02030A0E05E
:100BE0003A07A0E04A07A0E45A0710F0E1E0F0E07D
:100BF00079018A0127C06038710564F5FB01E1586D
:100C0000FF4FD801C7018F779070A070B07080340B
:100C10009105A105B10539F4E7FE0DC080E490E02F
:100C2000A0E0B0E004C08FE390E0A0E0B0E0E80E08
:100C3000F91E0A1F1B1F17FF05C016950795F7948D
:100C4000E794319687E016950795F794E7948A958F
:100C5000D1F705C0EE24FF248701EFEFF0E06E2FFF
:100C6000679566276795902F9F77D794DD24D79453
:100C70008E2F8695492F462B582F5D29B701CA0123
:100C80001F910F91FF90EF90DF900895FC01DB0121
:100C9000408151812281622F6F7770E0221F2227CD
:100CA000221F9381892F880F822B282F30E0991FD4
:100CB0009927991F11969C93119721153105A9F534
:100CC000411551056105710511F482E037C082E8D4
:100CD0009FEF13969C938E9312979A01AB0167E056
:100CE000220F331F441F551F6A95D1F783E08C9361
:100CF0000DC0220F331F441F551F12968D919C91DA
:100D00001397019713969C938E931297203080E04F
:100D1000380780E0480780E4580758F314962D936D
:100D20003D934D935C93179708952F3F310579F4C8
:100D3000411551056105710519F484E08C930895FE
:100D400064FF03C081E08C9312C01C9210C02F5727
:100D5000304013963C932E93129783E08C9387E058
:100D6000440F551F661F771F8A95D1F7706414963C
:100D70004D935D936D937C93179708951F93DC01BA
:100D8000FB019C91923008F447C08081823008F4C6
:100D900043C0943051F411961C91843099F58181AF
:100DA000682F70E0611B71093FC0843021F09230E0
:100DB00031F48230B9F18181882389F12DC01196F7
:100DC0001C9111978230F1F081811817D9F4129695
:100DD0002D913C911397828193818217930794F010
:100DE00028173907BCF014968D919D910D90BC91F8
:100DF000A02D2481358146815781281739074A075C
:100E00005B0718F4112341F00AC082179307A40767
:100E1000B50740F4112319F061E070E005C06FEFF1
:100E20007FEF02C060E070E0CB011F910895DF9377
:100E3000CF9300D0CDB7DEB79A838983AFE4B0E01B
:100E4000EFE4F0E080818E7F8C93AFE4B0E0EFE4DC
:100E5000F0E080818D7F8C93AEE4B0E0EEE4F0E0D2
:100E60008081877F8C93AEE4B0E0EEE4F0E0808197
:100E70008F7E8C93AFE4B0E0EFE4F0E080818F7B75
:100E80008C93AFE4B0E0EFE4F0E080818F778C9357
:100E9000AEE4B0E0EEE4F0E0808180648C93AEE4F8
:100EA000B0E0EEE4F0E080818E7F8C93AEE4B0E0C1
:100EB000EEE4F0E0808182608C93AEE4B0E0EEE49A
:100EC000F0E080818B7F8C93ECE4F0E01182108263
:100ED000E6E4F0E011821082A9E5B0E0E9E5F0E097
:100EE000808180628C930F900F90CF91DF91089555
:100EF000DF93CF930F92CDB7DEB7898389818823A3
:100F000041F4AEE4B0E0EEE4F0E080818F7B8C93BE
:100F10000AC08981813039F4AEE4B0E0EEE4F0E05B
:100F2000808180648C930F90CF91DF910895DF933F
:100F3000CF93CDB7DEB7E6E4F0E080819181CF9129
:100F4000DF910895DF93CF93CDB7DEB7ECE4F0E007
:100F500011821082CF91DF910895DF93CF93CDB7A7
:100F6000DEB7EFE4F0E01082EEE4F0E01082ECE4B3
:100F7000F0E011821082E6E4F0E011821082A9E52F
:100F8000B0E0E9E5F0E080818F7D8C93CF91DF9137
:100F90000895DF93CF9300D0CDB7DEB79A838983CE
:100FA00089819A819093FD028093FC020F900F90AB
:100FB000CF91DF9108951F920F920FB60F921124D7
:100FC0002F933F934F935F936F937F938F939F9351
:100FD000AF93BF93EF93FF93DF93CF93CDB7DEB77C
:100FE0008091FC029091FD02009729F0E091FC02B3
:100FF000F091FD020995CF91DF91FF91EF91BF91A3
:10100000AF919F918F917F916F915F914F913F91A0
:101010002F910F900FBE0F901F901895DF93CF93D5
:10102000CDB7DEB72C970FB6F894DEBF0FBECDBF9D
:1010300089836A838981282F30E03C872B878B85C1
:101040009C858130910509F466C02B853C85223052
:1010500031052CF48B859C85009771F023C12B857D
:101060003C852230310509F4A6C08B859C858330F0
:10107000910509F4DCC016C1A3E5B0E0E3E5F0E0BA
:101080008081877D8C93A3E5B0E0E3E5F0E080818B
:101090008C938A81282F30E03A87298789859A8521
:1010A00082309105D1F029853A852330310521F12F
:1010B00089859A858130910509F0F4C0A3E5B0E0F7
:1010C000E3E5F0E080818F7C8C93A3E5B0E0E3E57D
:1010D000F0E0808180618C93E5C0A3E5B0E0E3E5BA
:1010E000F0E080818F7C8C93A3E5B0E0E3E5F0E055
:1010F000808180628C93D6C0A3E5B0E0E3E5F0E0A8
:1011000080818F7C8C93A3E5B0E0E3E5F0E0808103
:1011100080638C93C7C0A3E5B0E0E3E5F0E0808195
:10112000877D8C93A3E5B0E0E3E5F0E08081886003
:101130008C938A81282F30E038872F838F81988580
:1011400082309105D1F02F8138852330310521F18E
:101150008F8198858130910509F0A4C0A3E5B0E0A6
:10116000E3E5F0E080818F7C8C93A3E5B0E0E3E5DC
:10117000F0E0808180618C9395C0A3E5B0E0E3E569
:10118000F0E080818F7C8C93A3E5B0E0E3E5F0E0B4
:10119000808180628C9386C0A3E5B0E0E3E5F0E057
:1011A00080818F7C8C93A3E5B0E0E3E5F0E0808163
:1011B00080638C9377C0A3E5B0E0E3E5F0E0808145
:1011C000877D8C93A3E5B0E0E3E5F0E0808188645F
:1011D0008C938A81282F30E03E832D838D819E81E0
:1011E0008430910531F02D813E812530310581F02B
:1011F00059C0A3E5B0E0E3E5F0E080818F7C8C93FB
:10120000A3E5B0E0E3E5F0E0808180638C934AC021
:10121000A3E5B0E0E3E5F0E080818F7C8C93A3E56B
:10122000B0E0E3E5F0E0808180628C933BC0A3E511
:10123000B0E0E3E5F0E08081877D8C93A3E5B0E04A
:10124000E3E5F0E0808180648C938A81282F30E090
:101250003C832B838B819C818430910531F02B81E1
:101260003C812530310581F01DC0A3E5B0E0E3E508
:10127000F0E080818F7C8C93A3E5B0E0E3E5F0E0C3
:10128000808180638C930EC0A3E5B0E0E3E5F0E0DD
:1012900080818F7C8C93A3E5B0E0E3E5F0E0808172
:1012A00080628C932C960FB6F894DEBF0FBECDBF34
:1012B000CF91DF910895DF93CF930F92CDB7DEB733
:1012C0008983A3E5B0E0E3E5F0E08081887F8C933B
:1012D000A3E5B0E0E3E5F0E090818981892B8C9370
:1012E0000F90CF91DF910895DF93CF93CDB7DEB705
:1012F000A3E5B0E0E3E5F0E08081887F8C93A3E58F
:10130000B0E0E3E5F0E080818C93CF91DF91089528
:10131000DF93CF93CDB7DEB7E2E5F0E08081CF91E8
:10132000DF910895DF93CF930F92CDB7DEB7898316
:10133000E2E5F0E0898180830F90CF91DF910895FD
:10134000DF93CF93CDB7DEB7AC970FB6F894DEBF7F
:101350000FBECDBF6AA37BA38CA39DA34EA32FA3D7
:10136000CE010E9699A788A7ECE5F2E0FBA7EAA7C5
:10137000F4E1FCA7EAA5FBA500808AA59BA5019640
:101380009BA78AA7E8A5F9A5008288A599A501963B
:1013900099A788A79CA591509CA7ECA5EE2351F78F
:1013A0008FA1882F90E001979C01220F331F220FFD
:1013B000331FCE010196820F931FFC013D96808161
:1013C0009181A281B381BC01CD010E94A904DC01FD
:1013D000CB01BC01CD0120E030E040E851E40E94A7
:1013E0001903DC01CB018A879B87AC87BD871E82EE
:1013F0001F82188619861A821B821C821D828AA16E
:101400009BA1ACA1BDA120E432E44FE050E0BC01BF
:10141000CD010E941723DC01CB01BC01CD010E944C
:10142000A904DC01CB01BC01CD012A853B854C859B
:101430005D850E941903DC01CB01BC01CD010E9436
:101440004900DC01CB018E839F83A887B9878EA1D9
:101450008823C9F58E819F81A885B985892F9A2F08
:10146000AB2FBB278093020390930303A093040345
:10147000B09305038E81809306038E819F81A8859A
:10148000B9859070A070B0700097A105B10509F4FE
:1014900057C0E2E5F0E0809106038195808380915A
:1014A000020390910303A0910403B09105030196F8
:1014B000A11DB11D8093020390930303A093040325
:1014C000B09305033DC08EA18130D1F58FEF90E040
:1014D000A0E0B0E08A839B83AC83BD8319820BC0FC
:1014E0008A819B81AC81BD810197A109B1098A8361
:1014F0009B83AC83BD838E819F81A885B9852A811A
:101500003B814C815D81BC01CD010E945623DC01F1
:10151000CB010097A105B10519F78E819F81A885A0
:10152000B9852A813B814C815D81BC01CD010E943E
:101530005623DC01CB018983ECE5F0E089818083CF
:101540008FA10E945B09AC960FB6F894DEBF0FBE68
:10155000CDBFCF91DF910895DF93CF9300D00F924D
:10156000CDB7DEB789838981282F30E03B832A837A
:101570008A819B81009731F02A813B81213031059E
:1015800081F01DC0A9E5B0E0E9E5F0E080818E7F43
:101590008C93A9E5B0E0E9E5F0E0808181608C936F
:1015A0000EC0A9E5B0E0E9E5F0E080818D7F8C9385
:1015B000A9E5B0E0E9E5F0E0808182608C930F90CE
:1015C0000F900F90CF91DF910895DF93CF9300D0CC
:1015D0000F92CDB7DEB789838981282F30E03B8316
:1015E0002A838A819B81009731F02A813B812130B7
:1015F000310579F01BC0A9E5B0E0E9E5F0E08081B4
:101600008E7F8C93A9E5B0E0E9E5F0E080818C93D2
:101610000DC0A9E5B0E0E9E5F0E080818D7F8C9315
:10162000A9E5B0E0E9E5F0E080818C930F900F90A0
:101630000F90CF91DF910895DF93CF9300D000D02A
:101640000F92CDB7DEB789837B836A838981282F88
:1016500030E03D832C838C819D81009731F02C817B
:101660003D812130310561F015C08A819B81009751
:1016700089F08A819B819093FF028093FE020AC0C9
:101680008A819B81009731F08A819B81909301032D
:10169000809300030F900F900F900F900F90CF91B9
:1016A000DF9108951F920F920FB60F9211242F937E
:1016B0003F934F935F936F937F938F939F93AF93DA
:1016C000BF93EF93FF93DF93CF93CDB7DEB78091B6
:1016D000070390910803A0910903B0910A030196B2
:1016E000A11DB11D8093070390930803A0930903E4
:1016F000B0930A038091FE029091FF02009741F19E
:1017000020910703309108034091090350910A0387
:101710008091020390910303A0910403B09105030B
:10172000281739074A075B0799F4E091FE02F09108
:10173000FF02099510920703109208031092090303
:1017400010920A03E2E5F0E0809106038195808320
:10175000CF91DF91FF91EF91BF91AF919F918F91C9
:101760007F916F915F914F913F912F910F900FBE9D
:101770000F901F9018951F920F920FB60F92112481
:10178000DF93CF93CDB7DEB7CF91DF910F900FBE30
:101790000F901F901895DF93CF93CDB7DEB72B979F
:1017A0000FB6F894DEBF0FBECDBF9D838C838C81B6
:1017B0009D81009709F451C21B824BC28B81882FF7
:1017C00090E09C01220F331F220F331F8C819D81DB
:1017D000FC01E20FF31F80819AE0692F0E943623FB
:1017E000892F8A838B81882F90E09C01220F331FE1
:1017F000220F331F8C819D81FC01E20FF31F80813A
:101800009AE0692F0E94362389838B81882F90E08C
:101810009C01220F331F220F331F8C819D81FC01FD
:10182000E20FF31F8281882389F08B81882F90E05B
:101830009C01220F331F220F331F8C819D81FC01DD
:10184000E20FF31F8281813009F000C28981282FC5
:1018500030E03B872A876A857B8562307105D1F14C
:101860008A859B858330910534F42A853B85213018
:10187000310571F094C06A857B856330710509F488
:101880004BC08A859B858430910509F467C087C069
:10189000AAE3B0E0EAE3F0E040818B81882F90E09A
:1018A0009C01220F331F220F331F8C819D81FC016D
:1018B000E20FF31F8281282F30E08A81882F90E089
:1018C000B90102C0660F771F8A95E2F7CB01842B1E
:1018D0008C9365C0A7E3B0E0E7E3F0E040818B8143
:1018E000882F90E09C01220F331F220F331F8C8121
:1018F0009D81FC01E20FF31F8281282F30E08A8155
:10190000882F90E0B90102C0660F771F8A95E2F731
:10191000CB01842B8C9343C0A4E3B0E0E4E3F0E07C
:1019200040818B81882F90E09C01220F331F220F72
:10193000331F8C819D81FC01E20FF31F8281282FD0
:1019400030E08A81882F90E0B90102C0660F771FCE
:101950008A95E2F7CB01842B8C9321C0A1E3B0E000
:10196000E1E3F0E040818B81882F90E09C01220F21
:10197000331F220F331F8C819D81FC01E20FF31F67
:101980008281282F30E08A81882F90E0B90102C03F
:10199000660F771F8A95E2F7CB01842B8C938B819E
:1019A000882F90E09C01220F331F220F331F8C8160
:1019B0009D81FC01E20FF31F8181882389F08B81D7
:1019C000882F90E09C01220F331F220F331F8C8140
:1019D0009D81FC01E20FF31F8181813009F036C146
:1019E0008981282F30E0398728876885798562309A
:1019F0007105D1F1888599858330910534F4288566
:101A000039852130310571F094C06885798563305E
:101A1000710509F44BC0888599858430910509F4D6
:101A200067C087C0ABE3B0E0EBE3F0E040818B81BF
:101A3000882F90E09C01220F331F220F331F8C81CF
:101A40009D81FC01E20FF31F8181282F30E08A8104
:101A5000882F90E0B90102C0660F771F8A95E2F7E0
:101A6000CB01842B8C9365C0A8E3B0E0E8E3F0E001
:101A700040818B81882F90E09C01220F331F220F21
:101A8000331F8C819D81FC01E20FF31F8181282F80
:101A900030E08A81882F90E0B90102C0660F771F7D
:101AA0008A95E2F7CB01842B8C9343C0A5E3B0E089
:101AB000E5E3F0E040818B81882F90E09C01220FCC
:101AC000331F220F331F8C819D81FC01E20FF31F16
:101AD0008181282F30E08A81882F90E0B90102C0EF
:101AE000660F771F8A95E2F7CB01842B8C9321C078
:101AF000A2E3B0E0E2E3F0E040818B81882F90E048
:101B00009C01220F331F220F331F8C819D81FC010A
:101B1000E20FF31F8181282F30E08A81882F90E027
:101B2000B90102C0660F771F8A95E2F7CB01842BBB
:101B30008C938B81882F90E09C01220F331F220F02
:101B4000331F8C819D81FC01E20FF31F8281813064
:101B500009F07CC08B81882F90E09C01220F331FFD
:101B6000220F331F8C819D81FC01E20FF31F8381C3
:101B7000882309F06BC08981282F30E03F832E83B2
:101B80006E817F816230710549F18E819F81833042
:101B9000910534F42E813F812130310561F056C02A
:101BA0006E817F816330710561F18E819F81843008
:101BB0009105D1F14BC0ABE3B0E0EBE3F0E0408145
:101BC0008A81282F30E081E090E0022E02C0880F49
:101BD000991F0A94E2F7842B8C9338C0A8E3B0E0F5
:101BE000E8E3F0E040818A81282F30E081E090E056
:101BF000022E02C0880F991F0A94E2F7842B8C935F
:101C000025C0A5E3B0E0E5E3F0E040818A81282F1C
:101C100030E081E090E0022E02C0880F991F0A9404
:101C2000E2F7842B8C9312C0A2E3B0E0E2E3F0E091
:101C300040818A81282F30E081E090E0022E02C0AE
:101C4000880F991F0A94E2F7842B8C938B818F5F06
:101C50008B838B81803208F4B1CD2B960FB6F8942C
:101C6000DEBF0FBECDBFCF91DF910895DF93CF933D
:101C7000CDB7DEB7AFE5B0E0EFE5F0E0808180689A
:101C80008C93CF91DF910895DF93CF93CDB7DEB7DB
:101C9000AFE5B0E0EFE5F0E080818F778C93CF91F6
:101CA000DF910895DF93CF93CDB7DEB72B970FB6B3
:101CB000F894DEBF0FBECDBF9B838A8319820EC10D
:101CC0008981882F90E09C01220F331F8A819B819C
:101CD000FC01E20FF31F8081282F30E03B872A8729
:101CE0008A859B858130910509F44AC02A853B8508
:101CF0002230310509F4B1C08A859B85009709F02F
:101D0000EAC08981882F90E09C01220F331F8A81CD
:101D10009B81FC01E20FF31F8181282F30E039877E
:101D2000288788859985009731F028853985213065
:101D3000310581F01DC0A5E5B0E0E5E5F0E080816A
:101D40008D7F8C93A5E5B0E0E5E5F0E080818E7FA6
:101D50008C930EC0A5E5B0E0E5E5F0E080818D7FD5
:101D60008C93A5E5B0E0E5E5F0E0808181608C939F
:101D7000ABE5B0E0EBE5F0E0808180648C93ABC034
:101D80008981882F90E09C01220F331F8A819B81DB
:101D9000FC01E20FF31F8181282F30E03F832E8367
:101DA0008E819F818130910521F12E813F812230EA
:101DB00031052CF48E819F81009761F046C02E8101
:101DC0003F812230310521F18E819F818330910541
:101DD00071F13BC0A5E5B0E0E5E5F0E0808182600F
:101DE0008C93A5E5B0E0E5E5F0E080818E7F8C93F3
:101DF0002CC0A5E5B0E0E5E5F0E080818D7F8C9317
:101E0000A5E5B0E0E5E5F0E0808181608C931DC040
:101E1000A5E5B0E0E5E5F0E0808182608C93A5E582
:101E2000B0E0E5E5F0E080818E7F8C930EC0A5E503
:101E3000B0E0E5E5F0E0808182608C93A5E5B0E05C
:101E4000E5E5F0E0808181608C93ABE5B0E0EBE507
:101E5000F0E0808180688C933EC08981882F90E07B
:101E60009C01220F331F8A819B81FC01E20FF31F2B
:101E70008181282F30E03D832C838C819D810097C8
:101E800031F02C813D812130310581F01DC0A5E567
:101E9000B0E0E5E5F0E0808182608C93A5E5B0E0FC
:101EA000E5E5F0E080818E7F8C930EC0A5E5B0E083
:101EB000E5E5F0E080818D7F8C93A5E5B0E0E5E578
:101EC000F0E0808181608C93ABE5B0E0EBE5F0E081
:101ED000808180628C9389818F5F8983898183303F
:101EE00008F4EECE2B960FB6F894DEBF0FBECDBF32
:101EF000CF91DF910895DF93CF9300D000D0CDB77D
:101F0000DEB79A838983E981FA818081282F30E0C6
:101F10003C832B838B819C818130910589F02B81BF
:101F20003C8122303105A1F08B819C810097B9F46E
:101F3000ABE5B0E0EBE5F0E080818F7B8C930FC0E8
:101F4000ABE5B0E0EBE5F0E080818F778C9307C0E4
:101F5000ABE5B0E0EBE5F0E080818F7D8C930F90F6
:101F60000F900F900F90CF91DF910895DF93CF9353
:101F7000CDB7DEB728970FB6F894DEBF0FBECDBF42
:101F80009C838B837E836D8382E08A83198259C010
:101F90008981882F90E09C01220F331F8B819C81C7
:101FA000FC01E20FF31F8081282F30E038872F8358
:101FB0008F81988581309105E1F02F81388522301D
:101FC000310551F18F8198850097C1F58D819E81F2
:101FD000009769F08981882F90E0880F991FFC0194
:101FE000E55FFC4F8D819E819183808327C01A829B
:101FF00025C08D819E81009769F08981882F90E0AE
:10200000880F991FFC01E55FFC4F8D819E819183B4
:10201000808314C01A8212C08D819E81009769F05E
:102020008981882F90E0880F991FFC01E55FFC4FA4
:102030008D819E819183808301C01A8289818F5F07
:1020400089838981833008F4A3CF8A8128960FB6CB
:10205000F894DEBF0FBECDBFCF91DF9108951F92E0
:102060000F920FB60F9211242F933F934F935F93CC
:102070006F937F938F939F93AF93BF93EF93FF9350
:10208000DF93CF93CDB7DEB780910B0390910C0314
:10209000009729F0E0910B03F0910C030995CF9183
:1020A000DF91FF91EF91BF91AF919F918F917F91C0
:1020B0006F915F914F913F912F910F900FBE0F90B5
:1020C0001F9018951F920F920FB60F921124DF9355
:1020D000CF93CDB7DEB7CF91DF910F900FBE0F90AA
:1020E0001F9018951F920F920FB60F921124DF9335
:1020F000CF93CDB7DEB7CF91DF910F900FBE0F908A
:102100001F901895DF93CF9300D000D000D0CDB7AB
:10211000DEB78C838C819AE0692F0E943623892F49
:102120008B838C819AE0692F0E9436238A838A816F
:10213000282F30E03E832D834D815E814230510552
:1021400041F18D819E818330910534F42D813E8152
:102150002130310561F052C04D815E81433051051F
:1021600051F18D819E8184309105B9F147C0E9E339
:10217000F0E08081282F30E08B81882F90E0A9014A
:1021800002C0559547958A95E2F7CA018170898307
:1021900035C0E6E3F0E08081282F30E08B81882F86
:1021A00090E0A90102C0559547958A95E2F7CA01CA
:1021B0008170898323C0E3E3F0E08081282F30E041
:1021C0008B81882F90E0A90102C0559547958A958B
:1021D000E2F7CA018170898311C0E0E3F0E08081F9
:1021E000282F30E08B81882F90E0A90102C05595FF
:1021F00047958A95E2F7CA0181708983898126967D
:102200000FB6F894DEBF0FBECDBFCF91DF9108951A
:10221000DF93CF93CDB7DEB728970FB6F894DEBF24
:102220000FBECDBF8B836C838B819AE0692F0E9498
:102230003623892F8A838B819AE0692F0E94362367
:1022400089838C81813009F070C08981282F30E02A
:1022500038872F838F8198858230910551F12F81A6
:1022600038852330310534F48F819885813091058C
:1022700061F0D3C02F8138852330310571F18F8112
:10228000988584309105E9F1C8C0ABE3B0E0EBE399
:10229000F0E08081482F8A81282F30E081E090E0B3
:1022A000022E02C0880F991F0A94E2F7842B8C93A8
:1022B000B4C0A8E3B0E0E8E3F0E08081482F8A8171
:1022C000282F30E081E090E0022E02C0880F991F95
:1022D0000A94E2F7842B8C93A0C0A5E3B0E0E5E379
:1022E000F0E08081482F8A81282F30E081E090E063
:1022F000022E02C0880F991F0A94E2F7842B8C9358
:102300008CC0A2E3B0E0E2E3F0E08081482F8A8154
:10231000282F30E081E090E0022E02C0880F991F44
:102320000A94E2F7842B8C9378C08C81882309F07F
:1023300074C08981282F30E03E832D838D819E815A
:102340008230910561F12D813E812330310534F4D5
:102350008D819E818130910569F05FC02D813E8124
:102360002330310589F18D819E818430910509F4F6
:1023700040C053C0ABE3B0E0EBE3F0E08081482F16
:102380008A81282F30E081E090E0022E02C0880F81
:10239000991F0A94E2F7809584238C933EC0A8E3AA
:1023A000B0E0E8E3F0E08081482F8A81282F30E018
:1023B00081E090E0022E02C0880F991F0A94E2F794
:1023C000809584238C9329C0A5E3B0E0E5E3F0E099
:1023D0008081482F8A81282F30E081E090E0022E12
:1023E00002C0880F991F0A94E2F7809584238C938A
:1023F00014C0A2E3B0E0E2E3F0E08081482F8A81DC
:10240000282F30E081E090E0022E02C0880F991F53
:102410000A94E2F7809584238C9328960FB6F8945B
:10242000DEBF0FBECDBFCF91DF910895DF93CF9375
:1024300000D000D0CDB7DEB78A838A81282F30E064
:102440003C832B838B819C8182309105D9F02B8139
:102450003C812330310534F48B819C81813091059E
:1024600061F01EC02B813C812330310581F08B81CE
:102470009C818430910581F013C0EBE3F0E0808112
:1024800089830EC0E8E3F0E08081898309C0E5E339
:10249000F0E08081898304C0E2E3F0E080818983F9
:1024A00089810F900F900F900F90CF91DF91089539
:1024B000DF93CF9300D000D0CDB7DEB789836A8396
:1024C0008981282F30E03C832B838B819C81823053
:1024D0009105D9F02B813C812330310534F48B8177
:1024E0009C818130910561F01EC02B813C8123309D
:1024F000310581F08B819C818430910581F013C07E
:10250000EBE3F0E08A8180830EC0E8E3F0E08A81AB
:10251000808309C0E5E3F0E08A81808304C0E2E3C0
:10252000F0E08A8180830F900F900F900F90CF91F1
:10253000DF910895DF93CF9300D000D00F92CDB7F5
:10254000DEB78B838B819AE0692F0E943623892F17
:102550008A838B819AE0692F0E943623898389813F
:10256000282F30E03D832C838C819D818230910522
:1025700051F12C813D812330310534F48C819D81D2
:102580008130910561F05AC02C813D8123303105A5
:1025900071F18C819D8184309105E9F14FC0ABE3ED
:1025A000B0E0EBE3F0E08081482F8A81282F30E013
:1025B00081E090E0022E02C0880F991F0A94E2F792
:1025C00084278C933BC0A8E3B0E0E8E3F0E080818F
:1025D000482F8A81282F30E081E090E0022E02C04F
:1025E000880F991F0A94E2F784278C9327C0A5E3EC
:1025F000B0E0E5E3F0E08081482F8A81282F30E0C9
:1026000081E090E0022E02C0880F991F0A94E2F741
:1026100084278C9313C0A2E3B0E0E2E3F0E0808172
:10262000482F8A81282F30E081E090E0022E02C0FE
:10263000880F991F0A94E2F784278C930F900F90CC
:102640000F900F900F90CF91DF910895DF93CF936C
:1026500000D00F92CDB7DEB79B838A831982EA81BF
:10266000FB818081882379F4A7E2B0E0E7E2F0E023
:1026700080818F7B8C93A7E2B0E0E7E2F0E080817D
:1026800080688C9313C0EA81FB818081813071F472
:10269000A7E2B0E0E7E2F0E0808180648C93A7E2FB
:1026A000B0E0E7E2F0E0808180688C93EA81FB8112
:1026B0008281882341F4A7E2B0E0E7E2F0E0808184
:1026C0008F7D8C930CC0EA81FB818281882339F451
:1026D000A7E2B0E0E7E2F0E0808180628C93EA81DB
:1026E000FB8181818630B1F4A6E2B0E0E6E2F0E061
:1026F000808181608C93A6E2B0E0E6E2F0E0808128
:1027000082608C93A6E2B0E0E6E2F0E08081846033
:102710008C931AC0EA81FB8181818823A9F4A6E207
:10272000B0E0E6E2F0E080818E7F8C93A6E2B0E03C
:10273000E6E2F0E080818D7F8C93A6E2B0E0E6E2F5
:10274000F0E080818B7F8C9389810F900F900F90A8
:10275000CF91DF910895DF93CF93CDB7DEB7289760
:102760000FB6F894DEBF0FBECDBF9E838D831C8253
:102770001B821A821982ED81FE818381882319F5DB
:10278000A7E2B0E0E7E2F0E080818E7F8C93A7E2E1
:10279000B0E0E7E2F0E080818D7F8C93A7E2B0E0CB
:1027A000E7E2F0E080818B7F8C93A7E2B0E0E7E284
:1027B000F0E08081877F8C93A7E2B0E0E7E2F0E071
:1027C00080818F7E8C93A6E2B0E0E6E2F0E080812B
:1027D00080688C93A6E2B0E0E6E2F0E0808180645D
:1027E0008C9305C089819A8101969A838983E6E258
:1027F000F0E080818295869586958370882F90E0A1
:1028000081709070882371F789819A8123EC8135DA
:10281000920740F3E6E2F0E0808182958695869506
:102820008370882F90E081709070009739F4E4E213
:10283000F0E08081918198878F8302C018861F8283
:102840008F81988528960FB6F894DEBF0FBECDBF56
:10285000CF91DF910895DF93CF9300D0CDB7DEB74E
:1028600082E0898381E08A83CE0101960E94170766
:1028700080E495E10E94C9070F900F90CF91DF91FE
:102880000895DF93CF93CDB7DEB768970FB6F8946E
:10289000DEBF0FBECDBF88E261E00E94081180E07C
:1028A00090E0A0E2B1E48D8B9E8BAF8BB88F6D89E9
:1028B0007E898F89988D2BEA3AEA4AEA50E40E9491
:1028C0001F02DC01CB01898B9A8BAB8BBC8B698996
:1028D0007A898B899C8920E030E040E85FE30E94A0
:1028E000250488231CF481E0888B91C069897A894A
:1028F0008B899C8920E030E04FE753E40E94C503B8
:1029000018160CF07BC06D897E898F89988D20E028
:1029100030E04AE754E40E941903DC01CB018C87C4
:102920009D87AE87BF876C857D858E859F8520E0DE
:1029300030E04AE755E40E941F02DC01CB018887A2
:102940009987AA87BB87688579858A859B8520E0DA
:1029500030E040E85FE30E94250488232CF481E006
:1029600090E09F838E833FC0688579858A859B85AB
:1029700020E03FEF4FE757E40E94C50318164CF5DF
:102980006C857D858E859F8520E030E040E251E4B6
:102990000E941F02DC01CB01BC01CD010E94490055
:1029A000DC01CB019F838E830FC080E991E09D8382
:1029B0008C838C819D810197F1F79D838C838E811F
:1029C0009F8101979F838E838E819F81009769F7F6
:1029D00024C0688579858A859B850E944900DC0131
:1029E000CB019F838E838E819F819B838A838A8183
:1029F0009B810197F1F79B838A830FC069897A894C
:102A00008B899C890E944900DC01CB01888B8889D5
:102A1000898389818A95F1F7898388E260E00E9441
:102A2000081168960FB6F894DEBF0FBECDBFCF91E8
:102A3000DF910895DF93CF93CDB7DEB70E944114A5
:102A40008091120390911303CC01A0E0B0E0BC018F
:102A5000CD010E94A904DC01CB01BC01CD0126E916
:102A600033E44BE05CE30E941F02DC01CB01BC01BC
:102A7000CD010E944900DC01CB01CF91DF91089587
:102A8000DF93CF93CDB7DEB7809111038F5F809333
:102A9000110380911103813031F40E94A20780E07C
:102AA0000E9478070FC080911103823059F40E9470
:102AB0009707909313038093120381E00E94780795
:102AC00010921103CF91DF9108950F931F93DF931D
:102AD000CF93CDB7DEB7C054D0400FB6F894DEBF69
:102AE0000FBECDBFFE01FF96918380831BAE1CAE4F
:102AF0001DAE1EAE1AAE24C08AAD082F10E0FE0136
:102B0000FF96808191812AE030E0B9010E94422342
:102B1000282FCE01CB96FC01E00FF11F2083FE0190
:102B2000FF96808191812AE030E0B9010E94422322
:102B3000CB01FE01FF96918380838AAD8F5F8AAFC0
:102B4000FE01FF9680819181009719F08AAD843053
:102B500098F219AE1AAE8AAD282F30E0CE01CB968E
:102B6000FC01E20FF31F8081982F917084E1692F9F
:102B70000E9408118AAD282F30E0CE01CB96FC01CF
:102B8000E20FF31F80818695982F917085E1692F60
:102B90000E9408118AAD282F30E0CE01CB96FC01AF
:102BA000E20FF31F808186958695982F917086E1BC
:102BB000692F0E9408118AAD282F30E0CE01CB96F4
:102BC000FC01E20FF31F8081869586958695982FEC
:102BD000917088E1692F0E9408118DE060E00E94E9
:102BE000081180E090E0A0E8BFE38DAB9EABAFABF7
:102BF000B8AF6DA97EA98FA998AD20E030E04AE773
:102C000055E40E941F02DC01CB0189AB9AABABAB50
:102C1000BCAB69A97AA98BA99CA920E030E040E867
:102C20005FE30E94250488232CF481E090E098ABB8
:102C30008FA73FC069A97AA98BA99CA920E03FEF83
:102C40004FE757E40E94C50318164CF56DA97EA9FD
:102C50008FA998AD20E030E040E251E40E941F02CD
:102C6000DC01CB01BC01CD010E944900DC01CB019C
:102C700098AB8FA70FC080E991E09EA78DA78DA587
:102C80009EA50197F1F79EA78DA78FA598A90197FB
:102C900098AB8FA78FA598A9009769F714C069A969
:102CA0007AA98BA99CA90E944900DC01CB0198ABB1
:102CB0008FA78FA598A99CA78BA78BA59CA50197EB
:102CC000F1F79CA78BA78DE061E00E94081181E0DD
:102CD0008AAF8AAD282F30E0CE01CB96FC01E20FFF
:102CE000F31F8081982F917084E1692F0E94081151
:102CF0008AAD282F30E0CE01CB96FC01E20FF31F06
:102D000080818695982F917085E1692F0E94081126
:102D10008AAD282F30E0CE01CB96FC01E20FF31FE5
:102D2000808186958695982F917086E1692F0E9403
:102D300008118AAD282F30E0CE01CB96FC01E20FBE
:102D4000F31F8081869586958695982F917088E1EE
:102D5000692F0E9408118CE060E00E94081180E059
:102D600090E0A0E8BFE38FA398A7A9A7BAA76FA197
:102D700078A589A59AA520E030E04AE755E40E94AD
:102D80001F02DC01CB018BA39CA3ADA3BEA36BA14F
:102D90007CA18DA19EA120E030E040E85FE30E948D
:102DA000250488232CF481E090E09AA389A33FC0F6
:102DB0006BA17CA18DA19EA120E03FEF4FE757E4DE
:102DC0000E94C50318164CF56FA178A589A59AA590
:102DD00020E030E040E251E40E941F02DC01CB0120
:102DE000BC01CD010E944900DC01CB019AA389A35B
:102DF0000FC080E991E098A38F8F8F8D98A10197E4
:102E0000F1F798A38F8F89A19AA101979AA389A31B
:102E100089A19AA1009769F714C06BA17CA18DA12B
:102E20009EA10E944900DC01CB019AA389A389A13C
:102E30009AA19E8F8D8F8D8D9E8D0197F1F79E8F1C
:102E40008D8F8CE061E00E94081182E08AAF8AAD2C
:102E5000282F30E0CE01CB96FC01E20FF31F8081DA
:102E6000982F917084E1692F0E9408118AAD282F54
:102E700030E0CE01CB96FC01E20FF31F80818695F6
:102E8000982F917085E1692F0E9408118AAD282F33
:102E900030E0CE01CB96FC01E20FF31F80818695D6
:102EA0008695982F917086E1692F0E9408118AAD4E
:102EB000282F30E0CE01CB96FC01E20FF31F80817A
:102EC000869586958695982F917088E1692F0E9446
:102ED000081189E160E00E94081180E090E0A0E81C
:102EE000BFE3898F9A8FAB8FBC8F698D7A8D8B8D65
:102EF0009C8D20E030E04AE755E40E941F02DC018F
:102F0000CB018D8B9E8BAF8BB88F6D897E898F891E
:102F1000988D20E030E040E85FE30E94250488239C
:102F20002CF481E090E09C8B8B8B3FC06D897E8977
:102F30008F89988D20E03FEF4FE757E40E94C5034B
:102F400018164CF5698D7A8D8B8D9C8D20E030E0C4
:102F500040E251E40E941F02DC01CB01BC01CD0123
:102F60000E944900DC01CB019C8B8B8B0FC080E958
:102F700091E09A8B898B89899A890197F1F79A8BCD
:102F8000898B8B899C8901979C8B8B8B8B899C89E6
:102F9000009769F714C06D897E898F89988D0E948A
:102FA0004900DC01CB019C8B8B8B8B899C89988B96
:102FB0008F878F8598890197F1F7988B8F8789E1A3
:102FC00061E00E94081183E08AAF8AAD282F30E0CB
:102FD000CE01CB96FC01E20FF31F8081982F9170F8
:102FE00084E1692F0E9408118AAD282F30E0CE01BC
:102FF000CB96FC01E20FF31F80818695982F91708C
:1030000085E1692F0E9408118AAD282F30E0CE019A
:10301000CB96FC01E20FF31F808186958695982F51
:10302000917086E1692F0E9408118AAD282F30E047
:10303000CE01CB96FC01E20FF31F80818695869529
:103040008695982F917088E1692F0E9408118AE176
:1030500060E00E94081180E090E0A0E8BFE38B8769
:103060009C87AD87BE876B857C858D859E8520E09E
:1030700030E04AE755E40E941F02DC01CB018F8358
:103080009887A987BA876F81788589859A8520E096
:1030900030E040E85FE30E94250488232CF481E0BF
:1030A00090E09E838D833FC06F81788589859A8566
:1030B00020E03FEF4FE757E40E94C50318164CF598
:1030C0006B857C858D859E8520E030E040E251E473
:1030D0000E941F02DC01CB01BC01CD010E9449000E
:1030E000DC01CB019E838D830FC080E991E09C833E
:1030F0008B838B819C810197F1F79C838B838D81DE
:103100009E8101979E838D838D819E81009769F7B3
:1031100014C06F81788589859A850E944900DC01F9
:10312000CB019E838D838D819E819A838983898142
:103130009A810197F1F79A8389838AE161E00E947D
:10314000081189AD8F5F89AF05CDDF93CF93CDB7E0
:10315000DEB764970FB6F894DEBF0FBECDBF898B84
:103160006A8B81E0888B8989282F30E03C8B2B8B00
:103170008B899C898130910509F49BC02B893C89FE
:10318000223031052CF48B899C89009771F0C3C0E3
:103190002B893C892230310509F49CC08B899C899C
:1031A0008330910509F4A7C0B6C08FE20E94821057
:1031B0008F878F85882309F0AEC080E090E0A8E477
:1031C000B2E48B879C87AD87BE876B857C858D85B8
:1031D0009E8520E030E04AE755E40E941F02DC01B2
:1031E000CB018F839887A987BA876F817885898576
:1031F0009A8520E030E040E85FE30E9425048823C0
:103200002CF481E090E09E838D833FC06F817885B0
:1032100089859A8520E03FEF4FE757E40E94C50378
:1032200018164CF56B857C858D859E8520E030E0F9
:1032300040E251E40E941F02DC01CB01BC01CD0140
:103240000E944900DC01CB019E838D830FC080E981
:1032500091E09C838B838B819C810197F1F79C8308
:103260008B838D819E8101979E838D838D819E812D
:10327000009769F719C06F81788589859A850E94C2
:103280004900DC01CB019E838D838D819E819A83D1
:10329000898389819A810197F1F79A83898304C090
:1032A0008FE20E9482108F878F858823C9F3188A46
:1032B00032C08EE20E9482108F878F85882359F555
:1032C00004C08EE20E9482108F878F858823C9F305
:1032D000188A21C08DE20E9482108F878F858823F3
:1032E000D1F404C08DE20E9482108F878F858823DD
:1032F000C9F3188A10C08BE20E9482108F878F85D5
:10330000882349F404C08BE20E9482108F878F8546
:103310008823C9F3188A888964960FB6F894DEBFAB
:103320000FBECDBFCF91DF910895DF93CF93CDB77F
:10333000DEB780E792E00E942613CF91DF910895D7
:10334000DF93CF9300D000D0CDB7DEB780E792E017
:103350000E94AB139A83898329813A81C901880F1E
:10336000991F880F991F820F931F2AE030E0B9013F
:103370000E944223CB019C838B838B819C810F9085
:103380000F900F900F90CF91DF910895DF93CF931F
:1033900000D00F92CDB7DEB789838981282F30E026
:1033A0003B832A838A819B8181309105F9F02A81B0
:1033B0003B81223031052CF48A819B81009761F09A
:1033C0001EC02A813B812230310559F08A819B81C0
:1033D0008330910581F013C08BE161E00E940811F8
:1033E0000EC08EE061E00E94081109C08FE061E02C
:1033F0000E94081104C080E161E00E9408110F9052
:103400000F900F90CF91DF910895DF93CF9300D06D
:103410000F92CDB7DEB789838981282F30E03B83B7
:103420002A838A819B8181309105F9F02A813B8131
:10343000223031052CF48A819B81009761F01EC0F7
:103440002A813B812230310559F08A819B8183306A
:10345000910581F013C08BE160E00E9408110EC05D
:103460008EE060E00E94081109C08FE060E00E94D9
:10347000081104C080E160E00E9408110F900F90D5
:103480000F90CF91DF910895DF93CF9300D00F92EB
:10349000CDB7DEB789838981282F30E03B832A832B
:1034A0008A819B8181309105E9F02A813B8122301C
:1034B00031052CF48A819B81009761F01AC02A8122
:1034C0003B812230310551F08A819B818330910507
:1034D00069F00FC08BE10E949A120BC08EE00E942F
:1034E0009A1207C08FE00E949A1203C080E10E94E6
:1034F0009A120F900F900F90CF91DF910895DF9364
:10350000CF93CDB7DEB762970FB6F894DEBF0FBE8C
:10351000CDBF198A188AC8C08091260261E00E9436
:1035200008118091270261E00E9408118091280211
:1035300061E00E9408118091290261E00E94081157
:103540008889882F90E0FC01EA5DFD4F808160E072
:103550000E9408111F86A1C08F85882F90E0FC0172
:10356000E65DFD4F80810E948210882309F092C0A1
:1035700080E090E0A8E4B2E48B879C87AD87BE87AB
:103580006B857C858D859E8520E030E04AE755E49B
:103590000E941F02DC01CB018F839887A987BA871D
:1035A0006F81788589859A8520E030E040E85FE387
:1035B0000E94250488232CF481E090E09E838D8373
:1035C0003FC06F81788589859A8520E03FEF4FE77E
:1035D00057E40E94C50318164CF56B857C858D85D4
:1035E0009E8520E030E040E251E40E941F02DC01B1
:1035F000CB01BC01CD010E944900DC01CB019E83BF
:103600008D830FC080E991E09C838B838B819C81AB
:103610000197F1F79C838B838D819E8101979E8317
:103620008D838D819E81009769F714C06F817885A5
:1036300089859A850E944900DC01CB019E838D8398
:103640008D819E819A83898389819A810197F1F77F
:103650009A8389838F85882F90E0FC01E65DFD4F7A
:1036600080810E9482108823A9F38889482F50E026
:103670008F85282F30E0CA01880F991F880F991F66
:10368000820F931FFC01EA5EFD4F8081898B89893F
:103690008A8B10C08F858F5F8F878F85843008F469
:1036A0005BCF88898F5F888B8889843008F434CF1A
:1036B00089898A8B8A8962960FB6F894DEBF0FBE1D
:1036C000CDBFCF91DF910895DF93CF93CDB7DEB714
:1036D000AB970FB6F894DEBF0FBECDBF8BA78CE0C3
:1036E00060E00E9408118BA582958F70982F9170D1
:1036F00084E1692F0E9408118BA5829586958770B9
:10370000982F917085E1692F0E9408118BA58295F1
:10371000869586958370982F917086E1692F0E9417
:1037200008118BA5982F991F9927991F88E1692F58
:103730000E9408118CE061E00E94081180E090E096
:10374000A0E8BFE38FA398A7A9A7BAA76FA178A500
:1037500089A59AA520E030E04AE755E40E941F02BF
:10376000DC01CB018BA39CA3ADA3BEA36BA17CA169
:103770008DA19EA120E030E040E85FE30E94250497
:1037800088232CF481E090E09AA389A33FC06BA129
:103790007CA18DA19EA120E03FEF4FE757E40E945E
:1037A000C50318164CF56FA178A589A59AA520E048
:1037B00030E040E251E40E941F02DC01CB01BC0179
:1037C000CD010E944900DC01CB019AA389A30FC05F
:1037D00080E991E098A38F8F8F8D98A10197F1F7E1
:1037E00098A38F8F89A19AA101979AA389A389A1F0
:1037F0009AA1009769F714C06BA17CA18DA19EA12D
:103800000E944900DC01CB019AA389A389A19AA156
:103810009E8F8D8F8D8D9E8D0197F1F79E8F8D8F51
:103820008CE060E00E9408118BA5982F917084E1D4
:10383000692F0E9408118BA58695982F917085E1BC
:10384000692F0E9408118BA586958695982F9170F7
:1038500086E1692F0E9408118BA58695869586952D
:10386000982F917088E1692F0E9408118CE061E027
:103870000E94081180E090E0A0E8BFE3898F9A8F52
:10388000AB8FBC8F698D7A8D8B8D9C8D20E030E065
:103890004AE755E40E941F02DC01CB018D8B9E8B11
:1038A000AF8BB88F6D897E898F89988D20E030E04D
:1038B00040E85FE30E94250488232CF481E090E037
:1038C0009C8B8B8B3FC06D897E898F89988D20E082
:1038D0003FEF4FE757E40E94C50318164CF5698D7A
:1038E0007A8D8B8D9C8D20E030E040E251E40E9487
:1038F0001F02DC01CB01BC01CD010E944900DC01AB
:10390000CB019C8B8B8B0FC080E991E09A8B898BCC
:1039100089899A890197F1F79A8B898B8B899C8980
:1039200001979C8B8B8B8B899C89009769F714C0BE
:103930006D897E898F89988D0E944900DC01CB01B9
:103940009C8B8B8B8B899C89988B8F878F85988993
:103950000197F1F7988B8F878CE060E00E94081147
:1039600080E090E0A0EFB1E48B879C87AD87BE87B5
:103970006B857C858D859E8520E030E04AE755E4A7
:103980000E941F02DC01CB018F839887A987BA8729
:103990006F81788589859A8520E030E040E85FE393
:1039A0000E94250488232CF481E090E09E838D837F
:1039B0003FC06F81788589859A8520E03FEF4FE78A
:1039C00057E40E94C50318164CF56B857C858D85E0
:1039D0009E8520E030E040E251E40E941F02DC01BD
:1039E000CB01BC01CD010E944900DC01CB019E83CB
:1039F0008D830FC080E991E09C838B838B819C81B8
:103A00000197F1F79C838B838D819E8101979E8323
:103A10008D838D819E81009769F714C06F817885B1
:103A200089859A850E944900DC01CB019E838D83A4
:103A30008D819E819A83898389819A810197F1F78B
:103A40009A838983AB960FB6F894DEBF0FBECDBFC5
:103A5000CF91DF9108950F931F93DF93CF93CDB74D
:103A6000DEB7C654D0400FB6F894DEBF0FBECDBF50
:103A7000FE01ED5BFF4F80E090E0A6E1B3E48083C0
:103A80009183A283B3838E01015C1F4FFE01ED5B26
:103A9000FF4F608171818281938120E030E04AE7AD
:103AA00055E40E941F02DC01CB01F8018083918361
:103AB000A283B383FE01FF9660817181828193812D
:103AC00020E030E040E85FE30E94250488232CF4E6
:103AD00081E090E09EAF8DAF46C0FE01FF96608111
:103AE00071818281938120E03FEF4FE757E40E948C
:103AF000C503181664F5FE01ED5BFF4F608171810F
:103B00008281938120E030E040E251E40E941F0274
:103B1000DC01CB01BC01CD010E944900DC01CB01DD
:103B20009EAF8DAF0FC080E991E09CAF8BAF8BADA6
:103B30009CAD0197F1F79CAF8BAF8DAD9EAD01971A
:103B40009EAF8DAF8DAD9EAD009769F716C0FE019B
:103B5000FF9660817181828193810E944900DC011E
:103B6000CB019EAF8DAF8DAD9EAD9AAF89AF89ADC4
:103B70009AAD0197F1F79AAF89AF8DE060E00E94AE
:103B8000081182E00E94B51F80E090E0A0EAB0E456
:103B90008DAB9EABAFABB8AF6DA97EA98FA998AD29
:103BA00020E030E04AE755E40E941F02DC01CB012F
:103BB00089AB9AABABABBCAB69A97AA98BA99CA921
:103BC00020E030E040E85FE30E94250488232CF4E5
:103BD00081E090E098AB8FA73FC069A97AA98BA933
:103BE0009CA920E03FEF4FE757E40E94C503181659
:103BF0004CF56DA97EA98FA998AD20E030E040E298
:103C000051E40E941F02DC01CB01BC01CD010E94E6
:103C10004900DC01CB0198AB8FA70FC080E991E090
:103C20009EA78DA78DA59EA50197F1F79EA78DA7AD
:103C30008FA598A9019798AB8FA78FA598A90097F2
:103C400069F714C069A97AA98BA99CA90E944900A7
:103C5000DC01CB0198AB8FA78FA598A99CA78BA758
:103C60008BA59CA50197F1F79CA78BA788E20E94E2
:103C7000B51F80E090E0A0EAB0E48FA398A7A9A7C1
:103C8000BAA76FA178A589A59AA520E030E04AE7F8
:103C900055E40E941F02DC01CB018BA39CA3ADA3C2
:103CA000BEA36BA17CA18DA19EA120E030E040E8E5
:103CB0005FE30E94250488232CF481E090E09AA31E
:103CC00089A33FC06BA17CA18DA19EA120E03FEF05
:103CD0004FE757E40E94C50318164CF56FA178A56D
:103CE00089A59AA520E030E040E251E40E941F023D
:103CF000DC01CB01BC01CD010E944900DC01CB01FC
:103D00009AA389A30FC080E991E098A38F8F8F8D2C
:103D100098A10197F1F798A38F8F89A19AA1019794
:103D20009AA389A389A19AA1009769F714C06BA1EE
:103D30007CA18DA19EA10E944900DC01CB019AA328
:103D400089A389A19AA19E8F8D8F8D8D9E8D0197BC
:103D5000F1F79E8F8D8F8CE00E94B51F80E090E080
:103D6000A0EAB0E4898F9A8FAB8FBC8F698D7A8D72
:103D70008B8D9C8D20E030E04AE755E40E941F02C5
:103D8000DC01CB018D8B9E8BAF8BB88F6D897E89CB
:103D90008F89988D20E030E040E85FE30E942504A1
:103DA00088232CF481E090E09C8B8B8B3FC06D8945
:103DB0007E898F89988D20E03FEF4FE757E40E947E
:103DC000C50318164CF5698D7A8D8B8D9C8D20E07E
:103DD00030E040E251E40E941F02DC01CB01BC0153
:103DE000CD010E944900DC01CB019C8B8B8B0FC065
:103DF00080E991E09A8B898B89899A890197F1F7FB
:103E00009A8B898B8B899C8901979C8B8B8B8B8957
:103E10009C89009769F714C06D897E898F89988D78
:103E20000E944900DC01CB019C8B8B8B8B899C8988
:103E3000988B8F878F8598890197F1F7988B8F875B
:103E400081E00E94B51F80E090E0A0EAB0E48B879B
:103E50009C87AD87BE876B857C858D859E8520E0A0
:103E600030E04AE755E40E941F02DC01CB018F835A
:103E70009887A987BA876F81788589859A8520E098
:103E800030E040E85FE30E94250488232CF481E0C1
:103E900090E09E838D833FC06F81788589859A8568
:103EA00020E03FEF4FE757E40E94C50318164CF59A
:103EB0006B857C858D859E8520E030E040E251E475
:103EC0000E941F02DC01CB01BC01CD010E94490010
:103ED000DC01CB019E838D830FC080E991E09C8340
:103EE0008B838B819C810197F1F79C838B838D81E0
:103EF0009E8101979E838D838D819E81009769F7B6
:103F000014C06F81788589859A850E944900DC01FB
:103F1000CB019E838D838D819E819A838983898144
:103F20009A810197F1F79A83898386E00E94B51FF1
:103F3000CA5BDF4F0FB6F894DEBF0FBECDBFCF9187
:103F4000DF911F910F910895DF93CF930F92CDB71B
:103F5000DEB789838DE061E00E94081189810E94AB
:103F6000641B0F90CF91DF910895DF93CF930F9251
:103F7000CDB7DEB789838DE060E00E9408118981AA
:103F80000E94641B0F90CF91DF910895DF93CF9330
:103F900000D00F92CDB7DEB79B838A8319820EC003
:103FA0008981282F30E08A819B81FC01E20FF31F79
:103FB00080810E94A41F89818F5F89838981282F36
:103FC00030E08A819B81FC01E20FF31F808188230E
:103FD00039F70F900F900F90CF91DF9108950F93C5
:103FE0001F93DF93CF93CDB7DEB7A5970FB6F894A5
:103FF000DEBF0FBECDBF6AA37BA38CA39DA380E2CF
:10400000FE013296DF01982F1D929A95E9F71982E9
:104010008AA19BA1ACA1BDA1BB230CF04AC08AA17F
:104020009BA1ACA1BDA1B095A095909581959F4F06
:10403000AF4FBF4F8AA39BA3ACA3BDA38DE20E9449
:10404000A41F37C08981082F10E08AA19BA1ACA1D1
:10405000BDA12AE030E040E050E0BC01CD010E946B
:104060007823DC01CB01AC01BD019801220F331F85
:10407000220F331FCE010196820F931FFC01319650
:1040800040835183628373838AA19BA1ACA1BDA1AC
:104090002AE030E040E050E0BC01CD010E947823EE
:1040A000DA01C9018AA39BA3ACA3BDA389818F5F59
:1040B00089838AA19BA1ACA1BDA10097A105B105EF
:1040C00009F689818150898318C08981882F90E001
:1040D0009C01220F331F220F331FCE010196820F46
:1040E000931FFC01319680819181A281B381805D13
:1040F0000E94A41F8981815089838981803328F39C
:10410000A5960FB6F894DEBF0FBECDBFCF91DF915D
:104110001F910F910895DF93CF9300D00F92CDB7E9
:10412000DEB78A836B838A81813019F48B8189831E
:1041300014C08A81823021F48B81805C89830DC018
:104140008A81833021F48B818C5E898306C08A81C9
:10415000843019F48B818C5A8983898180580E941C
:10416000B51F0F900F900F90CF91DF910895DF93BF
:10417000CF9300D000D00F92CDB7DEB79C838B8356
:104180006D831A8219828D81882F90E0880F991F84
:10419000880F991F880F991F89838981805C0E94ED
:1041A000B51F1A820EC08A81282F30E08B819C8136
:1041B000FC01E20FF31F80810E94A41F8A818F5FA0
:1041C0008A838A81883078F381E060E00E948B20C6
:1041D0008D810E94A41F0F900F900F900F900F9051
:1041E000CF91DF910895DF93CF930F92CDB7DEB7D4
:1041F000898389810E94A41F0F90CF91DF91089538
:10420000DF93CF93CDB7DEB781E00E94B51FCF918A
:10421000DF910895DF93CF93CDB7DEB788E792E0C3
:104220000E94CB0B0E942B1D0E942B1422E033E234
:1042300080E0B9010E941C0B80E060E00E940E0843
:1042400080E00E94AC0A0E94360ECF91DF91089563
:10425000DF93CF9300D0CDB7DEB71A8219824BC05F
:104260000E941A159A83898389819A81009709F49B
:1042700042C089819A8180319105E8F580E690E01D
:104280000E94C61F89819A81CC01A0E0B0E0BC01E8
:10429000CD010E94EF1F63E070E080E090E040E01D
:1042A00025E00E94A009809114038823E1F3109275
:1042B00014030E9400218EE690E00E94C61F82E057
:1042C00060E00E948B2089E790E00E94C61F63E0B7
:1042D00070E080E090E040E025E00E94A00980913D
:1042E00014038823E1F3109214030E9400210E941A
:1042F00010220E94862189819A818031910508F4DB
:10430000AFCF0F900F90CF91DF910895DF93CF93B0
:1043100000D00F92CDB7DEB71B821A8219820E949D
:10432000002186E890E00E94C61F82E060E00E94C3
:104330008B208EE890E00E94C61F62E070E080E073
:1043400090E040E025E00E94A009809114038823BA
:10435000E1F31092140359C00E9400218AE061E049
:104360000E9408110E94002183E990E00E94C61F6C
:1043700082E060E00E948B208CE990E00E94C61FE2
:1043800061E070E080E090E040E025E00E94A0095C
:10439000809114038823E1F3109214030E947F1A82
:1043A000898389818823D1F38981813351F480E025
:1043B0000E94C61982E00E94C61981E00E94C619B7
:1043C00016C08981823351F480E00E94051A82E090
:1043D0000E94051A81E00E94051A09C08AE060E087
:1043E0000E9408110E94002181E08A8312C00E946D
:1043F000002186EA90E00E94C61F82E060E00E94F1
:104400008B208EEA90E00E94C61F8A81882309F4DF
:10441000A3CF8B810F900F900F90CF91DF910895D4
:104420000F931F93DF93CF93CDB7DEB729970FB6C6
:10443000F894DEBF0FBECDBF83E08D831C821B824C
:104440001E821F82188619861A821982CAC00E948B
:1044500000218FEB90E00E94C61F82E060E00E9486
:104460008B208AE30E94A41F28C08A81082F10E0B5
:104470000E947F1A282FCE010696FC01E00FF11F43
:1044800020838A81282F30E0CE010696FC01E20FBE
:10449000F31F8081882349F38A81282F30E0CE01E1
:1044A0000696FC01E20FF31F80810E94A41F8A81FF
:1044B0008F5F8A838B818F5F8B838B818430A8F29F
:1044C00061E070E080E090E040E025E00E94A0091B
:1044D000809114038823E1F3109214030E940021B9
:1044E0008EEC90E00E94C61F82E060E00E948B206C
:1044F00087ED90E00E94C61F63E070E080E090E0EE
:1045000040E025E00E94A009809114038823E1F394
:10451000109214031A821CC08A81282F30E0CE0129
:104520000696FC01E20FF31F20818A81882F90E01C
:10453000FC01E850FD4F8081281721F48A818F5FAC
:104540008A8303C089818F5F89838A818F5F8A8391
:104550008A81843008F38981882309F447C08981DE
:10456000882309F43EC08C818F5F8C838C818330DB
:10457000C9F40E94002183EE90E00E94C61F68E704
:1045800070E080E090E040E025E00E94A00980918A
:1045900014038823E1F3109214031C8219821B82F6
:1045A0001A821FC00E94002181EF90E00E94C61F66
:1045B00082E060E00E948B2080E091E00E94C61FB4
:1045C00062E070E080E090E040E025E00E94A00919
:1045D000809114038823E1F31092140319821B8243
:1045E0001A829C818D81981708F431CF8C8129968D
:1045F0000FB6F894DEBF0FBECDBFCF91DF911F91F4
:104600000F910895DF93CF93CDB7DEB70E94740961
:1046100081E080931403CF91DF910895DF93CF93CE
:10462000CDB7DEB70E940A210E942821FDCF629FEC
:10463000D001739FF001829FE00DF11D649FE00D9A
:10464000F11D929FF00D839FF00D749FF00D659FFB
:10465000F00D9927729FB00DE11DF91F639FB00DFA
:10466000E11DF91FBD01CF0111240895991B79E0C7
:1046700004C0991F961708F0961B881F7A95C9F7F2
:1046800080950895AA1BBB1B51E107C0AA1FBB1F41
:10469000A617B70710F0A61BB70B881F991F5A95CE
:1046A000A9F780959095BC01CD010895A1E21A2E3D
:1046B000AA1BBB1BFD010DC0AA1FBB1FEE1FFF1FC6
:1046C000A217B307E407F50720F0A21BB30BE40B16
:1046D000F50B661F771F881F991F1A9469F760955D
:1046E0007095809590959B01AC01BD01CF01089517
:1046F00097FB092E05260ED057FD04D0D7DF0AD030
:10470000001C38F450954095309521953F4F4F4F00
:104710005F4F0895F6F790958095709561957F4F5E
:104720008F4F9F4F08952F923F924F925F926F92BB
:104730007F928F929F92AF92BF92CF92DF92EF9231
:10474000FF920F931F93CF93DF93CDB7DEB7CA1BB2
:10475000DB0B0FB6F894DEBF0FBECDBF09942A88DD
:10476000398848885F846E847D848C849B84AA8485
:10477000B984C884DF80EE80FD800C811B81AA8112
:10478000B981CE0FD11D0FB6F894DEBF0FBECDBFDD
:08479000ED010895F894FFCF3C
:104798005468652052616E67652069733A005765F1
:1047A8006C636F6D6520746F004C6F67696E205382
:1047B800797374656D0057656C636F6D65004E6F36
:1047C800757200312D4C6564204F6E00322D4C659A
:1047D80064204F666600546F2065786974005072D3
:1047E80065737320616E7920627574746F6E00450D
:1047F8006E7465722050617373776F7264004368DA
:1048080065636B696E670050617373776F72642EAE
:104818002E2E0053797374656D204C6F636B65643D
:104828000057726F6E672050617373776F72640000
:10483800506C732E54727920416761696E000000D4
:104848000000000000000001020203030303040447
:104858000404040404040505050505050505050506
:1048680005050505050506060606060606060606E6
:1048780006060606060606060606060606060606D0
:1048880006060606060607070707070707070707B6
:1048980007070707070707070707070707070707A0
:1048A8000707070707070707070707070707070790
:1048B8000707070707070707070707070707070780
:1048C8000707070707070808080808080808080866
:1048D8000808080808080808080808080808080850
:1048E8000808080808080808080808080808080840
:1048F8000808080808080808080808080808080830
:10490800080808080808080808080808080808081F
:10491800080808080808080808080808080808080F
:1049280008080808080808080808080808080808FF
:1049380008080808080808080808080808080808EF
:104948000808080808083738392F3435362A31322C
:10495800332D41303D2B1E1F2021222324251515E0
:1049680015111111111F0100010D0F041C00000089
:10497800000101010F00001B15110A0400000000CE
:104988000A00110E000000010103020201000000EC
:1049980008000000400000000001000000040000C2
:1049A80000060000000601000A0001010B000101D9
:1049B8000C0101010D0101010E0001010F000101AF
:1049C800100101011100010114010101150101018A
:1049D8001601010117000101180101011900010167
:1049E8001A0001011B0001011E0101011F01010143
:1049F8002001010121010101220100002301000021
:104A080024010000250100002800010129000101FE
:104A18002A0000002B0100002C0001012D010000DC
:0C4A28002E0100002F0100003132333459
:00000001FF
