:100000000C942A000C94EC0F0C941F100C942F10DD
:100010000C9447000C9447000C9447000C94470044
:100020000C9447000C9447000C94780B0C940F0B25
:100030000C9447000C9447000C9447000C94470024
:100040000C9447000C9447000C9447000C94470014
:100050000C94470011241FBECFE5D8E0DEBFCDBF12
:1000600012E0A0E6B0E0E8E8FAE202C005900D92E6
:10007000A231B107D9F712E0A2E1B2E001C01D92AE
:10008000A633B107E1F70E948C140C9442150C942E
:100090000000EF92FF920F931F937B018C0120E0F1
:1000A00030E040E05FE40E94F50388238CF0C80153
:1000B000B70120E030E040E05FE40E94C1010E940F
:1000C00055049B01AC01205030404040504806C0D0
:1000D000C801B7010E9455049B01AC01B901CA01D6
:1000E0001F910F91FF90EF900895A0E0B0E0EBE733
:1000F000F0E00C940B15DC012B01FA019C9192307D
:1001000008F439C1EB018881823008F433C194309E
:1001100069F4843009F02FC111969C91119789815F
:10012000981709F428C1A0E6B0E025C1843009F48D
:1001300021C18230A9F4923009F01DC19A01AD01AC
:1001400088E0EA010990AE01E90109929E0181501F
:10015000C1F7E201898111969C918923818308C1AD
:10016000923009F407C112962D903C901397EB0141
:100170008A819B811496AD90BD90CD90DC901797AD
:10018000EC80FD800E811F819101281B390BB90184
:1001900037FF04C066277727621B730B6032710537
:1001A0000CF061C0121613066CF537014801062EDB
:1001B00004C096948794779467940A94D2F721E0C8
:1001C00030E040E050E004C0220F331F441F551FB1
:1001D0006A95D2F721503040404050402E213F21B7
:1001E00040235123211531054105510521F021E01E
:1001F00030E040E050E079018A01E628F72808293C
:1002000019293CC0232BD1F1260E371E350146019A
:10021000062E04C096948794779467940A94D2F734
:1002200021E030E040E050E004C0220F331F441FC3
:10023000551F6A95D2F721503040404050402A2146
:100240003B214C215D21211531054105510521F04E
:1002500021E030E040E050E059016A01A628B728CB
:10026000C828D9280BC0821593052CF01C01AA249C
:10027000BB24650103C0EE24FF24870111969C91E5
:10028000D20111968C91981709F445C0992339F041
:10029000A80197012A193B094C095D0906C0A6016E
:1002A00095012E193F09400B510B57FD08C01182D3
:1002B0003382228224833583468357831DC081E0A5
:1002C00081833382228288279927DC01821B930B4A
:1002D000A40BB50B84839583A683B7830DC0220F2F
:1002E000331F441F551F24833583468357838281E0
:1002F000938101979383828324813581468157813D
:10030000DA01C9010197A109B1098F5F9F4FAF4F72
:10031000BF4328F30BC0918333822282EA0CFB1C7B
:100320000C1D1D1DE482F5820683178383E0808304
:10033000248135814681578157FF1AC0C901AA27F8
:1003400097FDA095BA2F81709070A070B0705695EF
:10035000479537952795822B932BA42BB52B848318
:100360009583A683B7838281938101969383828349
:10037000DF0101C0D201CD01CDB7DEB7E2E10C94BF
:100380002715A0E2B0E0E7ECF1E00C9417156983C3
:100390007A838B839C832D833E834F835887E9E048
:1003A000EE2EF12CEC0EFD1ECE010196B7010E943F
:1003B00046068E010F5E1F4FCE010596B8010E94C2
:1003C00046068A8991E089278A8BC701B801AE0168
:1003D000475E5F4F0E9475000E947105A096E6E09F
:1003E0000C943315A0E2B0E0E8EFF1E00C9417159F
:1003F00069837A838B839C832D833E834F835887C5
:10040000F9E0EF2EF12CEC0EFD1ECE010196B701A6
:100410000E9446068E010F5E1F4FCE010596B80161
:100420000E944606C701B801AE01475E5F4F0E94B9
:1004300075000E947105A096E6E00C943315A0E2C9
:10044000B0E0E5E2F2E00C940B1569837A838B83CC
:100450009C832D833E834F835887CE010196BE0136
:10046000675F7F4F0E944606CE010596BE016F5E14
:100470007F4F0E9446069985923088F089898230A4
:10048000C8F0943019F4823051F404C0843029F457
:10049000923081F480E690E0C6C0923049F420E0CA
:1004A0009A858A89981321E02A87CE010996BBC0D4
:1004B000823049F420E09A858A89981321E02A8BBA
:1004C000CE014196B0C02D843E844F8458886D88FB
:1004D0007E888F88988CEE24FF248701AA24BB2471
:1004E000650140E050E060E070E0E0E0F0E0C10174
:1004F00081709070892BE9F0E60CF71C081D191D1E
:100500009A01AB012A0D3B1D4C1D5D1D80E090E062
:10051000A0E0B0E0E614F7040805190520F481E036
:1005200090E0A0E0B0E0BA01A901480F591F6A1F8E
:100530007B1FAA0CBB1CCC1CDD1C97FE08C081E0F5
:1005400090E0A0E0B0E0A82AB92ACA2ADB2A3196B6
:10055000E032F10549F0660C771C881C991C569412
:10056000479437942794C3CFFA85EA892B893C892D
:100570008B859C85280F391F2E5F3F4F17C0CA01FE
:1005800081709070892B61F016950795F794E79428
:1005900080E090E0A0E0B0E8E82AF92A0A2B1B2BC3
:1005A00076956795579547952F5F3F4F77FDE7CF36
:1005B0000CC0440F551F661F771F17FD4160EE0CDE
:1005C000FF1C001F111F21503040403090E05907A0
:1005D00090E0690790E4790760F32B8F3C8FDB0193
:1005E000CA018F779070A070B07080349105A1051A
:1005F000B10561F447FD0AC0E114F10401051105DC
:1006000029F0405C5F4F6F4F7F4F40781A8EFE1786
:1006100011F081E08A8F4D8F5E8F6F8F78A383E01A
:10062000898FCE0149960E947105A096E2E10C9453
:100630002715A8E1B0E0EFE1F3E00C94131569830E
:100640007A838B839C832D833E834F835887B9E0C5
:10065000EB2EF12CEC0EFD1ECE010196B7010E948F
:1006600046068E010F5E1F4FCE010596B8010E940F
:1006700046062985223008F47EC03989323010F4CC
:10068000B8017CC08A859A8989278A87243011F02D
:10069000223031F4231709F06EC060E670E06EC0BE
:1006A000343039F41D861E861F86188A1C861B86E8
:1006B00004C0323021F484E08987B7015FC02B8504
:1006C0003C858B899C89281B390B3C872B87ED84C3
:1006D000FE840F851889AD88BE88CF88D88CEA142F
:1006E000FB040C051D0540F4EE0CFF1C001F111F40
:1006F000215030403C872B8720E030E040E050E044
:1007000080E090E0A0E0B0E460E070E0EA14FB0478
:100710000C051D0540F0282B392B4A2B5B2BEA18C2
:10072000FB080C091D09B695A79597958795EE0CC2
:10073000FF1C001F111F6F5F7F4F6F31710531F775
:10074000DA01C9018F779070A070B0708034910584
:10075000A105B10561F427FD0AC0E114F10401050A
:10076000110529F0205C3F4F4F4F5F4F20782D87B8
:100770003E874F87588BBE01675F7F4FCB010E943A
:1007800071056896EAE00C942F15A8E1B0E0EBEC57
:10079000F3E00C94171569837A838B839C832D83F4
:1007A0003E834F83588789E0E82EF12CEC0EFD1E26
:1007B000CE010196B7010E9446068E010F5E1F4FC3
:1007C000CE010596B8010E9446068985823040F028
:1007D0008989823028F0C701B8010E94BE0601C095
:1007E0008FEF6896E6E00C943315A8E1B0E0EBEFEC
:1007F000F3E00C94171569837A838B839C832D8394
:100800003E834F83588789E0E82EF12CEC0EFD1EC5
:10081000CE010196B7010E9446068E010F5E1F4F62
:10082000CE010596B8010E9446068985823040F0C7
:100830008989823028F0C701B8010E94BE0601C034
:100840008FEF6896E6E00C943315A8E1B0E0EBE298
:10085000F4E00C94171569837A838B839C832D8332
:100860003E834F83588789E0E82EF12CEC0EFD1E65
:10087000CE010196B7010E9446068E010F5E1F4F02
:10088000CE010596B8010E9446068985823040F067
:100890008989823028F0C701B8010E94BE0601C0D4
:1008A00081E06896E6E00C943315ACE0B0E0EBE54F
:1008B000F4E00C941B1569837A838B839C83CE01AF
:1008C0000196BE016B5F7F4F0E9446068D8182308C
:1008D00061F1823050F1843021F48E81882351F10E
:1008E0002EC02F81388537FD20C06E812F31310514
:1008F0001CF06623F9F023C08EE190E0821B930B7D
:1009000029853A854B855C8504C056954795379572
:1009100027958A95D2F76623B1F05095409530958A
:1009200021953F4F4F4F5F4F0EC020E030E040E039
:1009300050E009C02FEF3FEF4FEF5FE704C020E02A
:1009400030E040E050E8B901CA012C96E2E00C9496
:100950003715A8E0B0E0EFEAF4E00C9413157B0142
:100960008C01611571058105910519F482E0898377
:1009700060C083E089838EE1C82ED12CDC82CB82DB
:10098000ED82FE820F831887C801B7010E942205FD
:10099000FC013197F7FF3BC0222733272E1B3F0B6B
:1009A00057016801022E04C0D694C794B794A79447
:1009B0000A94D2F740E050E060E070E081E090E01F
:1009C000A0E0B0E004C0880F991FAA1FBB1F2A95A2
:1009D000D2F70197A109B1098E219F21A023B1234C
:1009E0000097A105B10521F041E050E060E070E022
:1009F0004A295B296C297D294D835E836F83788723
:100A00008EE190E08E1B9F0B9C838B8312C03097EE
:100A100081F00E2E04C0EE0CFF1C001F111F0A9463
:100A2000D2F7ED82FE820F831887CE1ADF0ADC82AE
:100A3000CB821A82CE0101960E9471052896EAE0C7
:100A40000C942F15EF92FF920F931F937B018C0153
:100A500080E0E81680E0F80681E0080780E01807EB
:100A600088F48FEFE816F1040105110531F028F044
:100A700088E090E0A0E0B0E017C080E090E0A0E067
:100A8000B0E012C080E0E81680E0F80680E00807D9
:100A900081E0180728F088E190E0A0E0B0E004C011
:100AA00080E190E0A0E0B0E020E230E040E050E003
:100AB000281B390B4A0B5B0B04C016950795F7945E
:100AC000E7948A95D2F7F701E859FF4F8081281BF8
:100AD000310941095109C9011F910F91FF90EF9010
:100AE0000895DF92EF92FF920F931F93FC01E48031
:100AF000F58006811781D1808081823048F480E0C2
:100B000090E0A0E1B0E0E82AF92A0A2B1B2BA5C04F
:100B1000843009F49FC0823021F4EE24FF24870141
:100B200005C0E114F1040105110519F4E0E0F0E05D
:100B300096C0628173819FEF623879070CF05BC0C9
:100B400022E83FEF261B370B2A3131052CF020E03D
:100B500030E040E050E02AC0B801A701022E04C0F6
:100B600076956795579547950A94D2F781E090E07E
:100B7000A0E0B0E004C0880F991FAA1FBB1F2A95F0
:100B8000D2F70197A109B1098E219F21A023B1239A
:100B90000097A105B10521F081E090E0A0E0B0E070
:100BA0009A01AB01282B392B4A2B5B2BDA01C901A7
:100BB0008F779070A070B07080349105A105B10559
:100BC00039F427FF09C0205C3F4F4F4F5F4F04C0EF
:100BD000215C3F4F4F4F5F4FE0E0F0E02030A0E05E
:100BE0003A07A0E04A07A0E45A0710F0E1E0F0E07D
:100BF00079018A0127C06038710564F5FB01E1586D
:100C0000FF4FD801C7018F779070A070B07080340B
:100C10009105A105B10539F4E7FE0DC080E490E02F
:100C2000A0E0B0E004C08FE390E0A0E0B0E0E80E08
:100C3000F91E0A1F1B1F17FF05C016950795F7948D
:100C4000E794319687E016950795F794E7948A958F
:100C5000D1F705C0EE24FF248701EFEFF0E06E2FFF
:100C6000679566276795902F9F77D794DD24D79453
:100C70008E2F8695492F462B582F5D29B701CA0123
:100C80001F910F91FF90EF90DF900895FC01DB0121
:100C9000408151812281622F6F7770E0221F2227CD
:100CA000221F9381892F880F822B282F30E0991FD4
:100CB0009927991F11969C93119721153105A9F534
:100CC000411551056105710511F482E037C082E8D4
:100CD0009FEF13969C938E9312979A01AB0167E056
:100CE000220F331F441F551F6A95D1F783E08C9361
:100CF0000DC0220F331F441F551F12968D919C91DA
:100D00001397019713969C938E931297203080E04F
:100D1000380780E0480780E4580758F314962D936D
:100D20003D934D935C93179708952F3F310579F4C8
:100D3000411551056105710519F484E08C930895FE
:100D400064FF03C081E08C9312C01C9210C02F5727
:100D5000304013963C932E93129783E08C9387E058
:100D6000440F551F661F771F8A95D1F7706414963C
:100D70004D935D936D937C93179708951F93DC01BA
:100D8000FB019C91923008F447C08081823008F4C6
:100D900043C0943051F411961C91843099F58181AF
:100DA000682F70E0611B71093FC0843021F09230E0
:100DB00031F48230B9F18181882389F12DC01196F7
:100DC0001C9111978230F1F081811817D9F4129695
:100DD0002D913C911397828193818217930794F010
:100DE00028173907BCF014968D919D910D90BC91F8
:100DF000A02D2481358146815781281739074A075C
:100E00005B0718F4112341F00AC082179307A40767
:100E1000B50740F4112319F061E070E005C06FEFF1
:100E20007FEF02C060E070E0CB011F910895DF9377
:100E3000CF93CDB7DEB781E991E00E94880B80E0C7
:100E400060E00E94DC0780E00E94690A2AE637E041
:100E500080E0B9010E94D90A0E94F30DCF91DF9181
:100E60000895DF93CF9300D00F92CDB7DEB79B8369
:100E70008A831982EA81FB81828189838981282F73
:100E800030E0EA81FB8140815181C901880F991FBF
:100E9000880F991F820F931FFC01EE5EFD4F518357
:100EA00040838981282F30E0EA81FB81438154818E
:100EB000C901880F991F880F991F820F931FFC018A
:100EC000EB5EFD4F518340830F900F900F90CF91B9
:100ED000DF910895DF93CF9300D0CDB7DEB71A82AC
:100EE00080912102909122028C509E4F9093220279
:100EF00080932102198241C0409121025091220227
:100F00008981282F30E0C901880F991F880F991F08
:100F1000820F931FFC01EE5EFD4F20813181CA01DB
:100F2000B9010E94D514009729F58981282F30E056
:100F3000C901880F991F880F991F820F931FFC0109
:100F4000EB5EFD4F808191810097A1F08981282F70
:100F500030E0C901880F991F880F991F820F931FD6
:100F6000FC01EB5EFD4F0190F081E02D09958A8137
:100F70008F5F8A8389818F5F89838981833008F4B9
:100F8000BBCF8A81833021F4109222021092210279
:100F90000F900F90CF91DF910895DF93CF93CDB74E
:100FA000DEB764EF71E080E090E040E022E00E9474
:100FB0006E09CF91DF910895DF93CF93CDB7DEB760
:100FC0002C970FB6F894DEBF0FBECDBF89836A831E
:100FD0008981282F30E03C872B878B859C85813049
:100FE000910509F466C02B853C85223031052CF42F
:100FF0008B859C85009771F023C12B853C85223021
:10100000310509F4A6C08B859C858330910509F4D0
:10101000DCC016C1A3E5B0E0E3E5F0E08081877DA8
:101020008C93A3E5B0E0E3E5F0E080818C938A81C6
:10103000282F30E03A87298789859A858230910563
:10104000D1F029853A852330310521F189859A85AA
:101050008130910509F0F4C0A3E5B0E0E3E5F0E0EC
:1010600080818F7C8C93A3E5B0E0E3E5F0E08081A4
:1010700080618C93E5C0A3E5B0E0E3E5F0E080811A
:101080008F7C8C93A3E5B0E0E3E5F0E080818062A3
:101090008C93D6C0A3E5B0E0E3E5F0E080818F7CDF
:1010A0008C93A3E5B0E0E3E5F0E0808180638C936E
:1010B000C7C0A3E5B0E0E3E5F0E08081877D8C93D5
:1010C000A3E5B0E0E3E5F0E0808188608C938A815D
:1010D000282F30E038872F838F81988582309105C3
:1010E000D1F02F8138852330310521F18F8198850A
:1010F0008130910509F0A4C0A3E5B0E0E3E5F0E09C
:1011000080818F7C8C93A3E5B0E0E3E5F0E0808103
:1011100080618C9395C0A3E5B0E0E3E5F0E08081C9
:101120008F7C8C93A3E5B0E0E3E5F0E08081806202
:101130008C9386C0A3E5B0E0E3E5F0E080818F7C8E
:101140008C93A3E5B0E0E3E5F0E0808180638C93CD
:1011500077C0A3E5B0E0E3E5F0E08081877D8C9384
:10116000A3E5B0E0E3E5F0E0808188648C938A81B8
:10117000282F30E03E832D838D819E818430910520
:1011800031F02D813E812530310581F059C0A3E534
:10119000B0E0E3E5F0E080818F7C8C93A3E5B0E0E4
:1011A000E3E5F0E0808180638C934AC0A3E5B0E082
:1011B000E3E5F0E080818F7C8C93A3E5B0E0E3E58C
:1011C000F0E0808180628C933BC0A3E5B0E0E3E572
:1011D000F0E08081877D8C93A3E5B0E0E3E5F0E06B
:1011E000808180648C938A81282F30E03C832B831C
:1011F0008B819C818430910531F02B813C8125309D
:10120000310581F01DC0A3E5B0E0E3E5F0E08081A9
:101210008F7C8C93A3E5B0E0E3E5F0E08081806310
:101220008C930EC0A3E5B0E0E3E5F0E080818F7C15
:101230008C93A3E5B0E0E3E5F0E0808180628C93DD
:101240002C960FB6F894DEBF0FBECDBFCF91DF91C5
:101250000895DF93CF930F92CDB7DEB78983A3E5CF
:10126000B0E0E3E5F0E08081887F8C93A3E5B0E017
:10127000E3E5F0E090818981892B8C930F90CF91E9
:10128000DF910895DF93CF93CDB7DEB7A3E5B0E04C
:10129000E3E5F0E08081887F8C93A3E5B0E0E3E5AF
:1012A000F0E080818C93CF91DF910895DF93CF930D
:1012B000CDB7DEB7E2E5F0E08081CF91DF91089510
:1012C000DF93CF930F92CDB7DEB78983E2E5F0E0ED
:1012D000898180830F90CF91DF910895DF93CF9321
:1012E000CDB7DEB7AC970FB6F894DEBF0FBECDBF5B
:1012F0006AA37BA38CA39DA34EA32FA3CE010E961E
:1013000099A788A7EDE7F1E0FBA7EAA7F4E1FCA71E
:10131000EAA5FBA500808AA59BA501969BA78AA7A5
:10132000E8A5F9A5008288A599A5019699A788A79F
:101330009CA591509CA7ECA5EE2351F78A899B8927
:10134000AC89BD89BC01CD010E94A904DC01CB019F
:10135000BC01CD0120E030E040E851E40E941903D7
:10136000DC01CB018A879B87AC87BD871E821F82E9
:10137000188619861A821B821C821D826AA17BA193
:101380008CA19DA10E94A904DC01CB01BC01CD016F
:1013900020E030E04AE754E40E941F02DC01CB0168
:1013A000BC01CD012A853B854C855D850E941903D2
:1013B000DC01CB01BC01CD010E944900DC01CB0165
:1013C0008E839F83A887B9878EA18823C9F58E81D4
:1013D0009F81A885B985892F9A2FAB2FBB27809332
:1013E000270290932802A0932902B0932A028E81AB
:1013F00080932B028E819F81A885B9859070A07003
:10140000B0700097A105B10509F457C0E2E5F0E01E
:1014100080912B02819580838091270290912802F0
:10142000A0912902B0912A020196A11DB11D8093BD
:10143000270290932802A0932902B0932A023DC06C
:101440008EA18130D1F58FEF90E0A0E0B0E08A83EB
:101450009B83AC83BD8319820BC08A819B81AC8145
:10146000BD810197A109B1098A839B83AC83BD83A8
:101470008E819F81A885B9852A813B814C815D81C0
:10148000BC01CD010E94E914DC01CB010097A1054C
:10149000B10519F78E819F81A885B9852A813B8185
:1014A0004C815D81BC01CD010E94E914DC01CB01BE
:1014B0008983ECE5F0E0898180838FA10E9429096E
:1014C000AC960FB6F894DEBF0FBECDBFCF91DF91C3
:1014D0000895DF93CF9300D00F92CDB7DEB7898305
:1014E0008981282F30E03B832A838A819B81009762
:1014F00031F02A813B812130310581F01DC0A9E501
:10150000B0E0E9E5F0E080818E7F8C93A9E5B0E062
:10151000E9E5F0E0808181608C930EC0A9E5B0E040
:10152000E9E5F0E080818D7F8C93A9E5B0E0E9E505
:10153000F0E0808182608C930F900F900F90CF919C
:10154000DF910895DF93CF9300D00F92CDB7DEB730
:1015500089838981282F30E03B832A838A819B817C
:10156000009731F02A813B812130310579F01BC091
:10157000A9E5B0E0E9E5F0E080818E7F8C93A9E5F4
:10158000B0E0E9E5F0E080818C930DC0A9E5B0E022
:10159000E9E5F0E080818D7F8C93A9E5B0E0E9E595
:1015A000F0E080818C930F900F900F90CF91DF919E
:1015B0000895DF93CF9300D000D00F92CDB7DEB760
:1015C00089837B836A838981282F30E03D832C8344
:1015D0008C819D81009731F02C813D812130310536
:1015E00061F015C08A819B81009789F08A819B8177
:1015F00090932402809323020AC08A819B810097E2
:1016000031F08A819B8190932602809325020F906E
:101610000F900F900F900F90CF91DF9108951F9230
:101620000F920FB60F9211242F933F934F935F9316
:101630006F937F938F939F93AF93BF93EF93FF939A
:10164000DF93CF93CDB7DEB780912C0290912D021E
:10165000A0912E02B0912F020196A11DB11D809381
:101660002C0290932D02A0932E02B0932F02809112
:10167000230290912402009741F120912C02309195
:101680002D0240912E0250912F02809127029091BD
:101690002802A0912902B0912A02281739074A0787
:1016A0005B0799F4E0912302F091240209951092CE
:1016B0002C0210922D0210922E0210922F02E2E5BF
:1016C000F0E080912B0281958083CF91DF91FF9193
:1016D000EF91BF91AF919F918F917F916F915F91AA
:1016E0004F913F912F910F900FBE0F901F90189523
:1016F0001F920F920FB60F921124DF93CF93CDB7A5
:10170000DEB7CF91DF910F900FBE0F901F9018950D
:10171000DF93CF93CDB7DEB72B970FB6F894DEBF2C
:101720000FBECDBF9D838C838C819D81009709F472
:1017300051C21B824BC28B81882F90E09C01220FEB
:10174000331F220F331F8C819D81FC01E20FF31F99
:1017500080819AE0692F0E94C914892F8A838B8126
:10176000882F90E09C01220F331F220F331F8C81A2
:101770009D81FC01E20FF31F80819AE0692F0E9496
:10178000C91489838B81882F90E09C01220F331F1D
:10179000220F331F8C819D81FC01E20FF31F828198
:1017A000882389F08B81882F90E09C01220F331FC2
:1017B000220F331F8C819D81FC01E20FF31F828178
:1017C000813009F000C28981282F30E03B872A87C9
:1017D0006A857B8562307105D1F18A859B8583306E
:1017E000910534F42A853B852130310571F094C090
:1017F0006A857B856330710509F44BC08A859B85BA
:101800008430910509F467C087C0AAE3B0E0EAE339
:10181000F0E040818B81882F90E09C01220F331FE4
:10182000220F331F8C819D81FC01E20FF31F828107
:10183000282F30E08A81882F90E0B90102C0660F1E
:10184000771F8A95E2F7CB01842B8C9365C0A7E3C1
:10185000B0E0E7E3F0E040818B81882F90E09C01CD
:10186000220F331F220F331F8C819D81FC01E20F59
:10187000F31F8281282F30E08A81882F90E0B90100
:1018800002C0660F771F8A95E2F7CB01842B8C93F9
:1018900043C0A4E3B0E0E4E3F0E040818B81882F13
:1018A00090E09C01220F331F220F331F8C819D81FA
:1018B000FC01E20FF31F8281282F30E08A81882FFC
:1018C00090E0B90102C0660F771F8A95E2F7CB015D
:1018D000842B8C9321C0A1E3B0E0E1E3F0E04081F0
:1018E0008B81882F90E09C01220F331F220F331F22
:1018F0008C819D81FC01E20FF31F8281282F30E053
:101900008A81882F90E0B90102C0660F771F8A95FF
:10191000E2F7CB01842B8C938B81882F90E09C0184
:10192000220F331F220F331F8C819D81FC01E20F98
:10193000F31F8181882389F08B81882F90E09C019F
:10194000220F331F220F331F8C819D81FC01E20F78
:10195000F31F8181813009F036C18981282F30E061
:10196000398728876885798562307105D1F1888546
:1019700099858330910534F42885398521303105E6
:1019800071F094C0688579856330710509F44BC0A6
:10199000888599858430910509F467C087C0ABE3D9
:1019A000B0E0EBE3F0E040818B81882F90E09C0178
:1019B000220F331F220F331F8C819D81FC01E20F08
:1019C000F31F8181282F30E08A81882F90E0B901B0
:1019D00002C0660F771F8A95E2F7CB01842B8C93A8
:1019E00065C0A8E3B0E0E8E3F0E040818B81882F98
:1019F00090E09C01220F331F220F331F8C819D81A9
:101A0000FC01E20FF31F8181282F30E08A81882FAB
:101A100090E0B90102C0660F771F8A95E2F7CB010B
:101A2000842B8C9343C0A5E3B0E0E5E3F0E0408174
:101A30008B81882F90E09C01220F331F220F331FD0
:101A40008C819D81FC01E20FF31F8181282F30E002
:101A50008A81882F90E0B90102C0660F771F8A95AE
:101A6000E2F7CB01842B8C9321C0A2E3B0E0E2E348
:101A7000F0E040818B81882F90E09C01220F331F82
:101A8000220F331F8C819D81FC01E20FF31F8181A6
:101A9000282F30E08A81882F90E0B90102C0660FBC
:101AA000771F8A95E2F7CB01842B8C938B81882F4B
:101AB00090E09C01220F331F220F331F8C819D81E8
:101AC000FC01E20FF31F8281813009F07CC08B8121
:101AD000882F90E09C01220F331F220F331F8C812F
:101AE0009D81FC01E20FF31F8381882309F06BC005
:101AF0008981282F30E03F832E836E817F81623081
:101B0000710549F18E819F818330910534F42E81D6
:101B10003F812130310561F056C06E817F81633095
:101B2000710561F18E819F8184309105D1F14BC0A7
:101B3000ABE3B0E0EBE3F0E040818A81282F30E0B6
:101B400081E090E0022E02C0880F991F0A94E2F70C
:101B5000842B8C9338C0A8E3B0E0E8E3F0E0408148
:101B60008A81282F30E081E090E0022E02C0880FA9
:101B7000991F0A94E2F7842B8C9325C0A5E3B0E06B
:101B8000E5E3F0E040818A81282F30E081E090E0B9
:101B9000022E02C0880F991F0A94E2F7842B8C93BF
:101BA00012C0A2E3B0E0E2E3F0E040818A81282F96
:101BB00030E081E090E0022E02C0880F991F0A9465
:101BC000E2F7842B8C938B818F5F8B838B818032A8
:101BD00008F4B1CD2B960FB6F894DEBF0FBECDBF83
:101BE000CF91DF910895DF93CF93CDB7DEB7AFE507
:101BF000B0E0EFE5F0E0808180688C93CF91DF91D9
:101C00000895DF93CF93CDB7DEB7AFE5B0E0EFE552
:101C1000F0E080818F778C93CF91DF910895DF93EF
:101C2000CF93CDB7DEB72B970FB6F894DEBF0FBEBC
:101C3000CDBF9B838A8319820EC18981882F90E052
:101C40009C01220F331F8A819B81FC01E20FF31F4D
:101C50008081282F30E03B872A878A859B858130C9
:101C6000910509F44AC02A853B852230310509F4E3
:101C7000B1C08A859B85009709F0EAC08981882FC9
:101C800090E09C01220F331F8A819B81FC01E20FAF
:101C9000F31F8181282F30E039872887888599852F
:101CA000009731F0288539852130310581F01DC03C
:101CB000A5E5B0E0E5E5F0E080818D7F8C93A5E5BA
:101CC000B0E0E5E5F0E080818E7F8C930EC0A5E565
:101CD000B0E0E5E5F0E080818D7F8C93A5E5B0E094
:101CE000E5E5F0E0808181608C93ABE5B0E0EBE569
:101CF000F0E0808180648C93ABC08981882F90E074
:101D00009C01220F331F8A819B81FC01E20FF31F8C
:101D10008181282F30E03F832E838E819F81813007
:101D2000910521F12E813F81223031052CF48E81E5
:101D30009F81009761F046C02E813F81223031059E
:101D400021F18E819F818330910571F13BC0A5E522
:101D5000B0E0E5E5F0E0808182608C93A5E5B0E03D
:101D6000E5E5F0E080818E7F8C932CC0A5E5B0E0A6
:101D7000E5E5F0E080818D7F8C93A5E5B0E0E5E5B9
:101D8000F0E0808181608C931DC0A5E5B0E0E5E5C1
:101D9000F0E0808182608C93A5E5B0E0E5E5F0E0BD
:101DA00080818E7F8C930EC0A5E5B0E0E5E5F0E084
:101DB000808182608C93A5E5B0E0E5E5F0E080816C
:101DC00081608C93ABE5B0E0EBE5F0E0808180686A
:101DD0008C933EC08981882F90E09C01220F331F95
:101DE0008A819B81FC01E20FF31F8181282F30E063
:101DF0003D832C838C819D81009731F02C813D8126
:101E00002130310581F01DC0A5E5B0E0E5E5F0E049
:101E1000808182608C93A5E5B0E0E5E5F0E080810B
:101E20008E7F8C930EC0A5E5B0E0E5E5F0E0808103
:101E30008D7F8C93A5E5B0E0E5E5F0E080818160E1
:101E40008C93ABE5B0E0EBE5F0E0808180628C93B1
:101E500089818F5F89838981833008F4EECE2B9648
:101E60000FB6F894DEBF0FBECDBFCF91DF910895BE
:101E7000DF93CF9300D000D0CDB7DEB79A838983AC
:101E8000E981FA818081282F30E03C832B838B818C
:101E90009C818130910589F02B813C812230310574
:101EA000A1F08B819C810097B9F4ABE5B0E0EBE544
:101EB000F0E080818F7B8C930FC0ABE5B0E0EBE569
:101EC000F0E080818F778C9307C0ABE5B0E0EBE565
:101ED000F0E080818F7D8C930F900F900F900F908A
:101EE000CF91DF910895DF93CF93CDB7DEB72897D9
:101EF0000FB6F894DEBF0FBECDBF9C838B837E836D
:101F00006D8382E08A83198259C08981882F90E08D
:101F10009C01220F331F8B819C81FC01E20FF31F78
:101F20008081282F30E038872F838F8198858130FA
:101F30009105E1F02F8138852230310551F18F81F3
:101F400098850097C1F58D819E81009769F0898100
:101F5000882F90E0880F991FFC01E05DFD4F8D8177
:101F60009E819183808327C01A8225C08D819E81A6
:101F7000009769F08981882F90E0880F991FFC01F4
:101F8000E05DFD4F8D819E819183808314C01A8214
:101F900012C08D819E81009769F08981882F90E021
:101FA000880F991FFC01E05DFD4F8D819E8191831B
:101FB000808301C01A8289818F5F89838981833000
:101FC00008F4A3CF8A8128960FB6F894DEBF0FBE1F
:101FD000CDBFCF91DF9108951F920F920FB60F9250
:101FE00011242F933F934F935F936F937F938F931E
:101FF0009F93AF93BF93EF93FF93DF93CF93CDB7AF
:10200000DEB78091300290913102009729F0E09183
:102010003002F09131020995CF91DF91FF91EF915C
:10202000BF91AF919F918F917F916F915F914F91F0
:102030003F912F910F900FBE0F901F9018951F92F8
:102040000F920FB60F921124DF93CF93CDB7DEB767
:10205000CF91DF910F900FBE0F901F9018951F9298
:102060000F920FB60F921124DF93CF93CDB7DEB747
:10207000CF91DF910F900FBE0F901F901895DF93B7
:10208000CF9300D000D000D0CDB7DEB78C838C8149
:102090009AE0692F0E94C914892F8B838C819AE062
:1020A000692F0E94C9148A838A81282F30E03E83D9
:1020B0002D834D815E814230510541F18D819E819C
:1020C0008330910534F42D813E812130310561F05A
:1020D00052C04D815E814330510551F18D819E8109
:1020E00084309105B9F147C0E9E3F0E08081282F01
:1020F00030E08B81882F90E0A90102C0559547956B
:102100008A95E2F7CA018170898335C0E6E3F0E081
:102110008081282F30E08B81882F90E0A90102C0B8
:10212000559547958A95E2F7CA018170898323C046
:10213000E3E3F0E08081282F30E08B81882F90E06E
:10214000A90102C0559547958A95E2F7CA018170A9
:10215000898311C0E0E3F0E08081282F30E08B819B
:10216000882F90E0A90102C0559547958A95E2F71E
:10217000CA0181708983898126960FB6F894DEBFE3
:102180000FBECDBFCF91DF910895DF93CF93CDB731
:10219000DEB728970FB6F894DEBF0FBECDBF8B8396
:1021A0006C838B819AE0692F0E94C914892F8A83DE
:1021B0008B819AE0692F0E94C91489838C818130B8
:1021C00009F070C08981282F30E038872F838F81F4
:1021D00098858230910551F12F8138852330310562
:1021E00034F48F8198858130910561F0D3C02F81BF
:1021F00038852330310571F18F81988584309105C0
:10220000E9F1C8C0ABE3B0E0EBE3F0E08081482F38
:102210008A81282F30E081E090E0022E02C0880FF2
:10222000991F0A94E2F7842B8C93B4C0A8E3B0E022
:10223000E8E3F0E08081482F8A81282F30E081E0B8
:1022400090E0022E02C0880F991F0A94E2F7842BB7
:102250008C93A0C0A5E3B0E0E5E3F0E08081482FD7
:102260008A81282F30E081E090E0022E02C0880FA2
:10227000991F0A94E2F7842B8C938CC0A2E3B0E000
:10228000E2E3F0E08081482F8A81282F30E081E06E
:1022900090E0022E02C0880F991F0A94E2F7842B67
:1022A0008C9378C08C81882309F074C08981282F91
:1022B00030E03E832D838D819E818230910561F1D6
:1022C0002D813E812330310534F48D819E81813012
:1022D000910569F05FC02D813E812330310589F180
:1022E0008D819E818430910509F440C053C0ABE3D9
:1022F000B0E0EBE3F0E08081482F8A81282F30E0C6
:1023000081E090E0022E02C0880F991F0A94E2F744
:10231000809584238C933EC0A8E3B0E0E8E3F0E02E
:102320008081482F8A81282F30E081E090E0022EC2
:1023300002C0880F991F0A94E2F7809584238C933A
:1023400029C0A5E3B0E0E5E3F0E08081482F8A8171
:10235000282F30E081E090E0022E02C0880F991F04
:102360000A94E2F7809584238C9314C0A2E3B0E032
:10237000E2E3F0E08081482F8A81282F30E081E07D
:1023800090E0022E02C0880F991F0A94E2F7809510
:1023900084238C9328960FB6F894DEBF0FBECDBF72
:1023A000CF91DF910895DF93CF9300D000D0CDB7C8
:1023B000DEB78A838A81282F30E03C832B838B8190
:1023C0009C8182309105D9F02B813C8123303105ED
:1023D00034F48B819C818130910561F01EC02B818A
:1023E0003C812330310581F08B819C8184309105C3
:1023F00081F013C0EBE3F0E0808189830EC0E8E355
:10240000F0E08081898309C0E5E3F0E08081898381
:1024100004C0E2E3F0E08081898389810F900F900E
:102420000F900F90CF91DF910895DF93CF9300D05D
:1024300000D0CDB7DEB789836A838981282F30E049
:102440003C832B838B819C8182309105D9F02B8139
:102450003C812330310534F48B819C81813091059E
:1024600061F01EC02B813C812330310581F08B81CE
:102470009C818430910581F013C0EBE3F0E08A8108
:1024800080830EC0E8E3F0E08A81808309C0E5E341
:10249000F0E08A81808304C0E2E3F0E08A818083F7
:1024A0000F900F900F900F90CF91DF910895DF93D1
:1024B000CF9300D000D00F92CDB7DEB78B838B8146
:1024C0009AE0692F0E94C914892F8A838B819AE030
:1024D000692F0E94C91489838981282F30E03D83A8
:1024E0002C838C819D818230910551F12C813D811D
:1024F0002330310534F48C819D818130910561F068
:102500005AC02C813D812330310571F18C819D8130
:1025100084309105E9F14FC0ABE3B0E0EBE3F0E0CC
:102520008081482F8A81282F30E081E090E0022EC0
:1025300002C0880F991F0A94E2F784278C933BC04E
:10254000A8E3B0E0E8E3F0E08081482F8A81282FFB
:1025500030E081E090E0022E02C0880F991F0A94BB
:10256000E2F784278C9327C0A5E3B0E0E5E3F0E031
:102570008081482F8A81282F30E081E090E0022E70
:1025800002C0880F991F0A94E2F784278C9313C026
:10259000A2E3B0E0E2E3F0E08081482F8A81282FB7
:1025A00030E081E090E0022E02C0880F991F0A946B
:1025B000E2F784278C930F900F900F900F900F905D
:1025C000CF91DF910895DF93CF93CDB7DEB76497B6
:1025D0000FB6F894DEBF0FBECDBF898B6A8B81E04A
:1025E000888B8989282F30E03C8B2B8B8B899C89A9
:1025F0008130910509F49BC02B893C89223031053B
:102600002CF48B899C89009771F0C3C02B893C897D
:102610002230310509F49CC08B899C898330910557
:1026200009F4A7C0B6C08FE20E943F108F878F8544
:10263000882309F0AEC080E090E0A8E4B2E48B8784
:102640009C87AD87BE876B857C858D859E8520E0C8
:1026500030E04AE755E40E941F02DC01CB018F8382
:102660009887A987BA876F81788589859A8520E0C0
:1026700030E040E85FE30E94250488232CF481E0E9
:1026800090E09E838D833FC06F81788589859A8590
:1026900020E03FEF4FE757E40E94C50318164CF5C2
:1026A0006B857C858D859E8520E030E040E251E49D
:1026B0000E941F02DC01CB01BC01CD010E94490038
:1026C000DC01CB019E838D830FC080E991E09C8368
:1026D0008B838B819C810197F1F79C838B838D8108
:1026E0009E8101979E838D838D819E81009769F7DE
:1026F00019C06F81788589859A850E944900DC011F
:10270000CB019E838D838D819E819A83898389816C
:102710009A810197F1F79A83898304C08FE20E941E
:102720003F108F878F858823C9F3188A32C08EE2C5
:102730000E943F108F878F85882359F504C08EE251
:102740000E943F108F878F858823C9F3188A21C084
:102750008DE20E943F108F878F858823D1F404C0BB
:102760008DE20E943F108F878F858823C9F3188AD6
:1027700010C08BE20E943F108F878F85882349F419
:1027800004C08BE20E943F108F878F858823C9F396
:10279000188A888964960FB6F894DEBF0FBECDBF45
:1027A000CF91DF910895DF93CF9300D00F92CDB7F3
:1027B000DEB789838981282F30E03B832A838A8191
:1027C0009B8181309105F9F02A813B8122303105CE
:1027D0002CF48A819B81009761F01EC02A813B8185
:1027E0002230310559F08A819B818330910581F037
:1027F00013C08AE061E00E94C5100EC08CE061E069
:102800000E94C51009C08BE061E00E94C51004C0A1
:1028100080E161E00E94C5100F900F900F90CF9162
:10282000DF910895DF93CF9300D00F92CDB7DEB73D
:1028300089838981282F30E03B832A838A819B8189
:1028400081309105F9F02A813B81223031052CF449
:102850008A819B81009761F01EC02A813B812230D2
:10286000310559F08A819B818330910581F013C035
:102870008AE060E00E94C5100EC08CE060E00E941B
:10288000C51009C08BE060E00E94C51004C080E163
:1028900060E00E94C5100F900F900F90CF91DF91D4
:1028A0000895DF93CF9300D00F92CDB7DEB7898321
:1028B0008981282F30E03B832A838A819B81813064
:1028C0009105E9F02A813B81223031052CF48A817F
:1028D0009B81009761F01AC02A813B81223031052B
:1028E00051F08A819B818330910569F00FC08AE0A5
:1028F0000E9457120BC08CE00E94571207C08BE059
:102900000E94571203C080E10E9457120F900F904F
:102910000F90CF91DF910895DF93CF93CDB7DEB7BE
:102920008EE691E00E94310783E791E00E94310733
:1029300088E791E00E9431070E9417070E94CD07A7
:10294000FFCFDF93CF93CDB7DEB780E00E94511465
:10295000CF91DF910895DF93CF930F92CDB7DEB77C
:1029600080E060E00E94E31289838981882319F462
:1029700081E00E9451140F90CF91DF910895DF9371
:10298000CF93CDB7DEB782E00E945114CF91DF9193
:102990000895991B79E004C0991F961708F0961BBB
:1029A000881F7A95C9F780950895AA1BBB1B51E132
:1029B00007C0AA1FBB1FA617B70710F0A61BB70BAF
:1029C000881F991F5A95A9F780959095BC01CD0154
:1029D0000895A1E21A2EAA1BBB1BFD010DC0AA1F60
:1029E000BB1FEE1FFF1FA217B307E407F50720F078
:1029F000A21BB30BE40BF50B661F771F881F991FF3
:102A00001A9469F760957095809590959B01AC013B
:102A1000BD01CF0108952F923F924F925F926F9226
:102A20007F928F929F92AF92BF92CF92DF92EF925E
:102A3000FF920F931F93CF93DF93CDB7DEB7CA1BDF
:102A4000DB0B0FB6F894DEBF0FBECDBF09942A880A
:102A5000398848885F846E847D848C849B84AA84B2
:102A6000B984C884DF80EE80FD800C811B81AA813F
:102A7000B981CE0FD11D0FB6F894DEBF0FBECDBF0A
:082A8000ED010895F894FFCF69
:102A8800000000000000000000010202030303032D
:102A980004040404040404040505050505050505E6
:102AA80005050505050505050606060606060606C6
:102AB80006060606060606060606060606060606AE
:102AC8000606060606060606070707070707070796
:102AD800070707070707070707070707070707077E
:102AE800070707070707070707070707070707076E
:102AF800070707070707070707070707070707075E
:102B08000707070707070707080808080808080845
:102B1800080808080808080808080808080808082D
:102B2800080808080808080808080808080808081D
:102B3800080808080808080808080808080808080D
:102B480008080808080808080808080808080808FD
:102B580008080808080808080808080808080808ED
:102B680008080808080808080808080808080808DD
:102B780008080808080808080808080808080808CD
:102B88000808080808080808000101030202F401FF
:102B980000A114E80301AB14B80B02BF1401000034
:102BA80000080000004000000000010000000400D0
:102BB800000A0001010B0001010C0101010D0101D6
:102BC800010E0001010F00010110000101110001B7
:102BD800011401010115010101160101011700018C
:102BE8000118010101190001011A0001011B00016E
:102BF800011E0001011F0001012001010121010145
:102C08000122010101230101012400010125000124
:102C18000128000101290001012A0000002B010000
:102C2800002C0001012D0100002E0100002F0100E1
:022C380000009A
:00000001FF
