:100000000C942A000C94B3120C94E6120C9419135D
:100010000C9447000C9447000C9447000C94470044
:100020000C9447000C9447000C9447000C94C30EAA
:100030000C9447000C9404090C9447000C9447005E
:100040000C94A7180C9447000C9447000C9447009C
:100050000C94470011241FBECFE5D8E0DEBFCDBF12
:1000600014E0A0E6B0E0E0E0F3E702C005900D92F6
:10007000A836B107D9F716E0A8E6B4E001C01D9292
:10008000A438B107E1F70E94F42F0C947E390C9448
:100090000000EF92FF920F931F937B018C0120E0F1
:1000A00030E040E05FE40E94F50388238CF0C80153
:1000B000B70120E030E040E05FE40E94C1010E940F
:1000C000B3049B01AC01205030404040504806C072
:1000D000C801B7010E94B3049B01AC01B901CA0178
:1000E0001F910F91FF90EF900895A0E0B0E0EBE733
:1000F000F0E00C944736DC012B01FA019C91923020
:1001000008F439C1EB018881823008F433C194309E
:1001100069F4843009F02FC111969C91119789815F
:10012000981709F428C1AEE9B2E025C1843009F47A
:1001300021C18230A9F4923009F01DC19A01AD01AC
:1001400088E0EA010990AE01E90109929E0181501F
:10015000C1F7E201898111969C918923818308C1AD
:10016000923009F407C112962D903C901397EB0141
:100170008A819B811496AD90BD90CD90DC901797AD
:10018000EC80FD800E811F819101281B390BB90184
:1001900037FF04C066277727621B730B6032710537
:1001A0000CF061C0121613066CF537014801062EDB
:1001B00004C096948794779467940A94D2F721E0C8
:1001C00030E040E050E004C0220F331F441F551FB1
:1001D0006A95D2F721503040404050402E213F21B7
:1001E00040235123211531054105510521F021E01E
:1001F00030E040E050E079018A01E628F72808293C
:1002000019293CC0232BD1F1260E371E350146019A
:10021000062E04C096948794779467940A94D2F734
:1002200021E030E040E050E004C0220F331F441FC3
:10023000551F6A95D2F721503040404050402A2146
:100240003B214C215D21211531054105510521F04E
:1002500021E030E040E050E059016A01A628B728CB
:10026000C828D9280BC0821593052CF01C01AA249C
:10027000BB24650103C0EE24FF24870111969C91E5
:10028000D20111968C91981709F445C0992339F041
:10029000A80197012A193B094C095D0906C0A6016E
:1002A00095012E193F09400B510B57FD08C01182D3
:1002B0003382228224833583468357831DC081E0A5
:1002C00081833382228288279927DC01821B930B4A
:1002D000A40BB50B84839583A683B7830DC0220F2F
:1002E000331F441F551F24833583468357838281E0
:1002F000938101979383828324813581468157813D
:10030000DA01C9010197A109B1098F5F9F4FAF4F72
:10031000BF4328F30BC0918333822282EA0CFB1C7B
:100320000C1D1D1DE482F5820683178383E0808304
:10033000248135814681578157FF1AC0C901AA27F8
:1003400097FDA095BA2F81709070A070B0705695EF
:10035000479537952795822B932BA42BB52B848318
:100360009583A683B7838281938101969383828349
:10037000DF0101C0D201CD01CDB7DEB7E2E10C94BF
:100380006336A0E2B0E0E7ECF1E00C945336698309
:100390007A838B839C832D833E834F835887E9E048
:1003A000EE2EF12CEC0EFD1ECE010196B7010E943F
:1003B000A4068E010F5E1F4FCE010596B8010E9464
:1003C000A4068A8991E089278A8BC701B801AE010A
:1003D000475E5F4F0E9475000E94CF05A096E6E041
:1003E0000C946F36A0E2B0E0E8EFF1E00C945336E5
:1003F00069837A838B839C832D833E834F835887C5
:10040000F9E0EF2EF12CEC0EFD1ECE010196B701A6
:100410000E94A4068E010F5E1F4FCE010596B80103
:100420000E94A406C701B801AE01475E5F4F0E945B
:1004300075000E94CF05A096E6E00C946F36A0E20E
:10044000B0E0E5E2F2E00C94473669837A838B836F
:100450009C832D833E834F835887CE010196BE0136
:10046000675F7F4F0E94A406CE010596BE016F5EB6
:100470007F4F0E94A4069985923088F08989823046
:10048000C8F0943019F4823051F404C0843029F457
:10049000923081F48EE992E0C6C0923049F420E0B7
:1004A0009A858A89981321E02A87CE010996BBC0D4
:1004B000823049F420E09A858A89981321E02A8BBA
:1004C000CE014196B0C02D843E844F8458886D88FB
:1004D0007E888F88988CEE24FF248701AA24BB2471
:1004E000650140E050E060E070E0E0E0F0E0C10174
:1004F00081709070892BE9F0E60CF71C081D191D1E
:100500009A01AB012A0D3B1D4C1D5D1D80E090E062
:10051000A0E0B0E0E614F7040805190520F481E036
:1005200090E0A0E0B0E0BA01A901480F591F6A1F8E
:100530007B1FAA0CBB1CCC1CDD1C97FE08C081E0F5
:1005400090E0A0E0B0E0A82AB92ACA2ADB2A3196B6
:10055000E032F10549F0660C771C881C991C569412
:10056000479437942794C3CFFA85EA892B893C892D
:100570008B859C85280F391F2E5F3F4F17C0CA01FE
:1005800081709070892B61F016950795F794E79428
:1005900080E090E0A0E0B0E8E82AF92A0A2B1B2BC3
:1005A00076956795579547952F5F3F4F77FDE7CF36
:1005B0000CC0440F551F661F771F17FD4160EE0CDE
:1005C000FF1C001F111F21503040403090E05907A0
:1005D00090E0690790E4790760F32B8F3C8FDB0193
:1005E000CA018F779070A070B07080349105A1051A
:1005F000B10561F447FD0AC0E114F10401051105DC
:1006000029F0405C5F4F6F4F7F4F40781A8EFE1786
:1006100011F081E08A8F4D8F5E8F6F8F78A383E01A
:10062000898FCE0149960E94CF05A096E2E10C94F5
:100630006336A8E1B0E0EFE1F3E00C944F36698354
:100640007A838B839C832D833E834F835887B9E0C5
:10065000EB2EF12CEC0EFD1ECE010196B7010E948F
:10066000A4068E010F5E1F4FCE010596B8010E94B1
:10067000A4062985223008F47EC03989323010F46E
:10068000B8017CC08A859A8989278A87243011F02D
:10069000223031F4231709F06EC06EE972E06EC0AB
:1006A000343039F41D861E861F86188A1C861B86E8
:1006B00004C0323021F484E08987B7015FC02B8504
:1006C0003C858B899C89281B390B3C872B87ED84C3
:1006D000FE840F851889AD88BE88CF88D88CEA142F
:1006E000FB040C051D0540F4EE0CFF1C001F111F40
:1006F000215030403C872B8720E030E040E050E044
:1007000080E090E0A0E0B0E460E070E0EA14FB0478
:100710000C051D0540F0282B392B4A2B5B2BEA18C2
:10072000FB080C091D09B695A79597958795EE0CC2
:10073000FF1C001F111F6F5F7F4F6F31710531F775
:10074000DA01C9018F779070A070B0708034910584
:10075000A105B10561F427FD0AC0E114F10401050A
:10076000110529F0205C3F4F4F4F5F4F20782D87B8
:100770003E874F87588BBE01675F7F4FCB010E943A
:10078000CF056896EAE00C946B36A8E1B0E0EBEC9C
:10079000F3E00C94533669837A838B839C832D8397
:1007A0003E834F83588789E0E82EF12CEC0EFD1E26
:1007B000CE010196B7010E94A4068E010F5E1F4F65
:1007C000CE010596B8010E94A4068985823040F0CA
:1007D0008989823028F0C701B8010E941C0701C036
:1007E0008FEF6896E6E00C946F36A8E1B0E0EBEF8F
:1007F000F3E00C94533669837A838B839C832D8337
:100800003E834F83588789E0E82EF12CEC0EFD1EC5
:10081000CE010196B7010E94A4068E010F5E1F4F04
:10082000CE010596B8010E94A4068985823040F069
:100830008989823028F0C701B8010E941C0701C0D5
:100840008FEF6896E6E00C946F36A8E1B0E0EBE23B
:10085000F4E00C94533669837A838B839C832D83D5
:100860003E834F83588789E0E82EF12CEC0EFD1E65
:10087000CE010196B7010E94A4068E010F5E1F4FA4
:10088000CE010596B8010E94A4068985823040F009
:100890008989823028F0C701B8010E941C0701C075
:1008A00081E06896E6E00C946F36A8E0B0E0EBE5F6
:1008B000F4E00C9450369B01AC0183E08983DA01AB
:1008C000C9018827B7FD83959927AA27BB27B82E8A
:1008D000211531054105510519F482E089833AC09B
:1008E0008823A9F0203080E0380780E0480780E8BE
:1008F000580729F460E070E080E09FEC30C0EE24FF
:10090000FF248701E21AF30A040B150B02C07901D8
:100910008A018EE1C82ED12CDC82CB82ED82FE8250
:100920000F831887C801B7010E9480050197181628
:10093000190684F4082E04C0EE0CFF1C001F111FC2
:100940000A94D2F7ED82FE820F831887C81AD90A5B
:10095000DC82CB82BA82CE0101960E94CF05289616
:10096000E9E00C946C36ACE0B0E0E9EBF4E00C9418
:10097000573669837A838B839C83CE010196BE01AF
:100980006B5F7F4F0E94A4068D81823061F18230BF
:1009900050F1843021F48E81882351F12EC02F81B3
:1009A000388537FD20C06E812F3131051CF066235C
:1009B000F9F023C08EE190E0821B930B29853A85E4
:1009C0004B855C8504C056954795379527958A9544
:1009D000D2F76623B1F050954095309521953F4F61
:1009E0004F4F5F4F0EC020E030E040E050E009C0C4
:1009F0002FEF3FEF4FEF5FE704C020E030E040E033
:100A000050E8B901CA012C96E2E00C947336A8E0D4
:100A1000B0E0EDE0F5E00C944F367B018C01611500
:100A200071058105910519F482E0898360C083E036
:100A300089838EE1C82ED12CDC82CB82ED82FE82AE
:100A40000F831887C801B7010E948005FC01319708
:100A5000F7FF3BC0222733272E1B3F0B57016801AE
:100A6000022E04C0D694C794B794A7940A94D2F7E0
:100A700040E050E060E070E081E090E0A0E0B0E0B5
:100A800004C0880F991FAA1FBB1F2A95D2F7019790
:100A9000A109B1098E219F21A023B1230097A105AF
:100AA000B10521F041E050E060E070E04A295B29A7
:100AB0006C297D294D835E836F8378878EE190E07A
:100AC0008E1B9F0B9C838B8312C0309781F00E2E60
:100AD00004C0EE0CFF1C001F111F0A94D2F7ED8218
:100AE000FE820F831887CE1ADF0ADC82CB821A823D
:100AF000CE0101960E94CF052896EAE00C946B3651
:100B0000EF92FF920F931F937B018C0180E0E81618
:100B100080E0F80681E0080780E0180788F48FEF8E
:100B2000E816F1040105110531F028F088E090E0A5
:100B3000A0E0B0E017C080E090E0A0E0B0E012C01C
:100B400080E0E81680E0F80680E0080781E01807FA
:100B500028F088E190E0A0E0B0E004C080E190E0FF
:100B6000A0E0B0E020E230E040E050E0281B390B8C
:100B70004A0B5B0B04C016950795F794E7948A958A
:100B8000D2F7F701EA55FD4F8081281B3109410951
:100B90005109C9011F910F91FF90EF900895DF92C5
:100BA000EF92FF920F931F93FC01E480F580068182
:100BB0001781D1808081823048F480E090E0A0E10C
:100BC000B0E0E82AF92A0A2B1B2BA5C0843009F4CF
:100BD0009FC0823021F4EE24FF24870105C0E11478
:100BE000F1040105110519F4E0E0F0E096C062811E
:100BF00073819FEF623879070CF05BC022E83FEF0A
:100C0000261B370B2A3131052CF020E030E040E084
:100C100050E02AC0B801A701022E04C0769567955E
:100C2000579547950A94D2F781E090E0A0E0B0E0B4
:100C300004C0880F991FAA1FBB1F2A95D2F70197DE
:100C4000A109B1098E219F21A023B1230097A105FD
:100C5000B10521F081E090E0A0E0B0E09A01AB01A5
:100C6000282B392B4A2B5B2BDA01C9018F77907027
:100C7000A070B07080349105A105B10539F427FF4B
:100C800009C0205C3F4F4F4F5F4F04C0215C3F4F76
:100C90004F4F5F4FE0E0F0E02030A0E03A07A0E0E7
:100CA0004A07A0E45A0710F0E1E0F0E079018A0178
:100CB00027C06038710564F5FB01E158FF4FD8018A
:100CC000C7018F779070A070B07080349105A10536
:100CD000B10539F4E7FE0DC080E490E0A0E0B0E09B
:100CE00004C08FE390E0A0E0B0E0E80EF91E0A1F18
:100CF0001B1F17FF05C016950795F794E7943196CB
:100D000087E016950795F794E7948A95D1F705C083
:100D1000EE24FF248701EFEFF0E06E2F6795662742
:100D20006795902F9F77D794DD24D7948E2F869543
:100D3000492F462B582F5D29B701CA011F910F91EA
:100D4000FF90EF90DF900895FC01DB01408151811D
:100D50002281622F6F7770E0221F2227221F93814A
:100D6000892F880F822B282F30E0991F9927991FF0
:100D700011969C93119721153105A9F5411551053F
:100D80006105710511F482E037C082E89FEF139688
:100D90009C938E9312979A01AB0167E0220F331F49
:100DA000441F551F6A95D1F783E08C930DC0220F25
:100DB000331F441F551F12968D919C9113970197D5
:100DC00013969C938E931297203080E0380780E032
:100DD000480780E4580758F314962D933D934D939C
:100DE0005C93179708952F3F310579F4411551050C
:100DF0006105710519F484E08C93089564FF03C0C4
:100E000081E08C9312C01C9210C02F573040139673
:100E10003C932E93129783E08C9387E0440F551FE9
:100E2000661F771F8A95D1F7706414964D935D9372
:100E30006D937C93179708951F93DC01FB019C91A0
:100E4000923008F447C08081823008F443C0943067
:100E500051F411961C91843099F58181682F70E0CE
:100E6000611B71093FC0843021F0923031F482302F
:100E7000B9F18181882389F12DC011961C911197B8
:100E80008230F1F081811817D9F412962D913C919E
:100E90001397828193818217930794F0281739075B
:100EA000BCF014968D919D910D90BC91A02D248144
:100EB000358146815781281739074A075B0718F49F
:100EC000112341F00AC082179307A407B50740F425
:100ED000112319F061E070E005C06FEF7FEF02C0F1
:100EE00060E070E0CB011F910895DF93CF9300D0B5
:100EF00000D0CDB7DEB769837A838B839C83E09182
:100F0000B003F091B10388E08083E0E4F0E086E88C
:100F10008083E091AA03F091AB0380818860808395
:100F2000E091AA03F091AB03808180618083E0911E
:100F3000AA03F091AB038081806880830F900F90AB
:100F40000F900F90CF91DF910895DF93CF930F9281
:100F5000CDB7DEB78983E091AA03F091AB0380811E
:100F600088608083E091A803F091A903808180725A
:100F70008823C1F3E091A603F091A70389818083C0
:100F80000F90CF91DF910895DF93CF9300D0CDB72D
:100F9000DEB79A83898315C0E091A603F091A70379
:100FA000A981BA818C918083E091A803F091A90373
:100FB000808180728823C1F389819A8101969A8306
:100FC0008983E981FA818081882331F70F900F901E
:100FD000CF91DF910895DF93CF9300D0CDB7DEB7E7
:100FE0009A838983E091A803F091A9038081807896
:100FF0008823C1F3E091A603F091A7038081E981E2
:10100000FA8180830F900F90CF91DF910895DF9345
:10101000CF93CDB7DEB768970FB6F894DEBF0FBE9B
:10102000CDBFC3C08091B60381508093B60380E0EA
:1010300090E0A0EAB0E48D8B9E8BAF8BB88F6D896A
:101040007E898F89988D2BEA3AEA4AEA50E40E9419
:101050001F02DC01CB01898B9A8BAB8BBC8B69891E
:101060007A898B899C8920E030E040E85FE30E9428
:10107000250488231CF481E0888B91C069897A89D2
:101080008B899C8920E030E04FE753E40E94C50340
:1010900018160CF07BC06D897E898F89988D20E0B1
:1010A00030E04AE754E40E941903DC01CB018C874D
:1010B0009D87AE87BF876C857D858E859F8520E067
:1010C00030E04AE755E40E941F02DC01CB0188872B
:1010D0009987AA87BB87688579858A859B8520E063
:1010E00030E040E85FE30E94250488232CF481E08F
:1010F00090E09F838E833FC0688579858A859B8534
:1011000020E03FEF4FE757E40E94C50318164CF567
:101110006C857D858E859F8520E030E040E251E43E
:101120000E941F02DC01CB01BC01CD010E944900DD
:10113000DC01CB019F838E830FC080E991E09D830A
:101140008C838C819D810197F1F79D838C838E81A7
:101150009F8101979F838E838E819F81009769F77E
:1011600024C0688579858A859B850E944900DC01B9
:10117000CB019F838E838E819F819B838A838A810B
:101180009B810197F1F79B838A830FC069897A89D4
:101190008B899C890E944900DC01CB01888B88895E
:1011A000898389818A95F1F78983E091A803F09179
:1011B000A90380818078882329F48091B60388234D
:1011C00009F030CFECE2F0E0808168960FB6F89439
:1011D000DEBF0FBECDBFCF91DF910895DF93CF93D8
:1011E00000D0CDB7DEB79A83898389819A81009731
:1011F00031F089819A8190936C0480936B040F90F5
:101200000F90CF91DF9108951F920F920FB60F921A
:1012100011242F933F934F935F936F937F938F93FB
:101220009F93AF93BF93EF93FF93DF93CF93CDB78C
:10123000DEB780916B0490916C04009729F0E091E7
:101240006B04F0916C040995CF91DF91FF91EF91C0
:10125000BF91AF919F918F917F916F915F914F91CE
:101260003F912F910F900FBE0F901F901895DF9315
:10127000CF9300D0CDB7DEB789836A838981882375
:10128000A9F5AFE4B0E0EFE4F0E080818E7F8C93CD
:10129000AFE4B0E0EFE4F0E080818D7F8C93AEE4CA
:1012A000B0E0EEE4F0E080819181877F11969C931D
:1012B0008E93AEE4B0E0EEE4F0E0808191818F7E29
:1012C00011969C938E938A81882309F045C0AFE4E0
:1012D000B0E0EFE4F0E080818F7B8C93AFE4B0E08E
:1012E000EFE4F0E080818F778C9336C08981813084
:1012F00099F5AFE4B0E0EFE4F0E080818E7F8C936D
:10130000AFE4B0E0EFE4F0E0808182608C93AEE483
:10131000B0E0EEE4F0E080819181886011969C93CA
:101320008E93AEE4B0E0EEE4F0E0808191818061E4
:1013300011969C938E938A81813071F4AFE4B0E072
:10134000EFE4F0E0808180688C93AFE4B0E0EFE4FC
:10135000F0E080818F7B8C930F900F90CF91DF9185
:1013600008950F931F93DF93CF9300D0CDB7DEB7CF
:101370009A838983AFE4B0E0EFE4F0E08081806895
:101380008C93AFE4B0E0EFE4F0E080818F7B8C934E
:10139000E6E4F0E08FEF9FEF918380830AE410E0B2
:1013A00089819A81CC01A0E0B0E02FEF3FEF40E0CF
:1013B00050E0BC01CD010E94B835DC01CB0124E630
:1013C00030E040E050E0BC01CD010E941836DA0167
:1013D000C9010197F8019183808382E00E94F70997
:1013E0000F900F90CF91DF911F910F910895DF9390
:1013F000CF930F92CDB7DEB7898389818230F1F424
:10140000AEE4B0E0EEE4F0E0808191818E7F119651
:101410009C938E93AEE4B0E0EEE4F0E080819181A5
:10142000826011969C938E93AEE4B0E0EEE4F0E01F
:10143000808191818B7F11969C938E930F90CF9199
:10144000DF910895DF93CF93CDB7DEB7AFE4B0E07F
:10145000EFE4F0E080818F7B8C93AFE4B0E0EFE4C9
:10146000F0E080818F778C93AEE4B0E0EEE4F0E0C2
:10147000808191818E7F11969C938E93AEE4B0E033
:10148000EEE4F0E0808191818D7F11969C938E93A4
:10149000AEE4B0E0EEE4F0E0808191818B7F1196C4
:1014A0009C938E93CF91DF910895DF93CF93CDB727
:1014B000DEB7A9E5B0E0E9E5F0E0808180628C93D9
:1014C000AEE4B0E0EEE4F0E08081918180641196BA
:1014D0009C938E93CF91DF910895DF93CF930F92DA
:1014E000CDB7DEB789838981882359F4AEE4B0E0B3
:1014F000EEE4F0E0808191818F7B11969C938E9336
:101500000DC08981813051F4AEE4B0E0EEE4F0E04A
:1015100080819181806411969C938E930F90CF91DE
:10152000DF910895DF93CF93CDB7DEB7A9E5B0E0A3
:10153000E9E5F0E080818F7D8C93CF91DF91089574
:10154000DF93CF93CDB7DEB7E6E4F0E08081918101
:10155000CF91DF910895DF93CF93CDB7DEB7CF91D1
:10156000DF910895DF93CF930F92CDB7DEB78983D4
:101570008981882341F4A8E5B0E0E8E5F0E08081C6
:1015800080628C930AC08981833039F4A8E5B0E089
:10159000E8E5F0E0808184608C9380E00F90CF914B
:1015A000DF910895DF93CF9300D000D0CDB7DEB7A1
:1015B00089836A838981282F30E03C832B838B8148
:1015C0009C818830910509F451C02B813C812930E0
:1015D00031052CF48B819C81009769F082C02B81AE
:1015E0003C812034310521F18B819C818834910527
:1015F00009F45AC076C0A3E5B0E0E3E5F0E08081ED
:10160000877B8C93A3E5B0E0E3E5F0E080818C93E9
:10161000A3E5B0E0E3E5F0E080818F7C8C93A3E567
:10162000B0E0E3E5F0E090818A81892B8C9359C08A
:10163000A3E5B0E0E3E5F0E08081877B8C93A3E550
:10164000B0E0E3E5F0E0808180648C93A3E5B0E056
:10165000E3E5F0E080818F7C8C93A3E5B0E0E3E5E7
:10166000F0E090818A81892B8C933BC0A3E5B0E0A8
:10167000E3E5F0E08081877B8C93A3E5B0E0E3E5D0
:10168000F0E0808188608C93A3E5B0E0E3E5F0E0D2
:1016900080818F7C8C93A3E5B0E0E3E5F0E090815E
:1016A0008A81892B8C931DC0A3E5B0E0E3E5F0E0CF
:1016B0008081877B8C93A3E5B0E0E3E5F0E0808157
:1016C00088648C93A3E5B0E0E3E5F0E080818F7C53
:1016D0008C93A3E5B0E0E3E5F0E090818A81892B6B
:1016E0008C930F900F900F900F90CF91DF910895F2
:1016F000DF93CF9300D000D0CDB7DEB79A83898334
:1017000089819A819C838B838B819C818034910514
:10171000D9F18B819C818134910558F48B819C8116
:101720008130910599F08B819C8188309105E9F099
:1017300057C08B819C8121E080309207A1F18B8181
:101740009C8124E080309207E9F14AC0A3E5B0E033
:10175000E3E5F0E08081887F8C93A3E5B0E0E3E5EA
:10176000F0E0808181608C933BC0A3E5B0E0E3E5CD
:10177000F0E08081887F8C93A3E5B0E0E3E5F0E0C2
:10178000808182608C932CC0A3E5B0E0E3E5F0E0BB
:101790008081887F8C93A3E5B0E0E3E5F0E0808171
:1017A00083608C931DC0A3E5B0E0E3E5F0E08081A9
:1017B000887F8C93A3E5B0E0E3E5F0E0808184606E
:1017C0008C930EC0A3E5B0E0E3E5F0E08081887F74
:1017D0008C93A3E5B0E0E3E5F0E0808185608C9335
:1017E0000F900F900F900F90CF91DF910895DF939E
:1017F000CF93CDB7DEB7A3E5B0E0E3E5F0E08081BD
:10180000887F8C93A3E5B0E0E3E5F0E080818C93E2
:10181000CF91DF910895DF93CF93CDB7DEB7CF910E
:10182000DF910895DF93CF93CDB7DEB769970FB6F9
:10183000F894DEBF0FBECDBF698B7A8B8B8B9C8BF0
:101840005E8B4D8B2F8B8D899E89CC01A0E0B0E003
:10185000BC01CD010E940705DC01CB01BC01CD011B
:1018600020E034E244E759E40E941F02DC01CB018E
:10187000BC01CD0120E034E244E75BE40E9419039F
:10188000DC01CB018D879E87AF87B88B89899A89C8
:10189000AB89BC8928EE33E040E050E0BC01CD01CB
:1018A0000E94B835DC01CB01BC01CD010E940705C7
:1018B000DC01CB01BC01CD012D853E854F855889CA
:1018C0000E941903DC01CB01BC01CD010E9449003B
:1018D000DC01CB018D839E83AF83B8878FEF90E0CF
:1018E000A0E0B0E089839A83AB83BC838F89282FE3
:1018F00030E0398F288F888D998D009739F0288DA9
:10190000398D2830310509F449C070C08D819E8120
:10191000AF81B885892F9A2FAB2FBB278093B9044D
:101920009093BA04A093BB04B093BC048D819E81B4
:10193000AF81B8859070A070B07089879A87AB87A7
:10194000BC8789859A85AB85BC850097A105B105C3
:1019500009F44CC0E2E5F0E08985819580838091AF
:10196000B9049091BA04A091BB04B091BC04019653
:10197000A11DB11D8093B9049093BA04A093BB0438
:10198000B093BC0433C089819A81AB81BC8101973B
:10199000A109B10989839A83AB83BC838D819E8120
:1019A000AF81B88529813A814B815C81BC01CD0131
:1019B0000E94F635DC01CB010097A105B10519F7AE
:1019C0008D819E81AF81B88529813A814B815C816F
:1019D000BC01CD010E94F635DA01C9018093BD0436
:1019E0009093BE04A093BF04B093C0048D899E89D8
:1019F0000E94780B8091B9049091BA04A091BB0425
:101A0000B091BC04BC01CD0169960FB6F894DEBF5D
:101A10000FBECDBFCF91DF910895DF93CF9300D05C
:101A20000F92CDB7DEB789838981282F30E03B83C1
:101A30002A838A819B81009731F02A813B81213062
:101A4000310549F00FC0A9E5B0E0E9E5F0E080819B
:101A500081608C9307C0A9E5B0E0E9E5F0E0808102
:101A600082608C930F900F900F90CF91DF9108952B
:101A7000DF93CF9300D00F92CDB7DEB789838981F2
:101A8000282F30E03B832A838A819B81009731F0A5
:101A90002A813B812130310549F00FC0A9E5B0E032
:101AA000E9E5F0E080818E7F8C9307C0A9E5B0E086
:101AB000E9E5F0E080818D7F8C930F900F900F907F
:101AC000CF91DF910895DF93CF93CDB7DEB72A97FB
:101AD0000FB6F894DEBF0FBECDBF6B837C838D83C2
:101AE0009E834F8328878885282F30E03A8729876F
:101AF00049855A854032510531F089859A85803370
:101B0000910589F024C0ECE5F0E08F81882F90E00A
:101B1000982F882724E630E0B9010E94E335CB01F5
:101B20008150808314C0ECE5F0E08F8194E6692F4A
:101B30000E94D735282F30E080E09FEFAC01249F32
:101B4000C001259F900D349F900D112480838B81BF
:101B50009C81AD81BE812227382F492F5A2F80E0EA
:101B600094E2A4EFB0E0BC01CD010E94F635DA01A9
:101B7000C9019A83898389819A810E94780B2A9668
:101B80000FB6F894DEBF0FBECDBFCF91DF910895A1
:101B9000DF93CF93CDB7DEB72B970FB6F894DEBFA8
:101BA0000FBECDBF6C837D838E839F83488729873B
:101BB0008985282F30E03B872A878A859B8580325C
:101BC000910531F02A853B8520333105E1F038C09D
:101BD000ECE5F0E08885482F50E0CA019C01220F17
:101BE000331FC9019695982F882797958795821B53
:101BF000930B840F951F24E630E0B9010E94E33572
:101C0000CB0180831DC0ECE5F0E0888594E6692F68
:101C10000E94D735282F30E081E090E0AC01421BD4
:101C2000530BCA019C01220F331FC9019695982FAF
:101C3000882797958795821B930B840F951F808328
:101C40008C819D81AE81BF812EEF31E040E050E07C
:101C5000BC01CD010E94B8359B01AC0180E094E24B
:101C6000A4EFB0E0BC01CD010E94F635DA01C90154
:101C70009A83898389819A818530910550F489817D
:101C80009A818130910529F081E090E09A838983DF
:101C90004EC089819A818630910578F089819A8138
:101CA0008F31910550F489819A818830910529F00E
:101CB00088E090E09A8389833AC089819A818F3144
:101CC000910578F089819A818739910550F489814D
:101CD0009A818034910529F080E490E09A83898389
:101CE00026C089819A818739910588F089819A81F6
:101CF00032E08F3E930758F489819A8121E0803049
:101D0000920729F080E091E09A83898310C089814D
:101D10009A8132E08F3E930750F089819A8124E0C6
:101D20008030920721F080E094E09A83898380E0FC
:101D300094E00E94780B2B960FB6F894DEBF0FBE8E
:101D4000CDBFCF91DF910895DF93CF9300D00F9255
:101D5000CDB7DEB79A8389836B8389819A81009797
:101D600061F08B81882F90E0880F991FFC01E3556B
:101D7000FB4F89819A81918380830F900F900F9000
:101D8000CF91DF9108951F920F920FB60F921124F9
:101D90002F933F934F935F936F937F938F939F9373
:101DA000AF93BF93EF93FF93DF93CF93CDB7DEB79E
:101DB0002091B5043091B6044091B7045091B80415
:101DC0008091B9049091BA04A091BB04B091BC0475
:101DD000281739074A075B07A1F48091AD04909159
:101DE000AE04009709F1E091AD04F091AE040995BD
:101DF0001092B5041092B6041092B7041092B80471
:101E000013C08091B5049091B604A091B704B0912D
:101E1000B8040196A11DB11D8093B5049093B6043A
:101E2000A093B704B093B804CF91DF91FF91EF91E5
:101E3000BF91AF919F918F917F916F915F914F91E2
:101E40003F912F910F900FBE0F901F901895DF9329
:101E5000CF93CDB7DEB72D970FB6F894DEBF0FBE88
:101E6000CDBF9D838C837F836E838C819D81009702
:101E700009F455C21B824AC28B81882F90E09C01D5
:101E8000220F331F220F331F8C819D81FC01E20F33
:101E9000F31F80819AE0692F0E94D735892F8A83AA
:101EA0008B81882F90E09C01220F331F220F331F5C
:101EB0008C819D81FC01E20FF31F80819AE0692FE4
:101EC0000E94D73589838B81882F90E09C01220F57
:101ED000331F220F331F8C819D81FC01E20FF31F02
:101EE0008281882389F08B81882F90E09C01220FCA
:101EF000331F220F331F8C819D81FC01E20FF31FE2
:101F00008281813009F0FFC18981282F30E03D872F
:101F10002C876C857D8562307105D1F18C859D851E
:101F20008330910534F42C853D852130310571F0E5
:101F300094C06C857D856330710509F44BC08C8538
:101F40009D858430910509F467C087C0AAE3B0E09D
:101F5000EAE3F0E040818B81882F90E09C01220F22
:101F6000331F220F331F8C819D81FC01E20FF31F71
:101F70008281282F30E08A81882F90E0B90102C049
:101F8000660F771F8A95E2F7CB01842B8C9365C08F
:101F9000A7E3B0E0E7E3F0E040818B81882F90E099
:101FA0009C01220F331F220F331F8C819D81FC0166
:101FB000E20FF31F8281282F30E08A81882F90E082
:101FC000B90102C0660F771F8A95E2F7CB01842B17
:101FD0008C9343C0A4E3B0E0E4E3F0E040818B8164
:101FE000882F90E09C01220F331F220F331F8C811A
:101FF0009D81FC01E20FF31F8281282F30E08A814E
:10200000882F90E0B90102C0660F771F8A95E2F72A
:10201000CB01842B8C9321C0A1E3B0E0E1E3F0E09D
:1020200040818B81882F90E09C01220F331F220F6B
:10203000331F8C819D81FC01E20FF31F8281282FC9
:1020400030E08A81882F90E0B90102C0660F771FC7
:102050008A95E2F7CB01842B8C938B81882F90E0BB
:102060009C01220F331F220F331F8C819D81FC01A5
:10207000E20FF31F8181882389F08B81882F90E004
:102080009C01220F331F220F331F8C819D81FC0185
:10209000E20FF31F8181813009F035C18981282F3A
:1020A00030E03B872A876A857B8562307105D1F1F4
:1020B0008A859B858330910534F42A853B852130C0
:1020C000310571F094C06A857B856330710509F430
:1020D0004BC08A859B858430910509F467C087C011
:1020E000ABE3B0E0EBE3F0E040818B81882F90E040
:1020F0009C01220F331F220F331F8C819D81FC0115
:10210000E20FF31F8181282F30E08A81882F90E031
:10211000B90102C0660F771F8A95E2F7CB01842BC5
:102120008C9365C0A8E3B0E0E8E3F0E040818B81E8
:10213000882F90E09C01220F331F220F331F8C81C8
:102140009D81FC01E20FF31F8181282F30E08A81FD
:10215000882F90E0B90102C0660F771F8A95E2F7D9
:10216000CB01842B8C9343C0A5E3B0E0E5E3F0E022
:1021700040818B81882F90E09C01220F331F220F1A
:10218000331F8C819D81FC01E20FF31F8181282F79
:1021900030E08A81882F90E0B90102C0660F771F76
:1021A0008A95E2F7CB01842B8C9321C0A2E3B0E0A7
:1021B000E2E3F0E040818B81882F90E09C01220FC8
:1021C000331F220F331F8C819D81FC01E20FF31F0F
:1021D0008181282F30E08A81882F90E0B90102C0E8
:1021E000660F771F8A95E2F7CB01842B8C938B8146
:1021F000882F90E09C01220F331F220F331F8C8108
:102200009D81FC01E20FF31F8381882309F07BC0CD
:102210008B81882F90E09C01220F331F220F331FE8
:102220008C819D81FC01E20FF31F8281882309F0DC
:102230006AC08981282F30E03987288768857985A9
:102240006230710549F1888599858330910534F4B0
:10225000288539852130310561F055C0688579853B
:102260006330710561F18885998584309105D1F1DC
:102270004AC0ABE3B0E0EBE3F0E040818A81282F75
:1022800030E081E090E0022E02C0880F991F0A948E
:10229000E2F7842B8C9337C0A8E3B0E0E8E3F0E0EA
:1022A00040818A81282F30E081E090E0022E02C038
:1022B000880F991F0A94E2F7842B8C9324C0A5E31E
:1022C000B0E0E5E3F0E040818A81282F30E081E052
:1022D00090E0022E02C0880F991F0A94E2F7842B27
:1022E0008C9311C0A2E3B0E0E2E3F0E040818A8188
:1022F000282F30E081E090E002C0880F991F2A95D6
:10230000E2F7842B8C938B818F5F8B838B81282FBB
:1023100030E08E819F81281739070CF4ADCD2D96C2
:102320000FB6F894DEBF0FBECDBFCF91DF910895F9
:10233000DF93CF93CDB7DEB7AFE5B0E0EFE5F0E0E8
:10234000808180688C93CF91DF910895DF93CF9344
:10235000CDB7DEB7AFE5B0E0EFE5F0E080818F7795
:102360008C93CF91DF910895DF93CF93CDB7DEB7F4
:1023700028970FB6F894DEBF0FBECDBF9E838D8326
:102380001A82198282C089819A819C01220F331F8F
:102390008D819E81FC01E20FF31F80818C838981F6
:1023A0009A819C01220F331F8D819E81FC01E20FD7
:1023B000F31F81818B838C81282F30E038872F8316
:1023C0008F8198858130910509F12F8138852230E0
:1023D0003105D1F18F819885009709F051C0A5E5AD
:1023E000B0E0E5E5F0E080818C7F8C93A5E5B0E07E
:1023F000E5E5F0E090818B81892B8C93ABE5B0E033
:10240000EBE5F0E0808180648C933AC0A5E5B0E014
:10241000E5E5F0E08081837F8C93A5E5B0E0E5E51C
:10242000F0E08081282F8B81882F90E0880F991F02
:10243000880F991F822B8C93ABE5B0E0EBE5F0E0C1
:10244000808180688C931CC08B81823041F4A4E52C
:10245000B0E0E4E5F0E080818F7B8C930AC08B8153
:10246000833039F4A4E5B0E0E4E5F0E080818064F5
:102470008C93ABE5B0E0EBE5F0E0808180628C937B
:1024800089819A8101969A83898389819A81181614
:1024900019060CF078CF28960FB6F894DEBF0FBE61
:1024A000CDBFCF91DF910895DF93CF9300D000D0BF
:1024B00000D0CDB7DEB79C838B838B818A838C81E0
:1024C00089838A81282F30E03E832D838D819E81F0
:1024D0008130910589F02D813E8122303105A1F0B6
:1024E0008D819E810097B9F4ABE5B0E0EBE5F0E0BB
:1024F00080818F7B8C930FC0ABE5B0E0EBE5F0E023
:1025000080818F778C9307C0ABE5B0E0EBE5F0E01E
:1025100080818F7D8C9326960FB6F894DEBF0FBE18
:10252000CDBFCF91DF910895DF93CF9300D00F926D
:10253000CDB7DEB79A8389836B8389819A810097AF
:1025400061F08B81882F90E0880F991FFC01EF5379
:10255000FB4F89819A81918380830F900F900F9018
:10256000CF91DF9108951F920F920FB60F92112411
:102570002F933F934F935F936F937F938F939F938B
:10258000AF93BF93EF93FF93DF93CF93CDB7DEB7B6
:102590008091C1049091C204009729F0E091C10498
:1025A000F091C2040995CF91DF91FF91EF91BF9116
:1025B000AF919F918F917F916F915F914F913F91DB
:1025C0002F910F900FBE0F901F9018951F920F9292
:1025D0000FB60F9211242F933F934F935F936F93F6
:1025E0007F938F939F93AF93BF93EF93FF93DF936B
:1025F000CF93CDB7DEB78091C3049091C404009708
:1026000029F0E091C304F091C4040995CF91DF91C2
:10261000FF91EF91BF91AF919F918F917F916F91BA
:102620005F914F913F912F910F900FBE0F901F9090
:1026300018951F920F920FB60F9211242F933F936C
:102640004F935F936F937F938F939F93AF93BF93BA
:10265000EF93FF93DF93CF93CDB7DEB78091C5049F
:102660009091C604009729F0E091C504F091C6044A
:102670000995CF91DF91FF91EF91BF91AF919F911C
:102680008F917F916F915F914F913F912F910F901B
:102690000FBE0F901F901895DF93CF9300D000D0FE
:1026A00000D0CDB7DEB78C838C819AE0692F0E9471
:1026B000D735892F8B838C819AE0692F0E94D7357B
:1026C0008A838A81282F30E03E832D834D815E816D
:1026D0004230510541F18D819E818330910534F462
:1026E0002D813E812130310561F052C04D815E81E6
:1026F0004330510551F18D819E8184309105B9F1AE
:1027000047C0E9E3F0E08081282F30E08B81882FFB
:1027100090E0A90102C0559547958A95E2F7CA0154
:102720008170898335C0E6E3F0E08081282F30E0B6
:102730008B81882F90E0A90102C0559547958A9515
:10274000E2F7CA018170898323C0E3E3F0E080816E
:10275000282F30E08B81882F90E0A90102C0559589
:1027600047958A95E2F7CA018170898311C0E0E339
:10277000F0E08081282F30E08B81882F90E0A90144
:1027800002C0559547958A95E2F7CA018170898301
:10279000898126960FB6F894DEBF0FBECDBFCF91CC
:1027A000DF910895DF93CF93CDB7DEB728970FB6AB
:1027B000F894DEBF0FBECDBF8B836C838B819AE014
:1027C000692F0E94D735892F8A838B819AE0692FE0
:1027D0000E94D73589838C81813009F070C089814E
:1027E000282F30E038872F838F819885823091059C
:1027F00051F12F8138852330310534F48F8198854C
:102800008130910561F0D3C02F81388523303105A7
:1028100071F18F81988584309105E9F1C8C0ABE3EF
:10282000B0E0EBE3F0E08081482F8A81282F30E090
:1028300081E090E0022E02C0880F991F0A94E2F70F
:10284000842B8C93B4C0A8E3B0E0E8E3F0E080818F
:10285000482F8A81282F30E081E090E0022E02C0CC
:10286000880F991F0A94E2F7842B8C93A0C0A5E3EC
:10287000B0E0E5E3F0E08081482F8A81282F30E046
:1028800081E090E0022E02C0880F991F0A94E2F7BF
:10289000842B8C938CC0A2E3B0E0E2E3F0E0808173
:1028A000482F8A81282F30E081E090E0022E02C07C
:1028B000880F991F0A94E2F7842B8C9378C08C813F
:1028C000882309F074C08981282F30E03E832D834E
:1028D0008D819E818230910561F12D813E81233071
:1028E000310534F48D819E818130910569F05FC09E
:1028F0002D813E812330310589F18D819E81843087
:10290000910509F440C053C0ABE3B0E0EBE3F0E065
:102910008081482F8A81282F30E081E090E0022ECC
:1029200002C0880F991F0A94E2F7809584238C9344
:102930003EC0A8E3B0E0E8E3F0E08081482F8A8160
:10294000282F30E081E090E0022E02C0880F991F0E
:102950000A94E2F7809584238C9329C0A5E3B0E024
:10296000E5E3F0E08081482F8A81282F30E081E084
:1029700090E0022E02C0880F991F0A94E2F780951A
:1029800084238C9314C0A2E3B0E0E2E3F0E0808102
:10299000482F8A81282F30E081E090E0022E02C08B
:1029A000880F991F0A94E2F7809584238C932896C8
:1029B0000FB6F894DEBF0FBECDBFCF91DF91089563
:1029C000DF93CF9300D000D0CDB7DEB78A838A8162
:1029D000282F30E03C832B838B819C8182309105B2
:1029E000D9F02B813C812330310534F48B819C81DB
:1029F0008130910561F01EC02B813C81233031056F
:102A000081F08B819C818430910581F013C0EBE3D0
:102A1000F0E0808189830EC0E8E3F0E08081898363
:102A200009C0E5E3F0E08081898304C0E2E3F0E0DF
:102A30008081898389810F900F900F900F90CF91A3
:102A4000DF910895DF93CF9300D000D0CDB7DEB7EC
:102A500089836A838981282F30E03C832B838B8193
:102A60009C8182309105D9F02B813C812330310546
:102A700034F48B819C818130910561F01EC02B81E3
:102A80003C812330310581F08B819C81843091051C
:102A900081F013C0EBE3F0E08A8180830EC0E8E3AD
:102AA000F0E08A81808309C0E5E3F0E08A818083D9
:102AB00004C0E2E3F0E08A8180830F900F900F90D2
:102AC0000F90CF91DF910895DF93CF9300D000D086
:102AD0000F92CDB7DEB78B838B819AE0692F0E946E
:102AE000D735892F8A838B819AE0692F0E94D73549
:102AF00089838981282F30E03D832C838C819D81BF
:102B00008230910551F12C813D812330310534F41F
:102B10008C819D818130910561F05AC02C813D816D
:102B20002330310571F18C819D8184309105E9F16B
:102B30004FC0ABE3B0E0EBE3F0E08081482F8A8147
:102B4000282F30E081E090E0022E02C0880F991F0C
:102B50000A94E2F784278C933BC0A8E3B0E0E8E353
:102B6000F0E08081482F8A81282F30E081E090E0DA
:102B7000022E02C0880F991F0A94E2F784278C93D3
:102B800027C0A5E3B0E0E5E3F0E08081482F8A812B
:102B9000282F30E081E090E0022E02C0880F991FBC
:102BA0000A94E2F784278C9313C0A2E3B0E0E2E337
:102BB000F0E08081482F8A81282F30E081E090E08A
:102BC000022E02C0880F991F0A94E2F784278C9383
:102BD0000F900F900F900F900F90CF91DF9108956D
:102BE000DF93CF93CDB7DEB72E970FB6F894DEBF45
:102BF0000FBECDBF2C833D834E835F83688779876B
:102C00008A8781E08B838C818A838A81282F30E0B8
:102C10003E872D878D859E858330910509F445C0BB
:102C20002D853E85243031057CF48D859E8581304F
:102C3000910549F12D853E85223031056CF58D8554
:102C40009E850097C1F05DC02D853E8525303105FC
:102C500009F43DC08D859E85853091057CF12D85DB
:102C60003E8526303105E1F18D859E8587309105C1
:102C700009F43FC046C0E091B903F091BA038081E6
:102C8000887F808340C0E091B903F091BA038081CE
:102C9000887F8160808337C0E091B903F091BA03E7
:102CA0008081887F826080832EC0E091B903F0919B
:102CB000BA038081887F8360808325C0E091B90357
:102CC000F091BA038081887F846080831CC0E0918A
:102CD000B903F091BA038081887F8560808313C037
:102CE000E091B903F091BA038081887F8660808388
:102CF0000AC0E091B903F091BA03808187608083B4
:102D000002C082E08B838D81803278F4E091B7033A
:102D1000F091B8038D818F71982F9F718081807E93
:102D2000892B808381E08B8302C082E08B838E813C
:102D300089838981282F30E03C872B878B859C8570
:102D4000009731F02B853C852130310549F010C0CA
:102D5000E091B903F091BA0380818F7D80830AC02E
:102D6000E091B903F091BA0380818062808302C050
:102D700082E08B838885882331F08885823019F042
:102D80008885843079F4E091BB03F091BC03888599
:102D90008770982F9295990F907E80818F71892BE3
:102DA000808302C082E08B838F81882319F08F811A
:102DB000813081F4E091B903F091BA038F81817081
:102DC0008170982F990F990F990F8081877F892B98
:102DD000808301C01B828985882331F089858130F9
:102DE00019F08985833081F4E091B703F091B8033D
:102DF00089858370982F9295990F990F907C808187
:102E00008F73892B808301C01B828A85813019F0E2
:102E10008A85882381F4E091B703F091B8038A850D
:102E200081708170982F9295990F907E80818F7D0F
:102E3000892B808301C01B82E091B903F091BA0312
:102E40008081806880838B812E960FB6F894DEBFD8
:102E50000FBECDBFCF91DF910895DF93CF93CDB754
:102E6000DEB727970FB6F894DEBF0FBECDBF9D83A8
:102E70008C837F836E8381E08B831A8219820E9408
:102E8000A417E091B903F091BA038081807188237F
:102E9000C1F38E819F81009709F43FC0EC81FD81D1
:102EA00086818823B1F4E4E2F0E08081882F90E00D
:102EB0009A838983E5E2F0E08081882F90E0982F63
:102EC00088279C0189819A81822B932B9A838983FD
:102ED00026C0EC81FD8186818823E1F0E4E2F0E008
:102EE00080818295869586958370882F90E09A835D
:102EF0008983E5E2F0E08081882F90E0880F991FB8
:102F0000880F991F9C0189819A81822B932B9A8328
:102F1000898305C082E08B8302C083E08B83898133
:102F2000EE81FF818083E091B903F091BA03808143
:102F3000806180838B8127960FB6F894DEBF0FBE29
:102F4000CDBFCF91DF910895DF93CF930F92CDB78F
:102F5000DEB781E08983E091B903F091BA03808103
:102F60008064808389810F90CF91DF910895DF93F2
:102F7000CF9300D000D00F92CDB7DEB79D838C8366
:102F800081E08B831A8219828C819D81009709F4DC
:102F900088C0E091B703F091B803808180728823E4
:102FA000B1F4E4E2F0E08081882F90E09A83898395
:102FB000E5E2F0E08081882F90E0982F88279C013F
:102FC00089819A81822B932B9A83898326C0E091F1
:102FD000B703F091B803808180728823E1F0E4E2C6
:102FE000F0E080818295869586958370882F90E0A9
:102FF0009A838983E5E2F0E08081882F90E0880F52
:10300000991F880F991F9C0189819A81822B932B8C
:103010009A83898302C082E08B8329813A8184E686
:1030200090E0AC01249FC001259F900D349F900D2E
:103030001124CC01A0E0B0E0BC01CD010E94070545
:10304000DC01CB01BC01CD0120E030E040EA50E4DE
:103050000E941F02DC01CB01BC01CD0120E030E069
:1030600040E854E40E941903DC01CB01EC81FD81AE
:1030700080839183A283B38381E061E00E94EE2A82
:10308000EC81FD8180819181A281B381BC01CD0160
:103090000E94B304DC01CB01BC01CD010E94992A3E
:1030A00002C083E08B838B810F900F900F900F9065
:1030B0000F90CF91DF910895DF93CF9300D000D090
:1030C0000F92CDB7DEB79B838A837D836C83198291
:1030D0008A819B81009779F08A819B819093C804B3
:1030E0008093C7048C819D819093CA048093C90406
:1030F00081E0898302C083E0898389810F900F90EA
:103100000F900F900F90CF91DF910895DF93CF93A1
:1031100000D0CDB7DEB78A8319828A81803278F4F5
:10312000E091B703F091B8038A818F71982F9F7156
:103130008081807E892B808381E0898302C082E048
:10314000898389810F900F90CF91DF9108951F920D
:103150000F920FB60F9211242F933F934F935F93CB
:103160006F937F938F939F93AF93BF93EF93FF934F
:10317000DF93CF93CDB7DEB78091C7049091C80499
:10318000009749F0E091C704F091C8048091C90408
:103190009091CA040995E091B903F091BA03808136
:1031A00080618083CF91DF91FF91EF91BF91AF91CB
:1031B0009F918F917F916F915F914F913F912F914F
:1031C0000F900FBE0F901F9018950F931F93DF93D2
:1031D000CF93CDB7DEB7CE5ED0400FB6F894DEBF4A
:1031E0000FBECDBF88E796E20E94EE0880E690E031
:1031F0000E94C407FE01E551FF4F80E090E0AAE77E
:10320000B4E480839183A283B3838E0109511F4F5D
:10321000FE01E551FF4F608171818281938120E041
:1032200030E04AE755E40E941F02DC01CB01F801BF
:1032300080839183A283B383FE01E951FF4F6081B4
:1032400071818281938120E030E040E85FE30E9459
:103250002504882344F4FE01EB51FF4F81E090E008
:103260009183808364C0FE01E951FF4F60817181C9
:103270008281938120E03FEF4FE757E40E94C5032E
:1032800018160CF043C0FE01E551FF4F60817181BB
:103290008281938120E030E040E251E40E941F02ED
:1032A000DC01CB018E010B511F4FBC01CD010E94EF
:1032B0004900DC01CB01F801918380831FC0FE012E
:1032C000ED51FF4F80E991E091838083FE01ED5144
:1032D000FF4F808191810197F1F7FE01ED51FF4F82
:1032E00091838083DE01AB51BF4FFE01EB51FF4F55
:1032F00080819181019711969C938E93FE01EB51F1
:10330000FF4F808191810097D1F627C08E010B512C
:103310001F4FFE01E951FF4F6081718182819381CE
:103320000E944900DC01CB01F80191838083DE011A
:10333000AF51BF4FFE01EB51FF4F808191818D93C3
:103340009C93FE01EF51FF4F808191810197F1F72E
:10335000FE01EF51FF4F9183808387E690E02AE6DC
:1033600030E0B9010E94FF23FE01E352FF4F80E0ED
:1033700090E0AAE7B4E480839183A283B3838E01B3
:1033800007521F4FFE01E352FF4F6081718182811E
:10339000938120E030E04AE755E40E941F02DC01FF
:1033A000CB01F80180839183A283B383FE01E752AE
:1033B000FF4F608171818281938120E030E040E89D
:1033C0005FE30E942504882344F4FE01E952FF4F85
:1033D00081E090E09183808364C0FE01E752FF4F5B
:1033E000608171818281938120E03FEF4FE757E454
:1033F0000E94C50318160CF043C0FE01E352FF4FB4
:10340000608171818281938120E030E040E251E46B
:103410000E941F02DC01CB018E0109521F4FBC012B
:10342000CD010E944900DC01CB01F801918380832A
:103430001FC0FE01EB52FF4F80E991E09183808332
:10344000FE01EB52FF4F808191810197F1F7FE0160
:10345000EB52FF4F91838083DE01A952BF4FFE01E3
:10346000E952FF4F80819181019711969C938E9331
:10347000FE01E952FF4F808191810097D1F627C06C
:103480008E0109521F4FFE01E752FF4F608171818B
:10349000828193810E944900DC01CB01F801918374
:1034A0008083DE01AD52BF4FFE01E952FF4F8081A4
:1034B00091818D939C93FE01ED52FF4F808191810C
:1034C0000197F1F7FE01ED52FF4F918380830E9437
:1034D000BE2BFE01E153FF4F80E090E0A8E4B3E48F
:1034E00080839183A283B3838E0105531F4FFE0116
:1034F000E153FF4F608171818281938120E030E050
:103500004AE755E40E941F02DC01CB01F8018083E9
:103510009183A283B383FE01E553FF4F60817181E4
:103520008281938120E030E040E85FE30E9425043F
:10353000882344F4FE01E753FF4F81E090E091833C
:10354000808364C0FE01E553FF4F608171818281F9
:10355000938120E03FEF4FE757E40E94C503181620
:103560000CF043C0FE01E153FF4F60817181828105
:10357000938120E030E040E251E40E941F02DC0130
:10358000CB018E0107531F4FBC01CD010E944900A2
:10359000DC01CB01F801918380831FC0FE01E95358
:1035A000FF4F80E991E091838083FE01E953FF4F53
:1035B000808191810197F1F7FE01E953FF4F9183DB
:1035C0008083DE01A753BF4FFE01E753FF4F808189
:1035D0009181019711969C938E93FE01E753FF4FC3
:1035E000808191810097D1F627C08E0107531F4F2C
:1035F000FE01E553FF4F60817181828193810E94BA
:103600004900DC01CB01F80191838083DE01AB53DB
:10361000BF4FFE01E753FF4F808191818D939C93B3
:10362000FE01EB53FF4F808191810197F1F7FE017D
:10363000EB53FF4F918380830E94542682E30E94C4
:103640005D2AFE01EF53FF4F80E090E0AAE7B4E46B
:1036500080839183A283B3838E0103541F4FFE01A5
:10366000EF53FF4F608171818281938120E030E0D0
:103670004AE755E40E941F02DC01CB01F801808378
:103680009183A283B383FE01E354FF4F6081718174
:103690008281938120E030E040E85FE30E942504CE
:1036A000882344F4FE01E554FF4F81E090E09183CC
:1036B000808364C0FE01E354FF4F60817181828189
:1036C000938120E03FEF4FE757E40E94C5031816AF
:1036D0000CF043C0FE01EF53FF4F60817181828186
:1036E000938120E030E040E251E40E941F02DC01BF
:1036F000CB018E0105541F4FBC01CD010E94490032
:10370000DC01CB01F801918380831FC0FE01E754E7
:10371000FF4F80E991E091838083FE01E754FF4FE2
:10372000808191810197F1F7FE01E754FF4F91836A
:103730008083DE01A554BF4FFE01E554FF4F808119
:103740009181019711969C938E93FE01E554FF4F52
:10375000808191810097D1F627C08E0105541F4FBB
:10376000FE01E354FF4F60817181828193810E9449
:103770004900DC01CB01F80191838083DE01A9546B
:10378000BF4FFE01E554FF4F808191818D939C9343
:10379000FE01E954FF4F808191810197F1F7FE010D
:1037A000E954FF4F9183808383E790E00E94C40730
:1037B000FE01ED54FF4F80E090E0AAE7B4E480837F
:1037C0009183A283B3838E0101551F4FFE01ED54F7
:1037D000FF4F608171818281938120E030E04AE770
:1037E00055E40E941F02DC01CB01F8018083918324
:1037F000A283B383FE01E155FF4F60817181828115
:10380000938120E030E040E85FE30E9425048823B4
:1038100044F4FE01E355FF4F81E090E09183808303
:1038200064C0FE01E155FF4F608171818281938107
:1038300020E03FEF4FE757E40E94C50318160CF055
:1038400043C0FE01ED54FF4F6081718182819381FD
:1038500020E030E040E251E40E941F02DC01CB0195
:103860008E0103551F4FBC01CD010E944900DC01B0
:10387000CB01F801918380831FC0FE01E555FF4F06
:1038800080E991E091838083FE01E555FF4F8081BF
:1038900091810197F1F7FE01E555FF4F91838083F8
:1038A000DE01A355BF4FFE01E355FF4F808191819B
:1038B000019711969C938E93FE01E355FF4F8081F3
:1038C00091810097D1F627C08E0103551F4FFE014D
:1038D000E155FF4F60817181828193810E9449008F
:1038E000DC01CB01F80191838083DE01A755BF4F36
:1038F000FE01E355FF4F808191818D939C93FE01E2
:10390000E755FF4F808191810197F1F7FE01E7555F
:10391000FF4F9183808387E690E021E830E0B90192
:103920000E94FF23FE01EB55FF4F80E090E0AAE7E5
:10393000B4E480839183A283B3838E010F551F4F1C
:10394000FE01EB55FF4F608171818281938120E000
:1039500030E04AE755E40E941F02DC01CB01F80188
:1039600080839183A283B383FE01EF55FF4F608173
:1039700071818281938120E030E040E85FE30E9422
:103980002504882344F4FE01E156FF4F81E090E0D6
:103990009183808364C0FE01EF55FF4F6081718188
:1039A0008281938120E03FEF4FE757E40E94C503F7
:1039B00018160CF043C0FE01EB55FF4F608171817A
:1039C0008281938120E030E040E251E40E941F02B6
:1039D000DC01CB018E0101561F4FBC01CD010E94BD
:1039E0004900DC01CB01F801918380831FC0FE01F7
:1039F000E356FF4F80E991E091838083FE01E35617
:103A0000FF4F808191810197F1F7FE01E356FF4F4F
:103A100091838083DE01A156BF4FFE01E156FF4F27
:103A200080819181019711969C938E93FE01E156BE
:103A3000FF4F808191810097D1F627C08E010156FA
:103A40001F4FFE01EF55FF4F60817181828193818D
:103A50000E944900DC01CB01F80191838083DE01E3
:103A6000A556BF4FFE01E156FF4F808191818D9396
:103A70009C93FE01E556FF4F808191810197F1F7FC
:103A8000FE01E556FF4F918380830E94BE2BFE010D
:103A9000E956FF4F80E090E0A8E4B3E4808391838F
:103AA000A283B3838E010D561F4FFE01E956FF4FCF
:103AB000608171818281938120E030E04AE755E4A2
:103AC0000E941F02DC01CB01F80180839183A28355
:103AD000B383FE01ED56FF4F608171818281938136
:103AE00020E030E040E85FE30E942504882344F4AE
:103AF000FE01EF56FF4F81E090E09183808364C028
:103B0000FE01ED56FF4F608171818281938120E03B
:103B10003FEF4FE757E40E94C50318160CF043C06F
:103B2000FE01E956FF4F608171818281938120E01F
:103B300030E040E251E40E941F02DC01CB018E0123
:103B40000F561F4FBC01CD010E944900DC01CB0183
:103B5000F801918380831FC0FE01E157FF4F80E988
:103B600091E091838083FE01E157FF4F8081918135
:103B70000197F1F7FE01E157FF4F91838083DE014A
:103B8000AF56BF4FFE01EF56FF4F808191810197E5
:103B900011969C938E93FE01EF56FF4F8081918189
:103BA0000097D1F627C08E010F561F4FFE01ED562C
:103BB000FF4F60817181828193810E944900DC0105
:103BC000CB01F80191838083DE01A357BF4FFE0133
:103BD000EF56FF4F808191818D939C93FE01E357B7
:103BE000FF4F808191810197F1F7FE01E357FF4F6D
:103BF000918380830E94542683E30E945D2AFE0104
:103C0000E757FF4F80E090E0AAE7B4E48083918318
:103C1000A283B3838E010B571F4FFE01E757FF4F5F
:103C2000608171818281938120E030E04AE755E430
:103C30000E941F02DC01CB01F80180839183A283E3
:103C4000B383FE01EB57FF4F6081718182819381C5
:103C500020E030E040E85FE30E942504882344F43C
:103C6000FE01ED57FF4F81E090E09183808364C0B7
:103C7000FE01EB57FF4F608171818281938120E0CB
:103C80003FEF4FE757E40E94C50318160CF043C0FE
:103C9000FE01E757FF4F608171818281938120E0AF
:103CA00030E040E251E40E941F02DC01CB018E01B2
:103CB0000D571F4FBC01CD010E944900DC01CB0113
:103CC000F801918380831FC0FE01EF57FF4F80E909
:103CD00091E091838083FE01EF57FF4F80819181B6
:103CE0000197F1F7FE01EF57FF4F91838083DE01CB
:103CF000AD57BF4FFE01ED57FF4F80819181019776
:103D000011969C938E93FE01ED57FF4F8081918118
:103D10000097D1F627C08E010D571F4FFE01EB57BC
:103D2000FF4F60817181828193810E944900DC0193
:103D3000CB01F80191838083DE01A158BF4FFE01C2
:103D4000ED57FF4F808191818D939C93FE01E15847
:103D5000FF4F808191810197F1F7FE01E158FF4FFC
:103D60009183808381E990E00E94C407FE01E558B9
:103D7000FF4F80E090E8ABE3B5E480839183A283BA
:103D8000B3838E0109581F4FFE01E558FF4F608134
:103D900071818281938120E030E04AE755E40E94FE
:103DA0001F02DC01CB01F80180839183A283B383DE
:103DB000FE01E958FF4F608171818281938120E08B
:103DC00030E040E85FE30E942504882344F4FE01CC
:103DD000EB58FF4F81E090E09183808364C0FE0147
:103DE000E958FF4F608171818281938120E03FEF2C
:103DF0004FE757E40E94C50318160CF043C0FE01BC
:103E0000E558FF4F608171818281938120E030E02D
:103E100040E251E40E941F02DC01CB018E010B58ED
:103E20001F4FBC01CD010E944900DC01CB01F8010C
:103E3000918380831FC0FE01ED58FF4F80E991E020
:103E400091838083FE01ED58FF4F8081918101971E
:103E5000F1F7FE01ED58FF4F91838083DE01AB58EF
:103E6000BF4FFE01EB58FF4F808191810197119662
:103E70009C938E93FE01EB58FF4F808191810097B8
:103E8000D1F627C08E010B581F4FFE01E958FF4F96
:103E900060817181828193810E944900DC01CB01A4
:103EA000F80191838083DE01AF58BF4FFE01EB58CC
:103EB000FF4F808191818D939C93FE01EF58FF4FBE
:103EC000808191810197F1F7FE01EF58FF4F9183B7
:103ED0008083FE01E359FF4F80E090E8ABE3B5E457
:103EE00080839183A283B3838E0107591F4FFE0104
:103EF000E359FF4F608171818281938120E030E03E
:103F00004AE755E40E941F02DC01CB01F8018083DF
:103F10009183A283B383FE01E759FF4F60817181D2
:103F20008281938120E030E040E85FE30E94250435
:103F3000882344F4FE01E959FF4F81E090E091832A
:103F4000808364C0FE01E759FF4F608171818281E7
:103F5000938120E03FEF4FE757E40E94C503181616
:103F60000CF043C0FE01E359FF4F608171818281F3
:103F7000938120E030E040E251E40E941F02DC0126
:103F8000CB018E0109591F4FBC01CD010E94490090
:103F9000DC01CB01F801918380831FC0FE01EB5946
:103FA000FF4F80E991E091838083FE01EB59FF4F41
:103FB000808191810197F1F7FE01EB59FF4F9183C9
:103FC0008083DE01A959BF4FFE01E959FF4F80816F
:103FD0009181019711969C938E93FE01E959FF4FB1
:103FE000808191810097D1F627C08E0109591F4F1A
:103FF000FE01E759FF4F60817181828193810E94A8
:104000004900DC01CB01F80191838083DE01AD59C9
:10401000BF4FFE01E959FF4F808191818D939C93A1
:10402000FE01ED59FF4F808191810197F1F7FE016B
:10403000ED59FF4F9183808387E690E021E830E0DF
:10404000B9010E94FF23FE01E15AFF4F80E090E09A
:10405000AAEFB4E480839183A283B3838E01055ACF
:104060001F4FFE01E15AFF4F608171818281938170
:1040700020E030E04AE755E40E941F02DC01CB015A
:10408000F80180839183A283B383FE01E55AFF4F39
:10409000608171818281938120E030E040E85FE3BC
:1040A0000E942504882344F4FE01E75AFF4F81E073
:1040B00090E09183808364C0FE01E55AFF4F6081E8
:1040C00071818281938120E03FEF4FE757E40E94A6
:1040D000C50318160CF043C0FE01E15AFF4F608182
:1040E00071818281938120E030E040E251E40E94BE
:1040F0001F02DC01CB018E01075A1F4FBC01CD010D
:104100000E944900DC01CB01F801918380831FC02C
:10411000FE01E95AFF4F80E991E091838083FE011F
:10412000E95AFF4F808191810197F1F7FE01E95A29
:10413000FF4F91838083DE01A75ABF4FFE01E75AEC
:10414000FF4F80819181019711969C938E93FE0180
:10415000E75AFF4F808191810097D1F627C08E01E9
:10416000075A1F4FFE01E55AFF4F6081718182811E
:1041700093810E944900DC01CB01F8019183808387
:10418000DE01AB5ABF4FFE01E75AFF4F808191819C
:104190008D939C93FE01EB5AFF4F80819181019793
:1041A000F1F7FE01EB5AFF4F918380830E94BE2BF3
:1041B000FE01EF5AFF4F80E090E0A8E4B3E4808373
:1041C0009183A283B3838E01035B1F4FFE01EF5ADD
:1041D000FF4F608171818281938120E030E04AE766
:1041E00055E40E941F02DC01CB01F801808391831A
:1041F000A283B383FE01E35BFF4F60817181828103
:10420000938120E030E040E85FE30E9425048823AA
:1042100044F4FE01E55BFF4F81E090E091838083F1
:1042200064C0FE01E35BFF4F6081718182819381F5
:1042300020E03FEF4FE757E40E94C50318160CF04B
:1042400043C0FE01EF5AFF4F6081718182819381EB
:1042500020E030E040E251E40E941F02DC01CB018B
:104260008E01055B1F4FBC01CD010E944900DC019E
:10427000CB01F801918380831FC0FE01E75BFF4FF4
:1042800080E991E091838083FE01E75BFF4F8081AD
:1042900091810197F1F7FE01E75BFF4F91838083E6
:1042A000DE01A55BBF4FFE01E55BFF4F8081918181
:1042B000019711969C938E93FE01E55BFF4F8081E1
:1042C00091810097D1F627C08E01055B1F4FFE013B
:1042D000E35BFF4F60817181828193810E9449007D
:1042E000DC01CB01F80191838083DE01A95BBF4F24
:1042F000FE01E55BFF4F808191818D939C93FE01D0
:10430000E95BFF4F808191810197F1F7FE01E95B45
:10431000FF4F918380830E94542684E30E945D2A8C
:10432000FE01ED5BFF4F80E090E0AAE7B4E48083FC
:104330009183A283B3838E01015C1F4FFE01ED5B6D
:10434000FF4F608171818281938120E030E04AE7F4
:1043500055E40E941F02DC01CB01F80180839183A8
:10436000A283B383FE01FF96608171818281938174
:1043700020E030E040E85FE30E94250488232CF42D
:1043800081E090E09EAF8DAF46C0FE01FF96608158
:1043900071818281938120E03FEF4FE757E40E94D3
:1043A000C503181664F5FE01ED5BFF4F6081718156
:1043B0008281938120E030E040E251E40E941F02BC
:1043C000DC01CB01BC01CD010E944900DC01CB0125
:1043D0009EAF8DAF0FC080E991E09CAF8BAF8BADEE
:1043E0009CAD0197F1F79CAF8BAF8DAD9EAD019762
:1043F0009EAF8DAF8DAD9EAD009769F716C0FE01E3
:10440000FF9660817181828193810E944900DC0165
:10441000CB019EAF8DAF8DAD9EAD9AAF89AF89AD0B
:104420009AAD0197F1F79AAF89AF84EB90E00E94C3
:10443000C40780E090E8ABE3B5E48DAB9EABAFABD7
:10444000B8AF6DA97EA98FA998AD20E030E04AE70A
:1044500055E40E941F02DC01CB0189AB9AABABABE8
:10446000BCAB69A97AA98BA99CA920E030E040E8FF
:104470005FE30E94250488232CF481E090E098AB50
:104480008FA73FC069A97AA98BA99CA920E03FEF1B
:104490004FE757E40E94C50318164CF56DA97EA995
:1044A0008FA998AD20E030E040E251E40E941F0265
:1044B000DC01CB01BC01CD010E944900DC01CB0134
:1044C00098AB8FA70FC080E991E09EA78DA78DA51F
:1044D0009EA50197F1F79EA78DA78FA598A9019793
:1044E00098AB8FA78FA598A9009769F714C069A901
:1044F0007AA98BA99CA90E944900DC01CB0198AB49
:104500008FA78FA598A99CA78BA78BA59CA5019782
:10451000F1F79CA78BA787E690E02DED30E0B9017D
:104520000E94FF2380E090E8ABE3B5E48FA398A757
:10453000A9A7BAA76FA178A589A59AA520E030E020
:104540004AE755E40E941F02DC01CB018BA39CA328
:10455000ADA3BEA36BA17CA18DA19EA120E030E004
:1045600040E85FE30E94250488232CF481E090E07A
:104570009AA389A33FC06BA17CA18DA19EA120E03D
:104580003FEF4FE757E40E94C50318164CF56FA1A3
:1045900078A589A59AA520E030E040E251E40E9488
:1045A0001F02DC01CB01BC01CD010E944900DC01EE
:1045B000CB019AA389A30FC080E991E098A38F8FC4
:1045C0008F8D98A10197F1F798A38F8F89A19AA158
:1045D00001979AA389A389A19AA1009769F714C0AA
:1045E0006BA17CA18DA19EA10E944900DC01CB01A1
:1045F0009AA389A389A19AA19E8F8D8F8D8D9E8D5F
:104600000197F1F79E8F8D8F0E94BE2B80E090E086
:10461000A8E4B3E4898F9A8FAB8FBC8F698D7A8DB4
:104620008B8D9C8D20E030E04AE755E40E941F020C
:10463000DC01CB018D8B9E8BAF8BB88F6D897E8912
:104640008F89988D20E030E040E85FE30E942504E8
:1046500088232CF481E090E09C8B8B8B3FC06D898C
:104660007E898F89988D20E03FEF4FE757E40E94C5
:10467000C50318164CF5698D7A8D8B8D9C8D20E0C5
:1046800030E040E251E40E941F02DC01CB01BC019A
:10469000CD010E944900DC01CB019C8B8B8B0FC0AC
:1046A00080E991E09A8B898B89899A890197F1F742
:1046B0009A8B898B8B899C8901979C8B8B8B8B899F
:1046C0009C89009769F714C06D897E898F89988DC0
:1046D0000E944900DC01CB019C8B8B8B8B899C89D0
:1046E000988B8F878F8598890197F1F7988B8F87A3
:1046F0000E94542685E30E945D2A80E090E0AAE7AC
:10470000B4E48B879C87AD87BE876B857C858D8560
:104710009E8520E030E04AE755E40E941F02DC015C
:10472000CB018F839887A987BA876F817885898520
:104730009A8520E030E040E85FE30E94250488236A
:104740002CF481E090E09E838D833FC06F8178855B
:1047500089859A8520E03FEF4FE757E40E94C50323
:1047600018164CF56B857C858D859E8520E030E0A4
:1047700040E251E40E941F02DC01CB01BC01CD01EB
:104780000E944900DC01CB019E838D830FC080E92C
:1047900091E09C838B838B819C810197F1F79C83B3
:1047A0008B838D819E8101979E838D838D819E81D8
:1047B000009769F714C06F81788589859A850E9472
:1047C0004900DC01CB019E838D838D819E819A837C
:1047D000898389819A810197F1F79A83898380EF90
:1047E00090E00E946E2AC251DF4F0FB6F894DEBFF0
:1047F0000FBECDBFCF91DF911F910F910895DF9331
:10480000CF9300D000D00F92CDB7DEB79B838A83C1
:104810007D836C8319828FEC94E02A813B81B901FE
:104820000E94923689838981882F90E0009749F011
:1048300083E060E00E94EE2A8A819B810E946E2ABA
:1048400008C083E060E00E94EE2A8FEC94E00E94B2
:104850006E2A0F900F900F900F900F90CF91DF91D5
:104860000895DF93CF93CDB7DEB761970FB6F89475
:10487000DEBF0FBECDBF998B888B81E08F8785C04F
:104880008FEC94E028893989B9010E94923600970B
:1048900031F0888999890E946E2A1F8604C08FECA6
:1048A00094E00E946E2A80E090E0AAE7B4E48B874F
:1048B0009C87AD87BE876B857C858D859E8520E036
:1048C00030E04AE755E40E941F02DC01CB018F83F0
:1048D0009887A987BA876F81788589859A8520E02E
:1048E00030E040E85FE30E94250488232CF481E057
:1048F00090E09E838D833FC06F81788589859A85FE
:1049000020E03FEF4FE757E40E94C50318164CF52F
:104910006B857C858D859E8520E030E040E251E40A
:104920000E941F02DC01CB01BC01CD010E944900A5
:10493000DC01CB019E838D830FC080E991E09C83D5
:104940008B838B819C810197F1F79C838B838D8175
:104950009E8101979E838D838D819E81009769F74B
:1049600014C06F81788589859A850E944900DC0191
:10497000CB019E838D838D819E819A8389838981DA
:104980009A810197F1F79A8389838F85882309F0AB
:1049900077CF81E061960FB6F894DEBF0FBECDBF32
:1049A000CF91DF910895DF93CF9300D000D00F9285
:1049B000CDB7DEB78D8381E08C8385E090E09B836B
:1049C0008A83198213C08D81282F30E08FEC94E008
:1049D000B9010E947E36009721F01C8281E0898314
:1049E00005C08A819B8101979B838A838C81882360
:1049F00021F08A819B81009731F789810F900F9078
:104A00000F900F900F90CF91DF910895DF93CF9388
:104A1000CDB7DEB72F970FB6F894DEBF0FBECDBF70
:104A20008F878AEF90E00E94C40780E090E0AAEFB1
:104A3000B3E48B879C87AD87BE876B857C858D852E
:104A40009E8520E030E04AE755E40E941F02DC0129
:104A5000CB018F839887A987BA876F8178858985ED
:104A60009A8520E030E040E85FE30E942504882337
:104A70002CF481E090E09E838D833FC06F81788528
:104A800089859A8520E03FEF4FE757E40E94C503F0
:104A900018164CF56B857C858D859E8520E030E071
:104AA00040E251E40E941F02DC01CB01BC01CD01B8
:104AB0000E944900DC01CB019E838D830FC080E9F9
:104AC00091E09C838B838B819C810197F1F79C8380
:104AD0008B838D819E8101979E838D838D819E81A5
:104AE000009769F714C06F81788589859A850E943F
:104AF0004900DC01CB019E838D838D819E819A8349
:104B0000898389819A810197F1F79A83898387E65E
:104B100090E02AE031E0B9010E94FF238F85882FC1
:104B200090E00E94C4072F960FB6F894DEBF0FBE28
:104B3000CDBFCF91DF910895DF93CF93CDB7DEB78F
:104B4000A6970FB6F894DEBF0FBECDBF9EA38DA370
:104B50008DA19EA10E948936988B8F8700D000D0AE
:104B600000D0EDB7FEB73196CE0141969183808398
:104B700082E191E0938382838F85988995838483F2
:104B80000E94CD368DB79EB706960FB6F8949EBF9D
:104B90000FBE8DBFCE0141960E94C40780E090E019
:104BA000A8E4B2E48B879C87AD87BE876B857C8544
:104BB0008D859E8520E030E04AE755E40E941F0283
:104BC000DC01CB018F839887A987BA876F817885AD
:104BD00089859A8520E030E040E85FE30E94250463
:104BE00088232CF481E090E09E838D833FC06F8109
:104BF000788589859A8520E03FEF4FE757E40E944A
:104C0000C50318164CF56B857C858D859E8520E047
:104C100030E040E251E40E941F02DC01CB01BC0104
:104C2000CD010E944900DC01CB019E838D830FC022
:104C300080E991E09C838B838B819C810197F1F7C4
:104C40009C838B838D819E8101979E838D838D8133
:104C50009E81009769F714C06F81788589859A8550
:104C60000E944900DC01CB019E838D838D819E8152
:104C70009A83898389819A810197F1F79A8389833D
:104C800087E690E02AE031E0B9010E94FF238DA180
:104C90009EA10E94C407A6960FB6F894DEBF0FBE71
:104CA000CDBFCF91DF910895DF93CF9300D0CDB7E3
:104CB000DEB71A8219820CC089819A81FC01E15306
:104CC000FB4F89E3808389819A8101969A83898346
:104CD00089819A818D3391057CF31092CC041092D6
:104CE000CD041092CE040F900F90CF91DF910895D4
:104CF000DF93CF930F92CDB7DEB7ECE2F0E0808187
:104D000089838091CC04882F90E0FC01E153FB4F14
:104D1000898180838091CC048F5F8093CC048091C3
:104D2000CC048D3310F01092CC048091CE048F5FB0
:104D30008093CE048091CE048D3318F08CE3809361
:104D4000CE040F90CF91DF910895DF93CF9300D0E1
:104D500000D000D0CDB7DEB79C838B837E836D837C
:104D600019828B819C81009709F448C08D819E81B6
:104D7000009709F443C0EB81FC812081318142819D
:104D800053816481758186810E94F0158B819C819D
:104D90009E012E5F3F4FB9010E942D178A81882FF7
:104DA00090E0AA2797FDA095BA2FBC01CD010E94E3
:104DB0005504DC01CB01BC01CD0126EF38E24CE902
:104DC00050E40E941F02DC01CB01BC01CD0120E0B8
:104DD00030E040E251E40E941903DC01CB01BC0148
:104DE000CD010E944900DC01CB01ED81FE81808371
:104DF0009183A283B38381E0898302C083E08983A6
:104E0000898126960FB6F894DEBF0FBECDBFCF9135
:104E1000DF910895DF93CF9300D00F92CDB7DEB727
:104E200089838981282F30E03B832A838A819B8173
:104E300081309105F9F02A813B81223031052CF433
:104E40008A819B81009761F01EC02A813B812230BC
:104E5000310559F08A819B818330910581F013C01F
:104E60008BE161E00E94D2130EC08EE061E00E94EF
:104E7000D21309C08FE061E00E94D21304C080E128
:104E800061E00E94D2130F900F900F90CF91DF91AD
:104E90000895DF93CF9300D00F92CDB7DEB789830B
:104EA0008981282F30E03B832A838A819B8181304E
:104EB0009105F9F02A813B81223031052CF48A8159
:104EC0009B81009761F01EC02A813B812230310511
:104ED00059F08A819B818330910581F013C08BE169
:104EE00060E00E94D2130EC08EE060E00E94D213F8
:104EF00009C08FE060E00E94D21304C080E160E04E
:104F00000E94D2130F900F900F90CF91DF910895D0
:104F1000DF93CF9300D00F92CDB7DEB7898389811D
:104F2000282F30E03B832A838A819B818130910541
:104F3000C9F02A813B81223031052CF48A819B8182
:104F4000009761F01AC02A813B812230310571F04F
:104F50008A819B818330910569F00FC08BE10E94AB
:104F600064150BC08FE00E94641507C08EE00E949C
:104F7000641503C080E10E9464150F900F900F909C
:104F8000CF91DF910895DF93CF9300D0CDB7DEB7F7
:104F90009A83898389819A810E94B10982E00E9463
:104FA000F7090F900F90CF91DF910895DF93CF9382
:104FB00000D000D000D0CDB7DEB79C838B837E833A
:104FC0006D8319828D819E81009729F18B819C814F
:104FD000009709F1EB81FC8120813181428153816D
:104FE0006481758186810E94F0158B819C819E0170
:104FF0002E5F3F4FB9010E942D178A81882F90E0C4
:10500000A0E0B0E0ED81FE8180839183A283B38331
:1050100081E0898302C083E08983898126960FB667
:10502000F894DEBF0FBECDBFCF91DF910895DF931F
:10503000CF93CDB7DEB7E9970FB6F894DEBF0FBEBA
:10504000CDBF89AF89AD82958F70982F917084E123
:10505000692F0E94D21389AD829586958770982F0B
:10506000917085E1692F0E94D21389AD8295869552
:1050700086958370982F917086E1692F0E94D213D4
:1050800089AD982F991F9927991F88E1692F0E9450
:10509000D2138CE061E00E94D21380E090E0A0E89F
:1050A000BFE38DAB9EABAFABB8AF6DA97EA98FA9A7
:1050B00098AD20E030E04AE755E40E941F02DC0191
:1050C000CB0189AB9AABABABBCAB69A97AA98BA975
:1050D0009CA920E030E040E85FE30E94250488239B
:1050E0002CF481E090E098AB8FA73FC069A97AA922
:1050F0008BA99CA920E03FEF4FE757E40E94C5032E
:1051000018164CF56DA97EA98FA998AD20E030E066
:1051100040E251E40E941F02DC01CB01BC01CD0141
:105120000E944900DC01CB0198AB8FA70FC080E93A
:1051300091E09EA78DA78DA59EA50197F1F79EA74B
:105140008DA78FA598A9019798AB8FA78FA598A930
:10515000009769F714C069A97AA98BA99CA90E9434
:105160004900DC01CB0198AB8FA78FA598A99CA71C
:105170008BA78BA59CA50197F1F79CA78BA78CE02B
:1051800060E00E94D21380E090E0A0E4B0E48FA33E
:1051900098A7A9A7BAA76FA178A589A59AA520E085
:1051A00030E04AE755E40E941F02DC01CB018BA3EB
:1051B0009CA3ADA3BEA36BA17CA18DA19EA120E069
:1051C00030E040E85FE30E94250488232CF481E06E
:1051D00090E09AA389A33FC06BA17CA18DA19EA161
:1051E00020E03FEF4FE757E40E94C50318164CF547
:1051F0006FA178A589A59AA520E030E040E251E4AE
:105200000E941F02DC01CB01BC01CD010E944900BC
:10521000DC01CB019AA389A30FC080E991E098A398
:105220008F8F8F8D98A10197F1F798A38F8F89A108
:105230009AA101979AA389A389A19AA1009769F7D6
:1052400014C06BA17CA18DA19EA10E944900DC012C
:10525000CB019AA389A389A19AA19E8F8D8F8D8D51
:105260009E8D0197F1F79E8F8D8F89AD982F91704C
:1052700084E1692F0E94D21389AD8695982F917091
:1052800085E1692F0E94D21389AD86958695982F66
:10529000917086E1692F0E94D21389AD869586951B
:1052A0008695982F917088E1692F0E94D2138CE027
:1052B00061E00E94D21380E090E0A0E8BFE3898F14
:1052C0009A8FAB8FBC8F698D7A8D8B8D9C8D20E0F2
:1052D00030E04AE755E40E941F02DC01CB018D8BD0
:1052E0009E8BAF8BB88F6D897E898F89988D20E0DA
:1052F00030E040E85FE30E94250488232CF481E03D
:1053000090E09C8B8B8B3FC06D897E898F89988DB7
:1053100020E03FEF4FE757E40E94C50318164CF515
:10532000698D7A8D8B8D9C8D20E030E040E251E4D8
:105330000E941F02DC01CB01BC01CD010E9449008B
:10534000DC01CB019C8B8B8B0FC080E991E09A8BA9
:10535000898B89899A890197F1F79A8B898B8B8937
:105360009C8901979C8B8B8B8B899C89009769F713
:1053700014C06D897E898F89988D0E944900DC0157
:10538000CB019C8B8B8B8B899C89988B8F878F858E
:1053900098890197F1F7988B8F878CE060E00E94E5
:1053A000D21380E090E0A0E4B0E48B879C87AD87C7
:1053B000BE876B857C858D859E8520E030E04AE741
:1053C00055E40E941F02DC01CB018F839887A987D7
:1053D000BA876F81788589859A8520E030E040E83A
:1053E0005FE30E94250488232CF481E090E09E83F3
:1053F0008D833FC06F81788589859A8520E03FEF56
:105400004FE757E40E94C50318164CF56B857C8561
:105410008D859E8520E030E040E251E40E941F022D
:10542000DC01CB01BC01CD010E944900DC01CB01B4
:105430009E838D830FC080E991E09C838B838B8159
:105440009C810197F1F79C838B838D819E810197CD
:105450009E838D838D819E81009769F714C06F8133
:10546000788589859A850E944900DC01CB019E835D
:105470008D838D819E819A83898389819A81019709
:10548000F1F79A838983E9960FB6F894DEBF0FBED1
:10549000CDBFCF91DF910895DF93CF930F92CDB71A
:1054A000DEB789838DE060E00E94D21389810E947B
:1054B00017280F90CF91DF910895DF93CF930F922C
:1054C000CDB7DEB789838DE061E00E94D213898178
:1054D0000E9417280F90CF91DF910895DF93CF930B
:1054E00000D000D0CDB7DEB79C838B831A8219829F
:1054F0000FC029813A818B819C81FC01E20FF31F4F
:1055000080810E945D2A89819A8101969A8389838C
:1055100029813A818B819C81FC01E20FF31F8081FC
:10552000882339F70F900F900F900F90CF91DF9154
:105530000895DF93CF93CDB7DEB7AC970FB6F8944D
:10554000DEBF0FBECDBF69A77AA78BA79CA789A591
:105550009AA5ABA5BCA5181619061A061B067CF45D
:1055600089A59AA59E012F5F3F4FB9014AE050E0FF
:105570000E94AC36CE0101960E946E2A26C089A5F3
:105580009AA5ABA5BCA5BB2304F58DE20E945D2ABC
:1055900089A59AA5ABA5BCA5B095A0959095819538
:1055A0009F4FAF4FBF4F89A79AA7ABA7BCA789A5AD
:1055B0009AA59E012F5F3F4FB9014AE050E00E943B
:1055C000AC36CE0101960E946E2AAC960FB6F894C6
:1055D000DEBF0FBECDBFCF91DF910895DF93CF9394
:1055E000CDB7DEB72C970FB6F894DEBF0FBECDBF98
:1055F00089876A878985282F30E03C872B878B85B0
:105600009C858230910571F12B853C8523303105D5
:1056100034F48B859C858130910569F067C02B85BA
:105620003C8523303105A9F18B859C85843091051B
:1056300009F446C05BC080E80E944C2A18861F828D
:1056400008C084E10E944C2A8F8198850196988732
:105650008F838A85282F30E08F8198858217930762
:1056600084F344C080EC0E944C2A1E821D8208C034
:1056700084E10E944C2A8D819E8101969E838D83B8
:105680008A85282F30E08D819E818217930784F3CD
:105690002DC084E90E944C2A1C821B8208C084E130
:1056A0000E944C2A8B819C8101969C838B838A85E6
:1056B000282F30E08B819C818217930784F316C0DA
:1056C00084ED0E944C2A1A82198208C084E10E944B
:1056D0004C2A89819A8101969A8389838A85282F09
:1056E00030E089819A818217930784F32C960FB654
:1056F000F894DEBF0FBECDBFCF91DF910895DF9349
:10570000CF9300D000D0CDB7DEB79B838A836C8364
:105710008C818830F8F48C81882F90E00896880F6F
:10572000991F880F991F880F991F0E944C2A198270
:105730000EC08981282F30E08A819B81FC01E20F15
:10574000F31F80810E945D2A89818F5F898389810F
:10575000883078F30F900F900F900F90CF91DF91DA
:105760000895DF93CF930F92CDB7DEB789838981F8
:105770000E945D2A0F90CF91DF910895DF93CF9320
:10578000CDB7DEB781E00E944C2A80E80E944C2A07
:10579000CF91DF910895DF93CF93CDB7DEB72E97EA
:1057A0000FB6F894DEBF0FBECDBF80E090E0A0E260
:1057B000B2E48B879C87AD87BE876B857C858D85A2
:1057C0009E8520E030E04AE755E40E941F02DC019C
:1057D000CB018F839887A987BA876F817885898560
:1057E0009A8520E030E040E85FE30E9425048823AA
:1057F0002CF481E090E09E838D833FC06F8178859B
:1058000089859A8520E03FEF4FE757E40E94C50362
:1058100018164CF56B857C858D859E8520E030E0E3
:1058200040E251E40E941F02DC01CB01BC01CD012A
:105830000E944900DC01CB019E838D830FC080E96B
:1058400091E09C838B838B819C810197F1F79C83F2
:105850008B838D819E8101979E838D838D819E8117
:10586000009769F714C06F81788589859A850E94B1
:105870004900DC01CB019E838D838D819E819A83BB
:10588000898389819A810197F1F79A83898383E3D8
:105890000E944C2A82E30E944C2A88E20E944C2AF1
:1058A0008FE00E944C2A86E00E944C2A81E00E94F0
:1058B0004C2A2E960FB6F894DEBF0FBECDBFCF9107
:1058C000DF910895DF93CF9300D0CDB7DEB7898302
:1058D0006A8360EF7CE380E090E04A8120E20E94EE
:1058E000C80D8AE161E00E94D21389E169810E94BA
:1058F000D2130F900F90CF91DF910895DF93CF9344
:10590000CDB7DEB78AE160E00E94D213CF91DF917C
:105910000895DF93CF93CDB7DEB78AE70E94D324F3
:10592000882319F08AE780937A0681E60E94D324BF
:10593000882319F081E680936C0682E60E94D324C6
:10594000882319F082E680936C0683E60E94D324B4
:10595000882319F083E680936C0684E60E94D324A2
:10596000882319F084E680936C0685E60E94D32490
:10597000882319F085E68093820686E60E94D32468
:10598000882319F086E68093820687E60E94D32456
:10599000882319F087E6809383060E945426CF91CE
:1059A000DF910895DF93CF93CDB7DEB764970FB63D
:1059B000F894DEBF0FBECDBF80918306873679F5A0
:1059C00020917206309173064091740650917506CD
:1059D0008DB79EB708970FB6F8949EBF0FBE8DBFC8
:1059E000EDB7FEB73196CE0101969183808382E2B6
:1059F00091E09383828324833583468357830E9477
:105A0000CD368DB79EB708960FB6F8949EBF0FBEE1
:105A10008DBFCE0101960E949C251092830664964C
:105A20000FB6F894DEBF0FBECDBFCF91DF910895C2
:105A3000DF93CF93CDB7DEB786E391E00E949C253C
:105A4000CF91DF910895DF93CF9300D0CDB7DEB72C
:105A500090917B0680916C06981709F44CC0809158
:105A60006C06282F30E03A83298389819A81823617
:105A7000910511F129813A812336310534F4898168
:105A80009A818136910561F036C029813A812336A9
:105A90003105F1F089819A818436910529F12BC075
:105AA00081E060E00E94622C81E680937B068BECB3
:105AB00091E00E949C251FC081E060E50E94622C5D
:105AC00082E680937B068CED91E00E949C2513C0BA
:105AD00081E062E30E94622C83E680937B0689EF7B
